{
	"contracts/gOHM.sol": {
		"gOHM": {
			"abi": [
				{
					"inputs": [
						{
							"internalType": "address",
							"name": "_migrator",
							"type": "address"
						},
						{
							"internalType": "address",
							"name": "_sOHM",
							"type": "address"
						}
					],
					"stateMutability": "nonpayable",
					"type": "constructor"
				},
				{
					"anonymous": false,
					"inputs": [
						{
							"indexed": true,
							"internalType": "address",
							"name": "owner",
							"type": "address"
						},
						{
							"indexed": true,
							"internalType": "address",
							"name": "spender",
							"type": "address"
						},
						{
							"indexed": false,
							"internalType": "uint256",
							"name": "value",
							"type": "uint256"
						}
					],
					"name": "Approval",
					"type": "event"
				},
				{
					"anonymous": false,
					"inputs": [
						{
							"indexed": true,
							"internalType": "address",
							"name": "delegator",
							"type": "address"
						},
						{
							"indexed": true,
							"internalType": "address",
							"name": "fromDelegate",
							"type": "address"
						},
						{
							"indexed": true,
							"internalType": "address",
							"name": "toDelegate",
							"type": "address"
						}
					],
					"name": "DelegateChanged",
					"type": "event"
				},
				{
					"anonymous": false,
					"inputs": [
						{
							"indexed": true,
							"internalType": "address",
							"name": "delegate",
							"type": "address"
						},
						{
							"indexed": false,
							"internalType": "uint256",
							"name": "previousBalance",
							"type": "uint256"
						},
						{
							"indexed": false,
							"internalType": "uint256",
							"name": "newBalance",
							"type": "uint256"
						}
					],
					"name": "DelegateVotesChanged",
					"type": "event"
				},
				{
					"anonymous": false,
					"inputs": [
						{
							"indexed": true,
							"internalType": "address",
							"name": "from",
							"type": "address"
						},
						{
							"indexed": true,
							"internalType": "address",
							"name": "to",
							"type": "address"
						},
						{
							"indexed": false,
							"internalType": "uint256",
							"name": "value",
							"type": "uint256"
						}
					],
					"name": "Transfer",
					"type": "event"
				},
				{
					"inputs": [
						{
							"internalType": "address",
							"name": "account",
							"type": "address"
						},
						{
							"internalType": "uint256",
							"name": "_votes",
							"type": "uint256"
						}
					],
					"name": "Votes",
					"outputs": [],
					"stateMutability": "nonpayable",
					"type": "function"
				},
				{
					"inputs": [
						{
							"internalType": "address",
							"name": "delegator",
							"type": "address"
						},
						{
							"internalType": "address",
							"name": "delegatee",
							"type": "address"
						}
					],
					"name": "_delegate",
					"outputs": [],
					"stateMutability": "nonpayable",
					"type": "function"
				},
				{
					"inputs": [
						{
							"internalType": "address",
							"name": "srcRep",
							"type": "address"
						},
						{
							"internalType": "address",
							"name": "dstRep",
							"type": "address"
						},
						{
							"internalType": "uint256",
							"name": "amount",
							"type": "uint256"
						}
					],
					"name": "_moveDelegates",
					"outputs": [],
					"stateMutability": "nonpayable",
					"type": "function"
				},
				{
					"inputs": [
						{
							"internalType": "address",
							"name": "delegatee",
							"type": "address"
						},
						{
							"internalType": "uint256",
							"name": "nCheckpoints",
							"type": "uint256"
						},
						{
							"internalType": "uint256",
							"name": "oldVotes",
							"type": "uint256"
						},
						{
							"internalType": "uint256",
							"name": "newVotes",
							"type": "uint256"
						}
					],
					"name": "_writeCheckpoint",
					"outputs": [],
					"stateMutability": "nonpayable",
					"type": "function"
				},
				{
					"inputs": [
						{
							"internalType": "address",
							"name": "owner",
							"type": "address"
						},
						{
							"internalType": "address",
							"name": "spender",
							"type": "address"
						}
					],
					"name": "allowance",
					"outputs": [
						{
							"internalType": "uint256",
							"name": "",
							"type": "uint256"
						}
					],
					"stateMutability": "view",
					"type": "function"
				},
				{
					"inputs": [
						{
							"internalType": "address",
							"name": "spender",
							"type": "address"
						},
						{
							"internalType": "uint256",
							"name": "amount",
							"type": "uint256"
						}
					],
					"name": "approve",
					"outputs": [
						{
							"internalType": "bool",
							"name": "",
							"type": "bool"
						}
					],
					"stateMutability": "nonpayable",
					"type": "function"
				},
				{
					"inputs": [],
					"name": "approved",
					"outputs": [
						{
							"internalType": "address",
							"name": "",
							"type": "address"
						}
					],
					"stateMutability": "view",
					"type": "function"
				},
				{
					"inputs": [
						{
							"internalType": "uint256",
							"name": "_amount",
							"type": "uint256"
						}
					],
					"name": "balanceFrom",
					"outputs": [
						{
							"internalType": "uint256",
							"name": "",
							"type": "uint256"
						}
					],
					"stateMutability": "view",
					"type": "function"
				},
				{
					"inputs": [
						{
							"internalType": "address",
							"name": "account",
							"type": "address"
						}
					],
					"name": "balanceOf",
					"outputs": [
						{
							"internalType": "uint256",
							"name": "",
							"type": "uint256"
						}
					],
					"stateMutability": "view",
					"type": "function"
				},
				{
					"inputs": [
						{
							"internalType": "uint256",
							"name": "_amount",
							"type": "uint256"
						}
					],
					"name": "balanceTo",
					"outputs": [
						{
							"internalType": "uint256",
							"name": "",
							"type": "uint256"
						}
					],
					"stateMutability": "view",
					"type": "function"
				},
				{
					"inputs": [
						{
							"internalType": "address",
							"name": "_from",
							"type": "address"
						},
						{
							"internalType": "uint256",
							"name": "_amount",
							"type": "uint256"
						}
					],
					"name": "burn",
					"outputs": [],
					"stateMutability": "nonpayable",
					"type": "function"
				},
				{
					"inputs": [
						{
							"internalType": "address",
							"name": "",
							"type": "address"
						},
						{
							"internalType": "uint256",
							"name": "",
							"type": "uint256"
						}
					],
					"name": "checkpoints",
					"outputs": [
						{
							"internalType": "uint256",
							"name": "fromBlock",
							"type": "uint256"
						},
						{
							"internalType": "uint256",
							"name": "votes",
							"type": "uint256"
						}
					],
					"stateMutability": "view",
					"type": "function"
				},
				{
					"inputs": [],
					"name": "decimals",
					"outputs": [
						{
							"internalType": "uint8",
							"name": "",
							"type": "uint8"
						}
					],
					"stateMutability": "view",
					"type": "function"
				},
				{
					"inputs": [
						{
							"internalType": "address",
							"name": "spender",
							"type": "address"
						},
						{
							"internalType": "uint256",
							"name": "subtractedValue",
							"type": "uint256"
						}
					],
					"name": "decreaseAllowance",
					"outputs": [
						{
							"internalType": "bool",
							"name": "",
							"type": "bool"
						}
					],
					"stateMutability": "nonpayable",
					"type": "function"
				},
				{
					"inputs": [
						{
							"internalType": "address",
							"name": "delegatee",
							"type": "address"
						}
					],
					"name": "delegate",
					"outputs": [],
					"stateMutability": "nonpayable",
					"type": "function"
				},
				{
					"inputs": [
						{
							"internalType": "address",
							"name": "",
							"type": "address"
						}
					],
					"name": "delegates",
					"outputs": [
						{
							"internalType": "address",
							"name": "",
							"type": "address"
						}
					],
					"stateMutability": "view",
					"type": "function"
				},
				{
					"inputs": [
						{
							"internalType": "address",
							"name": "account",
							"type": "address"
						}
					],
					"name": "getCurrentVotes",
					"outputs": [
						{
							"internalType": "uint256",
							"name": "",
							"type": "uint256"
						}
					],
					"stateMutability": "view",
					"type": "function"
				},
				{
					"inputs": [
						{
							"internalType": "address",
							"name": "account",
							"type": "address"
						},
						{
							"internalType": "uint256",
							"name": "blockNumber",
							"type": "uint256"
						}
					],
					"name": "getPriorVotes",
					"outputs": [
						{
							"internalType": "uint256",
							"name": "",
							"type": "uint256"
						}
					],
					"stateMutability": "view",
					"type": "function"
				},
				{
					"inputs": [
						{
							"internalType": "address",
							"name": "spender",
							"type": "address"
						},
						{
							"internalType": "uint256",
							"name": "addedValue",
							"type": "uint256"
						}
					],
					"name": "increaseAllowance",
					"outputs": [
						{
							"internalType": "bool",
							"name": "",
							"type": "bool"
						}
					],
					"stateMutability": "nonpayable",
					"type": "function"
				},
				{
					"inputs": [],
					"name": "index",
					"outputs": [
						{
							"internalType": "uint256",
							"name": "",
							"type": "uint256"
						}
					],
					"stateMutability": "view",
					"type": "function"
				},
				{
					"inputs": [
						{
							"internalType": "address",
							"name": "_staking",
							"type": "address"
						},
						{
							"internalType": "address",
							"name": "_sOHM",
							"type": "address"
						}
					],
					"name": "migrate",
					"outputs": [],
					"stateMutability": "nonpayable",
					"type": "function"
				},
				{
					"inputs": [],
					"name": "migrated",
					"outputs": [
						{
							"internalType": "bool",
							"name": "",
							"type": "bool"
						}
					],
					"stateMutability": "view",
					"type": "function"
				},
				{
					"inputs": [
						{
							"internalType": "address",
							"name": "_to",
							"type": "address"
						},
						{
							"internalType": "uint256",
							"name": "_amount",
							"type": "uint256"
						}
					],
					"name": "mint",
					"outputs": [],
					"stateMutability": "nonpayable",
					"type": "function"
				},
				{
					"inputs": [],
					"name": "name",
					"outputs": [
						{
							"internalType": "string",
							"name": "",
							"type": "string"
						}
					],
					"stateMutability": "view",
					"type": "function"
				},
				{
					"inputs": [
						{
							"internalType": "address",
							"name": "",
							"type": "address"
						}
					],
					"name": "numCheckpoints",
					"outputs": [
						{
							"internalType": "uint256",
							"name": "",
							"type": "uint256"
						}
					],
					"stateMutability": "view",
					"type": "function"
				},
				{
					"inputs": [],
					"name": "sOHM",
					"outputs": [
						{
							"internalType": "contract IsOHM",
							"name": "",
							"type": "address"
						}
					],
					"stateMutability": "view",
					"type": "function"
				},
				{
					"inputs": [],
					"name": "symbol",
					"outputs": [
						{
							"internalType": "string",
							"name": "",
							"type": "string"
						}
					],
					"stateMutability": "view",
					"type": "function"
				},
				{
					"inputs": [],
					"name": "totalSupply",
					"outputs": [
						{
							"internalType": "uint256",
							"name": "",
							"type": "uint256"
						}
					],
					"stateMutability": "view",
					"type": "function"
				},
				{
					"inputs": [
						{
							"internalType": "address",
							"name": "recipient",
							"type": "address"
						},
						{
							"internalType": "uint256",
							"name": "amount",
							"type": "uint256"
						}
					],
					"name": "transfer",
					"outputs": [
						{
							"internalType": "bool",
							"name": "",
							"type": "bool"
						}
					],
					"stateMutability": "nonpayable",
					"type": "function"
				},
				{
					"inputs": [
						{
							"internalType": "address",
							"name": "sender",
							"type": "address"
						},
						{
							"internalType": "address",
							"name": "recipient",
							"type": "address"
						},
						{
							"internalType": "uint256",
							"name": "amount",
							"type": "uint256"
						}
					],
					"name": "transferFrom",
					"outputs": [
						{
							"internalType": "bool",
							"name": "",
							"type": "bool"
						}
					],
					"stateMutability": "nonpayable",
					"type": "function"
				}
			],
			"devdoc": {
				"kind": "dev",
				"methods": {
					"allowance(address,address)": {
						"details": "See {IERC20-allowance}."
					},
					"approve(address,uint256)": {
						"details": "See {IERC20-approve}. Requirements: - `spender` cannot be the zero address."
					},
					"balanceFrom(uint256)": {
						"params": {
							"_amount": "uint"
						},
						"returns": {
							"_0": "uint"
						}
					},
					"balanceOf(address)": {
						"details": "See {IERC20-balanceOf}."
					},
					"balanceTo(uint256)": {
						"params": {
							"_amount": "uint"
						},
						"returns": {
							"_0": "uint"
						}
					},
					"burn(address,uint256)": {
						"params": {
							"_amount": "uint",
							"_from": "address"
						}
					},
					"decimals()": {
						"details": "Returns the number of decimals used to get its user representation. For example, if `decimals` equals `2`, a balance of `505` tokens should be displayed to a user as `5,05` (`505 / 10 ** 2`). Tokens usually opt for a value of 18, imitating the relationship between Ether and Wei. This is the value {ERC20} uses, unless {_setupDecimals} is called. NOTE: This information is only used for _display_ purposes: it in no way affects any of the arithmetic of the contract, including {IERC20-balanceOf} and {IERC20-transfer}."
					},
					"decreaseAllowance(address,uint256)": {
						"details": "Atomically decreases the allowance granted to `spender` by the caller. This is an alternative to {approve} that can be used as a mitigation for problems described in {IERC20-approve}. Emits an {Approval} event indicating the updated allowance. Requirements: - `spender` cannot be the zero address. - `spender` must have allowance for the caller of at least `subtractedValue`."
					},
					"delegate(address)": {
						"params": {
							"delegatee": "The address to delegate votes to"
						}
					},
					"getCurrentVotes(address)": {
						"params": {
							"account": "The address to get votes balance"
						},
						"returns": {
							"_0": "The number of current votes for `account`"
						}
					},
					"getPriorVotes(address,uint256)": {
						"details": "Block number must be a finalized block or else this function will revert to prevent misinformation.",
						"params": {
							"account": "The address of the account to check",
							"blockNumber": "The block number to get the vote balance at"
						},
						"returns": {
							"_0": "The number of votes the account had as of the given block"
						}
					},
					"increaseAllowance(address,uint256)": {
						"details": "Atomically increases the allowance granted to `spender` by the caller. This is an alternative to {approve} that can be used as a mitigation for problems described in {IERC20-approve}. Emits an {Approval} event indicating the updated allowance. Requirements: - `spender` cannot be the zero address."
					},
					"migrate(address,address)": {
						"params": {
							"_sOHM": "address",
							"_staking": "address"
						}
					},
					"mint(address,uint256)": {
						"params": {
							"_amount": "uint",
							"_to": "address"
						}
					},
					"name()": {
						"details": "Returns the name of the token."
					},
					"symbol()": {
						"details": "Returns the symbol of the token, usually a shorter version of the name."
					},
					"totalSupply()": {
						"details": "See {IERC20-totalSupply}."
					},
					"transfer(address,uint256)": {
						"details": "See {IERC20-transfer}. Requirements: - `recipient` cannot be the zero address. - the caller must have a balance of at least `amount`."
					},
					"transferFrom(address,address,uint256)": {
						"details": "See {IERC20-transferFrom}. Emits an {Approval} event indicating the updated allowance. This is not required by the EIP. See the note at the beginning of {ERC20}. Requirements: - `sender` and `recipient` cannot be the zero address. - `sender` must have a balance of at least `amount`. - the caller must have allowance for ``sender``'s tokens of at least `amount`."
					}
				},
				"version": 1
			},
			"evm": {
				"assembly": "    /* \"contracts/gOHM.sol\":300:8241  contract gOHM is IgOHM, ERC20 {... */\n  mstore(0x40, 0x80)\n    /* \"contracts/gOHM.sol\":1422:1710  constructor(address _migrator, address _sOHM)... */\n  callvalue\n  dup1\n  iszero\n  tag_1\n  jumpi\n  0x00\n  dup1\n  revert\ntag_1:\n  pop\n  mload(0x40)\n  sub(codesize, bytecodeSize)\n  dup1\n  bytecodeSize\n  dup4\n  codecopy\n  dup2\n  dup2\n  add\n  0x40\n  mstore\n  0x40\n  dup2\n  lt\n  iszero\n  tag_2\n  jumpi\n  0x00\n  dup1\n  revert\ntag_2:\n  dup2\n  add\n  swap1\n  dup1\n  dup1\n  mload\n  swap1\n  0x20\n  add\n  swap1\n  swap3\n  swap2\n  swap1\n  dup1\n  mload\n  swap1\n  0x20\n  add\n  swap1\n  swap3\n  swap2\n  swap1\n  pop\n  pop\n  pop\n    /* \"contracts/types/ERC20.sol\":1058:1206  constructor (string memory name_, string memory symbol_, uint8 decimals_) {... */\n  mload(0x40)\n  dup1\n  0x40\n  add\n  0x40\n  mstore\n  dup1\n  0x0e\n  dup2\n  mstore\n  0x20\n  add\n  0x476f7665726e616e6365204f484d000000000000000000000000000000000000\n  dup2\n  mstore\n  pop\n  mload(0x40)\n  dup1\n  0x40\n  add\n  0x40\n  mstore\n  dup1\n  0x04\n  dup2\n  mstore\n  0x20\n  add\n  0x674f484d00000000000000000000000000000000000000000000000000000000\n  dup2\n  mstore\n  pop\n    /* \"contracts/gOHM.sol\":1508:1510  18 */\n  0x12\n    /* \"contracts/types/ERC20.sol\":1146:1151  name_ */\n  dup3\n    /* \"contracts/types/ERC20.sol\":1138:1143  _name */\n  0x03\n    /* \"contracts/types/ERC20.sol\":1138:1151  _name = name_ */\n  swap1\n  dup1\n  mload\n  swap1\n  0x20\n  add\n  swap1\n  tag_6\n  swap3\n  swap2\n  swap1\n  tag_7\n  jump\t// in\ntag_6:\n  pop\n    /* \"contracts/types/ERC20.sol\":1167:1174  symbol_ */\n  dup2\n    /* \"contracts/types/ERC20.sol\":1157:1164  _symbol */\n  0x04\n    /* \"contracts/types/ERC20.sol\":1157:1174  _symbol = symbol_ */\n  swap1\n  dup1\n  mload\n  swap1\n  0x20\n  add\n  swap1\n  tag_8\n  swap3\n  swap2\n  swap1\n  tag_7\n  jump\t// in\ntag_8:\n  pop\n    /* \"contracts/types/ERC20.sol\":1192:1201  decimals_ */\n  dup1\n    /* \"contracts/types/ERC20.sol\":1180:1189  _decimals */\n  0x05\n  0x00\n    /* \"contracts/types/ERC20.sol\":1180:1201  _decimals = decimals_ */\n  0x0100\n  exp\n  dup2\n  sload\n  dup2\n  0xff\n  mul\n  not\n  and\n  swap1\n  dup4\n  0xff\n  and\n  mul\n  or\n  swap1\n  sstore\n  pop\n    /* \"contracts/types/ERC20.sol\":1058:1206  constructor (string memory name_, string memory symbol_, uint8 decimals_) {... */\n  pop\n  pop\n  pop\n    /* \"contracts/gOHM.sol\":1555:1556  0 */\n  0x00\n    /* \"contracts/gOHM.sol\":1534:1557  _migrator != address(0) */\n  0xffffffffffffffffffffffffffffffffffffffff\n  and\n    /* \"contracts/gOHM.sol\":1534:1543  _migrator */\n  dup3\n    /* \"contracts/gOHM.sol\":1534:1557  _migrator != address(0) */\n  0xffffffffffffffffffffffffffffffffffffffff\n  and\n  eq\n  iszero\n    /* \"contracts/gOHM.sol\":1526:1584  require(_migrator != address(0), \"Zero address: Migrator\") */\n  tag_10\n  jumpi\n  mload(0x40)\n  0x08c379a000000000000000000000000000000000000000000000000000000000\n  dup2\n  mstore\n  0x04\n  add\n  dup1\n  dup1\n  0x20\n  add\n  dup3\n  dup2\n  sub\n  dup3\n  mstore\n  0x16\n  dup2\n  mstore\n  0x20\n  add\n  dup1\n  0x5a65726f20616464726573733a204d69677261746f7200000000000000000000\n  dup2\n  mstore\n  pop\n  0x20\n  add\n  swap2\n  pop\n  pop\n  mload(0x40)\n  dup1\n  swap2\n  sub\n  swap1\n  revert\ntag_10:\n    /* \"contracts/gOHM.sol\":1605:1614  _migrator */\n  dup2\n    /* \"contracts/gOHM.sol\":1594:1602  approved */\n  0x06\n  0x00\n    /* \"contracts/gOHM.sol\":1594:1614  approved = _migrator */\n  0x0100\n  exp\n  dup2\n  sload\n  dup2\n  0xffffffffffffffffffffffffffffffffffffffff\n  mul\n  not\n  and\n  swap1\n  dup4\n  0xffffffffffffffffffffffffffffffffffffffff\n  and\n  mul\n  or\n  swap1\n  sstore\n  pop\n    /* \"contracts/gOHM.sol\":1649:1650  0 */\n  0x00\n    /* \"contracts/gOHM.sol\":1632:1651  _sOHM != address(0) */\n  0xffffffffffffffffffffffffffffffffffffffff\n  and\n    /* \"contracts/gOHM.sol\":1632:1637  _sOHM */\n  dup2\n    /* \"contracts/gOHM.sol\":1632:1651  _sOHM != address(0) */\n  0xffffffffffffffffffffffffffffffffffffffff\n  and\n  eq\n  iszero\n    /* \"contracts/gOHM.sol\":1624:1674  require(_sOHM != address(0), \"Zero address: sOHM\") */\n  tag_11\n  jumpi\n  mload(0x40)\n  0x08c379a000000000000000000000000000000000000000000000000000000000\n  dup2\n  mstore\n  0x04\n  add\n  dup1\n  dup1\n  0x20\n  add\n  dup3\n  dup2\n  sub\n  dup3\n  mstore\n  0x12\n  dup2\n  mstore\n  0x20\n  add\n  dup1\n  0x5a65726f20616464726573733a20734f484d0000000000000000000000000000\n  dup2\n  mstore\n  pop\n  0x20\n  add\n  swap2\n  pop\n  pop\n  mload(0x40)\n  dup1\n  swap2\n  sub\n  swap1\n  revert\ntag_11:\n    /* \"contracts/gOHM.sol\":1697:1702  _sOHM */\n  dup1\n    /* \"contracts/gOHM.sol\":1684:1688  sOHM */\n  0x05\n  0x01\n    /* \"contracts/gOHM.sol\":1684:1703  sOHM = IsOHM(_sOHM) */\n  0x0100\n  exp\n  dup2\n  sload\n  dup2\n  0xffffffffffffffffffffffffffffffffffffffff\n  mul\n  not\n  and\n  swap1\n  dup4\n  0xffffffffffffffffffffffffffffffffffffffff\n  and\n  mul\n  or\n  swap1\n  sstore\n  pop\n    /* \"contracts/gOHM.sol\":1422:1710  constructor(address _migrator, address _sOHM)... */\n  pop\n  pop\n    /* \"contracts/gOHM.sol\":300:8241  contract gOHM is IgOHM, ERC20 {... */\n  jump(tag_12)\ntag_7:\n  dup3\n  dup1\n  sload\n  0x01\n  dup2\n  0x01\n  and\n  iszero\n  0x0100\n  mul\n  sub\n  and\n  0x02\n  swap1\n  div\n  swap1\n  0x00\n  mstore\n  keccak256(0x00, 0x20)\n  swap1\n  0x1f\n  add\n  0x20\n  swap1\n  div\n  dup2\n  add\n  swap3\n  dup3\n  tag_14\n  jumpi\n  0x00\n  dup6\n  sstore\n  jump(tag_13)\ntag_14:\n  dup3\n  0x1f\n  lt\n  tag_15\n  jumpi\n  dup1\n  mload\n  not(0xff)\n  and\n  dup4\n  dup1\n  add\n  or\n  dup6\n  sstore\n  jump(tag_13)\ntag_15:\n  dup3\n  dup1\n  add\n  0x01\n  add\n  dup6\n  sstore\n  dup3\n  iszero\n  tag_13\n  jumpi\n  swap2\n  dup3\n  add\ntag_16:\n  dup3\n  dup2\n  gt\n  iszero\n  tag_17\n  jumpi\n  dup3\n  mload\n  dup3\n  sstore\n  swap2\n  0x20\n  add\n  swap2\n  swap1\n  0x01\n  add\n  swap1\n  jump(tag_16)\ntag_17:\ntag_13:\n  pop\n  swap1\n  pop\n  tag_18\n  swap2\n  swap1\n  tag_19\n  jump\t// in\ntag_18:\n  pop\n  swap1\n  jump\t// out\ntag_19:\ntag_20:\n  dup1\n  dup3\n  gt\n  iszero\n  tag_21\n  jumpi\n  0x00\n  dup2\n  0x00\n  swap1\n  sstore\n  pop\n  0x01\n  add\n  jump(tag_20)\ntag_21:\n  pop\n  swap1\n  jump\t// out\ntag_12:\n  dataSize(sub_0)\n  dup1\n  dataOffset(sub_0)\n  0x00\n  codecopy\n  0x00\n  return\nstop\n\nsub_0: assembly {\n        /* \"contracts/gOHM.sol\":300:8241  contract gOHM is IgOHM, ERC20 {... */\n      mstore(0x40, 0x80)\n      callvalue\n      dup1\n      iszero\n      tag_1\n      jumpi\n      0x00\n      dup1\n      revert\n    tag_1:\n      pop\n      jumpi(tag_2, lt(calldatasize, 0x04))\n      shr(0xe0, calldataload(0x00))\n      dup1\n      0x66a5236c\n      gt\n      tag_33\n      jumpi\n      dup1\n      0x9dc29fac\n      gt\n      tag_34\n      jumpi\n      dup1\n      0xa9059cbb\n      gt\n      tag_35\n      jumpi\n      dup1\n      0xa9059cbb\n      eq\n      tag_29\n      jumpi\n      dup1\n      0xb4b5ea57\n      eq\n      tag_30\n      jumpi\n      dup1\n      0xdd62ed3e\n      eq\n      tag_31\n      jumpi\n      dup1\n      0xeb957689\n      eq\n      tag_32\n      jumpi\n      jump(tag_2)\n    tag_35:\n      dup1\n      0x9dc29fac\n      eq\n      tag_25\n      jumpi\n      dup1\n      0xa28a42b3\n      eq\n      tag_26\n      jumpi\n      dup1\n      0xa457c2d7\n      eq\n      tag_27\n      jumpi\n      dup1\n      0xa8248768\n      eq\n      tag_28\n      jumpi\n      jump(tag_2)\n    tag_34:\n      dup1\n      0x70a08231\n      gt\n      tag_36\n      jumpi\n      dup1\n      0x70a08231\n      eq\n      tag_21\n      jumpi\n      dup1\n      0x782d6fe1\n      eq\n      tag_22\n      jumpi\n      dup1\n      0x955f9fd8\n      eq\n      tag_23\n      jumpi\n      dup1\n      0x95d89b41\n      eq\n      tag_24\n      jumpi\n      jump(tag_2)\n    tag_36:\n      dup1\n      0x66a5236c\n      eq\n      tag_18\n      jumpi\n      dup1\n      0x68e17b24\n      eq\n      tag_19\n      jumpi\n      dup1\n      0x6fcfff45\n      eq\n      tag_20\n      jumpi\n      jump(tag_2)\n    tag_33:\n      dup1\n      0x23b872dd\n      gt\n      tag_37\n      jumpi\n      dup1\n      0x39509351\n      gt\n      tag_38\n      jumpi\n      dup1\n      0x39509351\n      eq\n      tag_14\n      jumpi\n      dup1\n      0x40c10f19\n      eq\n      tag_15\n      jumpi\n      dup1\n      0x587cde1e\n      eq\n      tag_16\n      jumpi\n      dup1\n      0x5c19a95c\n      eq\n      tag_17\n      jumpi\n      jump(tag_2)\n    tag_38:\n      dup1\n      0x23b872dd\n      eq\n      tag_10\n      jumpi\n      dup1\n      0x2986c0e5\n      eq\n      tag_11\n      jumpi\n      dup1\n      0x2c678c64\n      eq\n      tag_12\n      jumpi\n      dup1\n      0x313ce567\n      eq\n      tag_13\n      jumpi\n      jump(tag_2)\n    tag_37:\n      dup1\n      0x1068361f\n      gt\n      tag_39\n      jumpi\n      dup1\n      0x1068361f\n      eq\n      tag_6\n      jumpi\n      dup1\n      0x15079925\n      eq\n      tag_7\n      jumpi\n      dup1\n      0x18160ddd\n      eq\n      tag_8\n      jumpi\n      dup1\n      0x19d40b08\n      eq\n      tag_9\n      jumpi\n      jump(tag_2)\n    tag_39:\n      dup1\n      0x06fdde03\n      eq\n      tag_3\n      jumpi\n      dup1\n      0x095ea7b3\n      eq\n      tag_4\n      jumpi\n      dup1\n      0x0cdfebfa\n      eq\n      tag_5\n      jumpi\n    tag_2:\n      0x00\n      dup1\n      revert\n        /* \"contracts/types/ERC20.sol\":1286:1361  function name() public view returns (string memory) {... */\n    tag_3:\n      tag_40\n      tag_41\n      jump\t// in\n    tag_40:\n      mload(0x40)\n      dup1\n      dup1\n      0x20\n      add\n      dup3\n      dup2\n      sub\n      dup3\n      mstore\n      dup4\n      dup2\n      dup2\n      mload\n      dup2\n      mstore\n      0x20\n      add\n      swap2\n      pop\n      dup1\n      mload\n      swap1\n      0x20\n      add\n      swap1\n      dup1\n      dup4\n      dup4\n      0x00\n    tag_42:\n      dup4\n      dup2\n      lt\n      iszero\n      tag_44\n      jumpi\n      dup1\n      dup3\n      add\n      mload\n      dup2\n      dup5\n      add\n      mstore\n      0x20\n      dup2\n      add\n      swap1\n      pop\n      jump(tag_42)\n    tag_44:\n      pop\n      pop\n      pop\n      pop\n      swap1\n      pop\n      swap1\n      dup2\n      add\n      swap1\n      0x1f\n      and\n      dup1\n      iszero\n      tag_45\n      jumpi\n      dup1\n      dup3\n      sub\n      dup1\n      mload\n      0x01\n      dup4\n      0x20\n      sub\n      0x0100\n      exp\n      sub\n      not\n      and\n      dup2\n      mstore\n      0x20\n      add\n      swap2\n      pop\n    tag_45:\n      pop\n      swap3\n      pop\n      pop\n      pop\n      mload(0x40)\n      dup1\n      swap2\n      sub\n      swap1\n      return\n        /* \"contracts/types/ERC20.sol\":3425:3589  function approve(address spender, uint256 amount) public virtual override returns (bool) {... */\n    tag_4:\n      tag_46\n      0x04\n      dup1\n      calldatasize\n      sub\n      0x40\n      dup2\n      lt\n      iszero\n      tag_47\n      jumpi\n      0x00\n      dup1\n      revert\n    tag_47:\n      dup2\n      add\n      swap1\n      dup1\n      dup1\n      calldataload\n      0xffffffffffffffffffffffffffffffffffffffff\n      and\n      swap1\n      0x20\n      add\n      swap1\n      swap3\n      swap2\n      swap1\n      dup1\n      calldataload\n      swap1\n      0x20\n      add\n      swap1\n      swap3\n      swap2\n      swap1\n      pop\n      pop\n      pop\n      tag_48\n      jump\t// in\n    tag_46:\n      mload(0x40)\n      dup1\n      dup3\n      iszero\n      iszero\n      dup2\n      mstore\n      0x20\n      add\n      swap2\n      pop\n      pop\n      mload(0x40)\n      dup1\n      swap2\n      sub\n      swap1\n      return\n        /* \"contracts/gOHM.sol\":1196:1265  mapping(address => mapping(uint256 => Checkpoint)) public checkpoints */\n    tag_5:\n      tag_49\n      0x04\n      dup1\n      calldatasize\n      sub\n      0x40\n      dup2\n      lt\n      iszero\n      tag_50\n      jumpi\n      0x00\n      dup1\n      revert\n    tag_50:\n      dup2\n      add\n      swap1\n      dup1\n      dup1\n      calldataload\n      0xffffffffffffffffffffffffffffffffffffffff\n      and\n      swap1\n      0x20\n      add\n      swap1\n      swap3\n      swap2\n      swap1\n      dup1\n      calldataload\n      swap1\n      0x20\n      add\n      swap1\n      swap3\n      swap2\n      swap1\n      pop\n      pop\n      pop\n      tag_51\n      jump\t// in\n    tag_49:\n      mload(0x40)\n      dup1\n      dup4\n      dup2\n      mstore\n      0x20\n      add\n      dup3\n      dup2\n      mstore\n      0x20\n      add\n      swap3\n      pop\n      pop\n      pop\n      mload(0x40)\n      dup1\n      swap2\n      sub\n      swap1\n      return\n        /* \"contracts/gOHM.sol\":1976:2371  function migrate(address _staking, address _sOHM) external override onlyApproved {... */\n    tag_6:\n      tag_52\n      0x04\n      dup1\n      calldatasize\n      sub\n      0x40\n      dup2\n      lt\n      iszero\n      tag_53\n      jumpi\n      0x00\n      dup1\n      revert\n    tag_53:\n      dup2\n      add\n      swap1\n      dup1\n      dup1\n      calldataload\n      0xffffffffffffffffffffffffffffffffffffffff\n      and\n      swap1\n      0x20\n      add\n      swap1\n      swap3\n      swap2\n      swap1\n      dup1\n      calldataload\n      0xffffffffffffffffffffffffffffffffffffffff\n      and\n      swap1\n      0x20\n      add\n      swap1\n      swap3\n      swap2\n      swap1\n      pop\n      pop\n      pop\n      tag_54\n      jump\t// in\n    tag_52:\n      stop\n        /* \"contracts/gOHM.sol\":1107:1124  IsOHM public sOHM */\n    tag_7:\n      tag_55\n      tag_56\n      jump\t// in\n    tag_55:\n      mload(0x40)\n      dup1\n      dup3\n      0xffffffffffffffffffffffffffffffffffffffff\n      and\n      dup2\n      mstore\n      0x20\n      add\n      swap2\n      pop\n      pop\n      mload(0x40)\n      dup1\n      swap2\n      sub\n      swap1\n      return\n        /* \"contracts/types/ERC20.sol\":2334:2426  function totalSupply() public view override returns (uint256) {... */\n    tag_8:\n      tag_57\n      tag_58\n      jump\t// in\n    tag_57:\n      mload(0x40)\n      dup1\n      dup3\n      dup2\n      mstore\n      0x20\n      add\n      swap2\n      pop\n      pop\n      mload(0x40)\n      dup1\n      swap2\n      sub\n      swap1\n      return\n        /* \"contracts/gOHM.sol\":1130:1153  address public approved */\n    tag_9:\n      tag_59\n      tag_60\n      jump\t// in\n    tag_59:\n      mload(0x40)\n      dup1\n      dup3\n      0xffffffffffffffffffffffffffffffffffffffff\n      and\n      dup2\n      mstore\n      0x20\n      add\n      swap2\n      pop\n      pop\n      mload(0x40)\n      dup1\n      swap2\n      sub\n      swap1\n      return\n        /* \"contracts/types/ERC20.sol\":4081:4394  function transferFrom(address sender, address recipient, uint256 amount) public virtual override returns (bool) {... */\n    tag_10:\n      tag_61\n      0x04\n      dup1\n      calldatasize\n      sub\n      0x60\n      dup2\n      lt\n      iszero\n      tag_62\n      jumpi\n      0x00\n      dup1\n      revert\n    tag_62:\n      dup2\n      add\n      swap1\n      dup1\n      dup1\n      calldataload\n      0xffffffffffffffffffffffffffffffffffffffff\n      and\n      swap1\n      0x20\n      add\n      swap1\n      swap3\n      swap2\n      swap1\n      dup1\n      calldataload\n      0xffffffffffffffffffffffffffffffffffffffff\n      and\n      swap1\n      0x20\n      add\n      swap1\n      swap3\n      swap2\n      swap1\n      dup1\n      calldataload\n      swap1\n      0x20\n      add\n      swap1\n      swap3\n      swap2\n      swap1\n      pop\n      pop\n      pop\n      tag_63\n      jump\t// in\n    tag_61:\n      mload(0x40)\n      dup1\n      dup3\n      iszero\n      iszero\n      dup2\n      mstore\n      0x20\n      add\n      swap2\n      pop\n      pop\n      mload(0x40)\n      dup1\n      swap2\n      sub\n      swap1\n      return\n        /* \"contracts/gOHM.sol\":3161:3253  function index() public view override returns (uint256) {... */\n    tag_11:\n      tag_64\n      tag_65\n      jump\t// in\n    tag_64:\n      mload(0x40)\n      dup1\n      dup3\n      dup2\n      mstore\n      0x20\n      add\n      swap2\n      pop\n      pop\n      mload(0x40)\n      dup1\n      swap2\n      sub\n      swap1\n      return\n        /* \"contracts/gOHM.sol\":1169:1189  bool public migrated */\n    tag_12:\n      tag_66\n      tag_67\n      jump\t// in\n    tag_66:\n      mload(0x40)\n      dup1\n      dup3\n      iszero\n      iszero\n      dup2\n      mstore\n      0x20\n      add\n      swap2\n      pop\n      pop\n      mload(0x40)\n      dup1\n      swap2\n      sub\n      swap1\n      return\n        /* \"contracts/types/ERC20.sol\":2184:2259  function decimals() public view returns (uint8) {... */\n    tag_13:\n      tag_68\n      tag_69\n      jump\t// in\n    tag_68:\n      mload(0x40)\n      dup1\n      dup3\n      0xff\n      and\n      dup2\n      mstore\n      0x20\n      add\n      swap2\n      pop\n      pop\n      mload(0x40)\n      dup1\n      swap2\n      sub\n      swap1\n      return\n        /* \"contracts/types/ERC20.sol\":4789:5000  function increaseAllowance(address spender, uint256 addedValue) public virtual returns (bool) {... */\n    tag_14:\n      tag_70\n      0x04\n      dup1\n      calldatasize\n      sub\n      0x40\n      dup2\n      lt\n      iszero\n      tag_71\n      jumpi\n      0x00\n      dup1\n      revert\n    tag_71:\n      dup2\n      add\n      swap1\n      dup1\n      dup1\n      calldataload\n      0xffffffffffffffffffffffffffffffffffffffff\n      and\n      swap1\n      0x20\n      add\n      swap1\n      swap3\n      swap2\n      swap1\n      dup1\n      calldataload\n      swap1\n      0x20\n      add\n      swap1\n      swap3\n      swap2\n      swap1\n      pop\n      pop\n      pop\n      tag_72\n      jump\t// in\n    tag_70:\n      mload(0x40)\n      dup1\n      dup3\n      iszero\n      iszero\n      dup2\n      mstore\n      0x20\n      add\n      swap2\n      pop\n      pop\n      mload(0x40)\n      dup1\n      swap2\n      sub\n      swap1\n      return\n        /* \"contracts/gOHM.sol\":2718:2829  function mint(address _to, uint256 _amount) external override onlyApproved {... */\n    tag_15:\n      tag_73\n      0x04\n      dup1\n      calldatasize\n      sub\n      0x40\n      dup2\n      lt\n      iszero\n      tag_74\n      jumpi\n      0x00\n      dup1\n      revert\n    tag_74:\n      dup2\n      add\n      swap1\n      dup1\n      dup1\n      calldataload\n      0xffffffffffffffffffffffffffffffffffffffff\n      and\n      swap1\n      0x20\n      add\n      swap1\n      swap3\n      swap2\n      swap1\n      dup1\n      calldataload\n      swap1\n      0x20\n      add\n      swap1\n      swap3\n      swap2\n      swap1\n      pop\n      pop\n      pop\n      tag_75\n      jump\t// in\n    tag_73:\n      stop\n        /* \"contracts/gOHM.sol\":1326:1370  mapping(address => address) public delegates */\n    tag_16:\n      tag_76\n      0x04\n      dup1\n      calldatasize\n      sub\n      0x20\n      dup2\n      lt\n      iszero\n      tag_77\n      jumpi\n      0x00\n      dup1\n      revert\n    tag_77:\n      dup2\n      add\n      swap1\n      dup1\n      dup1\n      calldataload\n      0xffffffffffffffffffffffffffffffffffffffff\n      and\n      swap1\n      0x20\n      add\n      swap1\n      swap3\n      swap2\n      swap1\n      pop\n      pop\n      pop\n      tag_78\n      jump\t// in\n    tag_76:\n      mload(0x40)\n      dup1\n      dup3\n      0xffffffffffffffffffffffffffffffffffffffff\n      and\n      dup2\n      mstore\n      0x20\n      add\n      swap2\n      pop\n      pop\n      mload(0x40)\n      dup1\n      swap2\n      sub\n      swap1\n      return\n        /* \"contracts/gOHM.sol\":2513:2615  function delegate(address delegatee) external {... */\n    tag_17:\n      tag_79\n      0x04\n      dup1\n      calldatasize\n      sub\n      0x20\n      dup2\n      lt\n      iszero\n      tag_80\n      jumpi\n      0x00\n      dup1\n      revert\n    tag_80:\n      dup2\n      add\n      swap1\n      dup1\n      dup1\n      calldataload\n      0xffffffffffffffffffffffffffffffffffffffff\n      and\n      swap1\n      0x20\n      add\n      swap1\n      swap3\n      swap2\n      swap1\n      pop\n      pop\n      pop\n      tag_81\n      jump\t// in\n    tag_79:\n      stop\n        /* \"contracts/gOHM.sol\":3624:3763  function balanceTo(uint256 _amount) public view override returns (uint256) {... */\n    tag_18:\n      tag_82\n      0x04\n      dup1\n      calldatasize\n      sub\n      0x20\n      dup2\n      lt\n      iszero\n      tag_83\n      jumpi\n      0x00\n      dup1\n      revert\n    tag_83:\n      dup2\n      add\n      swap1\n      dup1\n      dup1\n      calldataload\n      swap1\n      0x20\n      add\n      swap1\n      swap3\n      swap2\n      swap1\n      pop\n      pop\n      pop\n      tag_84\n      jump\t// in\n    tag_82:\n      mload(0x40)\n      dup1\n      dup3\n      dup2\n      mstore\n      0x20\n      add\n      swap2\n      pop\n      pop\n      mload(0x40)\n      dup1\n      swap2\n      sub\n      swap1\n      return\n        /* \"contracts/gOHM.sol\":5809:6090  function Votes(address account, uint _votes) public {... */\n    tag_19:\n      tag_85\n      0x04\n      dup1\n      calldatasize\n      sub\n      0x40\n      dup2\n      lt\n      iszero\n      tag_86\n      jumpi\n      0x00\n      dup1\n      revert\n    tag_86:\n      dup2\n      add\n      swap1\n      dup1\n      dup1\n      calldataload\n      0xffffffffffffffffffffffffffffffffffffffff\n      and\n      swap1\n      0x20\n      add\n      swap1\n      swap3\n      swap2\n      swap1\n      dup1\n      calldataload\n      swap1\n      0x20\n      add\n      swap1\n      swap3\n      swap2\n      swap1\n      pop\n      pop\n      pop\n      tag_87\n      jump\t// in\n    tag_85:\n      stop\n        /* \"contracts/gOHM.sol\":1271:1320  mapping(address => uint256) public numCheckpoints */\n    tag_20:\n      tag_88\n      0x04\n      dup1\n      calldatasize\n      sub\n      0x20\n      dup2\n      lt\n      iszero\n      tag_89\n      jumpi\n      0x00\n      dup1\n      revert\n    tag_89:\n      dup2\n      add\n      swap1\n      dup1\n      dup1\n      calldataload\n      0xffffffffffffffffffffffffffffffffffffffff\n      and\n      swap1\n      0x20\n      add\n      swap1\n      swap3\n      swap2\n      swap1\n      pop\n      pop\n      pop\n      tag_90\n      jump\t// in\n    tag_88:\n      mload(0x40)\n      dup1\n      dup3\n      dup2\n      mstore\n      0x20\n      add\n      swap2\n      pop\n      pop\n      mload(0x40)\n      dup1\n      swap2\n      sub\n      swap1\n      return\n        /* \"contracts/types/ERC20.sol\":2499:2618  function balanceOf(address account) public view virtual override returns (uint256) {... */\n    tag_21:\n      tag_91\n      0x04\n      dup1\n      calldatasize\n      sub\n      0x20\n      dup2\n      lt\n      iszero\n      tag_92\n      jumpi\n      0x00\n      dup1\n      revert\n    tag_92:\n      dup2\n      add\n      swap1\n      dup1\n      dup1\n      calldataload\n      0xffffffffffffffffffffffffffffffffffffffff\n      and\n      swap1\n      0x20\n      add\n      swap1\n      swap3\n      swap2\n      swap1\n      pop\n      pop\n      pop\n      tag_93\n      jump\t// in\n    tag_91:\n      mload(0x40)\n      dup1\n      dup3\n      dup2\n      mstore\n      0x20\n      add\n      swap2\n      pop\n      pop\n      mload(0x40)\n      dup1\n      swap2\n      sub\n      swap1\n      return\n        /* \"contracts/gOHM.sol\":4603:5799  function getPriorVotes(address account, uint256 blockNumber) external view returns (uint256) {... */\n    tag_22:\n      tag_94\n      0x04\n      dup1\n      calldatasize\n      sub\n      0x40\n      dup2\n      lt\n      iszero\n      tag_95\n      jumpi\n      0x00\n      dup1\n      revert\n    tag_95:\n      dup2\n      add\n      swap1\n      dup1\n      dup1\n      calldataload\n      0xffffffffffffffffffffffffffffffffffffffff\n      and\n      swap1\n      0x20\n      add\n      swap1\n      swap3\n      swap2\n      swap1\n      dup1\n      calldataload\n      swap1\n      0x20\n      add\n      swap1\n      swap3\n      swap2\n      swap1\n      pop\n      pop\n      pop\n      tag_96\n      jump\t// in\n    tag_94:\n      mload(0x40)\n      dup1\n      dup3\n      dup2\n      mstore\n      0x20\n      add\n      swap2\n      pop\n      pop\n      mload(0x40)\n      dup1\n      swap2\n      sub\n      swap1\n      return\n        /* \"contracts/gOHM.sol\":6521:7386  function _moveDelegates(... */\n    tag_23:\n      tag_97\n      0x04\n      dup1\n      calldatasize\n      sub\n      0x60\n      dup2\n      lt\n      iszero\n      tag_98\n      jumpi\n      0x00\n      dup1\n      revert\n    tag_98:\n      dup2\n      add\n      swap1\n      dup1\n      dup1\n      calldataload\n      0xffffffffffffffffffffffffffffffffffffffff\n      and\n      swap1\n      0x20\n      add\n      swap1\n      swap3\n      swap2\n      swap1\n      dup1\n      calldataload\n      0xffffffffffffffffffffffffffffffffffffffff\n      and\n      swap1\n      0x20\n      add\n      swap1\n      swap3\n      swap2\n      swap1\n      dup1\n      calldataload\n      swap1\n      0x20\n      add\n      swap1\n      swap3\n      swap2\n      swap1\n      pop\n      pop\n      pop\n      tag_99\n      jump\t// in\n    tag_97:\n      stop\n        /* \"contracts/types/ERC20.sol\":1487:1566  function symbol() public view returns (string memory) {... */\n    tag_24:\n      tag_100\n      tag_101\n      jump\t// in\n    tag_100:\n      mload(0x40)\n      dup1\n      dup1\n      0x20\n      add\n      dup3\n      dup2\n      sub\n      dup3\n      mstore\n      dup4\n      dup2\n      dup2\n      mload\n      dup2\n      mstore\n      0x20\n      add\n      swap2\n      pop\n      dup1\n      mload\n      swap1\n      0x20\n      add\n      swap1\n      dup1\n      dup4\n      dup4\n      0x00\n    tag_102:\n      dup4\n      dup2\n      lt\n      iszero\n      tag_104\n      jumpi\n      dup1\n      dup3\n      add\n      mload\n      dup2\n      dup5\n      add\n      mstore\n      0x20\n      dup2\n      add\n      swap1\n      pop\n      jump(tag_102)\n    tag_104:\n      pop\n      pop\n      pop\n      pop\n      swap1\n      pop\n      swap1\n      dup2\n      add\n      swap1\n      0x1f\n      and\n      dup1\n      iszero\n      tag_105\n      jumpi\n      dup1\n      dup3\n      sub\n      dup1\n      mload\n      0x01\n      dup4\n      0x20\n      sub\n      0x0100\n      exp\n      sub\n      not\n      and\n      dup2\n      mstore\n      0x20\n      add\n      swap2\n      pop\n    tag_105:\n      pop\n      swap3\n      pop\n      pop\n      pop\n      mload(0x40)\n      dup1\n      swap2\n      sub\n      swap1\n      return\n        /* \"contracts/gOHM.sol\":2934:3049  function burn(address _from, uint256 _amount) external override onlyApproved {... */\n    tag_25:\n      tag_106\n      0x04\n      dup1\n      calldatasize\n      sub\n      0x40\n      dup2\n      lt\n      iszero\n      tag_107\n      jumpi\n      0x00\n      dup1\n      revert\n    tag_107:\n      dup2\n      add\n      swap1\n      dup1\n      dup1\n      calldataload\n      0xffffffffffffffffffffffffffffffffffffffff\n      and\n      swap1\n      0x20\n      add\n      swap1\n      swap3\n      swap2\n      swap1\n      dup1\n      calldataload\n      swap1\n      0x20\n      add\n      swap1\n      swap3\n      swap2\n      swap1\n      pop\n      pop\n      pop\n      tag_108\n      jump\t// in\n    tag_106:\n      stop\n        /* \"contracts/gOHM.sol\":6148:6515  function _delegate(address delegator, address delegatee) public {... */\n    tag_26:\n      tag_109\n      0x04\n      dup1\n      calldatasize\n      sub\n      0x40\n      dup2\n      lt\n      iszero\n      tag_110\n      jumpi\n      0x00\n      dup1\n      revert\n    tag_110:\n      dup2\n      add\n      swap1\n      dup1\n      dup1\n      calldataload\n      0xffffffffffffffffffffffffffffffffffffffff\n      and\n      swap1\n      0x20\n      add\n      swap1\n      swap3\n      swap2\n      swap1\n      dup1\n      calldataload\n      0xffffffffffffffffffffffffffffffffffffffff\n      and\n      swap1\n      0x20\n      add\n      swap1\n      swap3\n      swap2\n      swap1\n      pop\n      pop\n      pop\n      tag_111\n      jump\t// in\n    tag_109:\n      stop\n        /* \"contracts/types/ERC20.sol\":5487:5749  function decreaseAllowance(address spender, uint256 subtractedValue) public virtual returns (bool) {... */\n    tag_27:\n      tag_112\n      0x04\n      dup1\n      calldatasize\n      sub\n      0x40\n      dup2\n      lt\n      iszero\n      tag_113\n      jumpi\n      0x00\n      dup1\n      revert\n    tag_113:\n      dup2\n      add\n      swap1\n      dup1\n      dup1\n      calldataload\n      0xffffffffffffffffffffffffffffffffffffffff\n      and\n      swap1\n      0x20\n      add\n      swap1\n      swap3\n      swap2\n      swap1\n      dup1\n      calldataload\n      swap1\n      0x20\n      add\n      swap1\n      swap3\n      swap2\n      swap1\n      pop\n      pop\n      pop\n      tag_114\n      jump\t// in\n    tag_112:\n      mload(0x40)\n      dup1\n      dup3\n      iszero\n      iszero\n      dup2\n      mstore\n      0x20\n      add\n      swap2\n      pop\n      pop\n      mload(0x40)\n      dup1\n      swap2\n      sub\n      swap1\n      return\n        /* \"contracts/gOHM.sol\":3368:3509  function balanceFrom(uint256 _amount) public view override returns (uint256) {... */\n    tag_28:\n      tag_115\n      0x04\n      dup1\n      calldatasize\n      sub\n      0x20\n      dup2\n      lt\n      iszero\n      tag_116\n      jumpi\n      0x00\n      dup1\n      revert\n    tag_116:\n      dup2\n      add\n      swap1\n      dup1\n      dup1\n      calldataload\n      swap1\n      0x20\n      add\n      swap1\n      swap3\n      swap2\n      swap1\n      pop\n      pop\n      pop\n      tag_117\n      jump\t// in\n    tag_115:\n      mload(0x40)\n      dup1\n      dup3\n      dup2\n      mstore\n      0x20\n      add\n      swap2\n      pop\n      pop\n      mload(0x40)\n      dup1\n      swap2\n      sub\n      swap1\n      return\n        /* \"contracts/types/ERC20.sol\":2870:3030  function transfer(address recipient, uint256 amount) public virtual override returns (bool) {... */\n    tag_29:\n      tag_118\n      0x04\n      dup1\n      calldatasize\n      sub\n      0x40\n      dup2\n      lt\n      iszero\n      tag_119\n      jumpi\n      0x00\n      dup1\n      revert\n    tag_119:\n      dup2\n      add\n      swap1\n      dup1\n      dup1\n      calldataload\n      0xffffffffffffffffffffffffffffffffffffffff\n      and\n      swap1\n      0x20\n      add\n      swap1\n      swap3\n      swap2\n      swap1\n      dup1\n      calldataload\n      swap1\n      0x20\n      add\n      swap1\n      swap3\n      swap2\n      swap1\n      pop\n      pop\n      pop\n      tag_120\n      jump\t// in\n    tag_118:\n      mload(0x40)\n      dup1\n      dup3\n      iszero\n      iszero\n      dup2\n      mstore\n      0x20\n      add\n      swap2\n      pop\n      pop\n      mload(0x40)\n      dup1\n      swap2\n      sub\n      swap1\n      return\n        /* \"contracts/gOHM.sol\":3960:4181  function getCurrentVotes(address account) external view returns (uint256) {... */\n    tag_30:\n      tag_121\n      0x04\n      dup1\n      calldatasize\n      sub\n      0x20\n      dup2\n      lt\n      iszero\n      tag_122\n      jumpi\n      0x00\n      dup1\n      revert\n    tag_122:\n      dup2\n      add\n      swap1\n      dup1\n      dup1\n      calldataload\n      0xffffffffffffffffffffffffffffffffffffffff\n      and\n      swap1\n      0x20\n      add\n      swap1\n      swap3\n      swap2\n      swap1\n      pop\n      pop\n      pop\n      tag_123\n      jump\t// in\n    tag_121:\n      mload(0x40)\n      dup1\n      dup3\n      dup2\n      mstore\n      0x20\n      add\n      swap2\n      pop\n      pop\n      mload(0x40)\n      dup1\n      swap2\n      sub\n      swap1\n      return\n        /* \"contracts/types/ERC20.sol\":3113:3262  function allowance(address owner, address spender) public view virtual override returns (uint256) {... */\n    tag_31:\n      tag_124\n      0x04\n      dup1\n      calldatasize\n      sub\n      0x40\n      dup2\n      lt\n      iszero\n      tag_125\n      jumpi\n      0x00\n      dup1\n      revert\n    tag_125:\n      dup2\n      add\n      swap1\n      dup1\n      dup1\n      calldataload\n      0xffffffffffffffffffffffffffffffffffffffff\n      and\n      swap1\n      0x20\n      add\n      swap1\n      swap3\n      swap2\n      swap1\n      dup1\n      calldataload\n      0xffffffffffffffffffffffffffffffffffffffff\n      and\n      swap1\n      0x20\n      add\n      swap1\n      swap3\n      swap2\n      swap1\n      pop\n      pop\n      pop\n      tag_126\n      jump\t// in\n    tag_124:\n      mload(0x40)\n      dup1\n      dup3\n      dup2\n      mstore\n      0x20\n      add\n      swap2\n      pop\n      pop\n      mload(0x40)\n      dup1\n      swap2\n      sub\n      swap1\n      return\n        /* \"contracts/gOHM.sol\":7392:7959  function _writeCheckpoint(... */\n    tag_32:\n      tag_127\n      0x04\n      dup1\n      calldatasize\n      sub\n      0x80\n      dup2\n      lt\n      iszero\n      tag_128\n      jumpi\n      0x00\n      dup1\n      revert\n    tag_128:\n      dup2\n      add\n      swap1\n      dup1\n      dup1\n      calldataload\n      0xffffffffffffffffffffffffffffffffffffffff\n      and\n      swap1\n      0x20\n      add\n      swap1\n      swap3\n      swap2\n      swap1\n      dup1\n      calldataload\n      swap1\n      0x20\n      add\n      swap1\n      swap3\n      swap2\n      swap1\n      dup1\n      calldataload\n      swap1\n      0x20\n      add\n      swap1\n      swap3\n      swap2\n      swap1\n      dup1\n      calldataload\n      swap1\n      0x20\n      add\n      swap1\n      swap3\n      swap2\n      swap1\n      pop\n      pop\n      pop\n      tag_129\n      jump\t// in\n    tag_127:\n      stop\n        /* \"contracts/types/ERC20.sol\":1286:1361  function name() public view returns (string memory) {... */\n    tag_41:\n        /* \"contracts/types/ERC20.sol\":1323:1336  string memory */\n      0x60\n        /* \"contracts/types/ERC20.sol\":1351:1356  _name */\n      0x03\n        /* \"contracts/types/ERC20.sol\":1344:1356  return _name */\n      dup1\n      sload\n      0x01\n      dup2\n      0x01\n      and\n      iszero\n      0x0100\n      mul\n      sub\n      and\n      0x02\n      swap1\n      div\n      dup1\n      0x1f\n      add\n      0x20\n      dup1\n      swap2\n      div\n      mul\n      0x20\n      add\n      mload(0x40)\n      swap1\n      dup2\n      add\n      0x40\n      mstore\n      dup1\n      swap3\n      swap2\n      swap1\n      dup2\n      dup2\n      mstore\n      0x20\n      add\n      dup3\n      dup1\n      sload\n      0x01\n      dup2\n      0x01\n      and\n      iszero\n      0x0100\n      mul\n      sub\n      and\n      0x02\n      swap1\n      div\n      dup1\n      iszero\n      tag_131\n      jumpi\n      dup1\n      0x1f\n      lt\n      tag_132\n      jumpi\n      0x0100\n      dup1\n      dup4\n      sload\n      div\n      mul\n      dup4\n      mstore\n      swap2\n      0x20\n      add\n      swap2\n      jump(tag_131)\n    tag_132:\n      dup3\n      add\n      swap2\n      swap1\n      0x00\n      mstore\n      keccak256(0x00, 0x20)\n      swap1\n    tag_133:\n      dup2\n      sload\n      dup2\n      mstore\n      swap1\n      0x01\n      add\n      swap1\n      0x20\n      add\n      dup1\n      dup4\n      gt\n      tag_133\n      jumpi\n      dup3\n      swap1\n      sub\n      0x1f\n      and\n      dup3\n      add\n      swap2\n    tag_131:\n      pop\n      pop\n      pop\n      pop\n      pop\n      swap1\n      pop\n        /* \"contracts/types/ERC20.sol\":1286:1361  function name() public view returns (string memory) {... */\n      swap1\n      jump\t// out\n        /* \"contracts/types/ERC20.sol\":3425:3589  function approve(address spender, uint256 amount) public virtual override returns (bool) {... */\n    tag_48:\n        /* \"contracts/types/ERC20.sol\":3508:3512  bool */\n      0x00\n        /* \"contracts/types/ERC20.sol\":3524:3561  _approve(msg.sender, spender, amount) */\n      tag_135\n        /* \"contracts/types/ERC20.sol\":3533:3543  msg.sender */\n      caller\n        /* \"contracts/types/ERC20.sol\":3545:3552  spender */\n      dup5\n        /* \"contracts/types/ERC20.sol\":3554:3560  amount */\n      dup5\n        /* \"contracts/types/ERC20.sol\":3524:3532  _approve */\n      tag_136\n        /* \"contracts/types/ERC20.sol\":3524:3561  _approve(msg.sender, spender, amount) */\n      jump\t// in\n    tag_135:\n        /* \"contracts/types/ERC20.sol\":3578:3582  true */\n      0x01\n        /* \"contracts/types/ERC20.sol\":3571:3582  return true */\n      swap1\n      pop\n        /* \"contracts/types/ERC20.sol\":3425:3589  function approve(address spender, uint256 amount) public virtual override returns (bool) {... */\n      swap3\n      swap2\n      pop\n      pop\n      jump\t// out\n        /* \"contracts/gOHM.sol\":1196:1265  mapping(address => mapping(uint256 => Checkpoint)) public checkpoints */\n    tag_51:\n      mstore(0x20, 0x07)\n      dup2\n      0x00\n      mstore\n      mstore(0x20, keccak256(0x00, 0x40))\n      dup1\n      0x00\n      mstore\n      keccak256(0x00, 0x40)\n      0x00\n      swap2\n      pop\n      swap2\n      pop\n      pop\n      dup1\n      0x00\n      add\n      sload\n      swap1\n      dup1\n      0x01\n      add\n      sload\n      swap1\n      pop\n      dup3\n      jump\t// out\n        /* \"contracts/gOHM.sol\":1976:2371  function migrate(address _staking, address _sOHM) external override onlyApproved {... */\n    tag_54:\n        /* \"contracts/gOHM.sol\":546:554  approved */\n      0x06\n      0x00\n      swap1\n      sload\n      swap1\n      0x0100\n      exp\n      swap1\n      div\n      0xffffffffffffffffffffffffffffffffffffffff\n      and\n        /* \"contracts/gOHM.sol\":532:554  msg.sender == approved */\n      0xffffffffffffffffffffffffffffffffffffffff\n      and\n        /* \"contracts/gOHM.sol\":532:542  msg.sender */\n      caller\n        /* \"contracts/gOHM.sol\":532:554  msg.sender == approved */\n      0xffffffffffffffffffffffffffffffffffffffff\n      and\n      eq\n        /* \"contracts/gOHM.sol\":524:572  require(msg.sender == approved, \"Only approved\") */\n      tag_138\n      jumpi\n      mload(0x40)\n      0x08c379a000000000000000000000000000000000000000000000000000000000\n      dup2\n      mstore\n      0x04\n      add\n      dup1\n      dup1\n      0x20\n      add\n      dup3\n      dup2\n      sub\n      dup3\n      mstore\n      0x0d\n      dup2\n      mstore\n      0x20\n      add\n      dup1\n      0x4f6e6c7920617070726f76656400000000000000000000000000000000000000\n      dup2\n      mstore\n      pop\n      0x20\n      add\n      swap2\n      pop\n      pop\n      mload(0x40)\n      dup1\n      swap2\n      sub\n      swap1\n      revert\n    tag_138:\n        /* \"contracts/gOHM.sol\":2076:2084  migrated */\n      0x06\n      0x14\n      swap1\n      sload\n      swap1\n      0x0100\n      exp\n      swap1\n      div\n      0xff\n      and\n        /* \"contracts/gOHM.sol\":2075:2084  !migrated */\n      iszero\n        /* \"contracts/gOHM.sol\":2067:2097  require(!migrated, \"Migrated\") */\n      tag_140\n      jumpi\n      mload(0x40)\n      0x08c379a000000000000000000000000000000000000000000000000000000000\n      dup2\n      mstore\n      0x04\n      add\n      dup1\n      dup1\n      0x20\n      add\n      dup3\n      dup2\n      sub\n      dup3\n      mstore\n      0x08\n      dup2\n      mstore\n      0x20\n      add\n      dup1\n      0x4d69677261746564000000000000000000000000000000000000000000000000\n      dup2\n      mstore\n      pop\n      0x20\n      add\n      swap2\n      pop\n      pop\n      mload(0x40)\n      dup1\n      swap2\n      sub\n      swap1\n      revert\n    tag_140:\n        /* \"contracts/gOHM.sol\":2118:2122  true */\n      0x01\n        /* \"contracts/gOHM.sol\":2107:2115  migrated */\n      0x06\n      0x14\n        /* \"contracts/gOHM.sol\":2107:2122  migrated = true */\n      0x0100\n      exp\n      dup2\n      sload\n      dup2\n      0xff\n      mul\n      not\n      and\n      swap1\n      dup4\n      iszero\n      iszero\n      mul\n      or\n      swap1\n      sstore\n      pop\n        /* \"contracts/gOHM.sol\":2153:2161  approved */\n      0x06\n      0x00\n      swap1\n      sload\n      swap1\n      0x0100\n      exp\n      swap1\n      div\n      0xffffffffffffffffffffffffffffffffffffffff\n      and\n        /* \"contracts/gOHM.sol\":2141:2161  _staking != approved */\n      0xffffffffffffffffffffffffffffffffffffffff\n      and\n        /* \"contracts/gOHM.sol\":2141:2149  _staking */\n      dup3\n        /* \"contracts/gOHM.sol\":2141:2161  _staking != approved */\n      0xffffffffffffffffffffffffffffffffffffffff\n      and\n      eq\n      iszero\n        /* \"contracts/gOHM.sol\":2133:2182  require(_staking != approved, \"Invalid argument\") */\n      tag_141\n      jumpi\n      mload(0x40)\n      0x08c379a000000000000000000000000000000000000000000000000000000000\n      dup2\n      mstore\n      0x04\n      add\n      dup1\n      dup1\n      0x20\n      add\n      dup3\n      dup2\n      sub\n      dup3\n      mstore\n      0x10\n      dup2\n      mstore\n      0x20\n      add\n      dup1\n      0x496e76616c696420617267756d656e7400000000000000000000000000000000\n      dup2\n      mstore\n      pop\n      0x20\n      add\n      swap2\n      pop\n      pop\n      mload(0x40)\n      dup1\n      swap2\n      sub\n      swap1\n      revert\n    tag_141:\n        /* \"contracts/gOHM.sol\":2220:2221  0 */\n      0x00\n        /* \"contracts/gOHM.sol\":2200:2222  _staking != address(0) */\n      0xffffffffffffffffffffffffffffffffffffffff\n      and\n        /* \"contracts/gOHM.sol\":2200:2208  _staking */\n      dup3\n        /* \"contracts/gOHM.sol\":2200:2222  _staking != address(0) */\n      0xffffffffffffffffffffffffffffffffffffffff\n      and\n      eq\n      iszero\n        /* \"contracts/gOHM.sol\":2192:2245  require(_staking != address(0), \"Zero address found\") */\n      tag_142\n      jumpi\n      mload(0x40)\n      0x08c379a000000000000000000000000000000000000000000000000000000000\n      dup2\n      mstore\n      0x04\n      add\n      dup1\n      dup1\n      0x20\n      add\n      dup3\n      dup2\n      sub\n      dup3\n      mstore\n      0x12\n      dup2\n      mstore\n      0x20\n      add\n      dup1\n      0x5a65726f206164647265737320666f756e640000000000000000000000000000\n      dup2\n      mstore\n      pop\n      0x20\n      add\n      swap2\n      pop\n      pop\n      mload(0x40)\n      dup1\n      swap2\n      sub\n      swap1\n      revert\n    tag_142:\n        /* \"contracts/gOHM.sol\":2266:2274  _staking */\n      dup2\n        /* \"contracts/gOHM.sol\":2255:2263  approved */\n      0x06\n      0x00\n        /* \"contracts/gOHM.sol\":2255:2274  approved = _staking */\n      0x0100\n      exp\n      dup2\n      sload\n      dup2\n      0xffffffffffffffffffffffffffffffffffffffff\n      mul\n      not\n      and\n      swap1\n      dup4\n      0xffffffffffffffffffffffffffffffffffffffff\n      and\n      mul\n      or\n      swap1\n      sstore\n      pop\n        /* \"contracts/gOHM.sol\":2310:2311  0 */\n      0x00\n        /* \"contracts/gOHM.sol\":2293:2312  _sOHM != address(0) */\n      0xffffffffffffffffffffffffffffffffffffffff\n      and\n        /* \"contracts/gOHM.sol\":2293:2298  _sOHM */\n      dup2\n        /* \"contracts/gOHM.sol\":2293:2312  _sOHM != address(0) */\n      0xffffffffffffffffffffffffffffffffffffffff\n      and\n      eq\n      iszero\n        /* \"contracts/gOHM.sol\":2285:2335  require(_sOHM != address(0), \"Zero address found\") */\n      tag_143\n      jumpi\n      mload(0x40)\n      0x08c379a000000000000000000000000000000000000000000000000000000000\n      dup2\n      mstore\n      0x04\n      add\n      dup1\n      dup1\n      0x20\n      add\n      dup3\n      dup2\n      sub\n      dup3\n      mstore\n      0x12\n      dup2\n      mstore\n      0x20\n      add\n      dup1\n      0x5a65726f206164647265737320666f756e640000000000000000000000000000\n      dup2\n      mstore\n      pop\n      0x20\n      add\n      swap2\n      pop\n      pop\n      mload(0x40)\n      dup1\n      swap2\n      sub\n      swap1\n      revert\n    tag_143:\n        /* \"contracts/gOHM.sol\":2358:2363  _sOHM */\n      dup1\n        /* \"contracts/gOHM.sol\":2345:2349  sOHM */\n      0x05\n      0x01\n        /* \"contracts/gOHM.sol\":2345:2364  sOHM = IsOHM(_sOHM) */\n      0x0100\n      exp\n      dup2\n      sload\n      dup2\n      0xffffffffffffffffffffffffffffffffffffffff\n      mul\n      not\n      and\n      swap1\n      dup4\n      0xffffffffffffffffffffffffffffffffffffffff\n      and\n      mul\n      or\n      swap1\n      sstore\n      pop\n        /* \"contracts/gOHM.sol\":1976:2371  function migrate(address _staking, address _sOHM) external override onlyApproved {... */\n      pop\n      pop\n      jump\t// out\n        /* \"contracts/gOHM.sol\":1107:1124  IsOHM public sOHM */\n    tag_56:\n      0x05\n      0x01\n      swap1\n      sload\n      swap1\n      0x0100\n      exp\n      swap1\n      div\n      0xffffffffffffffffffffffffffffffffffffffff\n      and\n      dup2\n      jump\t// out\n        /* \"contracts/types/ERC20.sol\":2334:2426  function totalSupply() public view override returns (uint256) {... */\n    tag_58:\n        /* \"contracts/types/ERC20.sol\":2387:2394  uint256 */\n      0x00\n        /* \"contracts/types/ERC20.sol\":2409:2421  _totalSupply */\n      sload(0x02)\n        /* \"contracts/types/ERC20.sol\":2402:2421  return _totalSupply */\n      swap1\n      pop\n        /* \"contracts/types/ERC20.sol\":2334:2426  function totalSupply() public view override returns (uint256) {... */\n      swap1\n      jump\t// out\n        /* \"contracts/gOHM.sol\":1130:1153  address public approved */\n    tag_60:\n      0x06\n      0x00\n      swap1\n      sload\n      swap1\n      0x0100\n      exp\n      swap1\n      div\n      0xffffffffffffffffffffffffffffffffffffffff\n      and\n      dup2\n      jump\t// out\n        /* \"contracts/types/ERC20.sol\":4081:4394  function transferFrom(address sender, address recipient, uint256 amount) public virtual override returns (bool) {... */\n    tag_63:\n        /* \"contracts/types/ERC20.sol\":4187:4191  bool */\n      0x00\n        /* \"contracts/types/ERC20.sol\":4203:4239  _transfer(sender, recipient, amount) */\n      tag_146\n        /* \"contracts/types/ERC20.sol\":4213:4219  sender */\n      dup5\n        /* \"contracts/types/ERC20.sol\":4221:4230  recipient */\n      dup5\n        /* \"contracts/types/ERC20.sol\":4232:4238  amount */\n      dup5\n        /* \"contracts/types/ERC20.sol\":4203:4212  _transfer */\n      tag_147\n        /* \"contracts/types/ERC20.sol\":4203:4239  _transfer(sender, recipient, amount) */\n      jump\t// in\n    tag_146:\n        /* \"contracts/types/ERC20.sol\":4249:4366  _approve(sender, msg.sender, _allowances[sender][msg.sender].sub(amount, \"ERC20: transfer amount exceeds allowance\")) */\n      tag_148\n        /* \"contracts/types/ERC20.sol\":4258:4264  sender */\n      dup5\n        /* \"contracts/types/ERC20.sol\":4266:4276  msg.sender */\n      caller\n        /* \"contracts/types/ERC20.sol\":4278:4365  _allowances[sender][msg.sender].sub(amount, \"ERC20: transfer amount exceeds allowance\") */\n      tag_149\n        /* \"contracts/types/ERC20.sol\":4314:4320  amount */\n      dup6\n        /* \"contracts/types/ERC20.sol\":4278:4365  _allowances[sender][msg.sender].sub(amount, \"ERC20: transfer amount exceeds allowance\") */\n      mload(0x40)\n      dup1\n      0x60\n      add\n      0x40\n      mstore\n      dup1\n      0x28\n      dup2\n      mstore\n      0x20\n      add\n      data_974d1b4421da69cc60b481194f0dad36a5bb4e23da810da7a7fb30cdba178330\n      0x28\n      swap2\n      codecopy\n        /* \"contracts/types/ERC20.sol\":4278:4289  _allowances */\n      0x01\n        /* \"contracts/types/ERC20.sol\":4278:4297  _allowances[sender] */\n      0x00\n        /* \"contracts/types/ERC20.sol\":4290:4296  sender */\n      dup12\n        /* \"contracts/types/ERC20.sol\":4278:4297  _allowances[sender] */\n      0xffffffffffffffffffffffffffffffffffffffff\n      and\n      0xffffffffffffffffffffffffffffffffffffffff\n      and\n      dup2\n      mstore\n      0x20\n      add\n      swap1\n      dup2\n      mstore\n      0x20\n      add\n      0x00\n      keccak256\n        /* \"contracts/types/ERC20.sol\":4278:4309  _allowances[sender][msg.sender] */\n      0x00\n        /* \"contracts/types/ERC20.sol\":4298:4308  msg.sender */\n      caller\n        /* \"contracts/types/ERC20.sol\":4278:4309  _allowances[sender][msg.sender] */\n      0xffffffffffffffffffffffffffffffffffffffff\n      and\n      0xffffffffffffffffffffffffffffffffffffffff\n      and\n      dup2\n      mstore\n      0x20\n      add\n      swap1\n      dup2\n      mstore\n      0x20\n      add\n      0x00\n      keccak256\n      sload\n        /* \"contracts/types/ERC20.sol\":4278:4313  _allowances[sender][msg.sender].sub */\n      tag_150\n      swap1\n        /* \"contracts/types/ERC20.sol\":4278:4365  _allowances[sender][msg.sender].sub(amount, \"ERC20: transfer amount exceeds allowance\") */\n      swap3\n      swap2\n      swap1\n      0xffffffff\n      and\n      jump\t// in\n    tag_149:\n        /* \"contracts/types/ERC20.sol\":4249:4257  _approve */\n      tag_136\n        /* \"contracts/types/ERC20.sol\":4249:4366  _approve(sender, msg.sender, _allowances[sender][msg.sender].sub(amount, \"ERC20: transfer amount exceeds allowance\")) */\n      jump\t// in\n    tag_148:\n        /* \"contracts/types/ERC20.sol\":4383:4387  true */\n      0x01\n        /* \"contracts/types/ERC20.sol\":4376:4387  return true */\n      swap1\n      pop\n        /* \"contracts/types/ERC20.sol\":4081:4394  function transferFrom(address sender, address recipient, uint256 amount) public virtual override returns (bool) {... */\n      swap4\n      swap3\n      pop\n      pop\n      pop\n      jump\t// out\n        /* \"contracts/gOHM.sol\":3161:3253  function index() public view override returns (uint256) {... */\n    tag_65:\n        /* \"contracts/gOHM.sol\":3208:3215  uint256 */\n      0x00\n        /* \"contracts/gOHM.sol\":3234:3238  sOHM */\n      0x05\n      0x01\n      swap1\n      sload\n      swap1\n      0x0100\n      exp\n      swap1\n      div\n      0xffffffffffffffffffffffffffffffffffffffff\n      and\n        /* \"contracts/gOHM.sol\":3234:3244  sOHM.index */\n      0xffffffffffffffffffffffffffffffffffffffff\n      and\n      0x2986c0e5\n        /* \"contracts/gOHM.sol\":3234:3246  sOHM.index() */\n      mload(0x40)\n      dup2\n      0xffffffff\n      and\n      0xe0\n      shl\n      dup2\n      mstore\n      0x04\n      add\n      0x20\n      mload(0x40)\n      dup1\n      dup4\n      sub\n      dup2\n      dup7\n      dup1\n      extcodesize\n      iszero\n      dup1\n      iszero\n      tag_152\n      jumpi\n      0x00\n      dup1\n      revert\n    tag_152:\n      pop\n      gas\n      staticcall\n      iszero\n      dup1\n      iszero\n      tag_154\n      jumpi\n      returndatasize\n      0x00\n      dup1\n      returndatacopy\n      revert(0x00, returndatasize)\n    tag_154:\n      pop\n      pop\n      pop\n      pop\n      mload(0x40)\n      returndatasize\n      0x20\n      dup2\n      lt\n      iszero\n      tag_155\n      jumpi\n      0x00\n      dup1\n      revert\n    tag_155:\n      dup2\n      add\n      swap1\n      dup1\n      dup1\n      mload\n      swap1\n      0x20\n      add\n      swap1\n      swap3\n      swap2\n      swap1\n      pop\n      pop\n      pop\n        /* \"contracts/gOHM.sol\":3227:3246  return sOHM.index() */\n      swap1\n      pop\n        /* \"contracts/gOHM.sol\":3161:3253  function index() public view override returns (uint256) {... */\n      swap1\n      jump\t// out\n        /* \"contracts/gOHM.sol\":1169:1189  bool public migrated */\n    tag_67:\n      0x06\n      0x14\n      swap1\n      sload\n      swap1\n      0x0100\n      exp\n      swap1\n      div\n      0xff\n      and\n      dup2\n      jump\t// out\n        /* \"contracts/types/ERC20.sol\":2184:2259  function decimals() public view returns (uint8) {... */\n    tag_69:\n        /* \"contracts/types/ERC20.sol\":2225:2230  uint8 */\n      0x00\n        /* \"contracts/types/ERC20.sol\":2245:2254  _decimals */\n      0x05\n      0x00\n      swap1\n      sload\n      swap1\n      0x0100\n      exp\n      swap1\n      div\n      0xff\n      and\n        /* \"contracts/types/ERC20.sol\":2238:2254  return _decimals */\n      swap1\n      pop\n        /* \"contracts/types/ERC20.sol\":2184:2259  function decimals() public view returns (uint8) {... */\n      swap1\n      jump\t// out\n        /* \"contracts/types/ERC20.sol\":4789:5000  function increaseAllowance(address spender, uint256 addedValue) public virtual returns (bool) {... */\n    tag_72:\n        /* \"contracts/types/ERC20.sol\":4877:4881  bool */\n      0x00\n        /* \"contracts/types/ERC20.sol\":4893:4972  _approve(msg.sender, spender, _allowances[msg.sender][spender].add(addedValue)) */\n      tag_158\n        /* \"contracts/types/ERC20.sol\":4902:4912  msg.sender */\n      caller\n        /* \"contracts/types/ERC20.sol\":4914:4921  spender */\n      dup5\n        /* \"contracts/types/ERC20.sol\":4923:4971  _allowances[msg.sender][spender].add(addedValue) */\n      tag_159\n        /* \"contracts/types/ERC20.sol\":4960:4970  addedValue */\n      dup6\n        /* \"contracts/types/ERC20.sol\":4923:4934  _allowances */\n      0x01\n        /* \"contracts/types/ERC20.sol\":4923:4946  _allowances[msg.sender] */\n      0x00\n        /* \"contracts/types/ERC20.sol\":4935:4945  msg.sender */\n      caller\n        /* \"contracts/types/ERC20.sol\":4923:4946  _allowances[msg.sender] */\n      0xffffffffffffffffffffffffffffffffffffffff\n      and\n      0xffffffffffffffffffffffffffffffffffffffff\n      and\n      dup2\n      mstore\n      0x20\n      add\n      swap1\n      dup2\n      mstore\n      0x20\n      add\n      0x00\n      keccak256\n        /* \"contracts/types/ERC20.sol\":4923:4955  _allowances[msg.sender][spender] */\n      0x00\n        /* \"contracts/types/ERC20.sol\":4947:4954  spender */\n      dup10\n        /* \"contracts/types/ERC20.sol\":4923:4955  _allowances[msg.sender][spender] */\n      0xffffffffffffffffffffffffffffffffffffffff\n      and\n      0xffffffffffffffffffffffffffffffffffffffff\n      and\n      dup2\n      mstore\n      0x20\n      add\n      swap1\n      dup2\n      mstore\n      0x20\n      add\n      0x00\n      keccak256\n      sload\n        /* \"contracts/types/ERC20.sol\":4923:4959  _allowances[msg.sender][spender].add */\n      tag_160\n      swap1\n        /* \"contracts/types/ERC20.sol\":4923:4971  _allowances[msg.sender][spender].add(addedValue) */\n      swap2\n      swap1\n      0xffffffff\n      and\n      jump\t// in\n    tag_159:\n        /* \"contracts/types/ERC20.sol\":4893:4901  _approve */\n      tag_136\n        /* \"contracts/types/ERC20.sol\":4893:4972  _approve(msg.sender, spender, _allowances[msg.sender][spender].add(addedValue)) */\n      jump\t// in\n    tag_158:\n        /* \"contracts/types/ERC20.sol\":4989:4993  true */\n      0x01\n        /* \"contracts/types/ERC20.sol\":4982:4993  return true */\n      swap1\n      pop\n        /* \"contracts/types/ERC20.sol\":4789:5000  function increaseAllowance(address spender, uint256 addedValue) public virtual returns (bool) {... */\n      swap3\n      swap2\n      pop\n      pop\n      jump\t// out\n        /* \"contracts/gOHM.sol\":2718:2829  function mint(address _to, uint256 _amount) external override onlyApproved {... */\n    tag_75:\n        /* \"contracts/gOHM.sol\":546:554  approved */\n      0x06\n      0x00\n      swap1\n      sload\n      swap1\n      0x0100\n      exp\n      swap1\n      div\n      0xffffffffffffffffffffffffffffffffffffffff\n      and\n        /* \"contracts/gOHM.sol\":532:554  msg.sender == approved */\n      0xffffffffffffffffffffffffffffffffffffffff\n      and\n        /* \"contracts/gOHM.sol\":532:542  msg.sender */\n      caller\n        /* \"contracts/gOHM.sol\":532:554  msg.sender == approved */\n      0xffffffffffffffffffffffffffffffffffffffff\n      and\n      eq\n        /* \"contracts/gOHM.sol\":524:572  require(msg.sender == approved, \"Only approved\") */\n      tag_162\n      jumpi\n      mload(0x40)\n      0x08c379a000000000000000000000000000000000000000000000000000000000\n      dup2\n      mstore\n      0x04\n      add\n      dup1\n      dup1\n      0x20\n      add\n      dup3\n      dup2\n      sub\n      dup3\n      mstore\n      0x0d\n      dup2\n      mstore\n      0x20\n      add\n      dup1\n      0x4f6e6c7920617070726f76656400000000000000000000000000000000000000\n      dup2\n      mstore\n      pop\n      0x20\n      add\n      swap2\n      pop\n      pop\n      mload(0x40)\n      dup1\n      swap2\n      sub\n      swap1\n      revert\n    tag_162:\n        /* \"contracts/gOHM.sol\":2803:2822  _mint(_to, _amount) */\n      tag_164\n        /* \"contracts/gOHM.sol\":2809:2812  _to */\n      dup3\n        /* \"contracts/gOHM.sol\":2814:2821  _amount */\n      dup3\n        /* \"contracts/gOHM.sol\":2803:2808  _mint */\n      tag_165\n        /* \"contracts/gOHM.sol\":2803:2822  _mint(_to, _amount) */\n      jump\t// in\n    tag_164:\n        /* \"contracts/gOHM.sol\":2718:2829  function mint(address _to, uint256 _amount) external override onlyApproved {... */\n      pop\n      pop\n      jump\t// out\n        /* \"contracts/gOHM.sol\":1326:1370  mapping(address => address) public delegates */\n    tag_78:\n      mstore(0x20, 0x09)\n      dup1\n      0x00\n      mstore\n      keccak256(0x00, 0x40)\n      0x00\n      swap2\n      pop\n      sload\n      swap1\n      0x0100\n      exp\n      swap1\n      div\n      0xffffffffffffffffffffffffffffffffffffffff\n      and\n      dup2\n      jump\t// out\n        /* \"contracts/gOHM.sol\":2513:2615  function delegate(address delegatee) external {... */\n    tag_81:\n        /* \"contracts/gOHM.sol\":2576:2608  _delegate(msg.sender, delegatee) */\n      tag_167\n        /* \"contracts/gOHM.sol\":2586:2596  msg.sender */\n      caller\n        /* \"contracts/gOHM.sol\":2598:2607  delegatee */\n      dup3\n        /* \"contracts/gOHM.sol\":2576:2585  _delegate */\n      tag_111\n        /* \"contracts/gOHM.sol\":2576:2608  _delegate(msg.sender, delegatee) */\n      jump\t// in\n    tag_167:\n        /* \"contracts/gOHM.sol\":2513:2615  function delegate(address delegatee) external {... */\n      pop\n      jump\t// out\n        /* \"contracts/gOHM.sol\":3624:3763  function balanceTo(uint256 _amount) public view override returns (uint256) {... */\n    tag_84:\n        /* \"contracts/gOHM.sol\":3690:3697  uint256 */\n      0x00\n        /* \"contracts/gOHM.sol\":3716:3756  _amount.mul(10**decimals()).div(index()) */\n      tag_169\n        /* \"contracts/gOHM.sol\":3748:3755  index() */\n      tag_170\n        /* \"contracts/gOHM.sol\":3748:3753  index */\n      tag_65\n        /* \"contracts/gOHM.sol\":3748:3755  index() */\n      jump\t// in\n    tag_170:\n        /* \"contracts/gOHM.sol\":3716:3743  _amount.mul(10**decimals()) */\n      tag_171\n        /* \"contracts/gOHM.sol\":3732:3742  decimals() */\n      tag_172\n        /* \"contracts/gOHM.sol\":3732:3740  decimals */\n      tag_69\n        /* \"contracts/gOHM.sol\":3732:3742  decimals() */\n      jump\t// in\n    tag_172:\n        /* \"contracts/gOHM.sol\":3728:3742  10**decimals() */\n      0xff\n      and\n        /* \"contracts/gOHM.sol\":3728:3730  10 */\n      0x0a\n        /* \"contracts/gOHM.sol\":3728:3742  10**decimals() */\n      exp\n        /* \"contracts/gOHM.sol\":3716:3723  _amount */\n      dup6\n        /* \"contracts/gOHM.sol\":3716:3727  _amount.mul */\n      tag_173\n      swap1\n        /* \"contracts/gOHM.sol\":3716:3743  _amount.mul(10**decimals()) */\n      swap2\n      swap1\n      0xffffffff\n      and\n      jump\t// in\n    tag_171:\n        /* \"contracts/gOHM.sol\":3716:3747  _amount.mul(10**decimals()).div */\n      tag_174\n      swap1\n        /* \"contracts/gOHM.sol\":3716:3756  _amount.mul(10**decimals()).div(index()) */\n      swap2\n      swap1\n      0xffffffff\n      and\n      jump\t// in\n    tag_169:\n        /* \"contracts/gOHM.sol\":3709:3756  return _amount.mul(10**decimals()).div(index()) */\n      swap1\n      pop\n        /* \"contracts/gOHM.sol\":3624:3763  function balanceTo(uint256 _amount) public view override returns (uint256) {... */\n      swap2\n      swap1\n      pop\n      jump\t// out\n        /* \"contracts/gOHM.sol\":5809:6090  function Votes(address account, uint _votes) public {... */\n    tag_87:\n        /* \"contracts/gOHM.sol\":5871:5891  uint256 nCheckpoints */\n      0x00\n        /* \"contracts/gOHM.sol\":5894:5908  numCheckpoints */\n      0x08\n        /* \"contracts/gOHM.sol\":5894:5917  numCheckpoints[account] */\n      0x00\n        /* \"contracts/gOHM.sol\":5909:5916  account */\n      dup5\n        /* \"contracts/gOHM.sol\":5894:5917  numCheckpoints[account] */\n      0xffffffffffffffffffffffffffffffffffffffff\n      and\n      0xffffffffffffffffffffffffffffffffffffffff\n      and\n      dup2\n      mstore\n      0x20\n      add\n      swap1\n      dup2\n      mstore\n      0x20\n      add\n      0x00\n      keccak256\n      sload\n        /* \"contracts/gOHM.sol\":5871:5917  uint256 nCheckpoints = numCheckpoints[account] */\n      swap1\n      pop\n        /* \"contracts/gOHM.sol\":5970:5976  _votes */\n      dup2\n        /* \"contracts/gOHM.sol\":5927:5938  checkpoints */\n      0x07\n        /* \"contracts/gOHM.sol\":5927:5947  checkpoints[account] */\n      0x00\n        /* \"contracts/gOHM.sol\":5939:5946  account */\n      dup6\n        /* \"contracts/gOHM.sol\":5927:5947  checkpoints[account] */\n      0xffffffffffffffffffffffffffffffffffffffff\n      and\n      0xffffffffffffffffffffffffffffffffffffffff\n      and\n      dup2\n      mstore\n      0x20\n      add\n      swap1\n      dup2\n      mstore\n      0x20\n      add\n      0x00\n      keccak256\n        /* \"contracts/gOHM.sol\":5927:5961  checkpoints[account][nCheckpoints] */\n      0x00\n        /* \"contracts/gOHM.sol\":5948:5960  nCheckpoints */\n      dup4\n        /* \"contracts/gOHM.sol\":5927:5961  checkpoints[account][nCheckpoints] */\n      dup2\n      mstore\n      0x20\n      add\n      swap1\n      dup2\n      mstore\n      0x20\n      add\n      0x00\n      keccak256\n        /* \"contracts/gOHM.sol\":5927:5967  checkpoints[account][nCheckpoints].votes */\n      0x01\n      add\n        /* \"contracts/gOHM.sol\":5927:5976  checkpoints[account][nCheckpoints].votes = _votes */\n      dup2\n      swap1\n      sstore\n      pop\n        /* \"contracts/gOHM.sol\":6033:6045  block.number */\n      number\n        /* \"contracts/gOHM.sol\":5986:5997  checkpoints */\n      0x07\n        /* \"contracts/gOHM.sol\":5986:6006  checkpoints[account] */\n      0x00\n        /* \"contracts/gOHM.sol\":5998:6005  account */\n      dup6\n        /* \"contracts/gOHM.sol\":5986:6006  checkpoints[account] */\n      0xffffffffffffffffffffffffffffffffffffffff\n      and\n      0xffffffffffffffffffffffffffffffffffffffff\n      and\n      dup2\n      mstore\n      0x20\n      add\n      swap1\n      dup2\n      mstore\n      0x20\n      add\n      0x00\n      keccak256\n        /* \"contracts/gOHM.sol\":5986:6020  checkpoints[account][nCheckpoints] */\n      0x00\n        /* \"contracts/gOHM.sol\":6007:6019  nCheckpoints */\n      dup4\n        /* \"contracts/gOHM.sol\":5986:6020  checkpoints[account][nCheckpoints] */\n      dup2\n      mstore\n      0x20\n      add\n      swap1\n      dup2\n      mstore\n      0x20\n      add\n      0x00\n      keccak256\n        /* \"contracts/gOHM.sol\":5986:6030  checkpoints[account][nCheckpoints].fromBlock */\n      0x00\n      add\n        /* \"contracts/gOHM.sol\":5986:6045  checkpoints[account][nCheckpoints].fromBlock = block.number */\n      dup2\n      swap1\n      sstore\n      pop\n        /* \"contracts/gOHM.sol\":6082:6083  1 */\n      0x01\n        /* \"contracts/gOHM.sol\":6055:6069  numCheckpoints */\n      0x08\n        /* \"contracts/gOHM.sol\":6055:6078  numCheckpoints[account] */\n      0x00\n        /* \"contracts/gOHM.sol\":6070:6077  account */\n      dup6\n        /* \"contracts/gOHM.sol\":6055:6078  numCheckpoints[account] */\n      0xffffffffffffffffffffffffffffffffffffffff\n      and\n      0xffffffffffffffffffffffffffffffffffffffff\n      and\n      dup2\n      mstore\n      0x20\n      add\n      swap1\n      dup2\n      mstore\n      0x20\n      add\n      0x00\n      keccak256\n      0x00\n        /* \"contracts/gOHM.sol\":6055:6083  numCheckpoints[account] += 1 */\n      dup3\n      dup3\n      sload\n      add\n      swap3\n      pop\n      pop\n      dup2\n      swap1\n      sstore\n      pop\n        /* \"contracts/gOHM.sol\":5809:6090  function Votes(address account, uint _votes) public {... */\n      pop\n      pop\n      pop\n      jump\t// out\n        /* \"contracts/gOHM.sol\":1271:1320  mapping(address => uint256) public numCheckpoints */\n    tag_90:\n      mstore(0x20, 0x08)\n      dup1\n      0x00\n      mstore\n      keccak256(0x00, 0x40)\n      0x00\n      swap2\n      pop\n      swap1\n      pop\n      sload\n      dup2\n      jump\t// out\n        /* \"contracts/types/ERC20.sol\":2499:2618  function balanceOf(address account) public view virtual override returns (uint256) {... */\n    tag_93:\n        /* \"contracts/types/ERC20.sol\":2573:2580  uint256 */\n      0x00\n        /* \"contracts/types/ERC20.sol\":2595:2604  _balances */\n      dup1\n        /* \"contracts/types/ERC20.sol\":2595:2613  _balances[account] */\n      0x00\n        /* \"contracts/types/ERC20.sol\":2605:2612  account */\n      dup4\n        /* \"contracts/types/ERC20.sol\":2595:2613  _balances[account] */\n      0xffffffffffffffffffffffffffffffffffffffff\n      and\n      0xffffffffffffffffffffffffffffffffffffffff\n      and\n      dup2\n      mstore\n      0x20\n      add\n      swap1\n      dup2\n      mstore\n      0x20\n      add\n      0x00\n      keccak256\n      sload\n        /* \"contracts/types/ERC20.sol\":2588:2613  return _balances[account] */\n      swap1\n      pop\n        /* \"contracts/types/ERC20.sol\":2499:2618  function balanceOf(address account) public view virtual override returns (uint256) {... */\n      swap2\n      swap1\n      pop\n      jump\t// out\n        /* \"contracts/gOHM.sol\":4603:5799  function getPriorVotes(address account, uint256 blockNumber) external view returns (uint256) {... */\n    tag_96:\n        /* \"contracts/gOHM.sol\":4687:4694  uint256 */\n      0x00\n        /* \"contracts/gOHM.sol\":4728:4740  block.number */\n      number\n        /* \"contracts/gOHM.sol\":4714:4725  blockNumber */\n      dup3\n        /* \"contracts/gOHM.sol\":4714:4740  blockNumber < block.number */\n      lt\n        /* \"contracts/gOHM.sol\":4706:4784  require(blockNumber < block.number, \"gOHM::getPriorVotes: not yet determined\") */\n      tag_178\n      jumpi\n      mload(0x40)\n      0x08c379a000000000000000000000000000000000000000000000000000000000\n      dup2\n      mstore\n      0x04\n      add\n      dup1\n      dup1\n      0x20\n      add\n      dup3\n      dup2\n      sub\n      dup3\n      mstore\n      0x27\n      dup2\n      mstore\n      0x20\n      add\n      dup1\n      data_af7c5741dc8cf648e56d5bf296014d9d34a36f052c1eefaa826779d4817e5e92\n      0x27\n      swap2\n      codecopy\n      0x40\n      add\n      swap2\n      pop\n      pop\n      mload(0x40)\n      dup1\n      swap2\n      sub\n      swap1\n      revert\n    tag_178:\n        /* \"contracts/gOHM.sol\":4795:4815  uint256 nCheckpoints */\n      0x00\n        /* \"contracts/gOHM.sol\":4818:4832  numCheckpoints */\n      0x08\n        /* \"contracts/gOHM.sol\":4818:4841  numCheckpoints[account] */\n      0x00\n        /* \"contracts/gOHM.sol\":4833:4840  account */\n      dup6\n        /* \"contracts/gOHM.sol\":4818:4841  numCheckpoints[account] */\n      0xffffffffffffffffffffffffffffffffffffffff\n      and\n      0xffffffffffffffffffffffffffffffffffffffff\n      and\n      dup2\n      mstore\n      0x20\n      add\n      swap1\n      dup2\n      mstore\n      0x20\n      add\n      0x00\n      keccak256\n      sload\n        /* \"contracts/gOHM.sol\":4795:4841  uint256 nCheckpoints = numCheckpoints[account] */\n      swap1\n      pop\n        /* \"contracts/gOHM.sol\":4871:4872  0 */\n      0x00\n        /* \"contracts/gOHM.sol\":4855:4867  nCheckpoints */\n      dup2\n        /* \"contracts/gOHM.sol\":4855:4872  nCheckpoints == 0 */\n      eq\n        /* \"contracts/gOHM.sol\":4851:4907  if (nCheckpoints == 0) {... */\n      iszero\n      tag_179\n      jumpi\n        /* \"contracts/gOHM.sol\":4895:4896  0 */\n      0x00\n        /* \"contracts/gOHM.sol\":4888:4896  return 0 */\n      swap2\n      pop\n      pop\n      jump(tag_177)\n        /* \"contracts/gOHM.sol\":4851:4907  if (nCheckpoints == 0) {... */\n    tag_179:\n        /* \"contracts/gOHM.sol\":5016:5027  blockNumber */\n      dup3\n        /* \"contracts/gOHM.sol\":4964:4975  checkpoints */\n      0x07\n        /* \"contracts/gOHM.sol\":4964:4984  checkpoints[account] */\n      0x00\n        /* \"contracts/gOHM.sol\":4976:4983  account */\n      dup7\n        /* \"contracts/gOHM.sol\":4964:4984  checkpoints[account] */\n      0xffffffffffffffffffffffffffffffffffffffff\n      and\n      0xffffffffffffffffffffffffffffffffffffffff\n      and\n      dup2\n      mstore\n      0x20\n      add\n      swap1\n      dup2\n      mstore\n      0x20\n      add\n      0x00\n      keccak256\n        /* \"contracts/gOHM.sol\":4964:5002  checkpoints[account][nCheckpoints - 1] */\n      0x00\n        /* \"contracts/gOHM.sol\":5000:5001  1 */\n      0x01\n        /* \"contracts/gOHM.sol\":4985:4997  nCheckpoints */\n      dup5\n        /* \"contracts/gOHM.sol\":4985:5001  nCheckpoints - 1 */\n      sub\n        /* \"contracts/gOHM.sol\":4964:5002  checkpoints[account][nCheckpoints - 1] */\n      dup2\n      mstore\n      0x20\n      add\n      swap1\n      dup2\n      mstore\n      0x20\n      add\n      0x00\n      keccak256\n        /* \"contracts/gOHM.sol\":4964:5012  checkpoints[account][nCheckpoints - 1].fromBlock */\n      0x00\n      add\n      sload\n        /* \"contracts/gOHM.sol\":4964:5027  checkpoints[account][nCheckpoints - 1].fromBlock <= blockNumber */\n      gt\n        /* \"contracts/gOHM.sol\":4960:5105  if (checkpoints[account][nCheckpoints - 1].fromBlock <= blockNumber) {... */\n      tag_180\n      jumpi\n        /* \"contracts/gOHM.sol\":5050:5061  checkpoints */\n      0x07\n        /* \"contracts/gOHM.sol\":5050:5070  checkpoints[account] */\n      0x00\n        /* \"contracts/gOHM.sol\":5062:5069  account */\n      dup6\n        /* \"contracts/gOHM.sol\":5050:5070  checkpoints[account] */\n      0xffffffffffffffffffffffffffffffffffffffff\n      and\n      0xffffffffffffffffffffffffffffffffffffffff\n      and\n      dup2\n      mstore\n      0x20\n      add\n      swap1\n      dup2\n      mstore\n      0x20\n      add\n      0x00\n      keccak256\n        /* \"contracts/gOHM.sol\":5050:5088  checkpoints[account][nCheckpoints - 1] */\n      0x00\n        /* \"contracts/gOHM.sol\":5086:5087  1 */\n      0x01\n        /* \"contracts/gOHM.sol\":5071:5083  nCheckpoints */\n      dup4\n        /* \"contracts/gOHM.sol\":5071:5087  nCheckpoints - 1 */\n      sub\n        /* \"contracts/gOHM.sol\":5050:5088  checkpoints[account][nCheckpoints - 1] */\n      dup2\n      mstore\n      0x20\n      add\n      swap1\n      dup2\n      mstore\n      0x20\n      add\n      0x00\n      keccak256\n        /* \"contracts/gOHM.sol\":5050:5094  checkpoints[account][nCheckpoints - 1].votes */\n      0x01\n      add\n      sload\n        /* \"contracts/gOHM.sol\":5043:5094  return checkpoints[account][nCheckpoints - 1].votes */\n      swap2\n      pop\n      pop\n      jump(tag_177)\n        /* \"contracts/gOHM.sol\":4960:5105  if (checkpoints[account][nCheckpoints - 1].fromBlock <= blockNumber) {... */\n    tag_180:\n        /* \"contracts/gOHM.sol\":5199:5210  blockNumber */\n      dup3\n        /* \"contracts/gOHM.sol\":5163:5174  checkpoints */\n      0x07\n        /* \"contracts/gOHM.sol\":5163:5183  checkpoints[account] */\n      0x00\n        /* \"contracts/gOHM.sol\":5175:5182  account */\n      dup7\n        /* \"contracts/gOHM.sol\":5163:5183  checkpoints[account] */\n      0xffffffffffffffffffffffffffffffffffffffff\n      and\n      0xffffffffffffffffffffffffffffffffffffffff\n      and\n      dup2\n      mstore\n      0x20\n      add\n      swap1\n      dup2\n      mstore\n      0x20\n      add\n      0x00\n      keccak256\n        /* \"contracts/gOHM.sol\":5163:5186  checkpoints[account][0] */\n      0x00\n        /* \"contracts/gOHM.sol\":5184:5185  0 */\n      dup1\n        /* \"contracts/gOHM.sol\":5163:5186  checkpoints[account][0] */\n      dup2\n      mstore\n      0x20\n      add\n      swap1\n      dup2\n      mstore\n      0x20\n      add\n      0x00\n      keccak256\n        /* \"contracts/gOHM.sol\":5163:5196  checkpoints[account][0].fromBlock */\n      0x00\n      add\n      sload\n        /* \"contracts/gOHM.sol\":5163:5210  checkpoints[account][0].fromBlock > blockNumber */\n      gt\n        /* \"contracts/gOHM.sol\":5159:5245  if (checkpoints[account][0].fromBlock > blockNumber) {... */\n      iszero\n      tag_181\n      jumpi\n        /* \"contracts/gOHM.sol\":5233:5234  0 */\n      0x00\n        /* \"contracts/gOHM.sol\":5226:5234  return 0 */\n      swap2\n      pop\n      pop\n      jump(tag_177)\n        /* \"contracts/gOHM.sol\":5159:5245  if (checkpoints[account][0].fromBlock > blockNumber) {... */\n    tag_181:\n        /* \"contracts/gOHM.sol\":5255:5268  uint256 lower */\n      0x00\n        /* \"contracts/gOHM.sol\":5282:5295  uint256 upper */\n      dup1\n        /* \"contracts/gOHM.sol\":5313:5314  1 */\n      0x01\n        /* \"contracts/gOHM.sol\":5298:5310  nCheckpoints */\n      dup4\n        /* \"contracts/gOHM.sol\":5298:5314  nCheckpoints - 1 */\n      sub\n        /* \"contracts/gOHM.sol\":5282:5314  uint256 upper = nCheckpoints - 1 */\n      swap1\n      pop\n        /* \"contracts/gOHM.sol\":5324:5743  while (upper > lower) {... */\n    tag_182:\n        /* \"contracts/gOHM.sol\":5339:5344  lower */\n      dup2\n        /* \"contracts/gOHM.sol\":5331:5336  upper */\n      dup2\n        /* \"contracts/gOHM.sol\":5331:5344  upper > lower */\n      gt\n        /* \"contracts/gOHM.sol\":5324:5743  while (upper > lower) {... */\n      iszero\n      tag_183\n      jumpi\n        /* \"contracts/gOHM.sol\":5360:5374  uint256 center */\n      0x00\n        /* \"contracts/gOHM.sol\":5403:5404  2 */\n      0x02\n        /* \"contracts/gOHM.sol\":5394:5399  lower */\n      dup4\n        /* \"contracts/gOHM.sol\":5386:5391  upper */\n      dup4\n        /* \"contracts/gOHM.sol\":5386:5399  upper - lower */\n      sub\n        /* \"contracts/gOHM.sol\":5385:5404  (upper - lower) / 2 */\n      dup2\n      tag_184\n      jumpi\n      invalid\n    tag_184:\n      div\n        /* \"contracts/gOHM.sol\":5377:5382  upper */\n      dup3\n        /* \"contracts/gOHM.sol\":5377:5404  upper - (upper - lower) / 2 */\n      sub\n        /* \"contracts/gOHM.sol\":5360:5404  uint256 center = upper - (upper - lower) / 2 */\n      swap1\n      pop\n        /* \"contracts/gOHM.sol\":5445:5465  Checkpoint memory cp */\n      tag_185\n      tag_186\n      jump\t// in\n    tag_185:\n        /* \"contracts/gOHM.sol\":5468:5479  checkpoints */\n      0x07\n        /* \"contracts/gOHM.sol\":5468:5488  checkpoints[account] */\n      0x00\n        /* \"contracts/gOHM.sol\":5480:5487  account */\n      dup10\n        /* \"contracts/gOHM.sol\":5468:5488  checkpoints[account] */\n      0xffffffffffffffffffffffffffffffffffffffff\n      and\n      0xffffffffffffffffffffffffffffffffffffffff\n      and\n      dup2\n      mstore\n      0x20\n      add\n      swap1\n      dup2\n      mstore\n      0x20\n      add\n      0x00\n      keccak256\n        /* \"contracts/gOHM.sol\":5468:5496  checkpoints[account][center] */\n      0x00\n        /* \"contracts/gOHM.sol\":5489:5495  center */\n      dup4\n        /* \"contracts/gOHM.sol\":5468:5496  checkpoints[account][center] */\n      dup2\n      mstore\n      0x20\n      add\n      swap1\n      dup2\n      mstore\n      0x20\n      add\n      0x00\n      keccak256\n        /* \"contracts/gOHM.sol\":5445:5496  Checkpoint memory cp = checkpoints[account][center] */\n      mload(0x40)\n      dup1\n      0x40\n      add\n      0x40\n      mstore\n      swap1\n      dup2\n      0x00\n      dup3\n      add\n      sload\n      dup2\n      mstore\n      0x20\n      add\n      0x01\n      dup3\n      add\n      sload\n      dup2\n      mstore\n      pop\n      pop\n      swap1\n      pop\n        /* \"contracts/gOHM.sol\":5530:5541  blockNumber */\n      dup7\n        /* \"contracts/gOHM.sol\":5514:5516  cp */\n      dup2\n        /* \"contracts/gOHM.sol\":5514:5526  cp.fromBlock */\n      0x00\n      add\n      mload\n        /* \"contracts/gOHM.sol\":5514:5541  cp.fromBlock == blockNumber */\n      eq\n        /* \"contracts/gOHM.sol\":5510:5733  if (cp.fromBlock == blockNumber) {... */\n      iszero\n      tag_187\n      jumpi\n        /* \"contracts/gOHM.sol\":5568:5570  cp */\n      dup1\n        /* \"contracts/gOHM.sol\":5568:5576  cp.votes */\n      0x20\n      add\n      mload\n        /* \"contracts/gOHM.sol\":5561:5576  return cp.votes */\n      swap6\n      pop\n      pop\n      pop\n      pop\n      pop\n      pop\n      jump(tag_177)\n        /* \"contracts/gOHM.sol\":5510:5733  if (cp.fromBlock == blockNumber) {... */\n    tag_187:\n        /* \"contracts/gOHM.sol\":5616:5627  blockNumber */\n      dup7\n        /* \"contracts/gOHM.sol\":5601:5603  cp */\n      dup2\n        /* \"contracts/gOHM.sol\":5601:5613  cp.fromBlock */\n      0x00\n      add\n      mload\n        /* \"contracts/gOHM.sol\":5601:5627  cp.fromBlock < blockNumber */\n      lt\n        /* \"contracts/gOHM.sol\":5597:5733  if (cp.fromBlock < blockNumber) {... */\n      iszero\n      tag_189\n      jumpi\n        /* \"contracts/gOHM.sol\":5655:5661  center */\n      dup2\n        /* \"contracts/gOHM.sol\":5647:5661  lower = center */\n      swap4\n      pop\n        /* \"contracts/gOHM.sol\":5597:5733  if (cp.fromBlock < blockNumber) {... */\n      jump(tag_190)\n    tag_189:\n        /* \"contracts/gOHM.sol\":5717:5718  1 */\n      0x01\n        /* \"contracts/gOHM.sol\":5708:5714  center */\n      dup3\n        /* \"contracts/gOHM.sol\":5708:5718  center - 1 */\n      sub\n        /* \"contracts/gOHM.sol\":5700:5718  upper = center - 1 */\n      swap3\n      pop\n        /* \"contracts/gOHM.sol\":5597:5733  if (cp.fromBlock < blockNumber) {... */\n    tag_190:\n        /* \"contracts/gOHM.sol\":5324:5743  while (upper > lower) {... */\n      pop\n      pop\n      jump(tag_182)\n    tag_183:\n        /* \"contracts/gOHM.sol\":5759:5770  checkpoints */\n      0x07\n        /* \"contracts/gOHM.sol\":5759:5779  checkpoints[account] */\n      0x00\n        /* \"contracts/gOHM.sol\":5771:5778  account */\n      dup8\n        /* \"contracts/gOHM.sol\":5759:5779  checkpoints[account] */\n      0xffffffffffffffffffffffffffffffffffffffff\n      and\n      0xffffffffffffffffffffffffffffffffffffffff\n      and\n      dup2\n      mstore\n      0x20\n      add\n      swap1\n      dup2\n      mstore\n      0x20\n      add\n      0x00\n      keccak256\n        /* \"contracts/gOHM.sol\":5759:5786  checkpoints[account][lower] */\n      0x00\n        /* \"contracts/gOHM.sol\":5780:5785  lower */\n      dup4\n        /* \"contracts/gOHM.sol\":5759:5786  checkpoints[account][lower] */\n      dup2\n      mstore\n      0x20\n      add\n      swap1\n      dup2\n      mstore\n      0x20\n      add\n      0x00\n      keccak256\n        /* \"contracts/gOHM.sol\":5759:5792  checkpoints[account][lower].votes */\n      0x01\n      add\n      sload\n        /* \"contracts/gOHM.sol\":5752:5792  return checkpoints[account][lower].votes */\n      swap4\n      pop\n      pop\n      pop\n      pop\n        /* \"contracts/gOHM.sol\":4603:5799  function getPriorVotes(address account, uint256 blockNumber) external view returns (uint256) {... */\n    tag_177:\n      swap3\n      swap2\n      pop\n      pop\n      jump\t// out\n        /* \"contracts/gOHM.sol\":6521:7386  function _moveDelegates(... */\n    tag_99:\n        /* \"contracts/gOHM.sol\":6654:6660  dstRep */\n      dup2\n        /* \"contracts/gOHM.sol\":6644:6660  srcRep != dstRep */\n      0xffffffffffffffffffffffffffffffffffffffff\n      and\n        /* \"contracts/gOHM.sol\":6644:6650  srcRep */\n      dup4\n        /* \"contracts/gOHM.sol\":6644:6660  srcRep != dstRep */\n      0xffffffffffffffffffffffffffffffffffffffff\n      and\n      eq\n      iszero\n        /* \"contracts/gOHM.sol\":6644:6674  srcRep != dstRep && amount > 0 */\n      dup1\n      iszero\n      tag_192\n      jumpi\n      pop\n        /* \"contracts/gOHM.sol\":6673:6674  0 */\n      0x00\n        /* \"contracts/gOHM.sol\":6664:6670  amount */\n      dup2\n        /* \"contracts/gOHM.sol\":6664:6674  amount > 0 */\n      gt\n        /* \"contracts/gOHM.sol\":6644:6674  srcRep != dstRep && amount > 0 */\n    tag_192:\n        /* \"contracts/gOHM.sol\":6640:7380  if (srcRep != dstRep && amount > 0) {... */\n      iszero\n      tag_193\n      jumpi\n        /* \"contracts/gOHM.sol\":6712:6713  0 */\n      0x00\n        /* \"contracts/gOHM.sol\":6694:6714  srcRep != address(0) */\n      0xffffffffffffffffffffffffffffffffffffffff\n      and\n        /* \"contracts/gOHM.sol\":6694:6700  srcRep */\n      dup4\n        /* \"contracts/gOHM.sol\":6694:6714  srcRep != address(0) */\n      0xffffffffffffffffffffffffffffffffffffffff\n      and\n      eq\n        /* \"contracts/gOHM.sol\":6690:7023  if (srcRep != address(0)) {... */\n      tag_194\n      jumpi\n        /* \"contracts/gOHM.sol\":6734:6751  uint256 srcRepNum */\n      0x00\n        /* \"contracts/gOHM.sol\":6754:6768  numCheckpoints */\n      0x08\n        /* \"contracts/gOHM.sol\":6754:6776  numCheckpoints[srcRep] */\n      0x00\n        /* \"contracts/gOHM.sol\":6769:6775  srcRep */\n      dup6\n        /* \"contracts/gOHM.sol\":6754:6776  numCheckpoints[srcRep] */\n      0xffffffffffffffffffffffffffffffffffffffff\n      and\n      0xffffffffffffffffffffffffffffffffffffffff\n      and\n      dup2\n      mstore\n      0x20\n      add\n      swap1\n      dup2\n      mstore\n      0x20\n      add\n      0x00\n      keccak256\n      sload\n        /* \"contracts/gOHM.sol\":6734:6776  uint256 srcRepNum = numCheckpoints[srcRep] */\n      swap1\n      pop\n        /* \"contracts/gOHM.sol\":6794:6811  uint256 srcRepOld */\n      0x00\n        /* \"contracts/gOHM.sol\":6826:6827  0 */\n      dup1\n        /* \"contracts/gOHM.sol\":6814:6823  srcRepNum */\n      dup3\n        /* \"contracts/gOHM.sol\":6814:6827  srcRepNum > 0 */\n      gt\n        /* \"contracts/gOHM.sol\":6814:6874  srcRepNum > 0 ? checkpoints[srcRep][srcRepNum - 1].votes : 0 */\n      tag_195\n      jumpi\n        /* \"contracts/gOHM.sol\":6873:6874  0 */\n      0x00\n        /* \"contracts/gOHM.sol\":6814:6874  srcRepNum > 0 ? checkpoints[srcRep][srcRepNum - 1].votes : 0 */\n      jump(tag_196)\n    tag_195:\n        /* \"contracts/gOHM.sol\":6830:6841  checkpoints */\n      0x07\n        /* \"contracts/gOHM.sol\":6830:6849  checkpoints[srcRep] */\n      0x00\n        /* \"contracts/gOHM.sol\":6842:6848  srcRep */\n      dup7\n        /* \"contracts/gOHM.sol\":6830:6849  checkpoints[srcRep] */\n      0xffffffffffffffffffffffffffffffffffffffff\n      and\n      0xffffffffffffffffffffffffffffffffffffffff\n      and\n      dup2\n      mstore\n      0x20\n      add\n      swap1\n      dup2\n      mstore\n      0x20\n      add\n      0x00\n      keccak256\n        /* \"contracts/gOHM.sol\":6830:6864  checkpoints[srcRep][srcRepNum - 1] */\n      0x00\n        /* \"contracts/gOHM.sol\":6862:6863  1 */\n      0x01\n        /* \"contracts/gOHM.sol\":6850:6859  srcRepNum */\n      dup5\n        /* \"contracts/gOHM.sol\":6850:6863  srcRepNum - 1 */\n      sub\n        /* \"contracts/gOHM.sol\":6830:6864  checkpoints[srcRep][srcRepNum - 1] */\n      dup2\n      mstore\n      0x20\n      add\n      swap1\n      dup2\n      mstore\n      0x20\n      add\n      0x00\n      keccak256\n        /* \"contracts/gOHM.sol\":6830:6870  checkpoints[srcRep][srcRepNum - 1].votes */\n      0x01\n      add\n      sload\n        /* \"contracts/gOHM.sol\":6814:6874  srcRepNum > 0 ? checkpoints[srcRep][srcRepNum - 1].votes : 0 */\n    tag_196:\n        /* \"contracts/gOHM.sol\":6794:6874  uint256 srcRepOld = srcRepNum > 0 ? checkpoints[srcRep][srcRepNum - 1].votes : 0 */\n      swap1\n      pop\n        /* \"contracts/gOHM.sol\":6892:6909  uint256 srcRepNew */\n      0x00\n        /* \"contracts/gOHM.sol\":6912:6933  srcRepOld.sub(amount) */\n      tag_197\n        /* \"contracts/gOHM.sol\":6926:6932  amount */\n      dup5\n        /* \"contracts/gOHM.sol\":6912:6921  srcRepOld */\n      dup4\n        /* \"contracts/gOHM.sol\":6912:6925  srcRepOld.sub */\n      tag_198\n      swap1\n        /* \"contracts/gOHM.sol\":6912:6933  srcRepOld.sub(amount) */\n      swap2\n      swap1\n      0xffffffff\n      and\n      jump\t// in\n    tag_197:\n        /* \"contracts/gOHM.sol\":6892:6933  uint256 srcRepNew = srcRepOld.sub(amount) */\n      swap1\n      pop\n        /* \"contracts/gOHM.sol\":6951:7008  _writeCheckpoint(srcRep, srcRepNum, srcRepOld, srcRepNew) */\n      tag_199\n        /* \"contracts/gOHM.sol\":6968:6974  srcRep */\n      dup7\n        /* \"contracts/gOHM.sol\":6976:6985  srcRepNum */\n      dup5\n        /* \"contracts/gOHM.sol\":6987:6996  srcRepOld */\n      dup5\n        /* \"contracts/gOHM.sol\":6998:7007  srcRepNew */\n      dup5\n        /* \"contracts/gOHM.sol\":6951:6967  _writeCheckpoint */\n      tag_129\n        /* \"contracts/gOHM.sol\":6951:7008  _writeCheckpoint(srcRep, srcRepNum, srcRepOld, srcRepNew) */\n      jump\t// in\n    tag_199:\n        /* \"contracts/gOHM.sol\":6690:7023  if (srcRep != address(0)) {... */\n      pop\n      pop\n      pop\n    tag_194:\n        /* \"contracts/gOHM.sol\":7059:7060  0 */\n      0x00\n        /* \"contracts/gOHM.sol\":7041:7061  dstRep != address(0) */\n      0xffffffffffffffffffffffffffffffffffffffff\n      and\n        /* \"contracts/gOHM.sol\":7041:7047  dstRep */\n      dup3\n        /* \"contracts/gOHM.sol\":7041:7061  dstRep != address(0) */\n      0xffffffffffffffffffffffffffffffffffffffff\n      and\n      eq\n        /* \"contracts/gOHM.sol\":7037:7370  if (dstRep != address(0)) {... */\n      tag_200\n      jumpi\n        /* \"contracts/gOHM.sol\":7081:7098  uint256 dstRepNum */\n      0x00\n        /* \"contracts/gOHM.sol\":7101:7115  numCheckpoints */\n      0x08\n        /* \"contracts/gOHM.sol\":7101:7123  numCheckpoints[dstRep] */\n      0x00\n        /* \"contracts/gOHM.sol\":7116:7122  dstRep */\n      dup5\n        /* \"contracts/gOHM.sol\":7101:7123  numCheckpoints[dstRep] */\n      0xffffffffffffffffffffffffffffffffffffffff\n      and\n      0xffffffffffffffffffffffffffffffffffffffff\n      and\n      dup2\n      mstore\n      0x20\n      add\n      swap1\n      dup2\n      mstore\n      0x20\n      add\n      0x00\n      keccak256\n      sload\n        /* \"contracts/gOHM.sol\":7081:7123  uint256 dstRepNum = numCheckpoints[dstRep] */\n      swap1\n      pop\n        /* \"contracts/gOHM.sol\":7141:7158  uint256 dstRepOld */\n      0x00\n        /* \"contracts/gOHM.sol\":7173:7174  0 */\n      dup1\n        /* \"contracts/gOHM.sol\":7161:7170  dstRepNum */\n      dup3\n        /* \"contracts/gOHM.sol\":7161:7174  dstRepNum > 0 */\n      gt\n        /* \"contracts/gOHM.sol\":7161:7221  dstRepNum > 0 ? checkpoints[dstRep][dstRepNum - 1].votes : 0 */\n      tag_201\n      jumpi\n        /* \"contracts/gOHM.sol\":7220:7221  0 */\n      0x00\n        /* \"contracts/gOHM.sol\":7161:7221  dstRepNum > 0 ? checkpoints[dstRep][dstRepNum - 1].votes : 0 */\n      jump(tag_202)\n    tag_201:\n        /* \"contracts/gOHM.sol\":7177:7188  checkpoints */\n      0x07\n        /* \"contracts/gOHM.sol\":7177:7196  checkpoints[dstRep] */\n      0x00\n        /* \"contracts/gOHM.sol\":7189:7195  dstRep */\n      dup6\n        /* \"contracts/gOHM.sol\":7177:7196  checkpoints[dstRep] */\n      0xffffffffffffffffffffffffffffffffffffffff\n      and\n      0xffffffffffffffffffffffffffffffffffffffff\n      and\n      dup2\n      mstore\n      0x20\n      add\n      swap1\n      dup2\n      mstore\n      0x20\n      add\n      0x00\n      keccak256\n        /* \"contracts/gOHM.sol\":7177:7211  checkpoints[dstRep][dstRepNum - 1] */\n      0x00\n        /* \"contracts/gOHM.sol\":7209:7210  1 */\n      0x01\n        /* \"contracts/gOHM.sol\":7197:7206  dstRepNum */\n      dup5\n        /* \"contracts/gOHM.sol\":7197:7210  dstRepNum - 1 */\n      sub\n        /* \"contracts/gOHM.sol\":7177:7211  checkpoints[dstRep][dstRepNum - 1] */\n      dup2\n      mstore\n      0x20\n      add\n      swap1\n      dup2\n      mstore\n      0x20\n      add\n      0x00\n      keccak256\n        /* \"contracts/gOHM.sol\":7177:7217  checkpoints[dstRep][dstRepNum - 1].votes */\n      0x01\n      add\n      sload\n        /* \"contracts/gOHM.sol\":7161:7221  dstRepNum > 0 ? checkpoints[dstRep][dstRepNum - 1].votes : 0 */\n    tag_202:\n        /* \"contracts/gOHM.sol\":7141:7221  uint256 dstRepOld = dstRepNum > 0 ? checkpoints[dstRep][dstRepNum - 1].votes : 0 */\n      swap1\n      pop\n        /* \"contracts/gOHM.sol\":7239:7256  uint256 dstRepNew */\n      0x00\n        /* \"contracts/gOHM.sol\":7259:7280  dstRepOld.add(amount) */\n      tag_203\n        /* \"contracts/gOHM.sol\":7273:7279  amount */\n      dup5\n        /* \"contracts/gOHM.sol\":7259:7268  dstRepOld */\n      dup4\n        /* \"contracts/gOHM.sol\":7259:7272  dstRepOld.add */\n      tag_160\n      swap1\n        /* \"contracts/gOHM.sol\":7259:7280  dstRepOld.add(amount) */\n      swap2\n      swap1\n      0xffffffff\n      and\n      jump\t// in\n    tag_203:\n        /* \"contracts/gOHM.sol\":7239:7280  uint256 dstRepNew = dstRepOld.add(amount) */\n      swap1\n      pop\n        /* \"contracts/gOHM.sol\":7298:7355  _writeCheckpoint(dstRep, dstRepNum, dstRepOld, dstRepNew) */\n      tag_204\n        /* \"contracts/gOHM.sol\":7315:7321  dstRep */\n      dup6\n        /* \"contracts/gOHM.sol\":7323:7332  dstRepNum */\n      dup5\n        /* \"contracts/gOHM.sol\":7334:7343  dstRepOld */\n      dup5\n        /* \"contracts/gOHM.sol\":7345:7354  dstRepNew */\n      dup5\n        /* \"contracts/gOHM.sol\":7298:7314  _writeCheckpoint */\n      tag_129\n        /* \"contracts/gOHM.sol\":7298:7355  _writeCheckpoint(dstRep, dstRepNum, dstRepOld, dstRepNew) */\n      jump\t// in\n    tag_204:\n        /* \"contracts/gOHM.sol\":7037:7370  if (dstRep != address(0)) {... */\n      pop\n      pop\n      pop\n    tag_200:\n        /* \"contracts/gOHM.sol\":6640:7380  if (srcRep != dstRep && amount > 0) {... */\n    tag_193:\n        /* \"contracts/gOHM.sol\":6521:7386  function _moveDelegates(... */\n      pop\n      pop\n      pop\n      jump\t// out\n        /* \"contracts/types/ERC20.sol\":1487:1566  function symbol() public view returns (string memory) {... */\n    tag_101:\n        /* \"contracts/types/ERC20.sol\":1526:1539  string memory */\n      0x60\n        /* \"contracts/types/ERC20.sol\":1554:1561  _symbol */\n      0x04\n        /* \"contracts/types/ERC20.sol\":1547:1561  return _symbol */\n      dup1\n      sload\n      0x01\n      dup2\n      0x01\n      and\n      iszero\n      0x0100\n      mul\n      sub\n      and\n      0x02\n      swap1\n      div\n      dup1\n      0x1f\n      add\n      0x20\n      dup1\n      swap2\n      div\n      mul\n      0x20\n      add\n      mload(0x40)\n      swap1\n      dup2\n      add\n      0x40\n      mstore\n      dup1\n      swap3\n      swap2\n      swap1\n      dup2\n      dup2\n      mstore\n      0x20\n      add\n      dup3\n      dup1\n      sload\n      0x01\n      dup2\n      0x01\n      and\n      iszero\n      0x0100\n      mul\n      sub\n      and\n      0x02\n      swap1\n      div\n      dup1\n      iszero\n      tag_206\n      jumpi\n      dup1\n      0x1f\n      lt\n      tag_207\n      jumpi\n      0x0100\n      dup1\n      dup4\n      sload\n      div\n      mul\n      dup4\n      mstore\n      swap2\n      0x20\n      add\n      swap2\n      jump(tag_206)\n    tag_207:\n      dup3\n      add\n      swap2\n      swap1\n      0x00\n      mstore\n      keccak256(0x00, 0x20)\n      swap1\n    tag_208:\n      dup2\n      sload\n      dup2\n      mstore\n      swap1\n      0x01\n      add\n      swap1\n      0x20\n      add\n      dup1\n      dup4\n      gt\n      tag_208\n      jumpi\n      dup3\n      swap1\n      sub\n      0x1f\n      and\n      dup3\n      add\n      swap2\n    tag_206:\n      pop\n      pop\n      pop\n      pop\n      pop\n      swap1\n      pop\n        /* \"contracts/types/ERC20.sol\":1487:1566  function symbol() public view returns (string memory) {... */\n      swap1\n      jump\t// out\n        /* \"contracts/gOHM.sol\":2934:3049  function burn(address _from, uint256 _amount) external override onlyApproved {... */\n    tag_108:\n        /* \"contracts/gOHM.sol\":546:554  approved */\n      0x06\n      0x00\n      swap1\n      sload\n      swap1\n      0x0100\n      exp\n      swap1\n      div\n      0xffffffffffffffffffffffffffffffffffffffff\n      and\n        /* \"contracts/gOHM.sol\":532:554  msg.sender == approved */\n      0xffffffffffffffffffffffffffffffffffffffff\n      and\n        /* \"contracts/gOHM.sol\":532:542  msg.sender */\n      caller\n        /* \"contracts/gOHM.sol\":532:554  msg.sender == approved */\n      0xffffffffffffffffffffffffffffffffffffffff\n      and\n      eq\n        /* \"contracts/gOHM.sol\":524:572  require(msg.sender == approved, \"Only approved\") */\n      tag_210\n      jumpi\n      mload(0x40)\n      0x08c379a000000000000000000000000000000000000000000000000000000000\n      dup2\n      mstore\n      0x04\n      add\n      dup1\n      dup1\n      0x20\n      add\n      dup3\n      dup2\n      sub\n      dup3\n      mstore\n      0x0d\n      dup2\n      mstore\n      0x20\n      add\n      dup1\n      0x4f6e6c7920617070726f76656400000000000000000000000000000000000000\n      dup2\n      mstore\n      pop\n      0x20\n      add\n      swap2\n      pop\n      pop\n      mload(0x40)\n      dup1\n      swap2\n      sub\n      swap1\n      revert\n    tag_210:\n        /* \"contracts/gOHM.sol\":3021:3042  _burn(_from, _amount) */\n      tag_212\n        /* \"contracts/gOHM.sol\":3027:3032  _from */\n      dup3\n        /* \"contracts/gOHM.sol\":3034:3041  _amount */\n      dup3\n        /* \"contracts/gOHM.sol\":3021:3026  _burn */\n      tag_213\n        /* \"contracts/gOHM.sol\":3021:3042  _burn(_from, _amount) */\n      jump\t// in\n    tag_212:\n        /* \"contracts/gOHM.sol\":2934:3049  function burn(address _from, uint256 _amount) external override onlyApproved {... */\n      pop\n      pop\n      jump\t// out\n        /* \"contracts/gOHM.sol\":6148:6515  function _delegate(address delegator, address delegatee) public {... */\n    tag_111:\n        /* \"contracts/gOHM.sol\":6222:6245  address currentDelegate */\n      0x00\n        /* \"contracts/gOHM.sol\":6248:6257  delegates */\n      0x09\n        /* \"contracts/gOHM.sol\":6248:6268  delegates[delegator] */\n      0x00\n        /* \"contracts/gOHM.sol\":6258:6267  delegator */\n      dup5\n        /* \"contracts/gOHM.sol\":6248:6268  delegates[delegator] */\n      0xffffffffffffffffffffffffffffffffffffffff\n      and\n      0xffffffffffffffffffffffffffffffffffffffff\n      and\n      dup2\n      mstore\n      0x20\n      add\n      swap1\n      dup2\n      mstore\n      0x20\n      add\n      0x00\n      keccak256\n      0x00\n      swap1\n      sload\n      swap1\n      0x0100\n      exp\n      swap1\n      div\n      0xffffffffffffffffffffffffffffffffffffffff\n      and\n        /* \"contracts/gOHM.sol\":6222:6268  address currentDelegate = delegates[delegator] */\n      swap1\n      pop\n        /* \"contracts/gOHM.sol\":6278:6302  uint256 delegatorBalance */\n      0x00\n        /* \"contracts/gOHM.sol\":6305:6314  _balances */\n      dup1\n        /* \"contracts/gOHM.sol\":6305:6325  _balances[delegator] */\n      0x00\n        /* \"contracts/gOHM.sol\":6315:6324  delegator */\n      dup6\n        /* \"contracts/gOHM.sol\":6305:6325  _balances[delegator] */\n      0xffffffffffffffffffffffffffffffffffffffff\n      and\n      0xffffffffffffffffffffffffffffffffffffffff\n      and\n      dup2\n      mstore\n      0x20\n      add\n      swap1\n      dup2\n      mstore\n      0x20\n      add\n      0x00\n      keccak256\n      sload\n        /* \"contracts/gOHM.sol\":6278:6325  uint256 delegatorBalance = _balances[delegator] */\n      swap1\n      pop\n        /* \"contracts/gOHM.sol\":6358:6367  delegatee */\n      dup3\n        /* \"contracts/gOHM.sol\":6335:6344  delegates */\n      0x09\n        /* \"contracts/gOHM.sol\":6335:6355  delegates[delegator] */\n      0x00\n        /* \"contracts/gOHM.sol\":6345:6354  delegator */\n      dup7\n        /* \"contracts/gOHM.sol\":6335:6355  delegates[delegator] */\n      0xffffffffffffffffffffffffffffffffffffffff\n      and\n      0xffffffffffffffffffffffffffffffffffffffff\n      and\n      dup2\n      mstore\n      0x20\n      add\n      swap1\n      dup2\n      mstore\n      0x20\n      add\n      0x00\n      keccak256\n      0x00\n        /* \"contracts/gOHM.sol\":6335:6367  delegates[delegator] = delegatee */\n      0x0100\n      exp\n      dup2\n      sload\n      dup2\n      0xffffffffffffffffffffffffffffffffffffffff\n      mul\n      not\n      and\n      swap1\n      dup4\n      0xffffffffffffffffffffffffffffffffffffffff\n      and\n      mul\n      or\n      swap1\n      sstore\n      pop\n        /* \"contracts/gOHM.sol\":6427:6436  delegatee */\n      dup3\n        /* \"contracts/gOHM.sol\":6383:6437  DelegateChanged(delegator, currentDelegate, delegatee) */\n      0xffffffffffffffffffffffffffffffffffffffff\n      and\n        /* \"contracts/gOHM.sol\":6410:6425  currentDelegate */\n      dup3\n        /* \"contracts/gOHM.sol\":6383:6437  DelegateChanged(delegator, currentDelegate, delegatee) */\n      0xffffffffffffffffffffffffffffffffffffffff\n      and\n        /* \"contracts/gOHM.sol\":6399:6408  delegator */\n      dup6\n        /* \"contracts/gOHM.sol\":6383:6437  DelegateChanged(delegator, currentDelegate, delegatee) */\n      0xffffffffffffffffffffffffffffffffffffffff\n      and\n      0x3134e8a2e6d97e929a7e54011ea5485d7d196dd5f0ba4d4ef95803e8e3fc257f\n      mload(0x40)\n      mload(0x40)\n      dup1\n      swap2\n      sub\n      swap1\n      log4\n        /* \"contracts/gOHM.sol\":6448:6508  _moveDelegates(currentDelegate, delegatee, delegatorBalance) */\n      tag_215\n        /* \"contracts/gOHM.sol\":6463:6478  currentDelegate */\n      dup3\n        /* \"contracts/gOHM.sol\":6480:6489  delegatee */\n      dup5\n        /* \"contracts/gOHM.sol\":6491:6507  delegatorBalance */\n      dup4\n        /* \"contracts/gOHM.sol\":6448:6462  _moveDelegates */\n      tag_99\n        /* \"contracts/gOHM.sol\":6448:6508  _moveDelegates(currentDelegate, delegatee, delegatorBalance) */\n      jump\t// in\n    tag_215:\n        /* \"contracts/gOHM.sol\":6148:6515  function _delegate(address delegator, address delegatee) public {... */\n      pop\n      pop\n      pop\n      pop\n      jump\t// out\n        /* \"contracts/types/ERC20.sol\":5487:5749  function decreaseAllowance(address spender, uint256 subtractedValue) public virtual returns (bool) {... */\n    tag_114:\n        /* \"contracts/types/ERC20.sol\":5580:5584  bool */\n      0x00\n        /* \"contracts/types/ERC20.sol\":5596:5721  _approve(msg.sender, spender, _allowances[msg.sender][spender].sub(subtractedValue, \"ERC20: decreased allowance below zero\")) */\n      tag_217\n        /* \"contracts/types/ERC20.sol\":5605:5615  msg.sender */\n      caller\n        /* \"contracts/types/ERC20.sol\":5617:5624  spender */\n      dup5\n        /* \"contracts/types/ERC20.sol\":5626:5720  _allowances[msg.sender][spender].sub(subtractedValue, \"ERC20: decreased allowance below zero\") */\n      tag_218\n        /* \"contracts/types/ERC20.sol\":5663:5678  subtractedValue */\n      dup6\n        /* \"contracts/types/ERC20.sol\":5626:5720  _allowances[msg.sender][spender].sub(subtractedValue, \"ERC20: decreased allowance below zero\") */\n      mload(0x40)\n      dup1\n      0x60\n      add\n      0x40\n      mstore\n      dup1\n      0x25\n      dup2\n      mstore\n      0x20\n      add\n      data_f8b476f7d28209d77d4a4ac1fe36b9f8259aa1bb6bddfa6e89de7e51615cf8a8\n      0x25\n      swap2\n      codecopy\n        /* \"contracts/types/ERC20.sol\":5626:5637  _allowances */\n      0x01\n        /* \"contracts/types/ERC20.sol\":5626:5649  _allowances[msg.sender] */\n      0x00\n        /* \"contracts/types/ERC20.sol\":5638:5648  msg.sender */\n      caller\n        /* \"contracts/types/ERC20.sol\":5626:5649  _allowances[msg.sender] */\n      0xffffffffffffffffffffffffffffffffffffffff\n      and\n      0xffffffffffffffffffffffffffffffffffffffff\n      and\n      dup2\n      mstore\n      0x20\n      add\n      swap1\n      dup2\n      mstore\n      0x20\n      add\n      0x00\n      keccak256\n        /* \"contracts/types/ERC20.sol\":5626:5658  _allowances[msg.sender][spender] */\n      0x00\n        /* \"contracts/types/ERC20.sol\":5650:5657  spender */\n      dup11\n        /* \"contracts/types/ERC20.sol\":5626:5658  _allowances[msg.sender][spender] */\n      0xffffffffffffffffffffffffffffffffffffffff\n      and\n      0xffffffffffffffffffffffffffffffffffffffff\n      and\n      dup2\n      mstore\n      0x20\n      add\n      swap1\n      dup2\n      mstore\n      0x20\n      add\n      0x00\n      keccak256\n      sload\n        /* \"contracts/types/ERC20.sol\":5626:5662  _allowances[msg.sender][spender].sub */\n      tag_150\n      swap1\n        /* \"contracts/types/ERC20.sol\":5626:5720  _allowances[msg.sender][spender].sub(subtractedValue, \"ERC20: decreased allowance below zero\") */\n      swap3\n      swap2\n      swap1\n      0xffffffff\n      and\n      jump\t// in\n    tag_218:\n        /* \"contracts/types/ERC20.sol\":5596:5604  _approve */\n      tag_136\n        /* \"contracts/types/ERC20.sol\":5596:5721  _approve(msg.sender, spender, _allowances[msg.sender][spender].sub(subtractedValue, \"ERC20: decreased allowance below zero\")) */\n      jump\t// in\n    tag_217:\n        /* \"contracts/types/ERC20.sol\":5738:5742  true */\n      0x01\n        /* \"contracts/types/ERC20.sol\":5731:5742  return true */\n      swap1\n      pop\n        /* \"contracts/types/ERC20.sol\":5487:5749  function decreaseAllowance(address spender, uint256 subtractedValue) public virtual returns (bool) {... */\n      swap3\n      swap2\n      pop\n      pop\n      jump\t// out\n        /* \"contracts/gOHM.sol\":3368:3509  function balanceFrom(uint256 _amount) public view override returns (uint256) {... */\n    tag_117:\n        /* \"contracts/gOHM.sol\":3436:3443  uint256 */\n      0x00\n        /* \"contracts/gOHM.sol\":3462:3502  _amount.mul(index()).div(10**decimals()) */\n      tag_220\n        /* \"contracts/gOHM.sol\":3491:3501  decimals() */\n      tag_221\n        /* \"contracts/gOHM.sol\":3491:3499  decimals */\n      tag_69\n        /* \"contracts/gOHM.sol\":3491:3501  decimals() */\n      jump\t// in\n    tag_221:\n        /* \"contracts/gOHM.sol\":3487:3501  10**decimals() */\n      0xff\n      and\n        /* \"contracts/gOHM.sol\":3487:3489  10 */\n      0x0a\n        /* \"contracts/gOHM.sol\":3487:3501  10**decimals() */\n      exp\n        /* \"contracts/gOHM.sol\":3462:3482  _amount.mul(index()) */\n      tag_222\n        /* \"contracts/gOHM.sol\":3474:3481  index() */\n      tag_223\n        /* \"contracts/gOHM.sol\":3474:3479  index */\n      tag_65\n        /* \"contracts/gOHM.sol\":3474:3481  index() */\n      jump\t// in\n    tag_223:\n        /* \"contracts/gOHM.sol\":3462:3469  _amount */\n      dup6\n        /* \"contracts/gOHM.sol\":3462:3473  _amount.mul */\n      tag_173\n      swap1\n        /* \"contracts/gOHM.sol\":3462:3482  _amount.mul(index()) */\n      swap2\n      swap1\n      0xffffffff\n      and\n      jump\t// in\n    tag_222:\n        /* \"contracts/gOHM.sol\":3462:3486  _amount.mul(index()).div */\n      tag_174\n      swap1\n        /* \"contracts/gOHM.sol\":3462:3502  _amount.mul(index()).div(10**decimals()) */\n      swap2\n      swap1\n      0xffffffff\n      and\n      jump\t// in\n    tag_220:\n        /* \"contracts/gOHM.sol\":3455:3502  return _amount.mul(index()).div(10**decimals()) */\n      swap1\n      pop\n        /* \"contracts/gOHM.sol\":3368:3509  function balanceFrom(uint256 _amount) public view override returns (uint256) {... */\n      swap2\n      swap1\n      pop\n      jump\t// out\n        /* \"contracts/types/ERC20.sol\":2870:3030  function transfer(address recipient, uint256 amount) public virtual override returns (bool) {... */\n    tag_120:\n        /* \"contracts/types/ERC20.sol\":2956:2960  bool */\n      0x00\n        /* \"contracts/types/ERC20.sol\":2968:3008  _transfer(msg.sender, recipient, amount) */\n      tag_225\n        /* \"contracts/types/ERC20.sol\":2978:2988  msg.sender */\n      caller\n        /* \"contracts/types/ERC20.sol\":2990:2999  recipient */\n      dup5\n        /* \"contracts/types/ERC20.sol\":3001:3007  amount */\n      dup5\n        /* \"contracts/types/ERC20.sol\":2968:2977  _transfer */\n      tag_147\n        /* \"contracts/types/ERC20.sol\":2968:3008  _transfer(msg.sender, recipient, amount) */\n      jump\t// in\n    tag_225:\n        /* \"contracts/types/ERC20.sol\":3021:3025  true */\n      0x01\n        /* \"contracts/types/ERC20.sol\":3014:3025  return true */\n      swap1\n      pop\n        /* \"contracts/types/ERC20.sol\":2870:3030  function transfer(address recipient, uint256 amount) public virtual override returns (bool) {... */\n      swap3\n      swap2\n      pop\n      pop\n      jump\t// out\n        /* \"contracts/gOHM.sol\":3960:4181  function getCurrentVotes(address account) external view returns (uint256) {... */\n    tag_123:\n        /* \"contracts/gOHM.sol\":4025:4032  uint256 */\n      0x00\n        /* \"contracts/gOHM.sol\":4044:4064  uint256 nCheckpoints */\n      dup1\n        /* \"contracts/gOHM.sol\":4067:4081  numCheckpoints */\n      0x08\n        /* \"contracts/gOHM.sol\":4067:4090  numCheckpoints[account] */\n      0x00\n        /* \"contracts/gOHM.sol\":4082:4089  account */\n      dup5\n        /* \"contracts/gOHM.sol\":4067:4090  numCheckpoints[account] */\n      0xffffffffffffffffffffffffffffffffffffffff\n      and\n      0xffffffffffffffffffffffffffffffffffffffff\n      and\n      dup2\n      mstore\n      0x20\n      add\n      swap1\n      dup2\n      mstore\n      0x20\n      add\n      0x00\n      keccak256\n      sload\n        /* \"contracts/gOHM.sol\":4044:4090  uint256 nCheckpoints = numCheckpoints[account] */\n      swap1\n      pop\n        /* \"contracts/gOHM.sol\":4122:4123  0 */\n      0x00\n        /* \"contracts/gOHM.sol\":4107:4119  nCheckpoints */\n      dup2\n        /* \"contracts/gOHM.sol\":4107:4123  nCheckpoints > 0 */\n      gt\n        /* \"contracts/gOHM.sol\":4107:4174  nCheckpoints > 0 ? checkpoints[account][nCheckpoints - 1].votes : 0 */\n      tag_227\n      jumpi\n        /* \"contracts/gOHM.sol\":4173:4174  0 */\n      0x00\n        /* \"contracts/gOHM.sol\":4107:4174  nCheckpoints > 0 ? checkpoints[account][nCheckpoints - 1].votes : 0 */\n      jump(tag_228)\n    tag_227:\n        /* \"contracts/gOHM.sol\":4126:4137  checkpoints */\n      0x07\n        /* \"contracts/gOHM.sol\":4126:4146  checkpoints[account] */\n      0x00\n        /* \"contracts/gOHM.sol\":4138:4145  account */\n      dup5\n        /* \"contracts/gOHM.sol\":4126:4146  checkpoints[account] */\n      0xffffffffffffffffffffffffffffffffffffffff\n      and\n      0xffffffffffffffffffffffffffffffffffffffff\n      and\n      dup2\n      mstore\n      0x20\n      add\n      swap1\n      dup2\n      mstore\n      0x20\n      add\n      0x00\n      keccak256\n        /* \"contracts/gOHM.sol\":4126:4164  checkpoints[account][nCheckpoints - 1] */\n      0x00\n        /* \"contracts/gOHM.sol\":4162:4163  1 */\n      0x01\n        /* \"contracts/gOHM.sol\":4147:4159  nCheckpoints */\n      dup4\n        /* \"contracts/gOHM.sol\":4147:4163  nCheckpoints - 1 */\n      sub\n        /* \"contracts/gOHM.sol\":4126:4164  checkpoints[account][nCheckpoints - 1] */\n      dup2\n      mstore\n      0x20\n      add\n      swap1\n      dup2\n      mstore\n      0x20\n      add\n      0x00\n      keccak256\n        /* \"contracts/gOHM.sol\":4126:4170  checkpoints[account][nCheckpoints - 1].votes */\n      0x01\n      add\n      sload\n        /* \"contracts/gOHM.sol\":4107:4174  nCheckpoints > 0 ? checkpoints[account][nCheckpoints - 1].votes : 0 */\n    tag_228:\n        /* \"contracts/gOHM.sol\":4100:4174  return nCheckpoints > 0 ? checkpoints[account][nCheckpoints - 1].votes : 0 */\n      swap2\n      pop\n      pop\n        /* \"contracts/gOHM.sol\":3960:4181  function getCurrentVotes(address account) external view returns (uint256) {... */\n      swap2\n      swap1\n      pop\n      jump\t// out\n        /* \"contracts/types/ERC20.sol\":3113:3262  function allowance(address owner, address spender) public view virtual override returns (uint256) {... */\n    tag_126:\n        /* \"contracts/types/ERC20.sol\":3202:3209  uint256 */\n      0x00\n        /* \"contracts/types/ERC20.sol\":3228:3239  _allowances */\n      0x01\n        /* \"contracts/types/ERC20.sol\":3228:3246  _allowances[owner] */\n      0x00\n        /* \"contracts/types/ERC20.sol\":3240:3245  owner */\n      dup5\n        /* \"contracts/types/ERC20.sol\":3228:3246  _allowances[owner] */\n      0xffffffffffffffffffffffffffffffffffffffff\n      and\n      0xffffffffffffffffffffffffffffffffffffffff\n      and\n      dup2\n      mstore\n      0x20\n      add\n      swap1\n      dup2\n      mstore\n      0x20\n      add\n      0x00\n      keccak256\n        /* \"contracts/types/ERC20.sol\":3228:3255  _allowances[owner][spender] */\n      0x00\n        /* \"contracts/types/ERC20.sol\":3247:3254  spender */\n      dup4\n        /* \"contracts/types/ERC20.sol\":3228:3255  _allowances[owner][spender] */\n      0xffffffffffffffffffffffffffffffffffffffff\n      and\n      0xffffffffffffffffffffffffffffffffffffffff\n      and\n      dup2\n      mstore\n      0x20\n      add\n      swap1\n      dup2\n      mstore\n      0x20\n      add\n      0x00\n      keccak256\n      sload\n        /* \"contracts/types/ERC20.sol\":3221:3255  return _allowances[owner][spender] */\n      swap1\n      pop\n        /* \"contracts/types/ERC20.sol\":3113:3262  function allowance(address owner, address spender) public view virtual override returns (uint256) {... */\n      swap3\n      swap2\n      pop\n      pop\n      jump\t// out\n        /* \"contracts/gOHM.sol\":7392:7959  function _writeCheckpoint(... */\n    tag_129:\n        /* \"contracts/gOHM.sol\":7569:7570  0 */\n      0x00\n        /* \"contracts/gOHM.sol\":7554:7566  nCheckpoints */\n      dup4\n        /* \"contracts/gOHM.sol\":7554:7570  nCheckpoints > 0 */\n      gt\n        /* \"contracts/gOHM.sol\":7554:7640  nCheckpoints > 0 && checkpoints[delegatee][nCheckpoints - 1].fromBlock == block.number */\n      dup1\n      iszero\n      tag_231\n      jumpi\n      pop\n        /* \"contracts/gOHM.sol\":7628:7640  block.number */\n      number\n        /* \"contracts/gOHM.sol\":7574:7585  checkpoints */\n      0x07\n        /* \"contracts/gOHM.sol\":7574:7596  checkpoints[delegatee] */\n      0x00\n        /* \"contracts/gOHM.sol\":7586:7595  delegatee */\n      dup7\n        /* \"contracts/gOHM.sol\":7574:7596  checkpoints[delegatee] */\n      0xffffffffffffffffffffffffffffffffffffffff\n      and\n      0xffffffffffffffffffffffffffffffffffffffff\n      and\n      dup2\n      mstore\n      0x20\n      add\n      swap1\n      dup2\n      mstore\n      0x20\n      add\n      0x00\n      keccak256\n        /* \"contracts/gOHM.sol\":7574:7614  checkpoints[delegatee][nCheckpoints - 1] */\n      0x00\n        /* \"contracts/gOHM.sol\":7612:7613  1 */\n      0x01\n        /* \"contracts/gOHM.sol\":7597:7609  nCheckpoints */\n      dup7\n        /* \"contracts/gOHM.sol\":7597:7613  nCheckpoints - 1 */\n      sub\n        /* \"contracts/gOHM.sol\":7574:7614  checkpoints[delegatee][nCheckpoints - 1] */\n      dup2\n      mstore\n      0x20\n      add\n      swap1\n      dup2\n      mstore\n      0x20\n      add\n      0x00\n      keccak256\n        /* \"contracts/gOHM.sol\":7574:7624  checkpoints[delegatee][nCheckpoints - 1].fromBlock */\n      0x00\n      add\n      sload\n        /* \"contracts/gOHM.sol\":7574:7640  checkpoints[delegatee][nCheckpoints - 1].fromBlock == block.number */\n      eq\n        /* \"contracts/gOHM.sol\":7554:7640  nCheckpoints > 0 && checkpoints[delegatee][nCheckpoints - 1].fromBlock == block.number */\n    tag_231:\n        /* \"contracts/gOHM.sol\":7550:7886  if (nCheckpoints > 0 && checkpoints[delegatee][nCheckpoints - 1].fromBlock == block.number) {... */\n      iszero\n      tag_232\n      jumpi\n        /* \"contracts/gOHM.sol\":7705:7713  newVotes */\n      dup1\n        /* \"contracts/gOHM.sol\":7656:7667  checkpoints */\n      0x07\n        /* \"contracts/gOHM.sol\":7656:7678  checkpoints[delegatee] */\n      0x00\n        /* \"contracts/gOHM.sol\":7668:7677  delegatee */\n      dup7\n        /* \"contracts/gOHM.sol\":7656:7678  checkpoints[delegatee] */\n      0xffffffffffffffffffffffffffffffffffffffff\n      and\n      0xffffffffffffffffffffffffffffffffffffffff\n      and\n      dup2\n      mstore\n      0x20\n      add\n      swap1\n      dup2\n      mstore\n      0x20\n      add\n      0x00\n      keccak256\n        /* \"contracts/gOHM.sol\":7656:7696  checkpoints[delegatee][nCheckpoints - 1] */\n      0x00\n        /* \"contracts/gOHM.sol\":7694:7695  1 */\n      0x01\n        /* \"contracts/gOHM.sol\":7679:7691  nCheckpoints */\n      dup7\n        /* \"contracts/gOHM.sol\":7679:7695  nCheckpoints - 1 */\n      sub\n        /* \"contracts/gOHM.sol\":7656:7696  checkpoints[delegatee][nCheckpoints - 1] */\n      dup2\n      mstore\n      0x20\n      add\n      swap1\n      dup2\n      mstore\n      0x20\n      add\n      0x00\n      keccak256\n        /* \"contracts/gOHM.sol\":7656:7702  checkpoints[delegatee][nCheckpoints - 1].votes */\n      0x01\n      add\n        /* \"contracts/gOHM.sol\":7656:7713  checkpoints[delegatee][nCheckpoints - 1].votes = newVotes */\n      dup2\n      swap1\n      sstore\n      pop\n        /* \"contracts/gOHM.sol\":7550:7886  if (nCheckpoints > 0 && checkpoints[delegatee][nCheckpoints - 1].fromBlock == block.number) {... */\n      jump(tag_233)\n    tag_232:\n        /* \"contracts/gOHM.sol\":7783:7817  Checkpoint(block.number, newVotes) */\n      mload(0x40)\n      dup1\n      0x40\n      add\n      0x40\n      mstore\n      dup1\n        /* \"contracts/gOHM.sol\":7794:7806  block.number */\n      number\n        /* \"contracts/gOHM.sol\":7783:7817  Checkpoint(block.number, newVotes) */\n      dup2\n      mstore\n      0x20\n      add\n        /* \"contracts/gOHM.sol\":7808:7816  newVotes */\n      dup3\n        /* \"contracts/gOHM.sol\":7783:7817  Checkpoint(block.number, newVotes) */\n      dup2\n      mstore\n      pop\n        /* \"contracts/gOHM.sol\":7744:7755  checkpoints */\n      0x07\n        /* \"contracts/gOHM.sol\":7744:7766  checkpoints[delegatee] */\n      0x00\n        /* \"contracts/gOHM.sol\":7756:7765  delegatee */\n      dup7\n        /* \"contracts/gOHM.sol\":7744:7766  checkpoints[delegatee] */\n      0xffffffffffffffffffffffffffffffffffffffff\n      and\n      0xffffffffffffffffffffffffffffffffffffffff\n      and\n      dup2\n      mstore\n      0x20\n      add\n      swap1\n      dup2\n      mstore\n      0x20\n      add\n      0x00\n      keccak256\n        /* \"contracts/gOHM.sol\":7744:7780  checkpoints[delegatee][nCheckpoints] */\n      0x00\n        /* \"contracts/gOHM.sol\":7767:7779  nCheckpoints */\n      dup6\n        /* \"contracts/gOHM.sol\":7744:7780  checkpoints[delegatee][nCheckpoints] */\n      dup2\n      mstore\n      0x20\n      add\n      swap1\n      dup2\n      mstore\n      0x20\n      add\n      0x00\n      keccak256\n        /* \"contracts/gOHM.sol\":7744:7817  checkpoints[delegatee][nCheckpoints] = Checkpoint(block.number, newVotes) */\n      0x00\n      dup3\n      add\n      mload\n      dup2\n      0x00\n      add\n      sstore\n      0x20\n      dup3\n      add\n      mload\n      dup2\n      0x01\n      add\n      sstore\n      swap1\n      pop\n      pop\n        /* \"contracts/gOHM.sol\":7874:7875  1 */\n      0x01\n        /* \"contracts/gOHM.sol\":7859:7871  nCheckpoints */\n      dup4\n        /* \"contracts/gOHM.sol\":7859:7875  nCheckpoints + 1 */\n      add\n        /* \"contracts/gOHM.sol\":7831:7845  numCheckpoints */\n      0x08\n        /* \"contracts/gOHM.sol\":7831:7856  numCheckpoints[delegatee] */\n      0x00\n        /* \"contracts/gOHM.sol\":7846:7855  delegatee */\n      dup7\n        /* \"contracts/gOHM.sol\":7831:7856  numCheckpoints[delegatee] */\n      0xffffffffffffffffffffffffffffffffffffffff\n      and\n      0xffffffffffffffffffffffffffffffffffffffff\n      and\n      dup2\n      mstore\n      0x20\n      add\n      swap1\n      dup2\n      mstore\n      0x20\n      add\n      0x00\n      keccak256\n        /* \"contracts/gOHM.sol\":7831:7875  numCheckpoints[delegatee] = nCheckpoints + 1 */\n      dup2\n      swap1\n      sstore\n      pop\n        /* \"contracts/gOHM.sol\":7550:7886  if (nCheckpoints > 0 && checkpoints[delegatee][nCheckpoints - 1].fromBlock == block.number) {... */\n    tag_233:\n        /* \"contracts/gOHM.sol\":7922:7931  delegatee */\n      dup4\n        /* \"contracts/gOHM.sol\":7901:7952  DelegateVotesChanged(delegatee, oldVotes, newVotes) */\n      0xffffffffffffffffffffffffffffffffffffffff\n      and\n      0xdec2bacdd2f05b59de34da9b523dff8be42e5e38e818c82fdb0bae774387a724\n        /* \"contracts/gOHM.sol\":7933:7941  oldVotes */\n      dup4\n        /* \"contracts/gOHM.sol\":7943:7951  newVotes */\n      dup4\n        /* \"contracts/gOHM.sol\":7901:7952  DelegateVotesChanged(delegatee, oldVotes, newVotes) */\n      mload(0x40)\n      dup1\n      dup4\n      dup2\n      mstore\n      0x20\n      add\n      dup3\n      dup2\n      mstore\n      0x20\n      add\n      swap3\n      pop\n      pop\n      pop\n      mload(0x40)\n      dup1\n      swap2\n      sub\n      swap1\n      log2\n        /* \"contracts/gOHM.sol\":7392:7959  function _writeCheckpoint(... */\n      pop\n      pop\n      pop\n      pop\n      jump\t// out\n        /* \"contracts/types/ERC20.sol\":8590:8930  function _approve(address owner, address spender, uint256 amount) internal virtual {... */\n    tag_136:\n        /* \"contracts/types/ERC20.sol\":8708:8709  0 */\n      0x00\n        /* \"contracts/types/ERC20.sol\":8691:8710  owner != address(0) */\n      0xffffffffffffffffffffffffffffffffffffffff\n      and\n        /* \"contracts/types/ERC20.sol\":8691:8696  owner */\n      dup4\n        /* \"contracts/types/ERC20.sol\":8691:8710  owner != address(0) */\n      0xffffffffffffffffffffffffffffffffffffffff\n      and\n      eq\n      iszero\n        /* \"contracts/types/ERC20.sol\":8683:8751  require(owner != address(0), \"ERC20: approve from the zero address\") */\n      tag_235\n      jumpi\n      mload(0x40)\n      0x08c379a000000000000000000000000000000000000000000000000000000000\n      dup2\n      mstore\n      0x04\n      add\n      dup1\n      dup1\n      0x20\n      add\n      dup3\n      dup2\n      sub\n      dup3\n      mstore\n      0x24\n      dup2\n      mstore\n      0x20\n      add\n      dup1\n      data_c953f4879035ed60e766b34720f656aab5c697b141d924c283124ecedb91c208\n      0x24\n      swap2\n      codecopy\n      0x40\n      add\n      swap2\n      pop\n      pop\n      mload(0x40)\n      dup1\n      swap2\n      sub\n      swap1\n      revert\n    tag_235:\n        /* \"contracts/types/ERC20.sol\":8788:8789  0 */\n      0x00\n        /* \"contracts/types/ERC20.sol\":8769:8790  spender != address(0) */\n      0xffffffffffffffffffffffffffffffffffffffff\n      and\n        /* \"contracts/types/ERC20.sol\":8769:8776  spender */\n      dup3\n        /* \"contracts/types/ERC20.sol\":8769:8790  spender != address(0) */\n      0xffffffffffffffffffffffffffffffffffffffff\n      and\n      eq\n      iszero\n        /* \"contracts/types/ERC20.sol\":8761:8829  require(spender != address(0), \"ERC20: approve to the zero address\") */\n      tag_236\n      jumpi\n      mload(0x40)\n      0x08c379a000000000000000000000000000000000000000000000000000000000\n      dup2\n      mstore\n      0x04\n      add\n      dup1\n      dup1\n      0x20\n      add\n      dup3\n      dup2\n      sub\n      dup3\n      mstore\n      0x22\n      dup2\n      mstore\n      0x20\n      add\n      dup1\n      data_24883cc5fe64ace9d0df1893501ecb93c77180f0ff69cca79affb3c316dc8029\n      0x22\n      swap2\n      codecopy\n      0x40\n      add\n      swap2\n      pop\n      pop\n      mload(0x40)\n      dup1\n      swap2\n      sub\n      swap1\n      revert\n    tag_236:\n        /* \"contracts/types/ERC20.sol\":8870:8876  amount */\n      dup1\n        /* \"contracts/types/ERC20.sol\":8840:8851  _allowances */\n      0x01\n        /* \"contracts/types/ERC20.sol\":8840:8858  _allowances[owner] */\n      0x00\n        /* \"contracts/types/ERC20.sol\":8852:8857  owner */\n      dup6\n        /* \"contracts/types/ERC20.sol\":8840:8858  _allowances[owner] */\n      0xffffffffffffffffffffffffffffffffffffffff\n      and\n      0xffffffffffffffffffffffffffffffffffffffff\n      and\n      dup2\n      mstore\n      0x20\n      add\n      swap1\n      dup2\n      mstore\n      0x20\n      add\n      0x00\n      keccak256\n        /* \"contracts/types/ERC20.sol\":8840:8867  _allowances[owner][spender] */\n      0x00\n        /* \"contracts/types/ERC20.sol\":8859:8866  spender */\n      dup5\n        /* \"contracts/types/ERC20.sol\":8840:8867  _allowances[owner][spender] */\n      0xffffffffffffffffffffffffffffffffffffffff\n      and\n      0xffffffffffffffffffffffffffffffffffffffff\n      and\n      dup2\n      mstore\n      0x20\n      add\n      swap1\n      dup2\n      mstore\n      0x20\n      add\n      0x00\n      keccak256\n        /* \"contracts/types/ERC20.sol\":8840:8876  _allowances[owner][spender] = amount */\n      dup2\n      swap1\n      sstore\n      pop\n        /* \"contracts/types/ERC20.sol\":8907:8914  spender */\n      dup2\n        /* \"contracts/types/ERC20.sol\":8891:8923  Approval(owner, spender, amount) */\n      0xffffffffffffffffffffffffffffffffffffffff\n      and\n        /* \"contracts/types/ERC20.sol\":8900:8905  owner */\n      dup4\n        /* \"contracts/types/ERC20.sol\":8891:8923  Approval(owner, spender, amount) */\n      0xffffffffffffffffffffffffffffffffffffffff\n      and\n      0x8c5be1e5ebec7d5bd14f71427d1e84f3dd0314c0f7b2291e5b200ac8c7c3b925\n        /* \"contracts/types/ERC20.sol\":8916:8922  amount */\n      dup4\n        /* \"contracts/types/ERC20.sol\":8891:8923  Approval(owner, spender, amount) */\n      mload(0x40)\n      dup1\n      dup3\n      dup2\n      mstore\n      0x20\n      add\n      swap2\n      pop\n      pop\n      mload(0x40)\n      dup1\n      swap2\n      sub\n      swap1\n      log3\n        /* \"contracts/types/ERC20.sol\":8590:8930  function _approve(address owner, address spender, uint256 amount) internal virtual {... */\n      pop\n      pop\n      pop\n      jump\t// out\n        /* \"contracts/types/ERC20.sol\":6193:6697  function _transfer(address sender, address recipient, uint256 amount) internal virtual {... */\n    tag_147:\n        /* \"contracts/types/ERC20.sol\":6312:6313  0 */\n      0x00\n        /* \"contracts/types/ERC20.sol\":6294:6314  sender != address(0) */\n      0xffffffffffffffffffffffffffffffffffffffff\n      and\n        /* \"contracts/types/ERC20.sol\":6294:6300  sender */\n      dup4\n        /* \"contracts/types/ERC20.sol\":6294:6314  sender != address(0) */\n      0xffffffffffffffffffffffffffffffffffffffff\n      and\n      eq\n      iszero\n        /* \"contracts/types/ERC20.sol\":6286:6356  require(sender != address(0), \"ERC20: transfer from the zero address\") */\n      tag_238\n      jumpi\n      mload(0x40)\n      0x08c379a000000000000000000000000000000000000000000000000000000000\n      dup2\n      mstore\n      0x04\n      add\n      dup1\n      dup1\n      0x20\n      add\n      dup3\n      dup2\n      sub\n      dup3\n      mstore\n      0x25\n      dup2\n      mstore\n      0x20\n      add\n      dup1\n      data_baecc556b46f4ed0f2b4cb599d60785ac8563dd2dc0a5bf12edea1c39e5e1fea\n      0x25\n      swap2\n      codecopy\n      0x40\n      add\n      swap2\n      pop\n      pop\n      mload(0x40)\n      dup1\n      swap2\n      sub\n      swap1\n      revert\n    tag_238:\n        /* \"contracts/types/ERC20.sol\":6391:6392  0 */\n      0x00\n        /* \"contracts/types/ERC20.sol\":6370:6393  recipient != address(0) */\n      0xffffffffffffffffffffffffffffffffffffffff\n      and\n        /* \"contracts/types/ERC20.sol\":6370:6379  recipient */\n      dup3\n        /* \"contracts/types/ERC20.sol\":6370:6393  recipient != address(0) */\n      0xffffffffffffffffffffffffffffffffffffffff\n      and\n      eq\n      iszero\n        /* \"contracts/types/ERC20.sol\":6362:6433  require(recipient != address(0), \"ERC20: transfer to the zero address\") */\n      tag_239\n      jumpi\n      mload(0x40)\n      0x08c379a000000000000000000000000000000000000000000000000000000000\n      dup2\n      mstore\n      0x04\n      add\n      dup1\n      dup1\n      0x20\n      add\n      dup3\n      dup2\n      sub\n      dup3\n      mstore\n      0x23\n      dup2\n      mstore\n      0x20\n      add\n      dup1\n      data_0557e210f7a69a685100a7e4e3d0a7024c546085cee28910fd17d0b081d9516f\n      0x23\n      swap2\n      codecopy\n      0x40\n      add\n      swap2\n      pop\n      pop\n      mload(0x40)\n      dup1\n      swap2\n      sub\n      swap1\n      revert\n    tag_239:\n        /* \"contracts/types/ERC20.sol\":6440:6487  _beforeTokenTransfer(sender, recipient, amount) */\n      tag_240\n        /* \"contracts/types/ERC20.sol\":6461:6467  sender */\n      dup4\n        /* \"contracts/types/ERC20.sol\":6469:6478  recipient */\n      dup4\n        /* \"contracts/types/ERC20.sol\":6480:6486  amount */\n      dup4\n        /* \"contracts/types/ERC20.sol\":6440:6460  _beforeTokenTransfer */\n      tag_241\n        /* \"contracts/types/ERC20.sol\":6440:6487  _beforeTokenTransfer(sender, recipient, amount) */\n      jump\t// in\n    tag_240:\n        /* \"contracts/types/ERC20.sol\":6514:6585  _balances[sender].sub(amount, \"ERC20: transfer amount exceeds balance\") */\n      tag_242\n        /* \"contracts/types/ERC20.sol\":6536:6542  amount */\n      dup2\n        /* \"contracts/types/ERC20.sol\":6514:6585  _balances[sender].sub(amount, \"ERC20: transfer amount exceeds balance\") */\n      mload(0x40)\n      dup1\n      0x60\n      add\n      0x40\n      mstore\n      dup1\n      0x26\n      dup2\n      mstore\n      0x20\n      add\n      data_4107e8a8b9e94bf8ff83080ddec1c0bffe897ebc2241b89d44f66b3d274088b6\n      0x26\n      swap2\n      codecopy\n        /* \"contracts/types/ERC20.sol\":6514:6523  _balances */\n      0x00\n        /* \"contracts/types/ERC20.sol\":6514:6531  _balances[sender] */\n      dup1\n        /* \"contracts/types/ERC20.sol\":6524:6530  sender */\n      dup8\n        /* \"contracts/types/ERC20.sol\":6514:6531  _balances[sender] */\n      0xffffffffffffffffffffffffffffffffffffffff\n      and\n      0xffffffffffffffffffffffffffffffffffffffff\n      and\n      dup2\n      mstore\n      0x20\n      add\n      swap1\n      dup2\n      mstore\n      0x20\n      add\n      0x00\n      keccak256\n      sload\n        /* \"contracts/types/ERC20.sol\":6514:6535  _balances[sender].sub */\n      tag_150\n      swap1\n        /* \"contracts/types/ERC20.sol\":6514:6585  _balances[sender].sub(amount, \"ERC20: transfer amount exceeds balance\") */\n      swap3\n      swap2\n      swap1\n      0xffffffff\n      and\n      jump\t// in\n    tag_242:\n        /* \"contracts/types/ERC20.sol\":6494:6503  _balances */\n      0x00\n        /* \"contracts/types/ERC20.sol\":6494:6511  _balances[sender] */\n      dup1\n        /* \"contracts/types/ERC20.sol\":6504:6510  sender */\n      dup6\n        /* \"contracts/types/ERC20.sol\":6494:6511  _balances[sender] */\n      0xffffffffffffffffffffffffffffffffffffffff\n      and\n      0xffffffffffffffffffffffffffffffffffffffff\n      and\n      dup2\n      mstore\n      0x20\n      add\n      swap1\n      dup2\n      mstore\n      0x20\n      add\n      0x00\n      keccak256\n        /* \"contracts/types/ERC20.sol\":6494:6585  _balances[sender] = _balances[sender].sub(amount, \"ERC20: transfer amount exceeds balance\") */\n      dup2\n      swap1\n      sstore\n      pop\n        /* \"contracts/types/ERC20.sol\":6614:6646  _balances[recipient].add(amount) */\n      tag_243\n        /* \"contracts/types/ERC20.sol\":6639:6645  amount */\n      dup2\n        /* \"contracts/types/ERC20.sol\":6614:6623  _balances */\n      0x00\n        /* \"contracts/types/ERC20.sol\":6614:6634  _balances[recipient] */\n      dup1\n        /* \"contracts/types/ERC20.sol\":6624:6633  recipient */\n      dup6\n        /* \"contracts/types/ERC20.sol\":6614:6634  _balances[recipient] */\n      0xffffffffffffffffffffffffffffffffffffffff\n      and\n      0xffffffffffffffffffffffffffffffffffffffff\n      and\n      dup2\n      mstore\n      0x20\n      add\n      swap1\n      dup2\n      mstore\n      0x20\n      add\n      0x00\n      keccak256\n      sload\n        /* \"contracts/types/ERC20.sol\":6614:6638  _balances[recipient].add */\n      tag_160\n      swap1\n        /* \"contracts/types/ERC20.sol\":6614:6646  _balances[recipient].add(amount) */\n      swap2\n      swap1\n      0xffffffff\n      and\n      jump\t// in\n    tag_243:\n        /* \"contracts/types/ERC20.sol\":6591:6600  _balances */\n      0x00\n        /* \"contracts/types/ERC20.sol\":6591:6611  _balances[recipient] */\n      dup1\n        /* \"contracts/types/ERC20.sol\":6601:6610  recipient */\n      dup5\n        /* \"contracts/types/ERC20.sol\":6591:6611  _balances[recipient] */\n      0xffffffffffffffffffffffffffffffffffffffff\n      and\n      0xffffffffffffffffffffffffffffffffffffffff\n      and\n      dup2\n      mstore\n      0x20\n      add\n      swap1\n      dup2\n      mstore\n      0x20\n      add\n      0x00\n      keccak256\n        /* \"contracts/types/ERC20.sol\":6591:6646  _balances[recipient] = _balances[recipient].add(amount) */\n      dup2\n      swap1\n      sstore\n      pop\n        /* \"contracts/types/ERC20.sol\":6674:6683  recipient */\n      dup2\n        /* \"contracts/types/ERC20.sol\":6657:6692  Transfer(sender, recipient, amount) */\n      0xffffffffffffffffffffffffffffffffffffffff\n      and\n        /* \"contracts/types/ERC20.sol\":6666:6672  sender */\n      dup4\n        /* \"contracts/types/ERC20.sol\":6657:6692  Transfer(sender, recipient, amount) */\n      0xffffffffffffffffffffffffffffffffffffffff\n      and\n      0xddf252ad1be2c89b69c2b068fc378daa952ba7f163c4a11628f55a4df523b3ef\n        /* \"contracts/types/ERC20.sol\":6685:6691  amount */\n      dup4\n        /* \"contracts/types/ERC20.sol\":6657:6692  Transfer(sender, recipient, amount) */\n      mload(0x40)\n      dup1\n      dup3\n      dup2\n      mstore\n      0x20\n      add\n      swap2\n      pop\n      pop\n      mload(0x40)\n      dup1\n      swap2\n      sub\n      swap1\n      log3\n        /* \"contracts/types/ERC20.sol\":6193:6697  function _transfer(address sender, address recipient, uint256 amount) internal virtual {... */\n      pop\n      pop\n      pop\n      jump\t// out\n        /* \"contracts/libraries/SafeMath.sol\":521:708  function sub(uint256 a, uint256 b, string memory errorMessage) internal pure returns (uint256) {... */\n    tag_150:\n        /* \"contracts/libraries/SafeMath.sol\":607:614  uint256 */\n      0x00\n        /* \"contracts/libraries/SafeMath.sol\":639:640  a */\n      dup4\n        /* \"contracts/libraries/SafeMath.sol\":634:635  b */\n      dup4\n        /* \"contracts/libraries/SafeMath.sol\":634:640  b <= a */\n      gt\n      iszero\n        /* \"contracts/libraries/SafeMath.sol\":642:654  errorMessage */\n      dup3\n        /* \"contracts/libraries/SafeMath.sol\":626:655  require(b <= a, errorMessage) */\n      swap1\n      tag_245\n      jumpi\n      mload(0x40)\n      0x08c379a000000000000000000000000000000000000000000000000000000000\n      dup2\n      mstore\n      0x04\n      add\n      dup1\n      dup1\n      0x20\n      add\n      dup3\n      dup2\n      sub\n      dup3\n      mstore\n      dup4\n      dup2\n      dup2\n      mload\n      dup2\n      mstore\n      0x20\n      add\n      swap2\n      pop\n      dup1\n      mload\n      swap1\n      0x20\n      add\n      swap1\n      dup1\n      dup4\n      dup4\n      0x00\n    tag_246:\n      dup4\n      dup2\n      lt\n      iszero\n      tag_248\n      jumpi\n      dup1\n      dup3\n      add\n      mload\n      dup2\n      dup5\n      add\n      mstore\n      0x20\n      dup2\n      add\n      swap1\n      pop\n      jump(tag_246)\n    tag_248:\n      pop\n      pop\n      pop\n      pop\n      swap1\n      pop\n      swap1\n      dup2\n      add\n      swap1\n      0x1f\n      and\n      dup1\n      iszero\n      tag_249\n      jumpi\n      dup1\n      dup3\n      sub\n      dup1\n      mload\n      0x01\n      dup4\n      0x20\n      sub\n      0x0100\n      exp\n      sub\n      not\n      and\n      dup2\n      mstore\n      0x20\n      add\n      swap2\n      pop\n    tag_249:\n      pop\n      swap3\n      pop\n      pop\n      pop\n      mload(0x40)\n      dup1\n      swap2\n      sub\n      swap1\n      revert\n    tag_245:\n      pop\n        /* \"contracts/libraries/SafeMath.sol\":665:674  uint256 c */\n      0x00\n        /* \"contracts/libraries/SafeMath.sol\":681:682  b */\n      dup4\n        /* \"contracts/libraries/SafeMath.sol\":677:678  a */\n      dup6\n        /* \"contracts/libraries/SafeMath.sol\":677:682  a - b */\n      sub\n        /* \"contracts/libraries/SafeMath.sol\":665:682  uint256 c = a - b */\n      swap1\n      pop\n        /* \"contracts/libraries/SafeMath.sol\":700:701  c */\n      dup1\n        /* \"contracts/libraries/SafeMath.sol\":693:701  return c */\n      swap2\n      pop\n      pop\n        /* \"contracts/libraries/SafeMath.sol\":521:708  function sub(uint256 a, uint256 b, string memory errorMessage) internal pure returns (uint256) {... */\n      swap4\n      swap3\n      pop\n      pop\n      pop\n      jump\t// out\n        /* \"contracts/libraries/SafeMath.sol\":199:375  function add(uint256 a, uint256 b) internal pure returns (uint256) {... */\n    tag_160:\n        /* \"contracts/libraries/SafeMath.sol\":257:264  uint256 */\n      0x00\n        /* \"contracts/libraries/SafeMath.sol\":276:285  uint256 c */\n      dup1\n        /* \"contracts/libraries/SafeMath.sol\":292:293  b */\n      dup3\n        /* \"contracts/libraries/SafeMath.sol\":288:289  a */\n      dup5\n        /* \"contracts/libraries/SafeMath.sol\":288:293  a + b */\n      add\n        /* \"contracts/libraries/SafeMath.sol\":276:293  uint256 c = a + b */\n      swap1\n      pop\n        /* \"contracts/libraries/SafeMath.sol\":316:317  a */\n      dup4\n        /* \"contracts/libraries/SafeMath.sol\":311:312  c */\n      dup2\n        /* \"contracts/libraries/SafeMath.sol\":311:317  c >= a */\n      lt\n      iszero\n        /* \"contracts/libraries/SafeMath.sol\":303:349  require(c >= a, \"SafeMath: addition overflow\") */\n      tag_251\n      jumpi\n      mload(0x40)\n      0x08c379a000000000000000000000000000000000000000000000000000000000\n      dup2\n      mstore\n      0x04\n      add\n      dup1\n      dup1\n      0x20\n      add\n      dup3\n      dup2\n      sub\n      dup3\n      mstore\n      0x1b\n      dup2\n      mstore\n      0x20\n      add\n      dup1\n      0x536166654d6174683a206164646974696f6e206f766572666c6f770000000000\n      dup2\n      mstore\n      pop\n      0x20\n      add\n      swap2\n      pop\n      pop\n      mload(0x40)\n      dup1\n      swap2\n      sub\n      swap1\n      revert\n    tag_251:\n        /* \"contracts/libraries/SafeMath.sol\":367:368  c */\n      dup1\n        /* \"contracts/libraries/SafeMath.sol\":360:368  return c */\n      swap2\n      pop\n      pop\n        /* \"contracts/libraries/SafeMath.sol\":199:375  function add(uint256 a, uint256 b) internal pure returns (uint256) {... */\n      swap3\n      swap2\n      pop\n      pop\n      jump\t// out\n        /* \"contracts/types/ERC20.sol\":6993:7387  function _mint(address account_, uint256 ammount_) internal virtual {... */\n    tag_165:\n        /* \"contracts/types/ERC20.sol\":7099:7100  0 */\n      0x00\n        /* \"contracts/types/ERC20.sol\":7079:7101  account_ != address(0) */\n      0xffffffffffffffffffffffffffffffffffffffff\n      and\n        /* \"contracts/types/ERC20.sol\":7079:7087  account_ */\n      dup3\n        /* \"contracts/types/ERC20.sol\":7079:7101  account_ != address(0) */\n      0xffffffffffffffffffffffffffffffffffffffff\n      and\n      eq\n      iszero\n        /* \"contracts/types/ERC20.sol\":7071:7137  require(account_ != address(0), \"ERC20: mint to the zero address\") */\n      tag_253\n      jumpi\n      mload(0x40)\n      0x08c379a000000000000000000000000000000000000000000000000000000000\n      dup2\n      mstore\n      0x04\n      add\n      dup1\n      dup1\n      0x20\n      add\n      dup3\n      dup2\n      sub\n      dup3\n      mstore\n      0x1f\n      dup2\n      mstore\n      0x20\n      add\n      dup1\n      0x45524332303a206d696e7420746f20746865207a65726f206164647265737300\n      dup2\n      mstore\n      pop\n      0x20\n      add\n      swap2\n      pop\n      pop\n      mload(0x40)\n      dup1\n      swap2\n      sub\n      swap1\n      revert\n    tag_253:\n        /* \"contracts/types/ERC20.sol\":7147:7204  _beforeTokenTransfer(address( this ), account_, ammount_) */\n      tag_254\n        /* \"contracts/types/ERC20.sol\":7177:7181  this */\n      address\n        /* \"contracts/types/ERC20.sol\":7185:7193  account_ */\n      dup4\n        /* \"contracts/types/ERC20.sol\":7195:7203  ammount_ */\n      dup4\n        /* \"contracts/types/ERC20.sol\":7147:7167  _beforeTokenTransfer */\n      tag_241\n        /* \"contracts/types/ERC20.sol\":7147:7204  _beforeTokenTransfer(address( this ), account_, ammount_) */\n      jump\t// in\n    tag_254:\n        /* \"contracts/types/ERC20.sol\":7229:7255  _totalSupply.add(ammount_) */\n      tag_255\n        /* \"contracts/types/ERC20.sol\":7246:7254  ammount_ */\n      dup2\n        /* \"contracts/types/ERC20.sol\":7229:7241  _totalSupply */\n      sload(0x02)\n        /* \"contracts/types/ERC20.sol\":7229:7245  _totalSupply.add */\n      tag_160\n      swap1\n        /* \"contracts/types/ERC20.sol\":7229:7255  _totalSupply.add(ammount_) */\n      swap2\n      swap1\n      0xffffffff\n      and\n      jump\t// in\n    tag_255:\n        /* \"contracts/types/ERC20.sol\":7214:7226  _totalSupply */\n      0x02\n        /* \"contracts/types/ERC20.sol\":7214:7255  _totalSupply = _totalSupply.add(ammount_) */\n      dup2\n      swap1\n      sstore\n      pop\n        /* \"contracts/types/ERC20.sol\":7287:7320  _balances[account_].add(ammount_) */\n      tag_256\n        /* \"contracts/types/ERC20.sol\":7311:7319  ammount_ */\n      dup2\n        /* \"contracts/types/ERC20.sol\":7287:7296  _balances */\n      0x00\n        /* \"contracts/types/ERC20.sol\":7287:7306  _balances[account_] */\n      dup1\n        /* \"contracts/types/ERC20.sol\":7297:7305  account_ */\n      dup6\n        /* \"contracts/types/ERC20.sol\":7287:7306  _balances[account_] */\n      0xffffffffffffffffffffffffffffffffffffffff\n      and\n      0xffffffffffffffffffffffffffffffffffffffff\n      and\n      dup2\n      mstore\n      0x20\n      add\n      swap1\n      dup2\n      mstore\n      0x20\n      add\n      0x00\n      keccak256\n      sload\n        /* \"contracts/types/ERC20.sol\":7287:7310  _balances[account_].add */\n      tag_160\n      swap1\n        /* \"contracts/types/ERC20.sol\":7287:7320  _balances[account_].add(ammount_) */\n      swap2\n      swap1\n      0xffffffff\n      and\n      jump\t// in\n    tag_256:\n        /* \"contracts/types/ERC20.sol\":7265:7274  _balances */\n      0x00\n        /* \"contracts/types/ERC20.sol\":7265:7284  _balances[account_] */\n      dup1\n        /* \"contracts/types/ERC20.sol\":7275:7283  account_ */\n      dup5\n        /* \"contracts/types/ERC20.sol\":7265:7284  _balances[account_] */\n      0xffffffffffffffffffffffffffffffffffffffff\n      and\n      0xffffffffffffffffffffffffffffffffffffffff\n      and\n      dup2\n      mstore\n      0x20\n      add\n      swap1\n      dup2\n      mstore\n      0x20\n      add\n      0x00\n      keccak256\n        /* \"contracts/types/ERC20.sol\":7265:7320  _balances[account_] = _balances[account_].add(ammount_) */\n      dup2\n      swap1\n      sstore\n      pop\n        /* \"contracts/types/ERC20.sol\":7361:7369  account_ */\n      dup2\n        /* \"contracts/types/ERC20.sol\":7335:7380  Transfer(address( this ), account_, ammount_) */\n      0xffffffffffffffffffffffffffffffffffffffff\n      and\n        /* \"contracts/types/ERC20.sol\":7353:7357  this */\n      address\n        /* \"contracts/types/ERC20.sol\":7335:7380  Transfer(address( this ), account_, ammount_) */\n      0xffffffffffffffffffffffffffffffffffffffff\n      and\n      0xddf252ad1be2c89b69c2b068fc378daa952ba7f163c4a11628f55a4df523b3ef\n        /* \"contracts/types/ERC20.sol\":7371:7379  ammount_ */\n      dup4\n        /* \"contracts/types/ERC20.sol\":7335:7380  Transfer(address( this ), account_, ammount_) */\n      mload(0x40)\n      dup1\n      dup3\n      dup2\n      mstore\n      0x20\n      add\n      swap2\n      pop\n      pop\n      mload(0x40)\n      dup1\n      swap2\n      sub\n      swap1\n      log3\n        /* \"contracts/types/ERC20.sol\":6993:7387  function _mint(address account_, uint256 ammount_) internal virtual {... */\n      pop\n      pop\n      jump\t// out\n        /* \"contracts/libraries/SafeMath.sol\":714:955  function mul(uint256 a, uint256 b) internal pure returns (uint256) {... */\n    tag_173:\n        /* \"contracts/libraries/SafeMath.sol\":772:779  uint256 */\n      0x00\n        /* \"contracts/libraries/SafeMath.sol\":800:801  0 */\n      dup1\n        /* \"contracts/libraries/SafeMath.sol\":795:796  a */\n      dup4\n        /* \"contracts/libraries/SafeMath.sol\":795:801  a == 0 */\n      eq\n        /* \"contracts/libraries/SafeMath.sol\":791:836  if (a == 0) {... */\n      iszero\n      tag_258\n      jumpi\n        /* \"contracts/libraries/SafeMath.sol\":824:825  0 */\n      0x00\n        /* \"contracts/libraries/SafeMath.sol\":817:825  return 0 */\n      swap1\n      pop\n      jump(tag_257)\n        /* \"contracts/libraries/SafeMath.sol\":791:836  if (a == 0) {... */\n    tag_258:\n        /* \"contracts/libraries/SafeMath.sol\":846:855  uint256 c */\n      0x00\n        /* \"contracts/libraries/SafeMath.sol\":862:863  b */\n      dup3\n        /* \"contracts/libraries/SafeMath.sol\":858:859  a */\n      dup5\n        /* \"contracts/libraries/SafeMath.sol\":858:863  a * b */\n      mul\n        /* \"contracts/libraries/SafeMath.sol\":846:863  uint256 c = a * b */\n      swap1\n      pop\n        /* \"contracts/libraries/SafeMath.sol\":890:891  b */\n      dup3\n        /* \"contracts/libraries/SafeMath.sol\":885:886  a */\n      dup5\n        /* \"contracts/libraries/SafeMath.sol\":881:882  c */\n      dup3\n        /* \"contracts/libraries/SafeMath.sol\":881:886  c / a */\n      dup2\n      tag_259\n      jumpi\n      invalid\n    tag_259:\n      div\n        /* \"contracts/libraries/SafeMath.sol\":881:891  c / a == b */\n      eq\n        /* \"contracts/libraries/SafeMath.sol\":873:929  require(c / a == b, \"SafeMath: multiplication overflow\") */\n      tag_260\n      jumpi\n      mload(0x40)\n      0x08c379a000000000000000000000000000000000000000000000000000000000\n      dup2\n      mstore\n      0x04\n      add\n      dup1\n      dup1\n      0x20\n      add\n      dup3\n      dup2\n      sub\n      dup3\n      mstore\n      0x21\n      dup2\n      mstore\n      0x20\n      add\n      dup1\n      data_9113bb53c2876a3805b2c9242029423fc540a728243ce887ab24c82cf119fba3\n      0x21\n      swap2\n      codecopy\n      0x40\n      add\n      swap2\n      pop\n      pop\n      mload(0x40)\n      dup1\n      swap2\n      sub\n      swap1\n      revert\n    tag_260:\n        /* \"contracts/libraries/SafeMath.sol\":947:948  c */\n      dup1\n        /* \"contracts/libraries/SafeMath.sol\":940:948  return c */\n      swap2\n      pop\n      pop\n        /* \"contracts/libraries/SafeMath.sol\":714:955  function mul(uint256 a, uint256 b) internal pure returns (uint256) {... */\n    tag_257:\n      swap3\n      swap2\n      pop\n      pop\n      jump\t// out\n        /* \"contracts/libraries/SafeMath.sol\":961:1091  function div(uint256 a, uint256 b) internal pure returns (uint256) {... */\n    tag_174:\n        /* \"contracts/libraries/SafeMath.sol\":1019:1026  uint256 */\n      0x00\n        /* \"contracts/libraries/SafeMath.sol\":1045:1084  div(a, b, \"SafeMath: division by zero\") */\n      tag_262\n        /* \"contracts/libraries/SafeMath.sol\":1049:1050  a */\n      dup4\n        /* \"contracts/libraries/SafeMath.sol\":1052:1053  b */\n      dup4\n        /* \"contracts/libraries/SafeMath.sol\":1045:1084  div(a, b, \"SafeMath: division by zero\") */\n      mload(0x40)\n      dup1\n      0x40\n      add\n      0x40\n      mstore\n      dup1\n      0x1a\n      dup2\n      mstore\n      0x20\n      add\n      0x536166654d6174683a206469766973696f6e206279207a65726f000000000000\n      dup2\n      mstore\n      pop\n        /* \"contracts/libraries/SafeMath.sol\":1045:1048  div */\n      tag_263\n        /* \"contracts/libraries/SafeMath.sol\":1045:1084  div(a, b, \"SafeMath: division by zero\") */\n      jump\t// in\n    tag_262:\n        /* \"contracts/libraries/SafeMath.sol\":1038:1084  return div(a, b, \"SafeMath: division by zero\") */\n      swap1\n      pop\n        /* \"contracts/libraries/SafeMath.sol\":961:1091  function div(uint256 a, uint256 b) internal pure returns (uint256) {... */\n      swap3\n      swap2\n      pop\n      pop\n      jump\t// out\n        /* \"contracts/libraries/SafeMath.sol\":381:515  function sub(uint256 a, uint256 b) internal pure returns (uint256) {... */\n    tag_198:\n        /* \"contracts/libraries/SafeMath.sol\":439:446  uint256 */\n      0x00\n        /* \"contracts/libraries/SafeMath.sol\":465:508  sub(a, b, \"SafeMath: subtraction overflow\") */\n      tag_265\n        /* \"contracts/libraries/SafeMath.sol\":469:470  a */\n      dup4\n        /* \"contracts/libraries/SafeMath.sol\":472:473  b */\n      dup4\n        /* \"contracts/libraries/SafeMath.sol\":465:508  sub(a, b, \"SafeMath: subtraction overflow\") */\n      mload(0x40)\n      dup1\n      0x40\n      add\n      0x40\n      mstore\n      dup1\n      0x1e\n      dup2\n      mstore\n      0x20\n      add\n      0x536166654d6174683a207375627472616374696f6e206f766572666c6f770000\n      dup2\n      mstore\n      pop\n        /* \"contracts/libraries/SafeMath.sol\":465:468  sub */\n      tag_150\n        /* \"contracts/libraries/SafeMath.sol\":465:508  sub(a, b, \"SafeMath: subtraction overflow\") */\n      jump\t// in\n    tag_265:\n        /* \"contracts/libraries/SafeMath.sol\":458:508  return sub(a, b, \"SafeMath: subtraction overflow\") */\n      swap1\n      pop\n        /* \"contracts/libraries/SafeMath.sol\":381:515  function sub(uint256 a, uint256 b) internal pure returns (uint256) {... */\n      swap3\n      swap2\n      pop\n      pop\n      jump\t// out\n        /* \"contracts/types/ERC20.sol\":7732:8142  function _burn(address account, uint256 amount) internal virtual {... */\n    tag_213:\n        /* \"contracts/types/ERC20.sol\":7834:7835  0 */\n      0x00\n        /* \"contracts/types/ERC20.sol\":7815:7836  account != address(0) */\n      0xffffffffffffffffffffffffffffffffffffffff\n      and\n        /* \"contracts/types/ERC20.sol\":7815:7822  account */\n      dup3\n        /* \"contracts/types/ERC20.sol\":7815:7836  account != address(0) */\n      0xffffffffffffffffffffffffffffffffffffffff\n      and\n      eq\n      iszero\n        /* \"contracts/types/ERC20.sol\":7807:7874  require(account != address(0), \"ERC20: burn from the zero address\") */\n      tag_267\n      jumpi\n      mload(0x40)\n      0x08c379a000000000000000000000000000000000000000000000000000000000\n      dup2\n      mstore\n      0x04\n      add\n      dup1\n      dup1\n      0x20\n      add\n      dup3\n      dup2\n      sub\n      dup3\n      mstore\n      0x21\n      dup2\n      mstore\n      0x20\n      add\n      dup1\n      data_b16788493b576042bb52c50ed56189e0b250db113c7bfb1c3897d25cf9632d7f\n      0x21\n      swap2\n      codecopy\n      0x40\n      add\n      swap2\n      pop\n      pop\n      mload(0x40)\n      dup1\n      swap2\n      sub\n      swap1\n      revert\n    tag_267:\n        /* \"contracts/types/ERC20.sol\":7885:7934  _beforeTokenTransfer(account, address(0), amount) */\n      tag_268\n        /* \"contracts/types/ERC20.sol\":7906:7913  account */\n      dup3\n        /* \"contracts/types/ERC20.sol\":7923:7924  0 */\n      0x00\n        /* \"contracts/types/ERC20.sol\":7927:7933  amount */\n      dup4\n        /* \"contracts/types/ERC20.sol\":7885:7905  _beforeTokenTransfer */\n      tag_241\n        /* \"contracts/types/ERC20.sol\":7885:7934  _beforeTokenTransfer(account, address(0), amount) */\n      jump\t// in\n    tag_268:\n        /* \"contracts/types/ERC20.sol\":7966:8034  _balances[account].sub(amount, \"ERC20: burn amount exceeds balance\") */\n      tag_269\n        /* \"contracts/types/ERC20.sol\":7989:7995  amount */\n      dup2\n        /* \"contracts/types/ERC20.sol\":7966:8034  _balances[account].sub(amount, \"ERC20: burn amount exceeds balance\") */\n      mload(0x40)\n      dup1\n      0x60\n      add\n      0x40\n      mstore\n      dup1\n      0x22\n      dup2\n      mstore\n      0x20\n      add\n      data_149b126e7125232b4200af45303d04fba8b74653b1a295a6a561a528c33fefdd\n      0x22\n      swap2\n      codecopy\n        /* \"contracts/types/ERC20.sol\":7966:7975  _balances */\n      0x00\n        /* \"contracts/types/ERC20.sol\":7966:7984  _balances[account] */\n      dup1\n        /* \"contracts/types/ERC20.sol\":7976:7983  account */\n      dup7\n        /* \"contracts/types/ERC20.sol\":7966:7984  _balances[account] */\n      0xffffffffffffffffffffffffffffffffffffffff\n      and\n      0xffffffffffffffffffffffffffffffffffffffff\n      and\n      dup2\n      mstore\n      0x20\n      add\n      swap1\n      dup2\n      mstore\n      0x20\n      add\n      0x00\n      keccak256\n      sload\n        /* \"contracts/types/ERC20.sol\":7966:7988  _balances[account].sub */\n      tag_150\n      swap1\n        /* \"contracts/types/ERC20.sol\":7966:8034  _balances[account].sub(amount, \"ERC20: burn amount exceeds balance\") */\n      swap3\n      swap2\n      swap1\n      0xffffffff\n      and\n      jump\t// in\n    tag_269:\n        /* \"contracts/types/ERC20.sol\":7945:7954  _balances */\n      0x00\n        /* \"contracts/types/ERC20.sol\":7945:7963  _balances[account] */\n      dup1\n        /* \"contracts/types/ERC20.sol\":7955:7962  account */\n      dup5\n        /* \"contracts/types/ERC20.sol\":7945:7963  _balances[account] */\n      0xffffffffffffffffffffffffffffffffffffffff\n      and\n      0xffffffffffffffffffffffffffffffffffffffff\n      and\n      dup2\n      mstore\n      0x20\n      add\n      swap1\n      dup2\n      mstore\n      0x20\n      add\n      0x00\n      keccak256\n        /* \"contracts/types/ERC20.sol\":7945:8034  _balances[account] = _balances[account].sub(amount, \"ERC20: burn amount exceeds balance\") */\n      dup2\n      swap1\n      sstore\n      pop\n        /* \"contracts/types/ERC20.sol\":8059:8083  _totalSupply.sub(amount) */\n      tag_270\n        /* \"contracts/types/ERC20.sol\":8076:8082  amount */\n      dup2\n        /* \"contracts/types/ERC20.sol\":8059:8071  _totalSupply */\n      sload(0x02)\n        /* \"contracts/types/ERC20.sol\":8059:8075  _totalSupply.sub */\n      tag_198\n      swap1\n        /* \"contracts/types/ERC20.sol\":8059:8083  _totalSupply.sub(amount) */\n      swap2\n      swap1\n      0xffffffff\n      and\n      jump\t// in\n    tag_270:\n        /* \"contracts/types/ERC20.sol\":8044:8056  _totalSupply */\n      0x02\n        /* \"contracts/types/ERC20.sol\":8044:8083  _totalSupply = _totalSupply.sub(amount) */\n      dup2\n      swap1\n      sstore\n      pop\n        /* \"contracts/types/ERC20.sol\":8124:8125  0 */\n      0x00\n        /* \"contracts/types/ERC20.sol\":8098:8135  Transfer(account, address(0), amount) */\n      0xffffffffffffffffffffffffffffffffffffffff\n      and\n        /* \"contracts/types/ERC20.sol\":8107:8114  account */\n      dup3\n        /* \"contracts/types/ERC20.sol\":8098:8135  Transfer(account, address(0), amount) */\n      0xffffffffffffffffffffffffffffffffffffffff\n      and\n      0xddf252ad1be2c89b69c2b068fc378daa952ba7f163c4a11628f55a4df523b3ef\n        /* \"contracts/types/ERC20.sol\":8128:8134  amount */\n      dup4\n        /* \"contracts/types/ERC20.sol\":8098:8135  Transfer(account, address(0), amount) */\n      mload(0x40)\n      dup1\n      dup3\n      dup2\n      mstore\n      0x20\n      add\n      swap2\n      pop\n      pop\n      mload(0x40)\n      dup1\n      swap2\n      sub\n      swap1\n      log3\n        /* \"contracts/types/ERC20.sol\":7732:8142  function _burn(address account, uint256 amount) internal virtual {... */\n      pop\n      pop\n      jump\t// out\n        /* \"contracts/gOHM.sol\":8048:8239  function _beforeTokenTransfer(... */\n    tag_241:\n        /* \"contracts/gOHM.sol\":8178:8232  _moveDelegates(delegates[from], delegates[to], amount) */\n      tag_272\n        /* \"contracts/gOHM.sol\":8193:8202  delegates */\n      0x09\n        /* \"contracts/gOHM.sol\":8193:8208  delegates[from] */\n      0x00\n        /* \"contracts/gOHM.sol\":8203:8207  from */\n      dup6\n        /* \"contracts/gOHM.sol\":8193:8208  delegates[from] */\n      0xffffffffffffffffffffffffffffffffffffffff\n      and\n      0xffffffffffffffffffffffffffffffffffffffff\n      and\n      dup2\n      mstore\n      0x20\n      add\n      swap1\n      dup2\n      mstore\n      0x20\n      add\n      0x00\n      keccak256\n      0x00\n      swap1\n      sload\n      swap1\n      0x0100\n      exp\n      swap1\n      div\n      0xffffffffffffffffffffffffffffffffffffffff\n      and\n        /* \"contracts/gOHM.sol\":8210:8219  delegates */\n      0x09\n        /* \"contracts/gOHM.sol\":8210:8223  delegates[to] */\n      0x00\n        /* \"contracts/gOHM.sol\":8220:8222  to */\n      dup6\n        /* \"contracts/gOHM.sol\":8210:8223  delegates[to] */\n      0xffffffffffffffffffffffffffffffffffffffff\n      and\n      0xffffffffffffffffffffffffffffffffffffffff\n      and\n      dup2\n      mstore\n      0x20\n      add\n      swap1\n      dup2\n      mstore\n      0x20\n      add\n      0x00\n      keccak256\n      0x00\n      swap1\n      sload\n      swap1\n      0x0100\n      exp\n      swap1\n      div\n      0xffffffffffffffffffffffffffffffffffffffff\n      and\n        /* \"contracts/gOHM.sol\":8225:8231  amount */\n      dup4\n        /* \"contracts/gOHM.sol\":8178:8192  _moveDelegates */\n      tag_99\n        /* \"contracts/gOHM.sol\":8178:8232  _moveDelegates(delegates[from], delegates[to], amount) */\n      jump\t// in\n    tag_272:\n        /* \"contracts/gOHM.sol\":8048:8239  function _beforeTokenTransfer(... */\n      pop\n      pop\n      pop\n      jump\t// out\n        /* \"contracts/libraries/SafeMath.sol\":1097:1366  function div(uint256 a, uint256 b, string memory errorMessage) internal pure returns (uint256) {... */\n    tag_263:\n        /* \"contracts/libraries/SafeMath.sol\":1183:1190  uint256 */\n      0x00\n        /* \"contracts/libraries/SafeMath.sol\":1214:1215  0 */\n      dup1\n        /* \"contracts/libraries/SafeMath.sol\":1210:1211  b */\n      dup4\n        /* \"contracts/libraries/SafeMath.sol\":1210:1215  b > 0 */\n      gt\n        /* \"contracts/libraries/SafeMath.sol\":1217:1229  errorMessage */\n      dup3\n        /* \"contracts/libraries/SafeMath.sol\":1202:1230  require(b > 0, errorMessage) */\n      swap1\n      tag_274\n      jumpi\n      mload(0x40)\n      0x08c379a000000000000000000000000000000000000000000000000000000000\n      dup2\n      mstore\n      0x04\n      add\n      dup1\n      dup1\n      0x20\n      add\n      dup3\n      dup2\n      sub\n      dup3\n      mstore\n      dup4\n      dup2\n      dup2\n      mload\n      dup2\n      mstore\n      0x20\n      add\n      swap2\n      pop\n      dup1\n      mload\n      swap1\n      0x20\n      add\n      swap1\n      dup1\n      dup4\n      dup4\n      0x00\n    tag_275:\n      dup4\n      dup2\n      lt\n      iszero\n      tag_277\n      jumpi\n      dup1\n      dup3\n      add\n      mload\n      dup2\n      dup5\n      add\n      mstore\n      0x20\n      dup2\n      add\n      swap1\n      pop\n      jump(tag_275)\n    tag_277:\n      pop\n      pop\n      pop\n      pop\n      swap1\n      pop\n      swap1\n      dup2\n      add\n      swap1\n      0x1f\n      and\n      dup1\n      iszero\n      tag_278\n      jumpi\n      dup1\n      dup3\n      sub\n      dup1\n      mload\n      0x01\n      dup4\n      0x20\n      sub\n      0x0100\n      exp\n      sub\n      not\n      and\n      dup2\n      mstore\n      0x20\n      add\n      swap2\n      pop\n    tag_278:\n      pop\n      swap3\n      pop\n      pop\n      pop\n      mload(0x40)\n      dup1\n      swap2\n      sub\n      swap1\n      revert\n    tag_274:\n      pop\n        /* \"contracts/libraries/SafeMath.sol\":1240:1249  uint256 c */\n      0x00\n        /* \"contracts/libraries/SafeMath.sol\":1256:1257  b */\n      dup4\n        /* \"contracts/libraries/SafeMath.sol\":1252:1253  a */\n      dup6\n        /* \"contracts/libraries/SafeMath.sol\":1252:1257  a / b */\n      dup2\n      tag_279\n      jumpi\n      invalid\n    tag_279:\n      div\n        /* \"contracts/libraries/SafeMath.sol\":1240:1257  uint256 c = a / b */\n      swap1\n      pop\n        /* \"contracts/libraries/SafeMath.sol\":1291:1292  b */\n      dup4\n        /* \"contracts/libraries/SafeMath.sol\":1287:1288  a */\n      dup6\n        /* \"contracts/libraries/SafeMath.sol\":1287:1292  a % b */\n      dup2\n      tag_280\n      jumpi\n      invalid\n    tag_280:\n      mod\n        /* \"contracts/libraries/SafeMath.sol\":1283:1284  c */\n      dup2\n        /* \"contracts/libraries/SafeMath.sol\":1279:1280  b */\n      dup6\n        /* \"contracts/libraries/SafeMath.sol\":1279:1284  b * c */\n      mul\n        /* \"contracts/libraries/SafeMath.sol\":1279:1292  b * c + a % b */\n      add\n        /* \"contracts/libraries/SafeMath.sol\":1274:1275  a */\n      dup6\n        /* \"contracts/libraries/SafeMath.sol\":1274:1292  a == b * c + a % b */\n      eq\n        /* \"contracts/libraries/SafeMath.sol\":1267:1293  assert(a == b * c + a % b) */\n      tag_281\n      jumpi\n      invalid\n    tag_281:\n        /* \"contracts/libraries/SafeMath.sol\":1358:1359  c */\n      dup1\n        /* \"contracts/libraries/SafeMath.sol\":1351:1359  return c */\n      swap2\n      pop\n      pop\n        /* \"contracts/libraries/SafeMath.sol\":1097:1366  function div(uint256 a, uint256 b, string memory errorMessage) internal pure returns (uint256) {... */\n      swap4\n      swap3\n      pop\n      pop\n      pop\n      jump\t// out\n    tag_186:\n      mload(0x40)\n      dup1\n      0x40\n      add\n      0x40\n      mstore\n      dup1\n      0x00\n      dup2\n      mstore\n      0x20\n      add\n      0x00\n      dup2\n      mstore\n      pop\n      swap1\n      jump\t// out\n    stop\n    data_0557e210f7a69a685100a7e4e3d0a7024c546085cee28910fd17d0b081d9516f 45524332303a207472616e7366657220746f20746865207a65726f2061646472657373\n    data_149b126e7125232b4200af45303d04fba8b74653b1a295a6a561a528c33fefdd 45524332303a206275726e20616d6f756e7420657863656564732062616c616e6365\n    data_24883cc5fe64ace9d0df1893501ecb93c77180f0ff69cca79affb3c316dc8029 45524332303a20617070726f766520746f20746865207a65726f2061646472657373\n    data_4107e8a8b9e94bf8ff83080ddec1c0bffe897ebc2241b89d44f66b3d274088b6 45524332303a207472616e7366657220616d6f756e7420657863656564732062616c616e6365\n    data_9113bb53c2876a3805b2c9242029423fc540a728243ce887ab24c82cf119fba3 536166654d6174683a206d756c7469706c69636174696f6e206f766572666c6f77\n    data_974d1b4421da69cc60b481194f0dad36a5bb4e23da810da7a7fb30cdba178330 45524332303a207472616e7366657220616d6f756e74206578636565647320616c6c6f77616e6365\n    data_af7c5741dc8cf648e56d5bf296014d9d34a36f052c1eefaa826779d4817e5e92 674f484d3a3a6765745072696f72566f7465733a206e6f74207965742064657465726d696e6564\n    data_b16788493b576042bb52c50ed56189e0b250db113c7bfb1c3897d25cf9632d7f 45524332303a206275726e2066726f6d20746865207a65726f2061646472657373\n    data_baecc556b46f4ed0f2b4cb599d60785ac8563dd2dc0a5bf12edea1c39e5e1fea 45524332303a207472616e736665722066726f6d20746865207a65726f2061646472657373\n    data_c953f4879035ed60e766b34720f656aab5c697b141d924c283124ecedb91c208 45524332303a20617070726f76652066726f6d20746865207a65726f2061646472657373\n    data_f8b476f7d28209d77d4a4ac1fe36b9f8259aa1bb6bddfa6e89de7e51615cf8a8 45524332303a2064656372656173656420616c6c6f77616e63652062656c6f77207a65726f\n\n    auxdata: 0xa2646970667358221220602de806f97394e9f2b53bfc209442c69efef83eb280462ba952a2d53c429e0564736f6c63430007050033\n}\n",
				"bytecode": {
					"linkReferences": {},
					"object": "60806040523480156200001157600080fd5b50604051620034e0380380620034e0833981810160405260408110156200003757600080fd5b8101908080519060200190929190805190602001909291905050506040518060400160405280600e81526020017f476f7665726e616e6365204f484d0000000000000000000000000000000000008152506040518060400160405280600481526020017f674f484d0000000000000000000000000000000000000000000000000000000081525060128260039080519060200190620000d8929190620002e2565b508160049080519060200190620000f1929190620002e2565b5080600560006101000a81548160ff021916908360ff160217905550505050600073ffffffffffffffffffffffffffffffffffffffff168273ffffffffffffffffffffffffffffffffffffffff161415620001b4576040517f08c379a00000000000000000000000000000000000000000000000000000000081526004018080602001828103825260168152602001807f5a65726f20616464726573733a204d69677261746f720000000000000000000081525060200191505060405180910390fd5b81600660006101000a81548173ffffffffffffffffffffffffffffffffffffffff021916908373ffffffffffffffffffffffffffffffffffffffff160217905550600073ffffffffffffffffffffffffffffffffffffffff168173ffffffffffffffffffffffffffffffffffffffff16141562000299576040517f08c379a00000000000000000000000000000000000000000000000000000000081526004018080602001828103825260128152602001807f5a65726f20616464726573733a20734f484d000000000000000000000000000081525060200191505060405180910390fd5b80600560016101000a81548173ffffffffffffffffffffffffffffffffffffffff021916908373ffffffffffffffffffffffffffffffffffffffff160217905550505062000398565b828054600181600116156101000203166002900490600052602060002090601f0160209004810192826200031a576000855562000366565b82601f106200033557805160ff191683800117855562000366565b8280016001018555821562000366579182015b828111156200036557825182559160200191906001019062000348565b5b50905062000375919062000379565b5090565b5b80821115620003945760008160009055506001016200037a565b5090565b61313880620003a86000396000f3fe608060405234801561001057600080fd5b50600436106101da5760003560e01c806366a5236c116101045780639dc29fac116100a2578063a9059cbb11610071578063a9059cbb14610a4b578063b4b5ea5714610aaf578063dd62ed3e14610b07578063eb95768914610b7f576101da565b80639dc29fac146108f3578063a28a42b314610941578063a457c2d7146109a5578063a824876814610a09576101da565b806370a08231116100de57806370a0823114610748578063782d6fe1146107a0578063955f9fd81461080257806395d89b4114610870576101da565b806366a5236c1461066057806368e17b24146106a25780636fcfff45146106f0576101da565b806323b872dd1161017c578063395093511161014b57806339509351146104fc57806340c10f1914610560578063587cde1e146105ae5780635c19a95c1461061c576101da565b806323b872dd146104195780632986c0e51461049d5780632c678c64146104bb578063313ce567146104db576101da565b80631068361f116101b85780631068361f1461032f578063150799251461039357806318160ddd146103c757806319d40b08146103e5576101da565b806306fdde03146101df578063095ea7b3146102625780630cdfebfa146102c6575b600080fd5b6101e7610be1565b6040518080602001828103825283818151815260200191508051906020019080838360005b8381101561022757808201518184015260208101905061020c565b50505050905090810190601f1680156102545780820380516001836020036101000a031916815260200191505b509250505060405180910390f35b6102ae6004803603604081101561027857600080fd5b81019080803573ffffffffffffffffffffffffffffffffffffffff16906020019092919080359060200190929190505050610c83565b60405180821515815260200191505060405180910390f35b610312600480360360408110156102dc57600080fd5b81019080803573ffffffffffffffffffffffffffffffffffffffff16906020019092919080359060200190929190505050610c9a565b604051808381526020018281526020019250505060405180910390f35b6103916004803603604081101561034557600080fd5b81019080803573ffffffffffffffffffffffffffffffffffffffff169060200190929190803573ffffffffffffffffffffffffffffffffffffffff169060200190929190505050610ccb565b005b61039b6110bc565b604051808273ffffffffffffffffffffffffffffffffffffffff16815260200191505060405180910390f35b6103cf6110e2565b6040518082815260200191505060405180910390f35b6103ed6110ec565b604051808273ffffffffffffffffffffffffffffffffffffffff16815260200191505060405180910390f35b6104856004803603606081101561042f57600080fd5b81019080803573ffffffffffffffffffffffffffffffffffffffff169060200190929190803573ffffffffffffffffffffffffffffffffffffffff16906020019092919080359060200190929190505050611112565b60405180821515815260200191505060405180910390f35b6104a56111dd565b6040518082815260200191505060405180910390f35b6104c3611287565b60405180821515815260200191505060405180910390f35b6104e361129a565b604051808260ff16815260200191505060405180910390f35b6105486004803603604081101561051257600080fd5b81019080803573ffffffffffffffffffffffffffffffffffffffff169060200190929190803590602001909291905050506112b1565b60405180821515815260200191505060405180910390f35b6105ac6004803603604081101561057657600080fd5b81019080803573ffffffffffffffffffffffffffffffffffffffff16906020019092919080359060200190929190505050611356565b005b6105f0600480360360208110156105c457600080fd5b81019080803573ffffffffffffffffffffffffffffffffffffffff169060200190929190505050611427565b604051808273ffffffffffffffffffffffffffffffffffffffff16815260200191505060405180910390f35b61065e6004803603602081101561063257600080fd5b81019080803573ffffffffffffffffffffffffffffffffffffffff16906020019092919050505061145a565b005b61068c6004803603602081101561067657600080fd5b8101908080359060200190929190505050611467565b6040518082815260200191505060405180910390f35b6106ee600480360360408110156106b857600080fd5b81019080803573ffffffffffffffffffffffffffffffffffffffff169060200190929190803590602001909291905050506114a9565b005b6107326004803603602081101561070657600080fd5b81019080803573ffffffffffffffffffffffffffffffffffffffff1690602001909291905050506115f0565b6040518082815260200191505060405180910390f35b61078a6004803603602081101561075e57600080fd5b81019080803573ffffffffffffffffffffffffffffffffffffffff169060200190929190505050611608565b6040518082815260200191505060405180910390f35b6107ec600480360360408110156107b657600080fd5b81019080803573ffffffffffffffffffffffffffffffffffffffff16906020019092919080359060200190929190505050611650565b6040518082815260200191505060405180910390f35b61086e6004803603606081101561081857600080fd5b81019080803573ffffffffffffffffffffffffffffffffffffffff169060200190929190803573ffffffffffffffffffffffffffffffffffffffff1690602001909291908035906020019092919050505061195f565b005b610878611bb8565b6040518080602001828103825283818151815260200191508051906020019080838360005b838110156108b857808201518184015260208101905061089d565b50505050905090810190601f1680156108e55780820380516001836020036101000a031916815260200191505b509250505060405180910390f35b61093f6004803603604081101561090957600080fd5b81019080803573ffffffffffffffffffffffffffffffffffffffff16906020019092919080359060200190929190505050611c5a565b005b6109a36004803603604081101561095757600080fd5b81019080803573ffffffffffffffffffffffffffffffffffffffff169060200190929190803573ffffffffffffffffffffffffffffffffffffffff169060200190929190505050611d2b565b005b6109f1600480360360408110156109bb57600080fd5b81019080803573ffffffffffffffffffffffffffffffffffffffff16906020019092919080359060200190929190505050611ed2565b60405180821515815260200191505060405180910390f35b610a3560048036036020811015610a1f57600080fd5b8101908080359060200190929190505050611f91565b6040518082815260200191505060405180910390f35b610a9760048036036040811015610a6157600080fd5b81019080803573ffffffffffffffffffffffffffffffffffffffff16906020019092919080359060200190929190505050611fd3565b60405180821515815260200191505060405180910390f35b610af160048036036020811015610ac557600080fd5b81019080803573ffffffffffffffffffffffffffffffffffffffff169060200190929190505050611fea565b6040518082815260200191505060405180910390f35b610b6960048036036040811015610b1d57600080fd5b81019080803573ffffffffffffffffffffffffffffffffffffffff169060200190929190803573ffffffffffffffffffffffffffffffffffffffff16906020019092919050505061209e565b6040518082815260200191505060405180910390f35b610bdf60048036036080811015610b9557600080fd5b81019080803573ffffffffffffffffffffffffffffffffffffffff169060200190929190803590602001909291908035906020019092919080359060200190929190505050612125565b005b606060038054600181600116156101000203166002900480601f016020809104026020016040519081016040528092919081815260200182805460018160011615610100020316600290048015610c795780601f10610c4e57610100808354040283529160200191610c79565b820191906000526020600020905b815481529060010190602001808311610c5c57829003601f168201915b5050505050905090565b6000610c9033848461230f565b6001905092915050565b6007602052816000526040600020602052806000526040600020600091509150508060000154908060010154905082565b600660009054906101000a900473ffffffffffffffffffffffffffffffffffffffff1673ffffffffffffffffffffffffffffffffffffffff163373ffffffffffffffffffffffffffffffffffffffff1614610d8e576040517f08c379a000000000000000000000000000000000000000000000000000000000815260040180806020018281038252600d8152602001807f4f6e6c7920617070726f7665640000000000000000000000000000000000000081525060200191505060405180910390fd5b600660149054906101000a900460ff1615610e11576040517f08c379a00000000000000000000000000000000000000000000000000000000081526004018080602001828103825260088152602001807f4d6967726174656400000000000000000000000000000000000000000000000081525060200191505060405180910390fd5b6001600660146101000a81548160ff021916908315150217905550600660009054906101000a900473ffffffffffffffffffffffffffffffffffffffff1673ffffffffffffffffffffffffffffffffffffffff168273ffffffffffffffffffffffffffffffffffffffff161415610ef0576040517f08c379a00000000000000000000000000000000000000000000000000000000081526004018080602001828103825260108152602001807f496e76616c696420617267756d656e740000000000000000000000000000000081525060200191505060405180910390fd5b600073ffffffffffffffffffffffffffffffffffffffff168273ffffffffffffffffffffffffffffffffffffffff161415610f93576040517f08c379a00000000000000000000000000000000000000000000000000000000081526004018080602001828103825260128152602001807f5a65726f206164647265737320666f756e64000000000000000000000000000081525060200191505060405180910390fd5b81600660006101000a81548173ffffffffffffffffffffffffffffffffffffffff021916908373ffffffffffffffffffffffffffffffffffffffff160217905550600073ffffffffffffffffffffffffffffffffffffffff168173ffffffffffffffffffffffffffffffffffffffff161415611077576040517f08c379a00000000000000000000000000000000000000000000000000000000081526004018080602001828103825260128152602001807f5a65726f206164647265737320666f756e64000000000000000000000000000081525060200191505060405180910390fd5b80600560016101000a81548173ffffffffffffffffffffffffffffffffffffffff021916908373ffffffffffffffffffffffffffffffffffffffff1602179055505050565b600560019054906101000a900473ffffffffffffffffffffffffffffffffffffffff1681565b6000600254905090565b600660009054906101000a900473ffffffffffffffffffffffffffffffffffffffff1681565b600061111f848484612506565b6111d284336111cd8560405180606001604052806028815260200161302560289139600160008b73ffffffffffffffffffffffffffffffffffffffff1673ffffffffffffffffffffffffffffffffffffffff16815260200190815260200160002060003373ffffffffffffffffffffffffffffffffffffffff1673ffffffffffffffffffffffffffffffffffffffff168152602001908152602001600020546127c79092919063ffffffff16565b61230f565b600190509392505050565b6000600560019054906101000a900473ffffffffffffffffffffffffffffffffffffffff1673ffffffffffffffffffffffffffffffffffffffff16632986c0e56040518163ffffffff1660e01b815260040160206040518083038186803b15801561124757600080fd5b505afa15801561125b573d6000803e3d6000fd5b505050506040513d602081101561127157600080fd5b8101908080519060200190929190505050905090565b600660149054906101000a900460ff1681565b6000600560009054906101000a900460ff16905090565b600061134c338461134785600160003373ffffffffffffffffffffffffffffffffffffffff1673ffffffffffffffffffffffffffffffffffffffff16815260200190815260200160002060008973ffffffffffffffffffffffffffffffffffffffff1673ffffffffffffffffffffffffffffffffffffffff1681526020019081526020016000205461288790919063ffffffff16565b61230f565b6001905092915050565b600660009054906101000a900473ffffffffffffffffffffffffffffffffffffffff1673ffffffffffffffffffffffffffffffffffffffff163373ffffffffffffffffffffffffffffffffffffffff1614611419576040517f08c379a000000000000000000000000000000000000000000000000000000000815260040180806020018281038252600d8152602001807f4f6e6c7920617070726f7665640000000000000000000000000000000000000081525060200191505060405180910390fd5b611423828261290f565b5050565b60096020528060005260406000206000915054906101000a900473ffffffffffffffffffffffffffffffffffffffff1681565b6114643382611d2b565b50565b60006114a26114746111dd565b61149461147f61129a565b60ff16600a0a85612ad490919063ffffffff16565b612b5a90919063ffffffff16565b9050919050565b6000600860008473ffffffffffffffffffffffffffffffffffffffff1673ffffffffffffffffffffffffffffffffffffffff16815260200190815260200160002054905081600760008573ffffffffffffffffffffffffffffffffffffffff1673ffffffffffffffffffffffffffffffffffffffff16815260200190815260200160002060008381526020019081526020016000206001018190555043600760008573ffffffffffffffffffffffffffffffffffffffff1673ffffffffffffffffffffffffffffffffffffffff1681526020019081526020016000206000838152602001908152602001600020600001819055506001600860008573ffffffffffffffffffffffffffffffffffffffff1673ffffffffffffffffffffffffffffffffffffffff16815260200190815260200160002060008282540192505081905550505050565b60086020528060005260406000206000915090505481565b60008060008373ffffffffffffffffffffffffffffffffffffffff1673ffffffffffffffffffffffffffffffffffffffff168152602001908152602001600020549050919050565b60004382106116aa576040517f08c379a000000000000000000000000000000000000000000000000000000000815260040180806020018281038252602781526020018061304d6027913960400191505060405180910390fd5b6000600860008573ffffffffffffffffffffffffffffffffffffffff1673ffffffffffffffffffffffffffffffffffffffff1681526020019081526020016000205490506000811415611701576000915050611959565b82600760008673ffffffffffffffffffffffffffffffffffffffff1673ffffffffffffffffffffffffffffffffffffffff168152602001908152602001600020600060018403815260200190815260200160002060000154116117bd57600760008573ffffffffffffffffffffffffffffffffffffffff1673ffffffffffffffffffffffffffffffffffffffff168152602001908152602001600020600060018303815260200190815260200160002060010154915050611959565b82600760008673ffffffffffffffffffffffffffffffffffffffff1673ffffffffffffffffffffffffffffffffffffffff1681526020019081526020016000206000808152602001908152602001600020600001541115611822576000915050611959565b6000806001830390505b818111156118ff57600060028383038161184257fe5b048203905061184f612f5c565b600760008973ffffffffffffffffffffffffffffffffffffffff1673ffffffffffffffffffffffffffffffffffffffff168152602001908152602001600020600083815260200190815260200160002060405180604001604052908160008201548152602001600182015481525050905086816000015114156118dd57806020015195505050505050611959565b86816000015110156118f1578193506118f8565b6001820392505b505061182c565b600760008773ffffffffffffffffffffffffffffffffffffffff1673ffffffffffffffffffffffffffffffffffffffff16815260200190815260200160002060008381526020019081526020016000206001015493505050505b92915050565b8173ffffffffffffffffffffffffffffffffffffffff168373ffffffffffffffffffffffffffffffffffffffff161415801561199b5750600081115b15611bb357600073ffffffffffffffffffffffffffffffffffffffff168373ffffffffffffffffffffffffffffffffffffffff1614611aa9576000600860008573ffffffffffffffffffffffffffffffffffffffff1673ffffffffffffffffffffffffffffffffffffffff1681526020019081526020016000205490506000808211611a28576000611a80565b600760008673ffffffffffffffffffffffffffffffffffffffff1673ffffffffffffffffffffffffffffffffffffffff1681526020019081526020016000206000600184038152602001908152602001600020600101545b90506000611a978483612ba490919063ffffffff16565b9050611aa586848484612125565b5050505b600073ffffffffffffffffffffffffffffffffffffffff168273ffffffffffffffffffffffffffffffffffffffff1614611bb2576000600860008473ffffffffffffffffffffffffffffffffffffffff1673ffffffffffffffffffffffffffffffffffffffff1681526020019081526020016000205490506000808211611b31576000611b89565b600760008573ffffffffffffffffffffffffffffffffffffffff1673ffffffffffffffffffffffffffffffffffffffff1681526020019081526020016000206000600184038152602001908152602001600020600101545b90506000611ba0848361288790919063ffffffff16565b9050611bae85848484612125565b5050505b5b505050565b606060048054600181600116156101000203166002900480601f016020809104026020016040519081016040528092919081815260200182805460018160011615610100020316600290048015611c505780601f10611c2557610100808354040283529160200191611c50565b820191906000526020600020905b815481529060010190602001808311611c3357829003601f168201915b5050505050905090565b600660009054906101000a900473ffffffffffffffffffffffffffffffffffffffff1673ffffffffffffffffffffffffffffffffffffffff163373ffffffffffffffffffffffffffffffffffffffff1614611d1d576040517f08c379a000000000000000000000000000000000000000000000000000000000815260040180806020018281038252600d8152602001807f4f6e6c7920617070726f7665640000000000000000000000000000000000000081525060200191505060405180910390fd5b611d278282612bee565b5050565b6000600960008473ffffffffffffffffffffffffffffffffffffffff1673ffffffffffffffffffffffffffffffffffffffff16815260200190815260200160002060009054906101000a900473ffffffffffffffffffffffffffffffffffffffff16905060008060008573ffffffffffffffffffffffffffffffffffffffff1673ffffffffffffffffffffffffffffffffffffffff16815260200190815260200160002054905082600960008673ffffffffffffffffffffffffffffffffffffffff1673ffffffffffffffffffffffffffffffffffffffff16815260200190815260200160002060006101000a81548173ffffffffffffffffffffffffffffffffffffffff021916908373ffffffffffffffffffffffffffffffffffffffff1602179055508273ffffffffffffffffffffffffffffffffffffffff168273ffffffffffffffffffffffffffffffffffffffff168573ffffffffffffffffffffffffffffffffffffffff167f3134e8a2e6d97e929a7e54011ea5485d7d196dd5f0ba4d4ef95803e8e3fc257f60405160405180910390a4611ecc82848361195f565b50505050565b6000611f873384611f82856040518060600160405280602581526020016130de60259139600160003373ffffffffffffffffffffffffffffffffffffffff1673ffffffffffffffffffffffffffffffffffffffff16815260200190815260200160002060008a73ffffffffffffffffffffffffffffffffffffffff1673ffffffffffffffffffffffffffffffffffffffff168152602001908152602001600020546127c79092919063ffffffff16565b61230f565b6001905092915050565b6000611fcc611f9e61129a565b60ff16600a0a611fbe611faf6111dd565b85612ad490919063ffffffff16565b612b5a90919063ffffffff16565b9050919050565b6000611fe0338484612506565b6001905092915050565b600080600860008473ffffffffffffffffffffffffffffffffffffffff1673ffffffffffffffffffffffffffffffffffffffff1681526020019081526020016000205490506000811161203e576000612096565b600760008473ffffffffffffffffffffffffffffffffffffffff1673ffffffffffffffffffffffffffffffffffffffff1681526020019081526020016000206000600183038152602001908152602001600020600101545b915050919050565b6000600160008473ffffffffffffffffffffffffffffffffffffffff1673ffffffffffffffffffffffffffffffffffffffff16815260200190815260200160002060008373ffffffffffffffffffffffffffffffffffffffff1673ffffffffffffffffffffffffffffffffffffffff16815260200190815260200160002054905092915050565b60008311801561218a575043600760008673ffffffffffffffffffffffffffffffffffffffff1673ffffffffffffffffffffffffffffffffffffffff168152602001908152602001600020600060018603815260200190815260200160002060000154145b156121ef5780600760008673ffffffffffffffffffffffffffffffffffffffff1673ffffffffffffffffffffffffffffffffffffffff1681526020019081526020016000206000600186038152602001908152602001600020600101819055506122b3565b604051806040016040528043815260200182815250600760008673ffffffffffffffffffffffffffffffffffffffff1673ffffffffffffffffffffffffffffffffffffffff1681526020019081526020016000206000858152602001908152602001600020600082015181600001556020820151816001015590505060018301600860008673ffffffffffffffffffffffffffffffffffffffff1673ffffffffffffffffffffffffffffffffffffffff168152602001908152602001600020819055505b8373ffffffffffffffffffffffffffffffffffffffff167fdec2bacdd2f05b59de34da9b523dff8be42e5e38e818c82fdb0bae774387a7248383604051808381526020018281526020019250505060405180910390a250505050565b600073ffffffffffffffffffffffffffffffffffffffff168373ffffffffffffffffffffffffffffffffffffffff161415612395576040517f08c379a00000000000000000000000000000000000000000000000000000000081526004018080602001828103825260248152602001806130ba6024913960400191505060405180910390fd5b600073ffffffffffffffffffffffffffffffffffffffff168273ffffffffffffffffffffffffffffffffffffffff16141561241b576040517f08c379a0000000000000000000000000000000000000000000000000000000008152600401808060200182810382526022815260200180612fbc6022913960400191505060405180910390fd5b80600160008573ffffffffffffffffffffffffffffffffffffffff1673ffffffffffffffffffffffffffffffffffffffff16815260200190815260200160002060008473ffffffffffffffffffffffffffffffffffffffff1673ffffffffffffffffffffffffffffffffffffffff168152602001908152602001600020819055508173ffffffffffffffffffffffffffffffffffffffff168373ffffffffffffffffffffffffffffffffffffffff167f8c5be1e5ebec7d5bd14f71427d1e84f3dd0314c0f7b2291e5b200ac8c7c3b925836040518082815260200191505060405180910390a3505050565b600073ffffffffffffffffffffffffffffffffffffffff168373ffffffffffffffffffffffffffffffffffffffff16141561258c576040517f08c379a00000000000000000000000000000000000000000000000000000000081526004018080602001828103825260258152602001806130956025913960400191505060405180910390fd5b600073ffffffffffffffffffffffffffffffffffffffff168273ffffffffffffffffffffffffffffffffffffffff161415612612576040517f08c379a0000000000000000000000000000000000000000000000000000000008152600401808060200182810382526023815260200180612f776023913960400191505060405180910390fd5b61261d838383612db2565b61268881604051806060016040528060268152602001612fde602691396000808773ffffffffffffffffffffffffffffffffffffffff1673ffffffffffffffffffffffffffffffffffffffff168152602001908152602001600020546127c79092919063ffffffff16565b6000808573ffffffffffffffffffffffffffffffffffffffff1673ffffffffffffffffffffffffffffffffffffffff1681526020019081526020016000208190555061271b816000808573ffffffffffffffffffffffffffffffffffffffff1673ffffffffffffffffffffffffffffffffffffffff1681526020019081526020016000205461288790919063ffffffff16565b6000808473ffffffffffffffffffffffffffffffffffffffff1673ffffffffffffffffffffffffffffffffffffffff168152602001908152602001600020819055508173ffffffffffffffffffffffffffffffffffffffff168373ffffffffffffffffffffffffffffffffffffffff167fddf252ad1be2c89b69c2b068fc378daa952ba7f163c4a11628f55a4df523b3ef836040518082815260200191505060405180910390a3505050565b6000838311158290612874576040517f08c379a00000000000000000000000000000000000000000000000000000000081526004018080602001828103825283818151815260200191508051906020019080838360005b8381101561283957808201518184015260208101905061281e565b50505050905090810190601f1680156128665780820380516001836020036101000a031916815260200191505b509250505060405180910390fd5b5060008385039050809150509392505050565b600080828401905083811015612905576040517f08c379a000000000000000000000000000000000000000000000000000000000815260040180806020018281038252601b8152602001807f536166654d6174683a206164646974696f6e206f766572666c6f77000000000081525060200191505060405180910390fd5b8091505092915050565b600073ffffffffffffffffffffffffffffffffffffffff168273ffffffffffffffffffffffffffffffffffffffff1614156129b2576040517f08c379a000000000000000000000000000000000000000000000000000000000815260040180806020018281038252601f8152602001807f45524332303a206d696e7420746f20746865207a65726f20616464726573730081525060200191505060405180910390fd5b6129bd308383612db2565b6129d28160025461288790919063ffffffff16565b600281905550612a29816000808573ffffffffffffffffffffffffffffffffffffffff1673ffffffffffffffffffffffffffffffffffffffff1681526020019081526020016000205461288790919063ffffffff16565b6000808473ffffffffffffffffffffffffffffffffffffffff1673ffffffffffffffffffffffffffffffffffffffff168152602001908152602001600020819055508173ffffffffffffffffffffffffffffffffffffffff163073ffffffffffffffffffffffffffffffffffffffff167fddf252ad1be2c89b69c2b068fc378daa952ba7f163c4a11628f55a4df523b3ef836040518082815260200191505060405180910390a35050565b600080831415612ae75760009050612b54565b6000828402905082848281612af857fe5b0414612b4f576040517f08c379a00000000000000000000000000000000000000000000000000000000081526004018080602001828103825260218152602001806130046021913960400191505060405180910390fd5b809150505b92915050565b6000612b9c83836040518060400160405280601a81526020017f536166654d6174683a206469766973696f6e206279207a65726f000000000000815250612e80565b905092915050565b6000612be683836040518060400160405280601e81526020017f536166654d6174683a207375627472616374696f6e206f766572666c6f7700008152506127c7565b905092915050565b600073ffffffffffffffffffffffffffffffffffffffff168273ffffffffffffffffffffffffffffffffffffffff161415612c74576040517f08c379a00000000000000000000000000000000000000000000000000000000081526004018080602001828103825260218152602001806130746021913960400191505060405180910390fd5b612c8082600083612db2565b612ceb81604051806060016040528060228152602001612f9a602291396000808673ffffffffffffffffffffffffffffffffffffffff1673ffffffffffffffffffffffffffffffffffffffff168152602001908152602001600020546127c79092919063ffffffff16565b6000808473ffffffffffffffffffffffffffffffffffffffff1673ffffffffffffffffffffffffffffffffffffffff16815260200190815260200160002081905550612d4281600254612ba490919063ffffffff16565b600281905550600073ffffffffffffffffffffffffffffffffffffffff168273ffffffffffffffffffffffffffffffffffffffff167fddf252ad1be2c89b69c2b068fc378daa952ba7f163c4a11628f55a4df523b3ef836040518082815260200191505060405180910390a35050565b612e7b600960008573ffffffffffffffffffffffffffffffffffffffff1673ffffffffffffffffffffffffffffffffffffffff16815260200190815260200160002060009054906101000a900473ffffffffffffffffffffffffffffffffffffffff16600960008573ffffffffffffffffffffffffffffffffffffffff1673ffffffffffffffffffffffffffffffffffffffff16815260200190815260200160002060009054906101000a900473ffffffffffffffffffffffffffffffffffffffff168361195f565b505050565b60008083118290612f2c576040517f08c379a00000000000000000000000000000000000000000000000000000000081526004018080602001828103825283818151815260200191508051906020019080838360005b83811015612ef1578082015181840152602081019050612ed6565b50505050905090810190601f168015612f1e5780820380516001836020036101000a031916815260200191505b509250505060405180910390fd5b506000838581612f3857fe5b049050838581612f4457fe5b06818502018514612f5157fe5b809150509392505050565b60405180604001604052806000815260200160008152509056fe45524332303a207472616e7366657220746f20746865207a65726f206164647265737345524332303a206275726e20616d6f756e7420657863656564732062616c616e636545524332303a20617070726f766520746f20746865207a65726f206164647265737345524332303a207472616e7366657220616d6f756e7420657863656564732062616c616e6365536166654d6174683a206d756c7469706c69636174696f6e206f766572666c6f7745524332303a207472616e7366657220616d6f756e74206578636565647320616c6c6f77616e6365674f484d3a3a6765745072696f72566f7465733a206e6f74207965742064657465726d696e656445524332303a206275726e2066726f6d20746865207a65726f206164647265737345524332303a207472616e736665722066726f6d20746865207a65726f206164647265737345524332303a20617070726f76652066726f6d20746865207a65726f206164647265737345524332303a2064656372656173656420616c6c6f77616e63652062656c6f77207a65726fa2646970667358221220602de806f97394e9f2b53bfc209442c69efef83eb280462ba952a2d53c429e0564736f6c63430007050033",
					"opcodes": "PUSH1 0x80 PUSH1 0x40 MSTORE CALLVALUE DUP1 ISZERO PUSH3 0x11 JUMPI PUSH1 0x0 DUP1 REVERT JUMPDEST POP PUSH1 0x40 MLOAD PUSH3 0x34E0 CODESIZE SUB DUP1 PUSH3 0x34E0 DUP4 CODECOPY DUP2 DUP2 ADD PUSH1 0x40 MSTORE PUSH1 0x40 DUP2 LT ISZERO PUSH3 0x37 JUMPI PUSH1 0x0 DUP1 REVERT JUMPDEST DUP2 ADD SWAP1 DUP1 DUP1 MLOAD SWAP1 PUSH1 0x20 ADD SWAP1 SWAP3 SWAP2 SWAP1 DUP1 MLOAD SWAP1 PUSH1 0x20 ADD SWAP1 SWAP3 SWAP2 SWAP1 POP POP POP PUSH1 0x40 MLOAD DUP1 PUSH1 0x40 ADD PUSH1 0x40 MSTORE DUP1 PUSH1 0xE DUP2 MSTORE PUSH1 0x20 ADD PUSH32 0x476F7665726E616E6365204F484D000000000000000000000000000000000000 DUP2 MSTORE POP PUSH1 0x40 MLOAD DUP1 PUSH1 0x40 ADD PUSH1 0x40 MSTORE DUP1 PUSH1 0x4 DUP2 MSTORE PUSH1 0x20 ADD PUSH32 0x674F484D00000000000000000000000000000000000000000000000000000000 DUP2 MSTORE POP PUSH1 0x12 DUP3 PUSH1 0x3 SWAP1 DUP1 MLOAD SWAP1 PUSH1 0x20 ADD SWAP1 PUSH3 0xD8 SWAP3 SWAP2 SWAP1 PUSH3 0x2E2 JUMP JUMPDEST POP DUP2 PUSH1 0x4 SWAP1 DUP1 MLOAD SWAP1 PUSH1 0x20 ADD SWAP1 PUSH3 0xF1 SWAP3 SWAP2 SWAP1 PUSH3 0x2E2 JUMP JUMPDEST POP DUP1 PUSH1 0x5 PUSH1 0x0 PUSH2 0x100 EXP DUP2 SLOAD DUP2 PUSH1 0xFF MUL NOT AND SWAP1 DUP4 PUSH1 0xFF AND MUL OR SWAP1 SSTORE POP POP POP POP PUSH1 0x0 PUSH20 0xFFFFFFFFFFFFFFFFFFFFFFFFFFFFFFFFFFFFFFFF AND DUP3 PUSH20 0xFFFFFFFFFFFFFFFFFFFFFFFFFFFFFFFFFFFFFFFF AND EQ ISZERO PUSH3 0x1B4 JUMPI PUSH1 0x40 MLOAD PUSH32 0x8C379A000000000000000000000000000000000000000000000000000000000 DUP2 MSTORE PUSH1 0x4 ADD DUP1 DUP1 PUSH1 0x20 ADD DUP3 DUP2 SUB DUP3 MSTORE PUSH1 0x16 DUP2 MSTORE PUSH1 0x20 ADD DUP1 PUSH32 0x5A65726F20616464726573733A204D69677261746F7200000000000000000000 DUP2 MSTORE POP PUSH1 0x20 ADD SWAP2 POP POP PUSH1 0x40 MLOAD DUP1 SWAP2 SUB SWAP1 REVERT JUMPDEST DUP2 PUSH1 0x6 PUSH1 0x0 PUSH2 0x100 EXP DUP2 SLOAD DUP2 PUSH20 0xFFFFFFFFFFFFFFFFFFFFFFFFFFFFFFFFFFFFFFFF MUL NOT AND SWAP1 DUP4 PUSH20 0xFFFFFFFFFFFFFFFFFFFFFFFFFFFFFFFFFFFFFFFF AND MUL OR SWAP1 SSTORE POP PUSH1 0x0 PUSH20 0xFFFFFFFFFFFFFFFFFFFFFFFFFFFFFFFFFFFFFFFF AND DUP2 PUSH20 0xFFFFFFFFFFFFFFFFFFFFFFFFFFFFFFFFFFFFFFFF AND EQ ISZERO PUSH3 0x299 JUMPI PUSH1 0x40 MLOAD PUSH32 0x8C379A000000000000000000000000000000000000000000000000000000000 DUP2 MSTORE PUSH1 0x4 ADD DUP1 DUP1 PUSH1 0x20 ADD DUP3 DUP2 SUB DUP3 MSTORE PUSH1 0x12 DUP2 MSTORE PUSH1 0x20 ADD DUP1 PUSH32 0x5A65726F20616464726573733A20734F484D0000000000000000000000000000 DUP2 MSTORE POP PUSH1 0x20 ADD SWAP2 POP POP PUSH1 0x40 MLOAD DUP1 SWAP2 SUB SWAP1 REVERT JUMPDEST DUP1 PUSH1 0x5 PUSH1 0x1 PUSH2 0x100 EXP DUP2 SLOAD DUP2 PUSH20 0xFFFFFFFFFFFFFFFFFFFFFFFFFFFFFFFFFFFFFFFF MUL NOT AND SWAP1 DUP4 PUSH20 0xFFFFFFFFFFFFFFFFFFFFFFFFFFFFFFFFFFFFFFFF AND MUL OR SWAP1 SSTORE POP POP POP PUSH3 0x398 JUMP JUMPDEST DUP3 DUP1 SLOAD PUSH1 0x1 DUP2 PUSH1 0x1 AND ISZERO PUSH2 0x100 MUL SUB AND PUSH1 0x2 SWAP1 DIV SWAP1 PUSH1 0x0 MSTORE PUSH1 0x20 PUSH1 0x0 KECCAK256 SWAP1 PUSH1 0x1F ADD PUSH1 0x20 SWAP1 DIV DUP2 ADD SWAP3 DUP3 PUSH3 0x31A JUMPI PUSH1 0x0 DUP6 SSTORE PUSH3 0x366 JUMP JUMPDEST DUP3 PUSH1 0x1F LT PUSH3 0x335 JUMPI DUP1 MLOAD PUSH1 0xFF NOT AND DUP4 DUP1 ADD OR DUP6 SSTORE PUSH3 0x366 JUMP JUMPDEST DUP3 DUP1 ADD PUSH1 0x1 ADD DUP6 SSTORE DUP3 ISZERO PUSH3 0x366 JUMPI SWAP2 DUP3 ADD JUMPDEST DUP3 DUP2 GT ISZERO PUSH3 0x365 JUMPI DUP3 MLOAD DUP3 SSTORE SWAP2 PUSH1 0x20 ADD SWAP2 SWAP1 PUSH1 0x1 ADD SWAP1 PUSH3 0x348 JUMP JUMPDEST JUMPDEST POP SWAP1 POP PUSH3 0x375 SWAP2 SWAP1 PUSH3 0x379 JUMP JUMPDEST POP SWAP1 JUMP JUMPDEST JUMPDEST DUP1 DUP3 GT ISZERO PUSH3 0x394 JUMPI PUSH1 0x0 DUP2 PUSH1 0x0 SWAP1 SSTORE POP PUSH1 0x1 ADD PUSH3 0x37A JUMP JUMPDEST POP SWAP1 JUMP JUMPDEST PUSH2 0x3138 DUP1 PUSH3 0x3A8 PUSH1 0x0 CODECOPY PUSH1 0x0 RETURN INVALID PUSH1 0x80 PUSH1 0x40 MSTORE CALLVALUE DUP1 ISZERO PUSH2 0x10 JUMPI PUSH1 0x0 DUP1 REVERT JUMPDEST POP PUSH1 0x4 CALLDATASIZE LT PUSH2 0x1DA JUMPI PUSH1 0x0 CALLDATALOAD PUSH1 0xE0 SHR DUP1 PUSH4 0x66A5236C GT PUSH2 0x104 JUMPI DUP1 PUSH4 0x9DC29FAC GT PUSH2 0xA2 JUMPI DUP1 PUSH4 0xA9059CBB GT PUSH2 0x71 JUMPI DUP1 PUSH4 0xA9059CBB EQ PUSH2 0xA4B JUMPI DUP1 PUSH4 0xB4B5EA57 EQ PUSH2 0xAAF JUMPI DUP1 PUSH4 0xDD62ED3E EQ PUSH2 0xB07 JUMPI DUP1 PUSH4 0xEB957689 EQ PUSH2 0xB7F JUMPI PUSH2 0x1DA JUMP JUMPDEST DUP1 PUSH4 0x9DC29FAC EQ PUSH2 0x8F3 JUMPI DUP1 PUSH4 0xA28A42B3 EQ PUSH2 0x941 JUMPI DUP1 PUSH4 0xA457C2D7 EQ PUSH2 0x9A5 JUMPI DUP1 PUSH4 0xA8248768 EQ PUSH2 0xA09 JUMPI PUSH2 0x1DA JUMP JUMPDEST DUP1 PUSH4 0x70A08231 GT PUSH2 0xDE JUMPI DUP1 PUSH4 0x70A08231 EQ PUSH2 0x748 JUMPI DUP1 PUSH4 0x782D6FE1 EQ PUSH2 0x7A0 JUMPI DUP1 PUSH4 0x955F9FD8 EQ PUSH2 0x802 JUMPI DUP1 PUSH4 0x95D89B41 EQ PUSH2 0x870 JUMPI PUSH2 0x1DA JUMP JUMPDEST DUP1 PUSH4 0x66A5236C EQ PUSH2 0x660 JUMPI DUP1 PUSH4 0x68E17B24 EQ PUSH2 0x6A2 JUMPI DUP1 PUSH4 0x6FCFFF45 EQ PUSH2 0x6F0 JUMPI PUSH2 0x1DA JUMP JUMPDEST DUP1 PUSH4 0x23B872DD GT PUSH2 0x17C JUMPI DUP1 PUSH4 0x39509351 GT PUSH2 0x14B JUMPI DUP1 PUSH4 0x39509351 EQ PUSH2 0x4FC JUMPI DUP1 PUSH4 0x40C10F19 EQ PUSH2 0x560 JUMPI DUP1 PUSH4 0x587CDE1E EQ PUSH2 0x5AE JUMPI DUP1 PUSH4 0x5C19A95C EQ PUSH2 0x61C JUMPI PUSH2 0x1DA JUMP JUMPDEST DUP1 PUSH4 0x23B872DD EQ PUSH2 0x419 JUMPI DUP1 PUSH4 0x2986C0E5 EQ PUSH2 0x49D JUMPI DUP1 PUSH4 0x2C678C64 EQ PUSH2 0x4BB JUMPI DUP1 PUSH4 0x313CE567 EQ PUSH2 0x4DB JUMPI PUSH2 0x1DA JUMP JUMPDEST DUP1 PUSH4 0x1068361F GT PUSH2 0x1B8 JUMPI DUP1 PUSH4 0x1068361F EQ PUSH2 0x32F JUMPI DUP1 PUSH4 0x15079925 EQ PUSH2 0x393 JUMPI DUP1 PUSH4 0x18160DDD EQ PUSH2 0x3C7 JUMPI DUP1 PUSH4 0x19D40B08 EQ PUSH2 0x3E5 JUMPI PUSH2 0x1DA JUMP JUMPDEST DUP1 PUSH4 0x6FDDE03 EQ PUSH2 0x1DF JUMPI DUP1 PUSH4 0x95EA7B3 EQ PUSH2 0x262 JUMPI DUP1 PUSH4 0xCDFEBFA EQ PUSH2 0x2C6 JUMPI JUMPDEST PUSH1 0x0 DUP1 REVERT JUMPDEST PUSH2 0x1E7 PUSH2 0xBE1 JUMP JUMPDEST PUSH1 0x40 MLOAD DUP1 DUP1 PUSH1 0x20 ADD DUP3 DUP2 SUB DUP3 MSTORE DUP4 DUP2 DUP2 MLOAD DUP2 MSTORE PUSH1 0x20 ADD SWAP2 POP DUP1 MLOAD SWAP1 PUSH1 0x20 ADD SWAP1 DUP1 DUP4 DUP4 PUSH1 0x0 JUMPDEST DUP4 DUP2 LT ISZERO PUSH2 0x227 JUMPI DUP1 DUP3 ADD MLOAD DUP2 DUP5 ADD MSTORE PUSH1 0x20 DUP2 ADD SWAP1 POP PUSH2 0x20C JUMP JUMPDEST POP POP POP POP SWAP1 POP SWAP1 DUP2 ADD SWAP1 PUSH1 0x1F AND DUP1 ISZERO PUSH2 0x254 JUMPI DUP1 DUP3 SUB DUP1 MLOAD PUSH1 0x1 DUP4 PUSH1 0x20 SUB PUSH2 0x100 EXP SUB NOT AND DUP2 MSTORE PUSH1 0x20 ADD SWAP2 POP JUMPDEST POP SWAP3 POP POP POP PUSH1 0x40 MLOAD DUP1 SWAP2 SUB SWAP1 RETURN JUMPDEST PUSH2 0x2AE PUSH1 0x4 DUP1 CALLDATASIZE SUB PUSH1 0x40 DUP2 LT ISZERO PUSH2 0x278 JUMPI PUSH1 0x0 DUP1 REVERT JUMPDEST DUP2 ADD SWAP1 DUP1 DUP1 CALLDATALOAD PUSH20 0xFFFFFFFFFFFFFFFFFFFFFFFFFFFFFFFFFFFFFFFF AND SWAP1 PUSH1 0x20 ADD SWAP1 SWAP3 SWAP2 SWAP1 DUP1 CALLDATALOAD SWAP1 PUSH1 0x20 ADD SWAP1 SWAP3 SWAP2 SWAP1 POP POP POP PUSH2 0xC83 JUMP JUMPDEST PUSH1 0x40 MLOAD DUP1 DUP3 ISZERO ISZERO DUP2 MSTORE PUSH1 0x20 ADD SWAP2 POP POP PUSH1 0x40 MLOAD DUP1 SWAP2 SUB SWAP1 RETURN JUMPDEST PUSH2 0x312 PUSH1 0x4 DUP1 CALLDATASIZE SUB PUSH1 0x40 DUP2 LT ISZERO PUSH2 0x2DC JUMPI PUSH1 0x0 DUP1 REVERT JUMPDEST DUP2 ADD SWAP1 DUP1 DUP1 CALLDATALOAD PUSH20 0xFFFFFFFFFFFFFFFFFFFFFFFFFFFFFFFFFFFFFFFF AND SWAP1 PUSH1 0x20 ADD SWAP1 SWAP3 SWAP2 SWAP1 DUP1 CALLDATALOAD SWAP1 PUSH1 0x20 ADD SWAP1 SWAP3 SWAP2 SWAP1 POP POP POP PUSH2 0xC9A JUMP JUMPDEST PUSH1 0x40 MLOAD DUP1 DUP4 DUP2 MSTORE PUSH1 0x20 ADD DUP3 DUP2 MSTORE PUSH1 0x20 ADD SWAP3 POP POP POP PUSH1 0x40 MLOAD DUP1 SWAP2 SUB SWAP1 RETURN JUMPDEST PUSH2 0x391 PUSH1 0x4 DUP1 CALLDATASIZE SUB PUSH1 0x40 DUP2 LT ISZERO PUSH2 0x345 JUMPI PUSH1 0x0 DUP1 REVERT JUMPDEST DUP2 ADD SWAP1 DUP1 DUP1 CALLDATALOAD PUSH20 0xFFFFFFFFFFFFFFFFFFFFFFFFFFFFFFFFFFFFFFFF AND SWAP1 PUSH1 0x20 ADD SWAP1 SWAP3 SWAP2 SWAP1 DUP1 CALLDATALOAD PUSH20 0xFFFFFFFFFFFFFFFFFFFFFFFFFFFFFFFFFFFFFFFF AND SWAP1 PUSH1 0x20 ADD SWAP1 SWAP3 SWAP2 SWAP1 POP POP POP PUSH2 0xCCB JUMP JUMPDEST STOP JUMPDEST PUSH2 0x39B PUSH2 0x10BC JUMP JUMPDEST PUSH1 0x40 MLOAD DUP1 DUP3 PUSH20 0xFFFFFFFFFFFFFFFFFFFFFFFFFFFFFFFFFFFFFFFF AND DUP2 MSTORE PUSH1 0x20 ADD SWAP2 POP POP PUSH1 0x40 MLOAD DUP1 SWAP2 SUB SWAP1 RETURN JUMPDEST PUSH2 0x3CF PUSH2 0x10E2 JUMP JUMPDEST PUSH1 0x40 MLOAD DUP1 DUP3 DUP2 MSTORE PUSH1 0x20 ADD SWAP2 POP POP PUSH1 0x40 MLOAD DUP1 SWAP2 SUB SWAP1 RETURN JUMPDEST PUSH2 0x3ED PUSH2 0x10EC JUMP JUMPDEST PUSH1 0x40 MLOAD DUP1 DUP3 PUSH20 0xFFFFFFFFFFFFFFFFFFFFFFFFFFFFFFFFFFFFFFFF AND DUP2 MSTORE PUSH1 0x20 ADD SWAP2 POP POP PUSH1 0x40 MLOAD DUP1 SWAP2 SUB SWAP1 RETURN JUMPDEST PUSH2 0x485 PUSH1 0x4 DUP1 CALLDATASIZE SUB PUSH1 0x60 DUP2 LT ISZERO PUSH2 0x42F JUMPI PUSH1 0x0 DUP1 REVERT JUMPDEST DUP2 ADD SWAP1 DUP1 DUP1 CALLDATALOAD PUSH20 0xFFFFFFFFFFFFFFFFFFFFFFFFFFFFFFFFFFFFFFFF AND SWAP1 PUSH1 0x20 ADD SWAP1 SWAP3 SWAP2 SWAP1 DUP1 CALLDATALOAD PUSH20 0xFFFFFFFFFFFFFFFFFFFFFFFFFFFFFFFFFFFFFFFF AND SWAP1 PUSH1 0x20 ADD SWAP1 SWAP3 SWAP2 SWAP1 DUP1 CALLDATALOAD SWAP1 PUSH1 0x20 ADD SWAP1 SWAP3 SWAP2 SWAP1 POP POP POP PUSH2 0x1112 JUMP JUMPDEST PUSH1 0x40 MLOAD DUP1 DUP3 ISZERO ISZERO DUP2 MSTORE PUSH1 0x20 ADD SWAP2 POP POP PUSH1 0x40 MLOAD DUP1 SWAP2 SUB SWAP1 RETURN JUMPDEST PUSH2 0x4A5 PUSH2 0x11DD JUMP JUMPDEST PUSH1 0x40 MLOAD DUP1 DUP3 DUP2 MSTORE PUSH1 0x20 ADD SWAP2 POP POP PUSH1 0x40 MLOAD DUP1 SWAP2 SUB SWAP1 RETURN JUMPDEST PUSH2 0x4C3 PUSH2 0x1287 JUMP JUMPDEST PUSH1 0x40 MLOAD DUP1 DUP3 ISZERO ISZERO DUP2 MSTORE PUSH1 0x20 ADD SWAP2 POP POP PUSH1 0x40 MLOAD DUP1 SWAP2 SUB SWAP1 RETURN JUMPDEST PUSH2 0x4E3 PUSH2 0x129A JUMP JUMPDEST PUSH1 0x40 MLOAD DUP1 DUP3 PUSH1 0xFF AND DUP2 MSTORE PUSH1 0x20 ADD SWAP2 POP POP PUSH1 0x40 MLOAD DUP1 SWAP2 SUB SWAP1 RETURN JUMPDEST PUSH2 0x548 PUSH1 0x4 DUP1 CALLDATASIZE SUB PUSH1 0x40 DUP2 LT ISZERO PUSH2 0x512 JUMPI PUSH1 0x0 DUP1 REVERT JUMPDEST DUP2 ADD SWAP1 DUP1 DUP1 CALLDATALOAD PUSH20 0xFFFFFFFFFFFFFFFFFFFFFFFFFFFFFFFFFFFFFFFF AND SWAP1 PUSH1 0x20 ADD SWAP1 SWAP3 SWAP2 SWAP1 DUP1 CALLDATALOAD SWAP1 PUSH1 0x20 ADD SWAP1 SWAP3 SWAP2 SWAP1 POP POP POP PUSH2 0x12B1 JUMP JUMPDEST PUSH1 0x40 MLOAD DUP1 DUP3 ISZERO ISZERO DUP2 MSTORE PUSH1 0x20 ADD SWAP2 POP POP PUSH1 0x40 MLOAD DUP1 SWAP2 SUB SWAP1 RETURN JUMPDEST PUSH2 0x5AC PUSH1 0x4 DUP1 CALLDATASIZE SUB PUSH1 0x40 DUP2 LT ISZERO PUSH2 0x576 JUMPI PUSH1 0x0 DUP1 REVERT JUMPDEST DUP2 ADD SWAP1 DUP1 DUP1 CALLDATALOAD PUSH20 0xFFFFFFFFFFFFFFFFFFFFFFFFFFFFFFFFFFFFFFFF AND SWAP1 PUSH1 0x20 ADD SWAP1 SWAP3 SWAP2 SWAP1 DUP1 CALLDATALOAD SWAP1 PUSH1 0x20 ADD SWAP1 SWAP3 SWAP2 SWAP1 POP POP POP PUSH2 0x1356 JUMP JUMPDEST STOP JUMPDEST PUSH2 0x5F0 PUSH1 0x4 DUP1 CALLDATASIZE SUB PUSH1 0x20 DUP2 LT ISZERO PUSH2 0x5C4 JUMPI PUSH1 0x0 DUP1 REVERT JUMPDEST DUP2 ADD SWAP1 DUP1 DUP1 CALLDATALOAD PUSH20 0xFFFFFFFFFFFFFFFFFFFFFFFFFFFFFFFFFFFFFFFF AND SWAP1 PUSH1 0x20 ADD SWAP1 SWAP3 SWAP2 SWAP1 POP POP POP PUSH2 0x1427 JUMP JUMPDEST PUSH1 0x40 MLOAD DUP1 DUP3 PUSH20 0xFFFFFFFFFFFFFFFFFFFFFFFFFFFFFFFFFFFFFFFF AND DUP2 MSTORE PUSH1 0x20 ADD SWAP2 POP POP PUSH1 0x40 MLOAD DUP1 SWAP2 SUB SWAP1 RETURN JUMPDEST PUSH2 0x65E PUSH1 0x4 DUP1 CALLDATASIZE SUB PUSH1 0x20 DUP2 LT ISZERO PUSH2 0x632 JUMPI PUSH1 0x0 DUP1 REVERT JUMPDEST DUP2 ADD SWAP1 DUP1 DUP1 CALLDATALOAD PUSH20 0xFFFFFFFFFFFFFFFFFFFFFFFFFFFFFFFFFFFFFFFF AND SWAP1 PUSH1 0x20 ADD SWAP1 SWAP3 SWAP2 SWAP1 POP POP POP PUSH2 0x145A JUMP JUMPDEST STOP JUMPDEST PUSH2 0x68C PUSH1 0x4 DUP1 CALLDATASIZE SUB PUSH1 0x20 DUP2 LT ISZERO PUSH2 0x676 JUMPI PUSH1 0x0 DUP1 REVERT JUMPDEST DUP2 ADD SWAP1 DUP1 DUP1 CALLDATALOAD SWAP1 PUSH1 0x20 ADD SWAP1 SWAP3 SWAP2 SWAP1 POP POP POP PUSH2 0x1467 JUMP JUMPDEST PUSH1 0x40 MLOAD DUP1 DUP3 DUP2 MSTORE PUSH1 0x20 ADD SWAP2 POP POP PUSH1 0x40 MLOAD DUP1 SWAP2 SUB SWAP1 RETURN JUMPDEST PUSH2 0x6EE PUSH1 0x4 DUP1 CALLDATASIZE SUB PUSH1 0x40 DUP2 LT ISZERO PUSH2 0x6B8 JUMPI PUSH1 0x0 DUP1 REVERT JUMPDEST DUP2 ADD SWAP1 DUP1 DUP1 CALLDATALOAD PUSH20 0xFFFFFFFFFFFFFFFFFFFFFFFFFFFFFFFFFFFFFFFF AND SWAP1 PUSH1 0x20 ADD SWAP1 SWAP3 SWAP2 SWAP1 DUP1 CALLDATALOAD SWAP1 PUSH1 0x20 ADD SWAP1 SWAP3 SWAP2 SWAP1 POP POP POP PUSH2 0x14A9 JUMP JUMPDEST STOP JUMPDEST PUSH2 0x732 PUSH1 0x4 DUP1 CALLDATASIZE SUB PUSH1 0x20 DUP2 LT ISZERO PUSH2 0x706 JUMPI PUSH1 0x0 DUP1 REVERT JUMPDEST DUP2 ADD SWAP1 DUP1 DUP1 CALLDATALOAD PUSH20 0xFFFFFFFFFFFFFFFFFFFFFFFFFFFFFFFFFFFFFFFF AND SWAP1 PUSH1 0x20 ADD SWAP1 SWAP3 SWAP2 SWAP1 POP POP POP PUSH2 0x15F0 JUMP JUMPDEST PUSH1 0x40 MLOAD DUP1 DUP3 DUP2 MSTORE PUSH1 0x20 ADD SWAP2 POP POP PUSH1 0x40 MLOAD DUP1 SWAP2 SUB SWAP1 RETURN JUMPDEST PUSH2 0x78A PUSH1 0x4 DUP1 CALLDATASIZE SUB PUSH1 0x20 DUP2 LT ISZERO PUSH2 0x75E JUMPI PUSH1 0x0 DUP1 REVERT JUMPDEST DUP2 ADD SWAP1 DUP1 DUP1 CALLDATALOAD PUSH20 0xFFFFFFFFFFFFFFFFFFFFFFFFFFFFFFFFFFFFFFFF AND SWAP1 PUSH1 0x20 ADD SWAP1 SWAP3 SWAP2 SWAP1 POP POP POP PUSH2 0x1608 JUMP JUMPDEST PUSH1 0x40 MLOAD DUP1 DUP3 DUP2 MSTORE PUSH1 0x20 ADD SWAP2 POP POP PUSH1 0x40 MLOAD DUP1 SWAP2 SUB SWAP1 RETURN JUMPDEST PUSH2 0x7EC PUSH1 0x4 DUP1 CALLDATASIZE SUB PUSH1 0x40 DUP2 LT ISZERO PUSH2 0x7B6 JUMPI PUSH1 0x0 DUP1 REVERT JUMPDEST DUP2 ADD SWAP1 DUP1 DUP1 CALLDATALOAD PUSH20 0xFFFFFFFFFFFFFFFFFFFFFFFFFFFFFFFFFFFFFFFF AND SWAP1 PUSH1 0x20 ADD SWAP1 SWAP3 SWAP2 SWAP1 DUP1 CALLDATALOAD SWAP1 PUSH1 0x20 ADD SWAP1 SWAP3 SWAP2 SWAP1 POP POP POP PUSH2 0x1650 JUMP JUMPDEST PUSH1 0x40 MLOAD DUP1 DUP3 DUP2 MSTORE PUSH1 0x20 ADD SWAP2 POP POP PUSH1 0x40 MLOAD DUP1 SWAP2 SUB SWAP1 RETURN JUMPDEST PUSH2 0x86E PUSH1 0x4 DUP1 CALLDATASIZE SUB PUSH1 0x60 DUP2 LT ISZERO PUSH2 0x818 JUMPI PUSH1 0x0 DUP1 REVERT JUMPDEST DUP2 ADD SWAP1 DUP1 DUP1 CALLDATALOAD PUSH20 0xFFFFFFFFFFFFFFFFFFFFFFFFFFFFFFFFFFFFFFFF AND SWAP1 PUSH1 0x20 ADD SWAP1 SWAP3 SWAP2 SWAP1 DUP1 CALLDATALOAD PUSH20 0xFFFFFFFFFFFFFFFFFFFFFFFFFFFFFFFFFFFFFFFF AND SWAP1 PUSH1 0x20 ADD SWAP1 SWAP3 SWAP2 SWAP1 DUP1 CALLDATALOAD SWAP1 PUSH1 0x20 ADD SWAP1 SWAP3 SWAP2 SWAP1 POP POP POP PUSH2 0x195F JUMP JUMPDEST STOP JUMPDEST PUSH2 0x878 PUSH2 0x1BB8 JUMP JUMPDEST PUSH1 0x40 MLOAD DUP1 DUP1 PUSH1 0x20 ADD DUP3 DUP2 SUB DUP3 MSTORE DUP4 DUP2 DUP2 MLOAD DUP2 MSTORE PUSH1 0x20 ADD SWAP2 POP DUP1 MLOAD SWAP1 PUSH1 0x20 ADD SWAP1 DUP1 DUP4 DUP4 PUSH1 0x0 JUMPDEST DUP4 DUP2 LT ISZERO PUSH2 0x8B8 JUMPI DUP1 DUP3 ADD MLOAD DUP2 DUP5 ADD MSTORE PUSH1 0x20 DUP2 ADD SWAP1 POP PUSH2 0x89D JUMP JUMPDEST POP POP POP POP SWAP1 POP SWAP1 DUP2 ADD SWAP1 PUSH1 0x1F AND DUP1 ISZERO PUSH2 0x8E5 JUMPI DUP1 DUP3 SUB DUP1 MLOAD PUSH1 0x1 DUP4 PUSH1 0x20 SUB PUSH2 0x100 EXP SUB NOT AND DUP2 MSTORE PUSH1 0x20 ADD SWAP2 POP JUMPDEST POP SWAP3 POP POP POP PUSH1 0x40 MLOAD DUP1 SWAP2 SUB SWAP1 RETURN JUMPDEST PUSH2 0x93F PUSH1 0x4 DUP1 CALLDATASIZE SUB PUSH1 0x40 DUP2 LT ISZERO PUSH2 0x909 JUMPI PUSH1 0x0 DUP1 REVERT JUMPDEST DUP2 ADD SWAP1 DUP1 DUP1 CALLDATALOAD PUSH20 0xFFFFFFFFFFFFFFFFFFFFFFFFFFFFFFFFFFFFFFFF AND SWAP1 PUSH1 0x20 ADD SWAP1 SWAP3 SWAP2 SWAP1 DUP1 CALLDATALOAD SWAP1 PUSH1 0x20 ADD SWAP1 SWAP3 SWAP2 SWAP1 POP POP POP PUSH2 0x1C5A JUMP JUMPDEST STOP JUMPDEST PUSH2 0x9A3 PUSH1 0x4 DUP1 CALLDATASIZE SUB PUSH1 0x40 DUP2 LT ISZERO PUSH2 0x957 JUMPI PUSH1 0x0 DUP1 REVERT JUMPDEST DUP2 ADD SWAP1 DUP1 DUP1 CALLDATALOAD PUSH20 0xFFFFFFFFFFFFFFFFFFFFFFFFFFFFFFFFFFFFFFFF AND SWAP1 PUSH1 0x20 ADD SWAP1 SWAP3 SWAP2 SWAP1 DUP1 CALLDATALOAD PUSH20 0xFFFFFFFFFFFFFFFFFFFFFFFFFFFFFFFFFFFFFFFF AND SWAP1 PUSH1 0x20 ADD SWAP1 SWAP3 SWAP2 SWAP1 POP POP POP PUSH2 0x1D2B JUMP JUMPDEST STOP JUMPDEST PUSH2 0x9F1 PUSH1 0x4 DUP1 CALLDATASIZE SUB PUSH1 0x40 DUP2 LT ISZERO PUSH2 0x9BB JUMPI PUSH1 0x0 DUP1 REVERT JUMPDEST DUP2 ADD SWAP1 DUP1 DUP1 CALLDATALOAD PUSH20 0xFFFFFFFFFFFFFFFFFFFFFFFFFFFFFFFFFFFFFFFF AND SWAP1 PUSH1 0x20 ADD SWAP1 SWAP3 SWAP2 SWAP1 DUP1 CALLDATALOAD SWAP1 PUSH1 0x20 ADD SWAP1 SWAP3 SWAP2 SWAP1 POP POP POP PUSH2 0x1ED2 JUMP JUMPDEST PUSH1 0x40 MLOAD DUP1 DUP3 ISZERO ISZERO DUP2 MSTORE PUSH1 0x20 ADD SWAP2 POP POP PUSH1 0x40 MLOAD DUP1 SWAP2 SUB SWAP1 RETURN JUMPDEST PUSH2 0xA35 PUSH1 0x4 DUP1 CALLDATASIZE SUB PUSH1 0x20 DUP2 LT ISZERO PUSH2 0xA1F JUMPI PUSH1 0x0 DUP1 REVERT JUMPDEST DUP2 ADD SWAP1 DUP1 DUP1 CALLDATALOAD SWAP1 PUSH1 0x20 ADD SWAP1 SWAP3 SWAP2 SWAP1 POP POP POP PUSH2 0x1F91 JUMP JUMPDEST PUSH1 0x40 MLOAD DUP1 DUP3 DUP2 MSTORE PUSH1 0x20 ADD SWAP2 POP POP PUSH1 0x40 MLOAD DUP1 SWAP2 SUB SWAP1 RETURN JUMPDEST PUSH2 0xA97 PUSH1 0x4 DUP1 CALLDATASIZE SUB PUSH1 0x40 DUP2 LT ISZERO PUSH2 0xA61 JUMPI PUSH1 0x0 DUP1 REVERT JUMPDEST DUP2 ADD SWAP1 DUP1 DUP1 CALLDATALOAD PUSH20 0xFFFFFFFFFFFFFFFFFFFFFFFFFFFFFFFFFFFFFFFF AND SWAP1 PUSH1 0x20 ADD SWAP1 SWAP3 SWAP2 SWAP1 DUP1 CALLDATALOAD SWAP1 PUSH1 0x20 ADD SWAP1 SWAP3 SWAP2 SWAP1 POP POP POP PUSH2 0x1FD3 JUMP JUMPDEST PUSH1 0x40 MLOAD DUP1 DUP3 ISZERO ISZERO DUP2 MSTORE PUSH1 0x20 ADD SWAP2 POP POP PUSH1 0x40 MLOAD DUP1 SWAP2 SUB SWAP1 RETURN JUMPDEST PUSH2 0xAF1 PUSH1 0x4 DUP1 CALLDATASIZE SUB PUSH1 0x20 DUP2 LT ISZERO PUSH2 0xAC5 JUMPI PUSH1 0x0 DUP1 REVERT JUMPDEST DUP2 ADD SWAP1 DUP1 DUP1 CALLDATALOAD PUSH20 0xFFFFFFFFFFFFFFFFFFFFFFFFFFFFFFFFFFFFFFFF AND SWAP1 PUSH1 0x20 ADD SWAP1 SWAP3 SWAP2 SWAP1 POP POP POP PUSH2 0x1FEA JUMP JUMPDEST PUSH1 0x40 MLOAD DUP1 DUP3 DUP2 MSTORE PUSH1 0x20 ADD SWAP2 POP POP PUSH1 0x40 MLOAD DUP1 SWAP2 SUB SWAP1 RETURN JUMPDEST PUSH2 0xB69 PUSH1 0x4 DUP1 CALLDATASIZE SUB PUSH1 0x40 DUP2 LT ISZERO PUSH2 0xB1D JUMPI PUSH1 0x0 DUP1 REVERT JUMPDEST DUP2 ADD SWAP1 DUP1 DUP1 CALLDATALOAD PUSH20 0xFFFFFFFFFFFFFFFFFFFFFFFFFFFFFFFFFFFFFFFF AND SWAP1 PUSH1 0x20 ADD SWAP1 SWAP3 SWAP2 SWAP1 DUP1 CALLDATALOAD PUSH20 0xFFFFFFFFFFFFFFFFFFFFFFFFFFFFFFFFFFFFFFFF AND SWAP1 PUSH1 0x20 ADD SWAP1 SWAP3 SWAP2 SWAP1 POP POP POP PUSH2 0x209E JUMP JUMPDEST PUSH1 0x40 MLOAD DUP1 DUP3 DUP2 MSTORE PUSH1 0x20 ADD SWAP2 POP POP PUSH1 0x40 MLOAD DUP1 SWAP2 SUB SWAP1 RETURN JUMPDEST PUSH2 0xBDF PUSH1 0x4 DUP1 CALLDATASIZE SUB PUSH1 0x80 DUP2 LT ISZERO PUSH2 0xB95 JUMPI PUSH1 0x0 DUP1 REVERT JUMPDEST DUP2 ADD SWAP1 DUP1 DUP1 CALLDATALOAD PUSH20 0xFFFFFFFFFFFFFFFFFFFFFFFFFFFFFFFFFFFFFFFF AND SWAP1 PUSH1 0x20 ADD SWAP1 SWAP3 SWAP2 SWAP1 DUP1 CALLDATALOAD SWAP1 PUSH1 0x20 ADD SWAP1 SWAP3 SWAP2 SWAP1 DUP1 CALLDATALOAD SWAP1 PUSH1 0x20 ADD SWAP1 SWAP3 SWAP2 SWAP1 DUP1 CALLDATALOAD SWAP1 PUSH1 0x20 ADD SWAP1 SWAP3 SWAP2 SWAP1 POP POP POP PUSH2 0x2125 JUMP JUMPDEST STOP JUMPDEST PUSH1 0x60 PUSH1 0x3 DUP1 SLOAD PUSH1 0x1 DUP2 PUSH1 0x1 AND ISZERO PUSH2 0x100 MUL SUB AND PUSH1 0x2 SWAP1 DIV DUP1 PUSH1 0x1F ADD PUSH1 0x20 DUP1 SWAP2 DIV MUL PUSH1 0x20 ADD PUSH1 0x40 MLOAD SWAP1 DUP2 ADD PUSH1 0x40 MSTORE DUP1 SWAP3 SWAP2 SWAP1 DUP2 DUP2 MSTORE PUSH1 0x20 ADD DUP3 DUP1 SLOAD PUSH1 0x1 DUP2 PUSH1 0x1 AND ISZERO PUSH2 0x100 MUL SUB AND PUSH1 0x2 SWAP1 DIV DUP1 ISZERO PUSH2 0xC79 JUMPI DUP1 PUSH1 0x1F LT PUSH2 0xC4E JUMPI PUSH2 0x100 DUP1 DUP4 SLOAD DIV MUL DUP4 MSTORE SWAP2 PUSH1 0x20 ADD SWAP2 PUSH2 0xC79 JUMP JUMPDEST DUP3 ADD SWAP2 SWAP1 PUSH1 0x0 MSTORE PUSH1 0x20 PUSH1 0x0 KECCAK256 SWAP1 JUMPDEST DUP2 SLOAD DUP2 MSTORE SWAP1 PUSH1 0x1 ADD SWAP1 PUSH1 0x20 ADD DUP1 DUP4 GT PUSH2 0xC5C JUMPI DUP3 SWAP1 SUB PUSH1 0x1F AND DUP3 ADD SWAP2 JUMPDEST POP POP POP POP POP SWAP1 POP SWAP1 JUMP JUMPDEST PUSH1 0x0 PUSH2 0xC90 CALLER DUP5 DUP5 PUSH2 0x230F JUMP JUMPDEST PUSH1 0x1 SWAP1 POP SWAP3 SWAP2 POP POP JUMP JUMPDEST PUSH1 0x7 PUSH1 0x20 MSTORE DUP2 PUSH1 0x0 MSTORE PUSH1 0x40 PUSH1 0x0 KECCAK256 PUSH1 0x20 MSTORE DUP1 PUSH1 0x0 MSTORE PUSH1 0x40 PUSH1 0x0 KECCAK256 PUSH1 0x0 SWAP2 POP SWAP2 POP POP DUP1 PUSH1 0x0 ADD SLOAD SWAP1 DUP1 PUSH1 0x1 ADD SLOAD SWAP1 POP DUP3 JUMP JUMPDEST PUSH1 0x6 PUSH1 0x0 SWAP1 SLOAD SWAP1 PUSH2 0x100 EXP SWAP1 DIV PUSH20 0xFFFFFFFFFFFFFFFFFFFFFFFFFFFFFFFFFFFFFFFF AND PUSH20 0xFFFFFFFFFFFFFFFFFFFFFFFFFFFFFFFFFFFFFFFF AND CALLER PUSH20 0xFFFFFFFFFFFFFFFFFFFFFFFFFFFFFFFFFFFFFFFF AND EQ PUSH2 0xD8E JUMPI PUSH1 0x40 MLOAD PUSH32 0x8C379A000000000000000000000000000000000000000000000000000000000 DUP2 MSTORE PUSH1 0x4 ADD DUP1 DUP1 PUSH1 0x20 ADD DUP3 DUP2 SUB DUP3 MSTORE PUSH1 0xD DUP2 MSTORE PUSH1 0x20 ADD DUP1 PUSH32 0x4F6E6C7920617070726F76656400000000000000000000000000000000000000 DUP2 MSTORE POP PUSH1 0x20 ADD SWAP2 POP POP PUSH1 0x40 MLOAD DUP1 SWAP2 SUB SWAP1 REVERT JUMPDEST PUSH1 0x6 PUSH1 0x14 SWAP1 SLOAD SWAP1 PUSH2 0x100 EXP SWAP1 DIV PUSH1 0xFF AND ISZERO PUSH2 0xE11 JUMPI PUSH1 0x40 MLOAD PUSH32 0x8C379A000000000000000000000000000000000000000000000000000000000 DUP2 MSTORE PUSH1 0x4 ADD DUP1 DUP1 PUSH1 0x20 ADD DUP3 DUP2 SUB DUP3 MSTORE PUSH1 0x8 DUP2 MSTORE PUSH1 0x20 ADD DUP1 PUSH32 0x4D69677261746564000000000000000000000000000000000000000000000000 DUP2 MSTORE POP PUSH1 0x20 ADD SWAP2 POP POP PUSH1 0x40 MLOAD DUP1 SWAP2 SUB SWAP1 REVERT JUMPDEST PUSH1 0x1 PUSH1 0x6 PUSH1 0x14 PUSH2 0x100 EXP DUP2 SLOAD DUP2 PUSH1 0xFF MUL NOT AND SWAP1 DUP4 ISZERO ISZERO MUL OR SWAP1 SSTORE POP PUSH1 0x6 PUSH1 0x0 SWAP1 SLOAD SWAP1 PUSH2 0x100 EXP SWAP1 DIV PUSH20 0xFFFFFFFFFFFFFFFFFFFFFFFFFFFFFFFFFFFFFFFF AND PUSH20 0xFFFFFFFFFFFFFFFFFFFFFFFFFFFFFFFFFFFFFFFF AND DUP3 PUSH20 0xFFFFFFFFFFFFFFFFFFFFFFFFFFFFFFFFFFFFFFFF AND EQ ISZERO PUSH2 0xEF0 JUMPI PUSH1 0x40 MLOAD PUSH32 0x8C379A000000000000000000000000000000000000000000000000000000000 DUP2 MSTORE PUSH1 0x4 ADD DUP1 DUP1 PUSH1 0x20 ADD DUP3 DUP2 SUB DUP3 MSTORE PUSH1 0x10 DUP2 MSTORE PUSH1 0x20 ADD DUP1 PUSH32 0x496E76616C696420617267756D656E7400000000000000000000000000000000 DUP2 MSTORE POP PUSH1 0x20 ADD SWAP2 POP POP PUSH1 0x40 MLOAD DUP1 SWAP2 SUB SWAP1 REVERT JUMPDEST PUSH1 0x0 PUSH20 0xFFFFFFFFFFFFFFFFFFFFFFFFFFFFFFFFFFFFFFFF AND DUP3 PUSH20 0xFFFFFFFFFFFFFFFFFFFFFFFFFFFFFFFFFFFFFFFF AND EQ ISZERO PUSH2 0xF93 JUMPI PUSH1 0x40 MLOAD PUSH32 0x8C379A000000000000000000000000000000000000000000000000000000000 DUP2 MSTORE PUSH1 0x4 ADD DUP1 DUP1 PUSH1 0x20 ADD DUP3 DUP2 SUB DUP3 MSTORE PUSH1 0x12 DUP2 MSTORE PUSH1 0x20 ADD DUP1 PUSH32 0x5A65726F206164647265737320666F756E640000000000000000000000000000 DUP2 MSTORE POP PUSH1 0x20 ADD SWAP2 POP POP PUSH1 0x40 MLOAD DUP1 SWAP2 SUB SWAP1 REVERT JUMPDEST DUP2 PUSH1 0x6 PUSH1 0x0 PUSH2 0x100 EXP DUP2 SLOAD DUP2 PUSH20 0xFFFFFFFFFFFFFFFFFFFFFFFFFFFFFFFFFFFFFFFF MUL NOT AND SWAP1 DUP4 PUSH20 0xFFFFFFFFFFFFFFFFFFFFFFFFFFFFFFFFFFFFFFFF AND MUL OR SWAP1 SSTORE POP PUSH1 0x0 PUSH20 0xFFFFFFFFFFFFFFFFFFFFFFFFFFFFFFFFFFFFFFFF AND DUP2 PUSH20 0xFFFFFFFFFFFFFFFFFFFFFFFFFFFFFFFFFFFFFFFF AND EQ ISZERO PUSH2 0x1077 JUMPI PUSH1 0x40 MLOAD PUSH32 0x8C379A000000000000000000000000000000000000000000000000000000000 DUP2 MSTORE PUSH1 0x4 ADD DUP1 DUP1 PUSH1 0x20 ADD DUP3 DUP2 SUB DUP3 MSTORE PUSH1 0x12 DUP2 MSTORE PUSH1 0x20 ADD DUP1 PUSH32 0x5A65726F206164647265737320666F756E640000000000000000000000000000 DUP2 MSTORE POP PUSH1 0x20 ADD SWAP2 POP POP PUSH1 0x40 MLOAD DUP1 SWAP2 SUB SWAP1 REVERT JUMPDEST DUP1 PUSH1 0x5 PUSH1 0x1 PUSH2 0x100 EXP DUP2 SLOAD DUP2 PUSH20 0xFFFFFFFFFFFFFFFFFFFFFFFFFFFFFFFFFFFFFFFF MUL NOT AND SWAP1 DUP4 PUSH20 0xFFFFFFFFFFFFFFFFFFFFFFFFFFFFFFFFFFFFFFFF AND MUL OR SWAP1 SSTORE POP POP POP JUMP JUMPDEST PUSH1 0x5 PUSH1 0x1 SWAP1 SLOAD SWAP1 PUSH2 0x100 EXP SWAP1 DIV PUSH20 0xFFFFFFFFFFFFFFFFFFFFFFFFFFFFFFFFFFFFFFFF AND DUP2 JUMP JUMPDEST PUSH1 0x0 PUSH1 0x2 SLOAD SWAP1 POP SWAP1 JUMP JUMPDEST PUSH1 0x6 PUSH1 0x0 SWAP1 SLOAD SWAP1 PUSH2 0x100 EXP SWAP1 DIV PUSH20 0xFFFFFFFFFFFFFFFFFFFFFFFFFFFFFFFFFFFFFFFF AND DUP2 JUMP JUMPDEST PUSH1 0x0 PUSH2 0x111F DUP5 DUP5 DUP5 PUSH2 0x2506 JUMP JUMPDEST PUSH2 0x11D2 DUP5 CALLER PUSH2 0x11CD DUP6 PUSH1 0x40 MLOAD DUP1 PUSH1 0x60 ADD PUSH1 0x40 MSTORE DUP1 PUSH1 0x28 DUP2 MSTORE PUSH1 0x20 ADD PUSH2 0x3025 PUSH1 0x28 SWAP2 CODECOPY PUSH1 0x1 PUSH1 0x0 DUP12 PUSH20 0xFFFFFFFFFFFFFFFFFFFFFFFFFFFFFFFFFFFFFFFF AND PUSH20 0xFFFFFFFFFFFFFFFFFFFFFFFFFFFFFFFFFFFFFFFF AND DUP2 MSTORE PUSH1 0x20 ADD SWAP1 DUP2 MSTORE PUSH1 0x20 ADD PUSH1 0x0 KECCAK256 PUSH1 0x0 CALLER PUSH20 0xFFFFFFFFFFFFFFFFFFFFFFFFFFFFFFFFFFFFFFFF AND PUSH20 0xFFFFFFFFFFFFFFFFFFFFFFFFFFFFFFFFFFFFFFFF AND DUP2 MSTORE PUSH1 0x20 ADD SWAP1 DUP2 MSTORE PUSH1 0x20 ADD PUSH1 0x0 KECCAK256 SLOAD PUSH2 0x27C7 SWAP1 SWAP3 SWAP2 SWAP1 PUSH4 0xFFFFFFFF AND JUMP JUMPDEST PUSH2 0x230F JUMP JUMPDEST PUSH1 0x1 SWAP1 POP SWAP4 SWAP3 POP POP POP JUMP JUMPDEST PUSH1 0x0 PUSH1 0x5 PUSH1 0x1 SWAP1 SLOAD SWAP1 PUSH2 0x100 EXP SWAP1 DIV PUSH20 0xFFFFFFFFFFFFFFFFFFFFFFFFFFFFFFFFFFFFFFFF AND PUSH20 0xFFFFFFFFFFFFFFFFFFFFFFFFFFFFFFFFFFFFFFFF AND PUSH4 0x2986C0E5 PUSH1 0x40 MLOAD DUP2 PUSH4 0xFFFFFFFF AND PUSH1 0xE0 SHL DUP2 MSTORE PUSH1 0x4 ADD PUSH1 0x20 PUSH1 0x40 MLOAD DUP1 DUP4 SUB DUP2 DUP7 DUP1 EXTCODESIZE ISZERO DUP1 ISZERO PUSH2 0x1247 JUMPI PUSH1 0x0 DUP1 REVERT JUMPDEST POP GAS STATICCALL ISZERO DUP1 ISZERO PUSH2 0x125B JUMPI RETURNDATASIZE PUSH1 0x0 DUP1 RETURNDATACOPY RETURNDATASIZE PUSH1 0x0 REVERT JUMPDEST POP POP POP POP PUSH1 0x40 MLOAD RETURNDATASIZE PUSH1 0x20 DUP2 LT ISZERO PUSH2 0x1271 JUMPI PUSH1 0x0 DUP1 REVERT JUMPDEST DUP2 ADD SWAP1 DUP1 DUP1 MLOAD SWAP1 PUSH1 0x20 ADD SWAP1 SWAP3 SWAP2 SWAP1 POP POP POP SWAP1 POP SWAP1 JUMP JUMPDEST PUSH1 0x6 PUSH1 0x14 SWAP1 SLOAD SWAP1 PUSH2 0x100 EXP SWAP1 DIV PUSH1 0xFF AND DUP2 JUMP JUMPDEST PUSH1 0x0 PUSH1 0x5 PUSH1 0x0 SWAP1 SLOAD SWAP1 PUSH2 0x100 EXP SWAP1 DIV PUSH1 0xFF AND SWAP1 POP SWAP1 JUMP JUMPDEST PUSH1 0x0 PUSH2 0x134C CALLER DUP5 PUSH2 0x1347 DUP6 PUSH1 0x1 PUSH1 0x0 CALLER PUSH20 0xFFFFFFFFFFFFFFFFFFFFFFFFFFFFFFFFFFFFFFFF AND PUSH20 0xFFFFFFFFFFFFFFFFFFFFFFFFFFFFFFFFFFFFFFFF AND DUP2 MSTORE PUSH1 0x20 ADD SWAP1 DUP2 MSTORE PUSH1 0x20 ADD PUSH1 0x0 KECCAK256 PUSH1 0x0 DUP10 PUSH20 0xFFFFFFFFFFFFFFFFFFFFFFFFFFFFFFFFFFFFFFFF AND PUSH20 0xFFFFFFFFFFFFFFFFFFFFFFFFFFFFFFFFFFFFFFFF AND DUP2 MSTORE PUSH1 0x20 ADD SWAP1 DUP2 MSTORE PUSH1 0x20 ADD PUSH1 0x0 KECCAK256 SLOAD PUSH2 0x2887 SWAP1 SWAP2 SWAP1 PUSH4 0xFFFFFFFF AND JUMP JUMPDEST PUSH2 0x230F JUMP JUMPDEST PUSH1 0x1 SWAP1 POP SWAP3 SWAP2 POP POP JUMP JUMPDEST PUSH1 0x6 PUSH1 0x0 SWAP1 SLOAD SWAP1 PUSH2 0x100 EXP SWAP1 DIV PUSH20 0xFFFFFFFFFFFFFFFFFFFFFFFFFFFFFFFFFFFFFFFF AND PUSH20 0xFFFFFFFFFFFFFFFFFFFFFFFFFFFFFFFFFFFFFFFF AND CALLER PUSH20 0xFFFFFFFFFFFFFFFFFFFFFFFFFFFFFFFFFFFFFFFF AND EQ PUSH2 0x1419 JUMPI PUSH1 0x40 MLOAD PUSH32 0x8C379A000000000000000000000000000000000000000000000000000000000 DUP2 MSTORE PUSH1 0x4 ADD DUP1 DUP1 PUSH1 0x20 ADD DUP3 DUP2 SUB DUP3 MSTORE PUSH1 0xD DUP2 MSTORE PUSH1 0x20 ADD DUP1 PUSH32 0x4F6E6C7920617070726F76656400000000000000000000000000000000000000 DUP2 MSTORE POP PUSH1 0x20 ADD SWAP2 POP POP PUSH1 0x40 MLOAD DUP1 SWAP2 SUB SWAP1 REVERT JUMPDEST PUSH2 0x1423 DUP3 DUP3 PUSH2 0x290F JUMP JUMPDEST POP POP JUMP JUMPDEST PUSH1 0x9 PUSH1 0x20 MSTORE DUP1 PUSH1 0x0 MSTORE PUSH1 0x40 PUSH1 0x0 KECCAK256 PUSH1 0x0 SWAP2 POP SLOAD SWAP1 PUSH2 0x100 EXP SWAP1 DIV PUSH20 0xFFFFFFFFFFFFFFFFFFFFFFFFFFFFFFFFFFFFFFFF AND DUP2 JUMP JUMPDEST PUSH2 0x1464 CALLER DUP3 PUSH2 0x1D2B JUMP JUMPDEST POP JUMP JUMPDEST PUSH1 0x0 PUSH2 0x14A2 PUSH2 0x1474 PUSH2 0x11DD JUMP JUMPDEST PUSH2 0x1494 PUSH2 0x147F PUSH2 0x129A JUMP JUMPDEST PUSH1 0xFF AND PUSH1 0xA EXP DUP6 PUSH2 0x2AD4 SWAP1 SWAP2 SWAP1 PUSH4 0xFFFFFFFF AND JUMP JUMPDEST PUSH2 0x2B5A SWAP1 SWAP2 SWAP1 PUSH4 0xFFFFFFFF AND JUMP JUMPDEST SWAP1 POP SWAP2 SWAP1 POP JUMP JUMPDEST PUSH1 0x0 PUSH1 0x8 PUSH1 0x0 DUP5 PUSH20 0xFFFFFFFFFFFFFFFFFFFFFFFFFFFFFFFFFFFFFFFF AND PUSH20 0xFFFFFFFFFFFFFFFFFFFFFFFFFFFFFFFFFFFFFFFF AND DUP2 MSTORE PUSH1 0x20 ADD SWAP1 DUP2 MSTORE PUSH1 0x20 ADD PUSH1 0x0 KECCAK256 SLOAD SWAP1 POP DUP2 PUSH1 0x7 PUSH1 0x0 DUP6 PUSH20 0xFFFFFFFFFFFFFFFFFFFFFFFFFFFFFFFFFFFFFFFF AND PUSH20 0xFFFFFFFFFFFFFFFFFFFFFFFFFFFFFFFFFFFFFFFF AND DUP2 MSTORE PUSH1 0x20 ADD SWAP1 DUP2 MSTORE PUSH1 0x20 ADD PUSH1 0x0 KECCAK256 PUSH1 0x0 DUP4 DUP2 MSTORE PUSH1 0x20 ADD SWAP1 DUP2 MSTORE PUSH1 0x20 ADD PUSH1 0x0 KECCAK256 PUSH1 0x1 ADD DUP2 SWAP1 SSTORE POP NUMBER PUSH1 0x7 PUSH1 0x0 DUP6 PUSH20 0xFFFFFFFFFFFFFFFFFFFFFFFFFFFFFFFFFFFFFFFF AND PUSH20 0xFFFFFFFFFFFFFFFFFFFFFFFFFFFFFFFFFFFFFFFF AND DUP2 MSTORE PUSH1 0x20 ADD SWAP1 DUP2 MSTORE PUSH1 0x20 ADD PUSH1 0x0 KECCAK256 PUSH1 0x0 DUP4 DUP2 MSTORE PUSH1 0x20 ADD SWAP1 DUP2 MSTORE PUSH1 0x20 ADD PUSH1 0x0 KECCAK256 PUSH1 0x0 ADD DUP2 SWAP1 SSTORE POP PUSH1 0x1 PUSH1 0x8 PUSH1 0x0 DUP6 PUSH20 0xFFFFFFFFFFFFFFFFFFFFFFFFFFFFFFFFFFFFFFFF AND PUSH20 0xFFFFFFFFFFFFFFFFFFFFFFFFFFFFFFFFFFFFFFFF AND DUP2 MSTORE PUSH1 0x20 ADD SWAP1 DUP2 MSTORE PUSH1 0x20 ADD PUSH1 0x0 KECCAK256 PUSH1 0x0 DUP3 DUP3 SLOAD ADD SWAP3 POP POP DUP2 SWAP1 SSTORE POP POP POP POP JUMP JUMPDEST PUSH1 0x8 PUSH1 0x20 MSTORE DUP1 PUSH1 0x0 MSTORE PUSH1 0x40 PUSH1 0x0 KECCAK256 PUSH1 0x0 SWAP2 POP SWAP1 POP SLOAD DUP2 JUMP JUMPDEST PUSH1 0x0 DUP1 PUSH1 0x0 DUP4 PUSH20 0xFFFFFFFFFFFFFFFFFFFFFFFFFFFFFFFFFFFFFFFF AND PUSH20 0xFFFFFFFFFFFFFFFFFFFFFFFFFFFFFFFFFFFFFFFF AND DUP2 MSTORE PUSH1 0x20 ADD SWAP1 DUP2 MSTORE PUSH1 0x20 ADD PUSH1 0x0 KECCAK256 SLOAD SWAP1 POP SWAP2 SWAP1 POP JUMP JUMPDEST PUSH1 0x0 NUMBER DUP3 LT PUSH2 0x16AA JUMPI PUSH1 0x40 MLOAD PUSH32 0x8C379A000000000000000000000000000000000000000000000000000000000 DUP2 MSTORE PUSH1 0x4 ADD DUP1 DUP1 PUSH1 0x20 ADD DUP3 DUP2 SUB DUP3 MSTORE PUSH1 0x27 DUP2 MSTORE PUSH1 0x20 ADD DUP1 PUSH2 0x304D PUSH1 0x27 SWAP2 CODECOPY PUSH1 0x40 ADD SWAP2 POP POP PUSH1 0x40 MLOAD DUP1 SWAP2 SUB SWAP1 REVERT JUMPDEST PUSH1 0x0 PUSH1 0x8 PUSH1 0x0 DUP6 PUSH20 0xFFFFFFFFFFFFFFFFFFFFFFFFFFFFFFFFFFFFFFFF AND PUSH20 0xFFFFFFFFFFFFFFFFFFFFFFFFFFFFFFFFFFFFFFFF AND DUP2 MSTORE PUSH1 0x20 ADD SWAP1 DUP2 MSTORE PUSH1 0x20 ADD PUSH1 0x0 KECCAK256 SLOAD SWAP1 POP PUSH1 0x0 DUP2 EQ ISZERO PUSH2 0x1701 JUMPI PUSH1 0x0 SWAP2 POP POP PUSH2 0x1959 JUMP JUMPDEST DUP3 PUSH1 0x7 PUSH1 0x0 DUP7 PUSH20 0xFFFFFFFFFFFFFFFFFFFFFFFFFFFFFFFFFFFFFFFF AND PUSH20 0xFFFFFFFFFFFFFFFFFFFFFFFFFFFFFFFFFFFFFFFF AND DUP2 MSTORE PUSH1 0x20 ADD SWAP1 DUP2 MSTORE PUSH1 0x20 ADD PUSH1 0x0 KECCAK256 PUSH1 0x0 PUSH1 0x1 DUP5 SUB DUP2 MSTORE PUSH1 0x20 ADD SWAP1 DUP2 MSTORE PUSH1 0x20 ADD PUSH1 0x0 KECCAK256 PUSH1 0x0 ADD SLOAD GT PUSH2 0x17BD JUMPI PUSH1 0x7 PUSH1 0x0 DUP6 PUSH20 0xFFFFFFFFFFFFFFFFFFFFFFFFFFFFFFFFFFFFFFFF AND PUSH20 0xFFFFFFFFFFFFFFFFFFFFFFFFFFFFFFFFFFFFFFFF AND DUP2 MSTORE PUSH1 0x20 ADD SWAP1 DUP2 MSTORE PUSH1 0x20 ADD PUSH1 0x0 KECCAK256 PUSH1 0x0 PUSH1 0x1 DUP4 SUB DUP2 MSTORE PUSH1 0x20 ADD SWAP1 DUP2 MSTORE PUSH1 0x20 ADD PUSH1 0x0 KECCAK256 PUSH1 0x1 ADD SLOAD SWAP2 POP POP PUSH2 0x1959 JUMP JUMPDEST DUP3 PUSH1 0x7 PUSH1 0x0 DUP7 PUSH20 0xFFFFFFFFFFFFFFFFFFFFFFFFFFFFFFFFFFFFFFFF AND PUSH20 0xFFFFFFFFFFFFFFFFFFFFFFFFFFFFFFFFFFFFFFFF AND DUP2 MSTORE PUSH1 0x20 ADD SWAP1 DUP2 MSTORE PUSH1 0x20 ADD PUSH1 0x0 KECCAK256 PUSH1 0x0 DUP1 DUP2 MSTORE PUSH1 0x20 ADD SWAP1 DUP2 MSTORE PUSH1 0x20 ADD PUSH1 0x0 KECCAK256 PUSH1 0x0 ADD SLOAD GT ISZERO PUSH2 0x1822 JUMPI PUSH1 0x0 SWAP2 POP POP PUSH2 0x1959 JUMP JUMPDEST PUSH1 0x0 DUP1 PUSH1 0x1 DUP4 SUB SWAP1 POP JUMPDEST DUP2 DUP2 GT ISZERO PUSH2 0x18FF JUMPI PUSH1 0x0 PUSH1 0x2 DUP4 DUP4 SUB DUP2 PUSH2 0x1842 JUMPI INVALID JUMPDEST DIV DUP3 SUB SWAP1 POP PUSH2 0x184F PUSH2 0x2F5C JUMP JUMPDEST PUSH1 0x7 PUSH1 0x0 DUP10 PUSH20 0xFFFFFFFFFFFFFFFFFFFFFFFFFFFFFFFFFFFFFFFF AND PUSH20 0xFFFFFFFFFFFFFFFFFFFFFFFFFFFFFFFFFFFFFFFF AND DUP2 MSTORE PUSH1 0x20 ADD SWAP1 DUP2 MSTORE PUSH1 0x20 ADD PUSH1 0x0 KECCAK256 PUSH1 0x0 DUP4 DUP2 MSTORE PUSH1 0x20 ADD SWAP1 DUP2 MSTORE PUSH1 0x20 ADD PUSH1 0x0 KECCAK256 PUSH1 0x40 MLOAD DUP1 PUSH1 0x40 ADD PUSH1 0x40 MSTORE SWAP1 DUP2 PUSH1 0x0 DUP3 ADD SLOAD DUP2 MSTORE PUSH1 0x20 ADD PUSH1 0x1 DUP3 ADD SLOAD DUP2 MSTORE POP POP SWAP1 POP DUP7 DUP2 PUSH1 0x0 ADD MLOAD EQ ISZERO PUSH2 0x18DD JUMPI DUP1 PUSH1 0x20 ADD MLOAD SWAP6 POP POP POP POP POP POP PUSH2 0x1959 JUMP JUMPDEST DUP7 DUP2 PUSH1 0x0 ADD MLOAD LT ISZERO PUSH2 0x18F1 JUMPI DUP2 SWAP4 POP PUSH2 0x18F8 JUMP JUMPDEST PUSH1 0x1 DUP3 SUB SWAP3 POP JUMPDEST POP POP PUSH2 0x182C JUMP JUMPDEST PUSH1 0x7 PUSH1 0x0 DUP8 PUSH20 0xFFFFFFFFFFFFFFFFFFFFFFFFFFFFFFFFFFFFFFFF AND PUSH20 0xFFFFFFFFFFFFFFFFFFFFFFFFFFFFFFFFFFFFFFFF AND DUP2 MSTORE PUSH1 0x20 ADD SWAP1 DUP2 MSTORE PUSH1 0x20 ADD PUSH1 0x0 KECCAK256 PUSH1 0x0 DUP4 DUP2 MSTORE PUSH1 0x20 ADD SWAP1 DUP2 MSTORE PUSH1 0x20 ADD PUSH1 0x0 KECCAK256 PUSH1 0x1 ADD SLOAD SWAP4 POP POP POP POP JUMPDEST SWAP3 SWAP2 POP POP JUMP JUMPDEST DUP2 PUSH20 0xFFFFFFFFFFFFFFFFFFFFFFFFFFFFFFFFFFFFFFFF AND DUP4 PUSH20 0xFFFFFFFFFFFFFFFFFFFFFFFFFFFFFFFFFFFFFFFF AND EQ ISZERO DUP1 ISZERO PUSH2 0x199B JUMPI POP PUSH1 0x0 DUP2 GT JUMPDEST ISZERO PUSH2 0x1BB3 JUMPI PUSH1 0x0 PUSH20 0xFFFFFFFFFFFFFFFFFFFFFFFFFFFFFFFFFFFFFFFF AND DUP4 PUSH20 0xFFFFFFFFFFFFFFFFFFFFFFFFFFFFFFFFFFFFFFFF AND EQ PUSH2 0x1AA9 JUMPI PUSH1 0x0 PUSH1 0x8 PUSH1 0x0 DUP6 PUSH20 0xFFFFFFFFFFFFFFFFFFFFFFFFFFFFFFFFFFFFFFFF AND PUSH20 0xFFFFFFFFFFFFFFFFFFFFFFFFFFFFFFFFFFFFFFFF AND DUP2 MSTORE PUSH1 0x20 ADD SWAP1 DUP2 MSTORE PUSH1 0x20 ADD PUSH1 0x0 KECCAK256 SLOAD SWAP1 POP PUSH1 0x0 DUP1 DUP3 GT PUSH2 0x1A28 JUMPI PUSH1 0x0 PUSH2 0x1A80 JUMP JUMPDEST PUSH1 0x7 PUSH1 0x0 DUP7 PUSH20 0xFFFFFFFFFFFFFFFFFFFFFFFFFFFFFFFFFFFFFFFF AND PUSH20 0xFFFFFFFFFFFFFFFFFFFFFFFFFFFFFFFFFFFFFFFF AND DUP2 MSTORE PUSH1 0x20 ADD SWAP1 DUP2 MSTORE PUSH1 0x20 ADD PUSH1 0x0 KECCAK256 PUSH1 0x0 PUSH1 0x1 DUP5 SUB DUP2 MSTORE PUSH1 0x20 ADD SWAP1 DUP2 MSTORE PUSH1 0x20 ADD PUSH1 0x0 KECCAK256 PUSH1 0x1 ADD SLOAD JUMPDEST SWAP1 POP PUSH1 0x0 PUSH2 0x1A97 DUP5 DUP4 PUSH2 0x2BA4 SWAP1 SWAP2 SWAP1 PUSH4 0xFFFFFFFF AND JUMP JUMPDEST SWAP1 POP PUSH2 0x1AA5 DUP7 DUP5 DUP5 DUP5 PUSH2 0x2125 JUMP JUMPDEST POP POP POP JUMPDEST PUSH1 0x0 PUSH20 0xFFFFFFFFFFFFFFFFFFFFFFFFFFFFFFFFFFFFFFFF AND DUP3 PUSH20 0xFFFFFFFFFFFFFFFFFFFFFFFFFFFFFFFFFFFFFFFF AND EQ PUSH2 0x1BB2 JUMPI PUSH1 0x0 PUSH1 0x8 PUSH1 0x0 DUP5 PUSH20 0xFFFFFFFFFFFFFFFFFFFFFFFFFFFFFFFFFFFFFFFF AND PUSH20 0xFFFFFFFFFFFFFFFFFFFFFFFFFFFFFFFFFFFFFFFF AND DUP2 MSTORE PUSH1 0x20 ADD SWAP1 DUP2 MSTORE PUSH1 0x20 ADD PUSH1 0x0 KECCAK256 SLOAD SWAP1 POP PUSH1 0x0 DUP1 DUP3 GT PUSH2 0x1B31 JUMPI PUSH1 0x0 PUSH2 0x1B89 JUMP JUMPDEST PUSH1 0x7 PUSH1 0x0 DUP6 PUSH20 0xFFFFFFFFFFFFFFFFFFFFFFFFFFFFFFFFFFFFFFFF AND PUSH20 0xFFFFFFFFFFFFFFFFFFFFFFFFFFFFFFFFFFFFFFFF AND DUP2 MSTORE PUSH1 0x20 ADD SWAP1 DUP2 MSTORE PUSH1 0x20 ADD PUSH1 0x0 KECCAK256 PUSH1 0x0 PUSH1 0x1 DUP5 SUB DUP2 MSTORE PUSH1 0x20 ADD SWAP1 DUP2 MSTORE PUSH1 0x20 ADD PUSH1 0x0 KECCAK256 PUSH1 0x1 ADD SLOAD JUMPDEST SWAP1 POP PUSH1 0x0 PUSH2 0x1BA0 DUP5 DUP4 PUSH2 0x2887 SWAP1 SWAP2 SWAP1 PUSH4 0xFFFFFFFF AND JUMP JUMPDEST SWAP1 POP PUSH2 0x1BAE DUP6 DUP5 DUP5 DUP5 PUSH2 0x2125 JUMP JUMPDEST POP POP POP JUMPDEST JUMPDEST POP POP POP JUMP JUMPDEST PUSH1 0x60 PUSH1 0x4 DUP1 SLOAD PUSH1 0x1 DUP2 PUSH1 0x1 AND ISZERO PUSH2 0x100 MUL SUB AND PUSH1 0x2 SWAP1 DIV DUP1 PUSH1 0x1F ADD PUSH1 0x20 DUP1 SWAP2 DIV MUL PUSH1 0x20 ADD PUSH1 0x40 MLOAD SWAP1 DUP2 ADD PUSH1 0x40 MSTORE DUP1 SWAP3 SWAP2 SWAP1 DUP2 DUP2 MSTORE PUSH1 0x20 ADD DUP3 DUP1 SLOAD PUSH1 0x1 DUP2 PUSH1 0x1 AND ISZERO PUSH2 0x100 MUL SUB AND PUSH1 0x2 SWAP1 DIV DUP1 ISZERO PUSH2 0x1C50 JUMPI DUP1 PUSH1 0x1F LT PUSH2 0x1C25 JUMPI PUSH2 0x100 DUP1 DUP4 SLOAD DIV MUL DUP4 MSTORE SWAP2 PUSH1 0x20 ADD SWAP2 PUSH2 0x1C50 JUMP JUMPDEST DUP3 ADD SWAP2 SWAP1 PUSH1 0x0 MSTORE PUSH1 0x20 PUSH1 0x0 KECCAK256 SWAP1 JUMPDEST DUP2 SLOAD DUP2 MSTORE SWAP1 PUSH1 0x1 ADD SWAP1 PUSH1 0x20 ADD DUP1 DUP4 GT PUSH2 0x1C33 JUMPI DUP3 SWAP1 SUB PUSH1 0x1F AND DUP3 ADD SWAP2 JUMPDEST POP POP POP POP POP SWAP1 POP SWAP1 JUMP JUMPDEST PUSH1 0x6 PUSH1 0x0 SWAP1 SLOAD SWAP1 PUSH2 0x100 EXP SWAP1 DIV PUSH20 0xFFFFFFFFFFFFFFFFFFFFFFFFFFFFFFFFFFFFFFFF AND PUSH20 0xFFFFFFFFFFFFFFFFFFFFFFFFFFFFFFFFFFFFFFFF AND CALLER PUSH20 0xFFFFFFFFFFFFFFFFFFFFFFFFFFFFFFFFFFFFFFFF AND EQ PUSH2 0x1D1D JUMPI PUSH1 0x40 MLOAD PUSH32 0x8C379A000000000000000000000000000000000000000000000000000000000 DUP2 MSTORE PUSH1 0x4 ADD DUP1 DUP1 PUSH1 0x20 ADD DUP3 DUP2 SUB DUP3 MSTORE PUSH1 0xD DUP2 MSTORE PUSH1 0x20 ADD DUP1 PUSH32 0x4F6E6C7920617070726F76656400000000000000000000000000000000000000 DUP2 MSTORE POP PUSH1 0x20 ADD SWAP2 POP POP PUSH1 0x40 MLOAD DUP1 SWAP2 SUB SWAP1 REVERT JUMPDEST PUSH2 0x1D27 DUP3 DUP3 PUSH2 0x2BEE JUMP JUMPDEST POP POP JUMP JUMPDEST PUSH1 0x0 PUSH1 0x9 PUSH1 0x0 DUP5 PUSH20 0xFFFFFFFFFFFFFFFFFFFFFFFFFFFFFFFFFFFFFFFF AND PUSH20 0xFFFFFFFFFFFFFFFFFFFFFFFFFFFFFFFFFFFFFFFF AND DUP2 MSTORE PUSH1 0x20 ADD SWAP1 DUP2 MSTORE PUSH1 0x20 ADD PUSH1 0x0 KECCAK256 PUSH1 0x0 SWAP1 SLOAD SWAP1 PUSH2 0x100 EXP SWAP1 DIV PUSH20 0xFFFFFFFFFFFFFFFFFFFFFFFFFFFFFFFFFFFFFFFF AND SWAP1 POP PUSH1 0x0 DUP1 PUSH1 0x0 DUP6 PUSH20 0xFFFFFFFFFFFFFFFFFFFFFFFFFFFFFFFFFFFFFFFF AND PUSH20 0xFFFFFFFFFFFFFFFFFFFFFFFFFFFFFFFFFFFFFFFF AND DUP2 MSTORE PUSH1 0x20 ADD SWAP1 DUP2 MSTORE PUSH1 0x20 ADD PUSH1 0x0 KECCAK256 SLOAD SWAP1 POP DUP3 PUSH1 0x9 PUSH1 0x0 DUP7 PUSH20 0xFFFFFFFFFFFFFFFFFFFFFFFFFFFFFFFFFFFFFFFF AND PUSH20 0xFFFFFFFFFFFFFFFFFFFFFFFFFFFFFFFFFFFFFFFF AND DUP2 MSTORE PUSH1 0x20 ADD SWAP1 DUP2 MSTORE PUSH1 0x20 ADD PUSH1 0x0 KECCAK256 PUSH1 0x0 PUSH2 0x100 EXP DUP2 SLOAD DUP2 PUSH20 0xFFFFFFFFFFFFFFFFFFFFFFFFFFFFFFFFFFFFFFFF MUL NOT AND SWAP1 DUP4 PUSH20 0xFFFFFFFFFFFFFFFFFFFFFFFFFFFFFFFFFFFFFFFF AND MUL OR SWAP1 SSTORE POP DUP3 PUSH20 0xFFFFFFFFFFFFFFFFFFFFFFFFFFFFFFFFFFFFFFFF AND DUP3 PUSH20 0xFFFFFFFFFFFFFFFFFFFFFFFFFFFFFFFFFFFFFFFF AND DUP6 PUSH20 0xFFFFFFFFFFFFFFFFFFFFFFFFFFFFFFFFFFFFFFFF AND PUSH32 0x3134E8A2E6D97E929A7E54011EA5485D7D196DD5F0BA4D4EF95803E8E3FC257F PUSH1 0x40 MLOAD PUSH1 0x40 MLOAD DUP1 SWAP2 SUB SWAP1 LOG4 PUSH2 0x1ECC DUP3 DUP5 DUP4 PUSH2 0x195F JUMP JUMPDEST POP POP POP POP JUMP JUMPDEST PUSH1 0x0 PUSH2 0x1F87 CALLER DUP5 PUSH2 0x1F82 DUP6 PUSH1 0x40 MLOAD DUP1 PUSH1 0x60 ADD PUSH1 0x40 MSTORE DUP1 PUSH1 0x25 DUP2 MSTORE PUSH1 0x20 ADD PUSH2 0x30DE PUSH1 0x25 SWAP2 CODECOPY PUSH1 0x1 PUSH1 0x0 CALLER PUSH20 0xFFFFFFFFFFFFFFFFFFFFFFFFFFFFFFFFFFFFFFFF AND PUSH20 0xFFFFFFFFFFFFFFFFFFFFFFFFFFFFFFFFFFFFFFFF AND DUP2 MSTORE PUSH1 0x20 ADD SWAP1 DUP2 MSTORE PUSH1 0x20 ADD PUSH1 0x0 KECCAK256 PUSH1 0x0 DUP11 PUSH20 0xFFFFFFFFFFFFFFFFFFFFFFFFFFFFFFFFFFFFFFFF AND PUSH20 0xFFFFFFFFFFFFFFFFFFFFFFFFFFFFFFFFFFFFFFFF AND DUP2 MSTORE PUSH1 0x20 ADD SWAP1 DUP2 MSTORE PUSH1 0x20 ADD PUSH1 0x0 KECCAK256 SLOAD PUSH2 0x27C7 SWAP1 SWAP3 SWAP2 SWAP1 PUSH4 0xFFFFFFFF AND JUMP JUMPDEST PUSH2 0x230F JUMP JUMPDEST PUSH1 0x1 SWAP1 POP SWAP3 SWAP2 POP POP JUMP JUMPDEST PUSH1 0x0 PUSH2 0x1FCC PUSH2 0x1F9E PUSH2 0x129A JUMP JUMPDEST PUSH1 0xFF AND PUSH1 0xA EXP PUSH2 0x1FBE PUSH2 0x1FAF PUSH2 0x11DD JUMP JUMPDEST DUP6 PUSH2 0x2AD4 SWAP1 SWAP2 SWAP1 PUSH4 0xFFFFFFFF AND JUMP JUMPDEST PUSH2 0x2B5A SWAP1 SWAP2 SWAP1 PUSH4 0xFFFFFFFF AND JUMP JUMPDEST SWAP1 POP SWAP2 SWAP1 POP JUMP JUMPDEST PUSH1 0x0 PUSH2 0x1FE0 CALLER DUP5 DUP5 PUSH2 0x2506 JUMP JUMPDEST PUSH1 0x1 SWAP1 POP SWAP3 SWAP2 POP POP JUMP JUMPDEST PUSH1 0x0 DUP1 PUSH1 0x8 PUSH1 0x0 DUP5 PUSH20 0xFFFFFFFFFFFFFFFFFFFFFFFFFFFFFFFFFFFFFFFF AND PUSH20 0xFFFFFFFFFFFFFFFFFFFFFFFFFFFFFFFFFFFFFFFF AND DUP2 MSTORE PUSH1 0x20 ADD SWAP1 DUP2 MSTORE PUSH1 0x20 ADD PUSH1 0x0 KECCAK256 SLOAD SWAP1 POP PUSH1 0x0 DUP2 GT PUSH2 0x203E JUMPI PUSH1 0x0 PUSH2 0x2096 JUMP JUMPDEST PUSH1 0x7 PUSH1 0x0 DUP5 PUSH20 0xFFFFFFFFFFFFFFFFFFFFFFFFFFFFFFFFFFFFFFFF AND PUSH20 0xFFFFFFFFFFFFFFFFFFFFFFFFFFFFFFFFFFFFFFFF AND DUP2 MSTORE PUSH1 0x20 ADD SWAP1 DUP2 MSTORE PUSH1 0x20 ADD PUSH1 0x0 KECCAK256 PUSH1 0x0 PUSH1 0x1 DUP4 SUB DUP2 MSTORE PUSH1 0x20 ADD SWAP1 DUP2 MSTORE PUSH1 0x20 ADD PUSH1 0x0 KECCAK256 PUSH1 0x1 ADD SLOAD JUMPDEST SWAP2 POP POP SWAP2 SWAP1 POP JUMP JUMPDEST PUSH1 0x0 PUSH1 0x1 PUSH1 0x0 DUP5 PUSH20 0xFFFFFFFFFFFFFFFFFFFFFFFFFFFFFFFFFFFFFFFF AND PUSH20 0xFFFFFFFFFFFFFFFFFFFFFFFFFFFFFFFFFFFFFFFF AND DUP2 MSTORE PUSH1 0x20 ADD SWAP1 DUP2 MSTORE PUSH1 0x20 ADD PUSH1 0x0 KECCAK256 PUSH1 0x0 DUP4 PUSH20 0xFFFFFFFFFFFFFFFFFFFFFFFFFFFFFFFFFFFFFFFF AND PUSH20 0xFFFFFFFFFFFFFFFFFFFFFFFFFFFFFFFFFFFFFFFF AND DUP2 MSTORE PUSH1 0x20 ADD SWAP1 DUP2 MSTORE PUSH1 0x20 ADD PUSH1 0x0 KECCAK256 SLOAD SWAP1 POP SWAP3 SWAP2 POP POP JUMP JUMPDEST PUSH1 0x0 DUP4 GT DUP1 ISZERO PUSH2 0x218A JUMPI POP NUMBER PUSH1 0x7 PUSH1 0x0 DUP7 PUSH20 0xFFFFFFFFFFFFFFFFFFFFFFFFFFFFFFFFFFFFFFFF AND PUSH20 0xFFFFFFFFFFFFFFFFFFFFFFFFFFFFFFFFFFFFFFFF AND DUP2 MSTORE PUSH1 0x20 ADD SWAP1 DUP2 MSTORE PUSH1 0x20 ADD PUSH1 0x0 KECCAK256 PUSH1 0x0 PUSH1 0x1 DUP7 SUB DUP2 MSTORE PUSH1 0x20 ADD SWAP1 DUP2 MSTORE PUSH1 0x20 ADD PUSH1 0x0 KECCAK256 PUSH1 0x0 ADD SLOAD EQ JUMPDEST ISZERO PUSH2 0x21EF JUMPI DUP1 PUSH1 0x7 PUSH1 0x0 DUP7 PUSH20 0xFFFFFFFFFFFFFFFFFFFFFFFFFFFFFFFFFFFFFFFF AND PUSH20 0xFFFFFFFFFFFFFFFFFFFFFFFFFFFFFFFFFFFFFFFF AND DUP2 MSTORE PUSH1 0x20 ADD SWAP1 DUP2 MSTORE PUSH1 0x20 ADD PUSH1 0x0 KECCAK256 PUSH1 0x0 PUSH1 0x1 DUP7 SUB DUP2 MSTORE PUSH1 0x20 ADD SWAP1 DUP2 MSTORE PUSH1 0x20 ADD PUSH1 0x0 KECCAK256 PUSH1 0x1 ADD DUP2 SWAP1 SSTORE POP PUSH2 0x22B3 JUMP JUMPDEST PUSH1 0x40 MLOAD DUP1 PUSH1 0x40 ADD PUSH1 0x40 MSTORE DUP1 NUMBER DUP2 MSTORE PUSH1 0x20 ADD DUP3 DUP2 MSTORE POP PUSH1 0x7 PUSH1 0x0 DUP7 PUSH20 0xFFFFFFFFFFFFFFFFFFFFFFFFFFFFFFFFFFFFFFFF AND PUSH20 0xFFFFFFFFFFFFFFFFFFFFFFFFFFFFFFFFFFFFFFFF AND DUP2 MSTORE PUSH1 0x20 ADD SWAP1 DUP2 MSTORE PUSH1 0x20 ADD PUSH1 0x0 KECCAK256 PUSH1 0x0 DUP6 DUP2 MSTORE PUSH1 0x20 ADD SWAP1 DUP2 MSTORE PUSH1 0x20 ADD PUSH1 0x0 KECCAK256 PUSH1 0x0 DUP3 ADD MLOAD DUP2 PUSH1 0x0 ADD SSTORE PUSH1 0x20 DUP3 ADD MLOAD DUP2 PUSH1 0x1 ADD SSTORE SWAP1 POP POP PUSH1 0x1 DUP4 ADD PUSH1 0x8 PUSH1 0x0 DUP7 PUSH20 0xFFFFFFFFFFFFFFFFFFFFFFFFFFFFFFFFFFFFFFFF AND PUSH20 0xFFFFFFFFFFFFFFFFFFFFFFFFFFFFFFFFFFFFFFFF AND DUP2 MSTORE PUSH1 0x20 ADD SWAP1 DUP2 MSTORE PUSH1 0x20 ADD PUSH1 0x0 KECCAK256 DUP2 SWAP1 SSTORE POP JUMPDEST DUP4 PUSH20 0xFFFFFFFFFFFFFFFFFFFFFFFFFFFFFFFFFFFFFFFF AND PUSH32 0xDEC2BACDD2F05B59DE34DA9B523DFF8BE42E5E38E818C82FDB0BAE774387A724 DUP4 DUP4 PUSH1 0x40 MLOAD DUP1 DUP4 DUP2 MSTORE PUSH1 0x20 ADD DUP3 DUP2 MSTORE PUSH1 0x20 ADD SWAP3 POP POP POP PUSH1 0x40 MLOAD DUP1 SWAP2 SUB SWAP1 LOG2 POP POP POP POP JUMP JUMPDEST PUSH1 0x0 PUSH20 0xFFFFFFFFFFFFFFFFFFFFFFFFFFFFFFFFFFFFFFFF AND DUP4 PUSH20 0xFFFFFFFFFFFFFFFFFFFFFFFFFFFFFFFFFFFFFFFF AND EQ ISZERO PUSH2 0x2395 JUMPI PUSH1 0x40 MLOAD PUSH32 0x8C379A000000000000000000000000000000000000000000000000000000000 DUP2 MSTORE PUSH1 0x4 ADD DUP1 DUP1 PUSH1 0x20 ADD DUP3 DUP2 SUB DUP3 MSTORE PUSH1 0x24 DUP2 MSTORE PUSH1 0x20 ADD DUP1 PUSH2 0x30BA PUSH1 0x24 SWAP2 CODECOPY PUSH1 0x40 ADD SWAP2 POP POP PUSH1 0x40 MLOAD DUP1 SWAP2 SUB SWAP1 REVERT JUMPDEST PUSH1 0x0 PUSH20 0xFFFFFFFFFFFFFFFFFFFFFFFFFFFFFFFFFFFFFFFF AND DUP3 PUSH20 0xFFFFFFFFFFFFFFFFFFFFFFFFFFFFFFFFFFFFFFFF AND EQ ISZERO PUSH2 0x241B JUMPI PUSH1 0x40 MLOAD PUSH32 0x8C379A000000000000000000000000000000000000000000000000000000000 DUP2 MSTORE PUSH1 0x4 ADD DUP1 DUP1 PUSH1 0x20 ADD DUP3 DUP2 SUB DUP3 MSTORE PUSH1 0x22 DUP2 MSTORE PUSH1 0x20 ADD DUP1 PUSH2 0x2FBC PUSH1 0x22 SWAP2 CODECOPY PUSH1 0x40 ADD SWAP2 POP POP PUSH1 0x40 MLOAD DUP1 SWAP2 SUB SWAP1 REVERT JUMPDEST DUP1 PUSH1 0x1 PUSH1 0x0 DUP6 PUSH20 0xFFFFFFFFFFFFFFFFFFFFFFFFFFFFFFFFFFFFFFFF AND PUSH20 0xFFFFFFFFFFFFFFFFFFFFFFFFFFFFFFFFFFFFFFFF AND DUP2 MSTORE PUSH1 0x20 ADD SWAP1 DUP2 MSTORE PUSH1 0x20 ADD PUSH1 0x0 KECCAK256 PUSH1 0x0 DUP5 PUSH20 0xFFFFFFFFFFFFFFFFFFFFFFFFFFFFFFFFFFFFFFFF AND PUSH20 0xFFFFFFFFFFFFFFFFFFFFFFFFFFFFFFFFFFFFFFFF AND DUP2 MSTORE PUSH1 0x20 ADD SWAP1 DUP2 MSTORE PUSH1 0x20 ADD PUSH1 0x0 KECCAK256 DUP2 SWAP1 SSTORE POP DUP2 PUSH20 0xFFFFFFFFFFFFFFFFFFFFFFFFFFFFFFFFFFFFFFFF AND DUP4 PUSH20 0xFFFFFFFFFFFFFFFFFFFFFFFFFFFFFFFFFFFFFFFF AND PUSH32 0x8C5BE1E5EBEC7D5BD14F71427D1E84F3DD0314C0F7B2291E5B200AC8C7C3B925 DUP4 PUSH1 0x40 MLOAD DUP1 DUP3 DUP2 MSTORE PUSH1 0x20 ADD SWAP2 POP POP PUSH1 0x40 MLOAD DUP1 SWAP2 SUB SWAP1 LOG3 POP POP POP JUMP JUMPDEST PUSH1 0x0 PUSH20 0xFFFFFFFFFFFFFFFFFFFFFFFFFFFFFFFFFFFFFFFF AND DUP4 PUSH20 0xFFFFFFFFFFFFFFFFFFFFFFFFFFFFFFFFFFFFFFFF AND EQ ISZERO PUSH2 0x258C JUMPI PUSH1 0x40 MLOAD PUSH32 0x8C379A000000000000000000000000000000000000000000000000000000000 DUP2 MSTORE PUSH1 0x4 ADD DUP1 DUP1 PUSH1 0x20 ADD DUP3 DUP2 SUB DUP3 MSTORE PUSH1 0x25 DUP2 MSTORE PUSH1 0x20 ADD DUP1 PUSH2 0x3095 PUSH1 0x25 SWAP2 CODECOPY PUSH1 0x40 ADD SWAP2 POP POP PUSH1 0x40 MLOAD DUP1 SWAP2 SUB SWAP1 REVERT JUMPDEST PUSH1 0x0 PUSH20 0xFFFFFFFFFFFFFFFFFFFFFFFFFFFFFFFFFFFFFFFF AND DUP3 PUSH20 0xFFFFFFFFFFFFFFFFFFFFFFFFFFFFFFFFFFFFFFFF AND EQ ISZERO PUSH2 0x2612 JUMPI PUSH1 0x40 MLOAD PUSH32 0x8C379A000000000000000000000000000000000000000000000000000000000 DUP2 MSTORE PUSH1 0x4 ADD DUP1 DUP1 PUSH1 0x20 ADD DUP3 DUP2 SUB DUP3 MSTORE PUSH1 0x23 DUP2 MSTORE PUSH1 0x20 ADD DUP1 PUSH2 0x2F77 PUSH1 0x23 SWAP2 CODECOPY PUSH1 0x40 ADD SWAP2 POP POP PUSH1 0x40 MLOAD DUP1 SWAP2 SUB SWAP1 REVERT JUMPDEST PUSH2 0x261D DUP4 DUP4 DUP4 PUSH2 0x2DB2 JUMP JUMPDEST PUSH2 0x2688 DUP2 PUSH1 0x40 MLOAD DUP1 PUSH1 0x60 ADD PUSH1 0x40 MSTORE DUP1 PUSH1 0x26 DUP2 MSTORE PUSH1 0x20 ADD PUSH2 0x2FDE PUSH1 0x26 SWAP2 CODECOPY PUSH1 0x0 DUP1 DUP8 PUSH20 0xFFFFFFFFFFFFFFFFFFFFFFFFFFFFFFFFFFFFFFFF AND PUSH20 0xFFFFFFFFFFFFFFFFFFFFFFFFFFFFFFFFFFFFFFFF AND DUP2 MSTORE PUSH1 0x20 ADD SWAP1 DUP2 MSTORE PUSH1 0x20 ADD PUSH1 0x0 KECCAK256 SLOAD PUSH2 0x27C7 SWAP1 SWAP3 SWAP2 SWAP1 PUSH4 0xFFFFFFFF AND JUMP JUMPDEST PUSH1 0x0 DUP1 DUP6 PUSH20 0xFFFFFFFFFFFFFFFFFFFFFFFFFFFFFFFFFFFFFFFF AND PUSH20 0xFFFFFFFFFFFFFFFFFFFFFFFFFFFFFFFFFFFFFFFF AND DUP2 MSTORE PUSH1 0x20 ADD SWAP1 DUP2 MSTORE PUSH1 0x20 ADD PUSH1 0x0 KECCAK256 DUP2 SWAP1 SSTORE POP PUSH2 0x271B DUP2 PUSH1 0x0 DUP1 DUP6 PUSH20 0xFFFFFFFFFFFFFFFFFFFFFFFFFFFFFFFFFFFFFFFF AND PUSH20 0xFFFFFFFFFFFFFFFFFFFFFFFFFFFFFFFFFFFFFFFF AND DUP2 MSTORE PUSH1 0x20 ADD SWAP1 DUP2 MSTORE PUSH1 0x20 ADD PUSH1 0x0 KECCAK256 SLOAD PUSH2 0x2887 SWAP1 SWAP2 SWAP1 PUSH4 0xFFFFFFFF AND JUMP JUMPDEST PUSH1 0x0 DUP1 DUP5 PUSH20 0xFFFFFFFFFFFFFFFFFFFFFFFFFFFFFFFFFFFFFFFF AND PUSH20 0xFFFFFFFFFFFFFFFFFFFFFFFFFFFFFFFFFFFFFFFF AND DUP2 MSTORE PUSH1 0x20 ADD SWAP1 DUP2 MSTORE PUSH1 0x20 ADD PUSH1 0x0 KECCAK256 DUP2 SWAP1 SSTORE POP DUP2 PUSH20 0xFFFFFFFFFFFFFFFFFFFFFFFFFFFFFFFFFFFFFFFF AND DUP4 PUSH20 0xFFFFFFFFFFFFFFFFFFFFFFFFFFFFFFFFFFFFFFFF AND PUSH32 0xDDF252AD1BE2C89B69C2B068FC378DAA952BA7F163C4A11628F55A4DF523B3EF DUP4 PUSH1 0x40 MLOAD DUP1 DUP3 DUP2 MSTORE PUSH1 0x20 ADD SWAP2 POP POP PUSH1 0x40 MLOAD DUP1 SWAP2 SUB SWAP1 LOG3 POP POP POP JUMP JUMPDEST PUSH1 0x0 DUP4 DUP4 GT ISZERO DUP3 SWAP1 PUSH2 0x2874 JUMPI PUSH1 0x40 MLOAD PUSH32 0x8C379A000000000000000000000000000000000000000000000000000000000 DUP2 MSTORE PUSH1 0x4 ADD DUP1 DUP1 PUSH1 0x20 ADD DUP3 DUP2 SUB DUP3 MSTORE DUP4 DUP2 DUP2 MLOAD DUP2 MSTORE PUSH1 0x20 ADD SWAP2 POP DUP1 MLOAD SWAP1 PUSH1 0x20 ADD SWAP1 DUP1 DUP4 DUP4 PUSH1 0x0 JUMPDEST DUP4 DUP2 LT ISZERO PUSH2 0x2839 JUMPI DUP1 DUP3 ADD MLOAD DUP2 DUP5 ADD MSTORE PUSH1 0x20 DUP2 ADD SWAP1 POP PUSH2 0x281E JUMP JUMPDEST POP POP POP POP SWAP1 POP SWAP1 DUP2 ADD SWAP1 PUSH1 0x1F AND DUP1 ISZERO PUSH2 0x2866 JUMPI DUP1 DUP3 SUB DUP1 MLOAD PUSH1 0x1 DUP4 PUSH1 0x20 SUB PUSH2 0x100 EXP SUB NOT AND DUP2 MSTORE PUSH1 0x20 ADD SWAP2 POP JUMPDEST POP SWAP3 POP POP POP PUSH1 0x40 MLOAD DUP1 SWAP2 SUB SWAP1 REVERT JUMPDEST POP PUSH1 0x0 DUP4 DUP6 SUB SWAP1 POP DUP1 SWAP2 POP POP SWAP4 SWAP3 POP POP POP JUMP JUMPDEST PUSH1 0x0 DUP1 DUP3 DUP5 ADD SWAP1 POP DUP4 DUP2 LT ISZERO PUSH2 0x2905 JUMPI PUSH1 0x40 MLOAD PUSH32 0x8C379A000000000000000000000000000000000000000000000000000000000 DUP2 MSTORE PUSH1 0x4 ADD DUP1 DUP1 PUSH1 0x20 ADD DUP3 DUP2 SUB DUP3 MSTORE PUSH1 0x1B DUP2 MSTORE PUSH1 0x20 ADD DUP1 PUSH32 0x536166654D6174683A206164646974696F6E206F766572666C6F770000000000 DUP2 MSTORE POP PUSH1 0x20 ADD SWAP2 POP POP PUSH1 0x40 MLOAD DUP1 SWAP2 SUB SWAP1 REVERT JUMPDEST DUP1 SWAP2 POP POP SWAP3 SWAP2 POP POP JUMP JUMPDEST PUSH1 0x0 PUSH20 0xFFFFFFFFFFFFFFFFFFFFFFFFFFFFFFFFFFFFFFFF AND DUP3 PUSH20 0xFFFFFFFFFFFFFFFFFFFFFFFFFFFFFFFFFFFFFFFF AND EQ ISZERO PUSH2 0x29B2 JUMPI PUSH1 0x40 MLOAD PUSH32 0x8C379A000000000000000000000000000000000000000000000000000000000 DUP2 MSTORE PUSH1 0x4 ADD DUP1 DUP1 PUSH1 0x20 ADD DUP3 DUP2 SUB DUP3 MSTORE PUSH1 0x1F DUP2 MSTORE PUSH1 0x20 ADD DUP1 PUSH32 0x45524332303A206D696E7420746F20746865207A65726F206164647265737300 DUP2 MSTORE POP PUSH1 0x20 ADD SWAP2 POP POP PUSH1 0x40 MLOAD DUP1 SWAP2 SUB SWAP1 REVERT JUMPDEST PUSH2 0x29BD ADDRESS DUP4 DUP4 PUSH2 0x2DB2 JUMP JUMPDEST PUSH2 0x29D2 DUP2 PUSH1 0x2 SLOAD PUSH2 0x2887 SWAP1 SWAP2 SWAP1 PUSH4 0xFFFFFFFF AND JUMP JUMPDEST PUSH1 0x2 DUP2 SWAP1 SSTORE POP PUSH2 0x2A29 DUP2 PUSH1 0x0 DUP1 DUP6 PUSH20 0xFFFFFFFFFFFFFFFFFFFFFFFFFFFFFFFFFFFFFFFF AND PUSH20 0xFFFFFFFFFFFFFFFFFFFFFFFFFFFFFFFFFFFFFFFF AND DUP2 MSTORE PUSH1 0x20 ADD SWAP1 DUP2 MSTORE PUSH1 0x20 ADD PUSH1 0x0 KECCAK256 SLOAD PUSH2 0x2887 SWAP1 SWAP2 SWAP1 PUSH4 0xFFFFFFFF AND JUMP JUMPDEST PUSH1 0x0 DUP1 DUP5 PUSH20 0xFFFFFFFFFFFFFFFFFFFFFFFFFFFFFFFFFFFFFFFF AND PUSH20 0xFFFFFFFFFFFFFFFFFFFFFFFFFFFFFFFFFFFFFFFF AND DUP2 MSTORE PUSH1 0x20 ADD SWAP1 DUP2 MSTORE PUSH1 0x20 ADD PUSH1 0x0 KECCAK256 DUP2 SWAP1 SSTORE POP DUP2 PUSH20 0xFFFFFFFFFFFFFFFFFFFFFFFFFFFFFFFFFFFFFFFF AND ADDRESS PUSH20 0xFFFFFFFFFFFFFFFFFFFFFFFFFFFFFFFFFFFFFFFF AND PUSH32 0xDDF252AD1BE2C89B69C2B068FC378DAA952BA7F163C4A11628F55A4DF523B3EF DUP4 PUSH1 0x40 MLOAD DUP1 DUP3 DUP2 MSTORE PUSH1 0x20 ADD SWAP2 POP POP PUSH1 0x40 MLOAD DUP1 SWAP2 SUB SWAP1 LOG3 POP POP JUMP JUMPDEST PUSH1 0x0 DUP1 DUP4 EQ ISZERO PUSH2 0x2AE7 JUMPI PUSH1 0x0 SWAP1 POP PUSH2 0x2B54 JUMP JUMPDEST PUSH1 0x0 DUP3 DUP5 MUL SWAP1 POP DUP3 DUP5 DUP3 DUP2 PUSH2 0x2AF8 JUMPI INVALID JUMPDEST DIV EQ PUSH2 0x2B4F JUMPI PUSH1 0x40 MLOAD PUSH32 0x8C379A000000000000000000000000000000000000000000000000000000000 DUP2 MSTORE PUSH1 0x4 ADD DUP1 DUP1 PUSH1 0x20 ADD DUP3 DUP2 SUB DUP3 MSTORE PUSH1 0x21 DUP2 MSTORE PUSH1 0x20 ADD DUP1 PUSH2 0x3004 PUSH1 0x21 SWAP2 CODECOPY PUSH1 0x40 ADD SWAP2 POP POP PUSH1 0x40 MLOAD DUP1 SWAP2 SUB SWAP1 REVERT JUMPDEST DUP1 SWAP2 POP POP JUMPDEST SWAP3 SWAP2 POP POP JUMP JUMPDEST PUSH1 0x0 PUSH2 0x2B9C DUP4 DUP4 PUSH1 0x40 MLOAD DUP1 PUSH1 0x40 ADD PUSH1 0x40 MSTORE DUP1 PUSH1 0x1A DUP2 MSTORE PUSH1 0x20 ADD PUSH32 0x536166654D6174683A206469766973696F6E206279207A65726F000000000000 DUP2 MSTORE POP PUSH2 0x2E80 JUMP JUMPDEST SWAP1 POP SWAP3 SWAP2 POP POP JUMP JUMPDEST PUSH1 0x0 PUSH2 0x2BE6 DUP4 DUP4 PUSH1 0x40 MLOAD DUP1 PUSH1 0x40 ADD PUSH1 0x40 MSTORE DUP1 PUSH1 0x1E DUP2 MSTORE PUSH1 0x20 ADD PUSH32 0x536166654D6174683A207375627472616374696F6E206F766572666C6F770000 DUP2 MSTORE POP PUSH2 0x27C7 JUMP JUMPDEST SWAP1 POP SWAP3 SWAP2 POP POP JUMP JUMPDEST PUSH1 0x0 PUSH20 0xFFFFFFFFFFFFFFFFFFFFFFFFFFFFFFFFFFFFFFFF AND DUP3 PUSH20 0xFFFFFFFFFFFFFFFFFFFFFFFFFFFFFFFFFFFFFFFF AND EQ ISZERO PUSH2 0x2C74 JUMPI PUSH1 0x40 MLOAD PUSH32 0x8C379A000000000000000000000000000000000000000000000000000000000 DUP2 MSTORE PUSH1 0x4 ADD DUP1 DUP1 PUSH1 0x20 ADD DUP3 DUP2 SUB DUP3 MSTORE PUSH1 0x21 DUP2 MSTORE PUSH1 0x20 ADD DUP1 PUSH2 0x3074 PUSH1 0x21 SWAP2 CODECOPY PUSH1 0x40 ADD SWAP2 POP POP PUSH1 0x40 MLOAD DUP1 SWAP2 SUB SWAP1 REVERT JUMPDEST PUSH2 0x2C80 DUP3 PUSH1 0x0 DUP4 PUSH2 0x2DB2 JUMP JUMPDEST PUSH2 0x2CEB DUP2 PUSH1 0x40 MLOAD DUP1 PUSH1 0x60 ADD PUSH1 0x40 MSTORE DUP1 PUSH1 0x22 DUP2 MSTORE PUSH1 0x20 ADD PUSH2 0x2F9A PUSH1 0x22 SWAP2 CODECOPY PUSH1 0x0 DUP1 DUP7 PUSH20 0xFFFFFFFFFFFFFFFFFFFFFFFFFFFFFFFFFFFFFFFF AND PUSH20 0xFFFFFFFFFFFFFFFFFFFFFFFFFFFFFFFFFFFFFFFF AND DUP2 MSTORE PUSH1 0x20 ADD SWAP1 DUP2 MSTORE PUSH1 0x20 ADD PUSH1 0x0 KECCAK256 SLOAD PUSH2 0x27C7 SWAP1 SWAP3 SWAP2 SWAP1 PUSH4 0xFFFFFFFF AND JUMP JUMPDEST PUSH1 0x0 DUP1 DUP5 PUSH20 0xFFFFFFFFFFFFFFFFFFFFFFFFFFFFFFFFFFFFFFFF AND PUSH20 0xFFFFFFFFFFFFFFFFFFFFFFFFFFFFFFFFFFFFFFFF AND DUP2 MSTORE PUSH1 0x20 ADD SWAP1 DUP2 MSTORE PUSH1 0x20 ADD PUSH1 0x0 KECCAK256 DUP2 SWAP1 SSTORE POP PUSH2 0x2D42 DUP2 PUSH1 0x2 SLOAD PUSH2 0x2BA4 SWAP1 SWAP2 SWAP1 PUSH4 0xFFFFFFFF AND JUMP JUMPDEST PUSH1 0x2 DUP2 SWAP1 SSTORE POP PUSH1 0x0 PUSH20 0xFFFFFFFFFFFFFFFFFFFFFFFFFFFFFFFFFFFFFFFF AND DUP3 PUSH20 0xFFFFFFFFFFFFFFFFFFFFFFFFFFFFFFFFFFFFFFFF AND PUSH32 0xDDF252AD1BE2C89B69C2B068FC378DAA952BA7F163C4A11628F55A4DF523B3EF DUP4 PUSH1 0x40 MLOAD DUP1 DUP3 DUP2 MSTORE PUSH1 0x20 ADD SWAP2 POP POP PUSH1 0x40 MLOAD DUP1 SWAP2 SUB SWAP1 LOG3 POP POP JUMP JUMPDEST PUSH2 0x2E7B PUSH1 0x9 PUSH1 0x0 DUP6 PUSH20 0xFFFFFFFFFFFFFFFFFFFFFFFFFFFFFFFFFFFFFFFF AND PUSH20 0xFFFFFFFFFFFFFFFFFFFFFFFFFFFFFFFFFFFFFFFF AND DUP2 MSTORE PUSH1 0x20 ADD SWAP1 DUP2 MSTORE PUSH1 0x20 ADD PUSH1 0x0 KECCAK256 PUSH1 0x0 SWAP1 SLOAD SWAP1 PUSH2 0x100 EXP SWAP1 DIV PUSH20 0xFFFFFFFFFFFFFFFFFFFFFFFFFFFFFFFFFFFFFFFF AND PUSH1 0x9 PUSH1 0x0 DUP6 PUSH20 0xFFFFFFFFFFFFFFFFFFFFFFFFFFFFFFFFFFFFFFFF AND PUSH20 0xFFFFFFFFFFFFFFFFFFFFFFFFFFFFFFFFFFFFFFFF AND DUP2 MSTORE PUSH1 0x20 ADD SWAP1 DUP2 MSTORE PUSH1 0x20 ADD PUSH1 0x0 KECCAK256 PUSH1 0x0 SWAP1 SLOAD SWAP1 PUSH2 0x100 EXP SWAP1 DIV PUSH20 0xFFFFFFFFFFFFFFFFFFFFFFFFFFFFFFFFFFFFFFFF AND DUP4 PUSH2 0x195F JUMP JUMPDEST POP POP POP JUMP JUMPDEST PUSH1 0x0 DUP1 DUP4 GT DUP3 SWAP1 PUSH2 0x2F2C JUMPI PUSH1 0x40 MLOAD PUSH32 0x8C379A000000000000000000000000000000000000000000000000000000000 DUP2 MSTORE PUSH1 0x4 ADD DUP1 DUP1 PUSH1 0x20 ADD DUP3 DUP2 SUB DUP3 MSTORE DUP4 DUP2 DUP2 MLOAD DUP2 MSTORE PUSH1 0x20 ADD SWAP2 POP DUP1 MLOAD SWAP1 PUSH1 0x20 ADD SWAP1 DUP1 DUP4 DUP4 PUSH1 0x0 JUMPDEST DUP4 DUP2 LT ISZERO PUSH2 0x2EF1 JUMPI DUP1 DUP3 ADD MLOAD DUP2 DUP5 ADD MSTORE PUSH1 0x20 DUP2 ADD SWAP1 POP PUSH2 0x2ED6 JUMP JUMPDEST POP POP POP POP SWAP1 POP SWAP1 DUP2 ADD SWAP1 PUSH1 0x1F AND DUP1 ISZERO PUSH2 0x2F1E JUMPI DUP1 DUP3 SUB DUP1 MLOAD PUSH1 0x1 DUP4 PUSH1 0x20 SUB PUSH2 0x100 EXP SUB NOT AND DUP2 MSTORE PUSH1 0x20 ADD SWAP2 POP JUMPDEST POP SWAP3 POP POP POP PUSH1 0x40 MLOAD DUP1 SWAP2 SUB SWAP1 REVERT JUMPDEST POP PUSH1 0x0 DUP4 DUP6 DUP2 PUSH2 0x2F38 JUMPI INVALID JUMPDEST DIV SWAP1 POP DUP4 DUP6 DUP2 PUSH2 0x2F44 JUMPI INVALID JUMPDEST MOD DUP2 DUP6 MUL ADD DUP6 EQ PUSH2 0x2F51 JUMPI INVALID JUMPDEST DUP1 SWAP2 POP POP SWAP4 SWAP3 POP POP POP JUMP JUMPDEST PUSH1 0x40 MLOAD DUP1 PUSH1 0x40 ADD PUSH1 0x40 MSTORE DUP1 PUSH1 0x0 DUP2 MSTORE PUSH1 0x20 ADD PUSH1 0x0 DUP2 MSTORE POP SWAP1 JUMP INVALID GASLIMIT MSTORE NUMBER ORIGIN ADDRESS GASPRICE KECCAK256 PUSH21 0x72616E7366657220746F20746865207A65726F2061 PUSH5 0x6472657373 GASLIMIT MSTORE NUMBER ORIGIN ADDRESS GASPRICE KECCAK256 PUSH3 0x75726E KECCAK256 PUSH2 0x6D6F PUSH22 0x6E7420657863656564732062616C616E636545524332 ADDRESS GASPRICE KECCAK256 PUSH2 0x7070 PUSH19 0x6F766520746F20746865207A65726F20616464 PUSH19 0x65737345524332303A207472616E7366657220 PUSH2 0x6D6F PUSH22 0x6E7420657863656564732062616C616E636553616665 0x4D PUSH2 0x7468 GASPRICE KECCAK256 PUSH14 0x756C7469706C69636174696F6E20 PUSH16 0x766572666C6F7745524332303A207472 PUSH2 0x6E73 PUSH7 0x657220616D6F75 PUSH15 0x74206578636565647320616C6C6F77 PUSH2 0x6E63 PUSH6 0x674F484D3A3A PUSH8 0x65745072696F7256 PUSH16 0x7465733A206E6F742079657420646574 PUSH6 0x726D696E6564 GASLIMIT MSTORE NUMBER ORIGIN ADDRESS GASPRICE KECCAK256 PUSH3 0x75726E KECCAK256 PUSH7 0x726F6D20746865 KECCAK256 PUSH27 0x65726F206164647265737345524332303A207472616E7366657220 PUSH7 0x726F6D20746865 KECCAK256 PUSH27 0x65726F206164647265737345524332303A20617070726F76652066 PUSH19 0x6F6D20746865207A65726F2061646472657373 GASLIMIT MSTORE NUMBER ORIGIN ADDRESS GASPRICE KECCAK256 PUSH5 0x6563726561 PUSH20 0x656420616C6C6F77616E63652062656C6F77207A PUSH6 0x726FA2646970 PUSH7 0x7358221220602D 0xE8 MOD 0xF9 PUSH20 0x94E9F2B53BFC209442C69EFEF83EB280462BA952 LOG2 0xD5 EXTCODECOPY TIMESTAMP SWAP15 SDIV PUSH5 0x736F6C6343 STOP SMOD SDIV STOP CALLER "
				},
				"gasEstimates": {
					"creation": {
						"codeDepositCost": "2520000",
						"executionCost": "infinite",
						"totalCost": "infinite"
					},
					"external": {
						"Votes(address,uint256)": "62532",
						"_delegate(address,address)": "infinite",
						"_moveDelegates(address,address,uint256)": "infinite",
						"_writeCheckpoint(address,uint256,uint256,uint256)": "63583",
						"allowance(address,address)": "1409",
						"approve(address,uint256)": "infinite",
						"approved()": "1159",
						"balanceFrom(uint256)": "infinite",
						"balanceOf(address)": "1241",
						"balanceTo(uint256)": "infinite",
						"burn(address,uint256)": "infinite",
						"checkpoints(address,uint256)": "2198",
						"decimals()": "1167",
						"decreaseAllowance(address,uint256)": "infinite",
						"delegate(address)": "infinite",
						"delegates(address)": "1289",
						"getCurrentVotes(address)": "2279",
						"getPriorVotes(address,uint256)": "infinite",
						"increaseAllowance(address,uint256)": "infinite",
						"index()": "infinite",
						"migrate(address,address)": "65742",
						"migrated()": "1187",
						"mint(address,uint256)": "infinite",
						"name()": "infinite",
						"numCheckpoints(address)": "1259",
						"sOHM()": "1165",
						"symbol()": "infinite",
						"totalSupply()": "1103",
						"transfer(address,uint256)": "infinite",
						"transferFrom(address,address,uint256)": "infinite"
					},
					"internal": {
						"_beforeTokenTransfer(address,address,uint256)": "infinite"
					}
				},
				"methodIdentifiers": {
					"Votes(address,uint256)": "68e17b24",
					"_delegate(address,address)": "a28a42b3",
					"_moveDelegates(address,address,uint256)": "955f9fd8",
					"_writeCheckpoint(address,uint256,uint256,uint256)": "eb957689",
					"allowance(address,address)": "dd62ed3e",
					"approve(address,uint256)": "095ea7b3",
					"approved()": "19d40b08",
					"balanceFrom(uint256)": "a8248768",
					"balanceOf(address)": "70a08231",
					"balanceTo(uint256)": "66a5236c",
					"burn(address,uint256)": "9dc29fac",
					"checkpoints(address,uint256)": "0cdfebfa",
					"decimals()": "313ce567",
					"decreaseAllowance(address,uint256)": "a457c2d7",
					"delegate(address)": "5c19a95c",
					"delegates(address)": "587cde1e",
					"getCurrentVotes(address)": "b4b5ea57",
					"getPriorVotes(address,uint256)": "782d6fe1",
					"increaseAllowance(address,uint256)": "39509351",
					"index()": "2986c0e5",
					"migrate(address,address)": "1068361f",
					"migrated()": "2c678c64",
					"mint(address,uint256)": "40c10f19",
					"name()": "06fdde03",
					"numCheckpoints(address)": "6fcfff45",
					"sOHM()": "15079925",
					"symbol()": "95d89b41",
					"totalSupply()": "18160ddd",
					"transfer(address,uint256)": "a9059cbb",
					"transferFrom(address,address,uint256)": "23b872dd"
				}
			},
			"storageLayout": {
				"storage": [
					{
						"astId": 1704,
						"contract": "contracts/gOHM.sol:gOHM",
						"label": "_balances",
						"offset": 0,
						"slot": "0",
						"type": "t_mapping(t_address,t_uint256)"
					},
					{
						"astId": 1710,
						"contract": "contracts/gOHM.sol:gOHM",
						"label": "_allowances",
						"offset": 0,
						"slot": "1",
						"type": "t_mapping(t_address,t_mapping(t_address,t_uint256))"
					},
					{
						"astId": 1712,
						"contract": "contracts/gOHM.sol:gOHM",
						"label": "_totalSupply",
						"offset": 0,
						"slot": "2",
						"type": "t_uint256"
					},
					{
						"astId": 1714,
						"contract": "contracts/gOHM.sol:gOHM",
						"label": "_name",
						"offset": 0,
						"slot": "3",
						"type": "t_string_storage"
					},
					{
						"astId": 1716,
						"contract": "contracts/gOHM.sol:gOHM",
						"label": "_symbol",
						"offset": 0,
						"slot": "4",
						"type": "t_string_storage"
					},
					{
						"astId": 1718,
						"contract": "contracts/gOHM.sol:gOHM",
						"label": "_decimals",
						"offset": 0,
						"slot": "5",
						"type": "t_uint8"
					},
					{
						"astId": 51,
						"contract": "contracts/gOHM.sol:gOHM",
						"label": "sOHM",
						"offset": 1,
						"slot": "5",
						"type": "t_contract(IsOHM)901"
					},
					{
						"astId": 53,
						"contract": "contracts/gOHM.sol:gOHM",
						"label": "approved",
						"offset": 0,
						"slot": "6",
						"type": "t_address"
					},
					{
						"astId": 55,
						"contract": "contracts/gOHM.sol:gOHM",
						"label": "migrated",
						"offset": 20,
						"slot": "6",
						"type": "t_bool"
					},
					{
						"astId": 61,
						"contract": "contracts/gOHM.sol:gOHM",
						"label": "checkpoints",
						"offset": 0,
						"slot": "7",
						"type": "t_mapping(t_address,t_mapping(t_uint256,t_struct(Checkpoint)49_storage))"
					},
					{
						"astId": 65,
						"contract": "contracts/gOHM.sol:gOHM",
						"label": "numCheckpoints",
						"offset": 0,
						"slot": "8",
						"type": "t_mapping(t_address,t_uint256)"
					},
					{
						"astId": 69,
						"contract": "contracts/gOHM.sol:gOHM",
						"label": "delegates",
						"offset": 0,
						"slot": "9",
						"type": "t_mapping(t_address,t_address)"
					}
				],
				"types": {
					"t_address": {
						"encoding": "inplace",
						"label": "address",
						"numberOfBytes": "20"
					},
					"t_bool": {
						"encoding": "inplace",
						"label": "bool",
						"numberOfBytes": "1"
					},
					"t_contract(IsOHM)901": {
						"encoding": "inplace",
						"label": "contract IsOHM",
						"numberOfBytes": "20"
					},
					"t_mapping(t_address,t_address)": {
						"encoding": "mapping",
						"key": "t_address",
						"label": "mapping(address => address)",
						"numberOfBytes": "32",
						"value": "t_address"
					},
					"t_mapping(t_address,t_mapping(t_address,t_uint256))": {
						"encoding": "mapping",
						"key": "t_address",
						"label": "mapping(address => mapping(address => uint256))",
						"numberOfBytes": "32",
						"value": "t_mapping(t_address,t_uint256)"
					},
					"t_mapping(t_address,t_mapping(t_uint256,t_struct(Checkpoint)49_storage))": {
						"encoding": "mapping",
						"key": "t_address",
						"label": "mapping(address => mapping(uint256 => struct gOHM.Checkpoint))",
						"numberOfBytes": "32",
						"value": "t_mapping(t_uint256,t_struct(Checkpoint)49_storage)"
					},
					"t_mapping(t_address,t_uint256)": {
						"encoding": "mapping",
						"key": "t_address",
						"label": "mapping(address => uint256)",
						"numberOfBytes": "32",
						"value": "t_uint256"
					},
					"t_mapping(t_uint256,t_struct(Checkpoint)49_storage)": {
						"encoding": "mapping",
						"key": "t_uint256",
						"label": "mapping(uint256 => struct gOHM.Checkpoint)",
						"numberOfBytes": "32",
						"value": "t_struct(Checkpoint)49_storage"
					},
					"t_string_storage": {
						"encoding": "bytes",
						"label": "string",
						"numberOfBytes": "32"
					},
					"t_struct(Checkpoint)49_storage": {
						"encoding": "inplace",
						"label": "struct gOHM.Checkpoint",
						"members": [
							{
								"astId": 46,
								"contract": "contracts/gOHM.sol:gOHM",
								"label": "fromBlock",
								"offset": 0,
								"slot": "0",
								"type": "t_uint256"
							},
							{
								"astId": 48,
								"contract": "contracts/gOHM.sol:gOHM",
								"label": "votes",
								"offset": 0,
								"slot": "1",
								"type": "t_uint256"
							}
						],
						"numberOfBytes": "64"
					},
					"t_uint256": {
						"encoding": "inplace",
						"label": "uint256",
						"numberOfBytes": "32"
					},
					"t_uint8": {
						"encoding": "inplace",
						"label": "uint8",
						"numberOfBytes": "1"
					}
				}
			},
			"userdoc": {
				"kind": "user",
				"methods": {
					"balanceFrom(uint256)": {
						"notice": "converts gOHM amount to OHM"
					},
					"balanceTo(uint256)": {
						"notice": "converts OHM amount to gOHM"
					},
					"burn(address,uint256)": {
						"notice": "burn gOHM"
					},
					"delegate(address)": {
						"notice": "Delegate votes from `msg.sender` to `delegatee`"
					},
					"getCurrentVotes(address)": {
						"notice": "Gets the current votes balance for `account`"
					},
					"getPriorVotes(address,uint256)": {
						"notice": "Determine the prior number of votes for an account as of a block number"
					},
					"index()": {
						"notice": "pull index from sOHM token"
					},
					"migrate(address,address)": {
						"notice": "transfer mint rights from migrator to stakingcan only be done once, at the time of contract migration"
					},
					"mint(address,uint256)": {
						"notice": "mint gOHM"
					}
				},
				"version": 1
			}
		}
	}
}