{
	"contracts/sOHM.sol": {
		"sOlympus": {
			"abi": [
				{
					"inputs": [],
					"stateMutability": "nonpayable",
					"type": "constructor"
				},
				{
					"anonymous": false,
					"inputs": [
						{
							"indexed": true,
							"internalType": "address",
							"name": "owner",
							"type": "address"
						},
						{
							"indexed": true,
							"internalType": "address",
							"name": "spender",
							"type": "address"
						},
						{
							"indexed": false,
							"internalType": "uint256",
							"name": "value",
							"type": "uint256"
						}
					],
					"name": "Approval",
					"type": "event"
				},
				{
					"anonymous": false,
					"inputs": [
						{
							"indexed": true,
							"internalType": "uint256",
							"name": "epoch",
							"type": "uint256"
						},
						{
							"indexed": false,
							"internalType": "uint256",
							"name": "rebase",
							"type": "uint256"
						},
						{
							"indexed": false,
							"internalType": "uint256",
							"name": "index",
							"type": "uint256"
						}
					],
					"name": "LogRebase",
					"type": "event"
				},
				{
					"anonymous": false,
					"inputs": [
						{
							"indexed": false,
							"internalType": "address",
							"name": "stakingContract",
							"type": "address"
						}
					],
					"name": "LogStakingContractUpdated",
					"type": "event"
				},
				{
					"anonymous": false,
					"inputs": [
						{
							"indexed": true,
							"internalType": "uint256",
							"name": "epoch",
							"type": "uint256"
						},
						{
							"indexed": false,
							"internalType": "uint256",
							"name": "timestamp",
							"type": "uint256"
						},
						{
							"indexed": false,
							"internalType": "uint256",
							"name": "totalSupply",
							"type": "uint256"
						}
					],
					"name": "LogSupply",
					"type": "event"
				},
				{
					"anonymous": false,
					"inputs": [
						{
							"indexed": true,
							"internalType": "address",
							"name": "previousOwner",
							"type": "address"
						},
						{
							"indexed": true,
							"internalType": "address",
							"name": "newOwner",
							"type": "address"
						}
					],
					"name": "OwnershipPulled",
					"type": "event"
				},
				{
					"anonymous": false,
					"inputs": [
						{
							"indexed": true,
							"internalType": "address",
							"name": "previousOwner",
							"type": "address"
						},
						{
							"indexed": true,
							"internalType": "address",
							"name": "newOwner",
							"type": "address"
						}
					],
					"name": "OwnershipPushed",
					"type": "event"
				},
				{
					"anonymous": false,
					"inputs": [
						{
							"indexed": true,
							"internalType": "address",
							"name": "from",
							"type": "address"
						},
						{
							"indexed": true,
							"internalType": "address",
							"name": "to",
							"type": "address"
						},
						{
							"indexed": false,
							"internalType": "uint256",
							"name": "value",
							"type": "uint256"
						}
					],
					"name": "Transfer",
					"type": "event"
				},
				{
					"inputs": [],
					"name": "DOMAIN_SEPARATOR",
					"outputs": [
						{
							"internalType": "bytes32",
							"name": "",
							"type": "bytes32"
						}
					],
					"stateMutability": "view",
					"type": "function"
				},
				{
					"inputs": [],
					"name": "INDEX",
					"outputs": [
						{
							"internalType": "uint256",
							"name": "",
							"type": "uint256"
						}
					],
					"stateMutability": "view",
					"type": "function"
				},
				{
					"inputs": [],
					"name": "PERMIT_TYPEHASH",
					"outputs": [
						{
							"internalType": "bytes32",
							"name": "",
							"type": "bytes32"
						}
					],
					"stateMutability": "view",
					"type": "function"
				},
				{
					"inputs": [
						{
							"internalType": "address",
							"name": "owner_",
							"type": "address"
						},
						{
							"internalType": "address",
							"name": "spender",
							"type": "address"
						}
					],
					"name": "allowance",
					"outputs": [
						{
							"internalType": "uint256",
							"name": "",
							"type": "uint256"
						}
					],
					"stateMutability": "view",
					"type": "function"
				},
				{
					"inputs": [
						{
							"internalType": "address",
							"name": "spender",
							"type": "address"
						},
						{
							"internalType": "uint256",
							"name": "value",
							"type": "uint256"
						}
					],
					"name": "approve",
					"outputs": [
						{
							"internalType": "bool",
							"name": "",
							"type": "bool"
						}
					],
					"stateMutability": "nonpayable",
					"type": "function"
				},
				{
					"inputs": [
						{
							"internalType": "uint256",
							"name": "gons",
							"type": "uint256"
						}
					],
					"name": "balanceForGons",
					"outputs": [
						{
							"internalType": "uint256",
							"name": "",
							"type": "uint256"
						}
					],
					"stateMutability": "view",
					"type": "function"
				},
				{
					"inputs": [
						{
							"internalType": "address",
							"name": "who",
							"type": "address"
						}
					],
					"name": "balanceOf",
					"outputs": [
						{
							"internalType": "uint256",
							"name": "",
							"type": "uint256"
						}
					],
					"stateMutability": "view",
					"type": "function"
				},
				{
					"inputs": [],
					"name": "circulatingSupply",
					"outputs": [
						{
							"internalType": "uint256",
							"name": "",
							"type": "uint256"
						}
					],
					"stateMutability": "view",
					"type": "function"
				},
				{
					"inputs": [],
					"name": "decimals",
					"outputs": [
						{
							"internalType": "uint8",
							"name": "",
							"type": "uint8"
						}
					],
					"stateMutability": "view",
					"type": "function"
				},
				{
					"inputs": [
						{
							"internalType": "address",
							"name": "spender",
							"type": "address"
						},
						{
							"internalType": "uint256",
							"name": "subtractedValue",
							"type": "uint256"
						}
					],
					"name": "decreaseAllowance",
					"outputs": [
						{
							"internalType": "bool",
							"name": "",
							"type": "bool"
						}
					],
					"stateMutability": "nonpayable",
					"type": "function"
				},
				{
					"inputs": [
						{
							"internalType": "uint256",
							"name": "amount",
							"type": "uint256"
						}
					],
					"name": "gonsForBalance",
					"outputs": [
						{
							"internalType": "uint256",
							"name": "",
							"type": "uint256"
						}
					],
					"stateMutability": "view",
					"type": "function"
				},
				{
					"inputs": [
						{
							"internalType": "address",
							"name": "spender",
							"type": "address"
						},
						{
							"internalType": "uint256",
							"name": "addedValue",
							"type": "uint256"
						}
					],
					"name": "increaseAllowance",
					"outputs": [
						{
							"internalType": "bool",
							"name": "",
							"type": "bool"
						}
					],
					"stateMutability": "nonpayable",
					"type": "function"
				},
				{
					"inputs": [],
					"name": "index",
					"outputs": [
						{
							"internalType": "uint256",
							"name": "",
							"type": "uint256"
						}
					],
					"stateMutability": "view",
					"type": "function"
				},
				{
					"inputs": [
						{
							"internalType": "address",
							"name": "stakingContract_",
							"type": "address"
						}
					],
					"name": "initialize",
					"outputs": [
						{
							"internalType": "bool",
							"name": "",
							"type": "bool"
						}
					],
					"stateMutability": "nonpayable",
					"type": "function"
				},
				{
					"inputs": [],
					"name": "initializer",
					"outputs": [
						{
							"internalType": "address",
							"name": "",
							"type": "address"
						}
					],
					"stateMutability": "view",
					"type": "function"
				},
				{
					"inputs": [],
					"name": "manager",
					"outputs": [
						{
							"internalType": "address",
							"name": "",
							"type": "address"
						}
					],
					"stateMutability": "view",
					"type": "function"
				},
				{
					"inputs": [],
					"name": "name",
					"outputs": [
						{
							"internalType": "string",
							"name": "",
							"type": "string"
						}
					],
					"stateMutability": "view",
					"type": "function"
				},
				{
					"inputs": [
						{
							"internalType": "address",
							"name": "owner",
							"type": "address"
						}
					],
					"name": "nonces",
					"outputs": [
						{
							"internalType": "uint256",
							"name": "",
							"type": "uint256"
						}
					],
					"stateMutability": "view",
					"type": "function"
				},
				{
					"inputs": [
						{
							"internalType": "address",
							"name": "owner",
							"type": "address"
						},
						{
							"internalType": "address",
							"name": "spender",
							"type": "address"
						},
						{
							"internalType": "uint256",
							"name": "amount",
							"type": "uint256"
						},
						{
							"internalType": "uint256",
							"name": "deadline",
							"type": "uint256"
						},
						{
							"internalType": "uint8",
							"name": "v",
							"type": "uint8"
						},
						{
							"internalType": "bytes32",
							"name": "r",
							"type": "bytes32"
						},
						{
							"internalType": "bytes32",
							"name": "s",
							"type": "bytes32"
						}
					],
					"name": "permit",
					"outputs": [],
					"stateMutability": "nonpayable",
					"type": "function"
				},
				{
					"inputs": [],
					"name": "pullManagement",
					"outputs": [],
					"stateMutability": "nonpayable",
					"type": "function"
				},
				{
					"inputs": [
						{
							"internalType": "address",
							"name": "newOwner_",
							"type": "address"
						}
					],
					"name": "pushManagement",
					"outputs": [],
					"stateMutability": "nonpayable",
					"type": "function"
				},
				{
					"inputs": [
						{
							"internalType": "uint256",
							"name": "profit_",
							"type": "uint256"
						},
						{
							"internalType": "uint256",
							"name": "epoch_",
							"type": "uint256"
						}
					],
					"name": "rebase",
					"outputs": [
						{
							"internalType": "uint256",
							"name": "",
							"type": "uint256"
						}
					],
					"stateMutability": "nonpayable",
					"type": "function"
				},
				{
					"inputs": [
						{
							"internalType": "uint256",
							"name": "",
							"type": "uint256"
						}
					],
					"name": "rebases",
					"outputs": [
						{
							"internalType": "uint256",
							"name": "epoch",
							"type": "uint256"
						},
						{
							"internalType": "uint256",
							"name": "rebase",
							"type": "uint256"
						},
						{
							"internalType": "uint256",
							"name": "totalStakedBefore",
							"type": "uint256"
						},
						{
							"internalType": "uint256",
							"name": "totalStakedAfter",
							"type": "uint256"
						},
						{
							"internalType": "uint256",
							"name": "amountRebased",
							"type": "uint256"
						},
						{
							"internalType": "uint256",
							"name": "index",
							"type": "uint256"
						},
						{
							"internalType": "uint256",
							"name": "blockNumberOccured",
							"type": "uint256"
						}
					],
					"stateMutability": "view",
					"type": "function"
				},
				{
					"inputs": [],
					"name": "renounceManagement",
					"outputs": [],
					"stateMutability": "nonpayable",
					"type": "function"
				},
				{
					"inputs": [
						{
							"internalType": "uint256",
							"name": "_INDEX",
							"type": "uint256"
						}
					],
					"name": "setIndex",
					"outputs": [
						{
							"internalType": "bool",
							"name": "",
							"type": "bool"
						}
					],
					"stateMutability": "nonpayable",
					"type": "function"
				},
				{
					"inputs": [],
					"name": "stakingContract",
					"outputs": [
						{
							"internalType": "address",
							"name": "",
							"type": "address"
						}
					],
					"stateMutability": "view",
					"type": "function"
				},
				{
					"inputs": [],
					"name": "symbol",
					"outputs": [
						{
							"internalType": "string",
							"name": "",
							"type": "string"
						}
					],
					"stateMutability": "view",
					"type": "function"
				},
				{
					"inputs": [],
					"name": "totalSupply",
					"outputs": [
						{
							"internalType": "uint256",
							"name": "",
							"type": "uint256"
						}
					],
					"stateMutability": "view",
					"type": "function"
				},
				{
					"inputs": [
						{
							"internalType": "address",
							"name": "to",
							"type": "address"
						},
						{
							"internalType": "uint256",
							"name": "value",
							"type": "uint256"
						}
					],
					"name": "transfer",
					"outputs": [
						{
							"internalType": "bool",
							"name": "",
							"type": "bool"
						}
					],
					"stateMutability": "nonpayable",
					"type": "function"
				},
				{
					"inputs": [
						{
							"internalType": "address",
							"name": "from",
							"type": "address"
						},
						{
							"internalType": "address",
							"name": "to",
							"type": "address"
						},
						{
							"internalType": "uint256",
							"name": "value",
							"type": "uint256"
						}
					],
					"name": "transferFrom",
					"outputs": [
						{
							"internalType": "bool",
							"name": "",
							"type": "bool"
						}
					],
					"stateMutability": "nonpayable",
					"type": "function"
				}
			],
			"devdoc": {
				"kind": "dev",
				"methods": {
					"decimals()": {
						"details": "Returns the number of decimals used to get its user representation. For example, if `decimals` equals `2`, a balance of `505` tokens should be displayed to a user as `5,05` (`505 / 10 ** 2`). Tokens usually opt for a value of 18, imitating the relationship between Ether and Wei. This is the value {ERC20} uses, unless {_setupDecimals} is called. NOTE: This information is only used for _display_ purposes: it in no way affects any of the arithmetic of the contract, including {IERC20-balanceOf} and {IERC20-transfer}."
					},
					"decreaseAllowance(address,uint256)": {
						"details": "Atomically decreases the allowance granted to `spender` by the caller. This is an alternative to {approve} that can be used as a mitigation for problems described in {IERC20-approve}. Emits an {Approval} event indicating the updated allowance. Requirements: - `spender` cannot be the zero address. - `spender` must have allowance for the caller of at least `subtractedValue`."
					},
					"increaseAllowance(address,uint256)": {
						"details": "Atomically increases the allowance granted to `spender` by the caller. This is an alternative to {approve} that can be used as a mitigation for problems described in {IERC20-approve}. Emits an {Approval} event indicating the updated allowance. Requirements: - `spender` cannot be the zero address."
					},
					"name()": {
						"details": "Returns the name of the token."
					},
					"nonces(address)": {
						"details": "See {IERC2612Permit-nonces}."
					},
					"permit(address,address,uint256,uint256,uint8,bytes32,bytes32)": {
						"details": "See {IERC2612Permit-permit}."
					},
					"rebase(uint256,uint256)": {
						"params": {
							"profit_": "uint256"
						},
						"returns": {
							"_0": "uint256"
						}
					},
					"symbol()": {
						"details": "Returns the symbol of the token, usually a shorter version of the name."
					},
					"totalSupply()": {
						"details": "See {IERC20-totalSupply}."
					}
				},
				"version": 1
			},
			"evm": {
				"assembly": "    /* \"contracts/sOHM.sol\":2161:9439  contract sOlympus is ERC20Permit, Ownable {... */\n  mstore(0x40, 0x80)\n    /* \"contracts/sOHM.sol\":3644:3854  constructor() ERC20(\"Staked Olympus\", \"sOHM\", 9) ERC20Permit() {... */\n  callvalue\n  dup1\n  iszero\n  tag_1\n  jumpi\n  0x00\n  dup1\n  revert\ntag_1:\n  pop\n    /* \"contracts/types/ERC20.sol\":1058:1206  constructor (string memory name_, string memory symbol_, uint8 decimals_) {... */\n  mload(0x40)\n  dup1\n  0x40\n  add\n  0x40\n  mstore\n  dup1\n  0x0e\n  dup2\n  mstore\n  0x20\n  add\n  0x5374616b6564204f6c796d707573000000000000000000000000000000000000\n  dup2\n  mstore\n  pop\n  mload(0x40)\n  dup1\n  0x40\n  add\n  0x40\n  mstore\n  dup1\n  0x04\n  dup2\n  mstore\n  0x20\n  add\n  0x734f484d00000000000000000000000000000000000000000000000000000000\n  dup2\n  mstore\n  pop\n    /* \"contracts/sOHM.sol\":3690:3691  9 */\n  0x09\n    /* \"contracts/types/ERC20.sol\":1146:1151  name_ */\n  dup3\n    /* \"contracts/types/ERC20.sol\":1138:1143  _name */\n  0x03\n    /* \"contracts/types/ERC20.sol\":1138:1151  _name = name_ */\n  swap1\n  dup1\n  mload\n  swap1\n  0x20\n  add\n  swap1\n  tag_7\n  swap3\n  swap2\n  swap1\n  tag_8\n  jump\t// in\ntag_7:\n  pop\n    /* \"contracts/types/ERC20.sol\":1167:1174  symbol_ */\n  dup2\n    /* \"contracts/types/ERC20.sol\":1157:1164  _symbol */\n  0x04\n    /* \"contracts/types/ERC20.sol\":1157:1174  _symbol = symbol_ */\n  swap1\n  dup1\n  mload\n  swap1\n  0x20\n  add\n  swap1\n  tag_9\n  swap3\n  swap2\n  swap1\n  tag_8\n  jump\t// in\ntag_9:\n  pop\n    /* \"contracts/types/ERC20.sol\":1192:1201  decimals_ */\n  dup1\n    /* \"contracts/types/ERC20.sol\":1180:1189  _decimals */\n  0x05\n  0x00\n    /* \"contracts/types/ERC20.sol\":1180:1201  _decimals = decimals_ */\n  0x0100\n  exp\n  dup2\n  sload\n  dup2\n  0xff\n  mul\n  not\n  and\n  swap1\n  dup4\n  0xff\n  and\n  mul\n  or\n  swap1\n  sstore\n  pop\n    /* \"contracts/types/ERC20.sol\":1058:1206  constructor (string memory name_, string memory symbol_, uint8 decimals_) {... */\n  pop\n  pop\n  pop\n    /* \"contracts/types/ERC20Permit.sol\":616:631  uint256 chainID */\n  0x00\n    /* \"contracts/types/ERC20Permit.sol\":675:684  chainid() */\n  chainid\n    /* \"contracts/types/ERC20Permit.sol\":664:684  chainID := chainid() */\n  swap1\n  pop\n    /* \"contracts/types/ERC20Permit.sol\":757:852  keccak256(\"EIP712Domain(string name,string version,uint256 chainId,address verifyingContract)\") */\n  0x8b73c3c69bb8fe3d512ecc4cf759cc79239f7b179b0ffacaa9a75d522b39400f\n    /* \"contracts/types/ERC20Permit.sol\":882:888  name() */\n  tag_11\n    /* \"contracts/types/ERC20Permit.sol\":882:886  name */\n  shl(0x20, tag_12)\n    /* \"contracts/types/ERC20Permit.sol\":882:888  name() */\n  0x20\n  shr\n  jump\t// in\ntag_11:\n    /* \"contracts/types/ERC20Permit.sol\":866:890  keccak256(bytes(name())) */\n  dup1\n  mload\n  swap1\n  0x20\n  add\n  keccak256\n    /* \"contracts/types/ERC20Permit.sol\":914:924  bytes(\"1\") */\n  mload(0x40)\n  dup1\n  0x40\n  add\n  0x40\n  mstore\n  dup1\n  0x01\n  dup2\n  mstore\n  0x20\n  add\n  0x3100000000000000000000000000000000000000000000000000000000000000\n  dup2\n  mstore\n  pop\n    /* \"contracts/types/ERC20Permit.sol\":904:925  keccak256(bytes(\"1\")) */\n  dup1\n  mload\n  swap1\n  0x20\n  add\n  keccak256\n    /* \"contracts/types/ERC20Permit.sol\":950:957  chainID */\n  dup4\n    /* \"contracts/types/ERC20Permit.sol\":979:983  this */\n  address\n    /* \"contracts/types/ERC20Permit.sol\":733:994  abi.encode(... */\n  add(0x20, mload(0x40))\n  dup1\n  dup7\n  dup2\n  mstore\n  0x20\n  add\n  dup6\n  dup2\n  mstore\n  0x20\n  add\n  dup5\n  dup2\n  mstore\n  0x20\n  add\n  dup4\n  dup2\n  mstore\n  0x20\n  add\n  dup3\n  0xffffffffffffffffffffffffffffffffffffffff\n  and\n  dup2\n  mstore\n  0x20\n  add\n  swap6\n  pop\n  pop\n  pop\n  pop\n  pop\n  pop\n  mload(0x40)\n  0x20\n  dup2\n  dup4\n  sub\n  sub\n  dup2\n  mstore\n  swap1\n  0x40\n  mstore\n    /* \"contracts/types/ERC20Permit.sol\":723:995  keccak256(abi.encode(... */\n  dup1\n  mload\n  swap1\n  0x20\n  add\n  keccak256\n    /* \"contracts/types/ERC20Permit.sol\":704:720  DOMAIN_SEPARATOR */\n  0x07\n    /* \"contracts/types/ERC20Permit.sol\":704:995  DOMAIN_SEPARATOR = keccak256(abi.encode(... */\n  dup2\n  swap1\n  sstore\n  pop\n    /* \"contracts/types/ERC20Permit.sol\":591:1002  constructor() {... */\n  pop\n    /* \"contracts/sOHM.sol\":1218:1228  msg.sender */\n  caller\n    /* \"contracts/sOHM.sol\":1209:1215  _owner */\n  0x08\n  0x00\n    /* \"contracts/sOHM.sol\":1209:1228  _owner = msg.sender */\n  0x0100\n  exp\n  dup2\n  sload\n  dup2\n  0xffffffffffffffffffffffffffffffffffffffff\n  mul\n  not\n  and\n  swap1\n  dup4\n  0xffffffffffffffffffffffffffffffffffffffff\n  and\n  mul\n  or\n  swap1\n  sstore\n  pop\n    /* \"contracts/sOHM.sol\":1272:1278  _owner */\n  0x08\n  0x00\n  swap1\n  sload\n  swap1\n  0x0100\n  exp\n  swap1\n  div\n  0xffffffffffffffffffffffffffffffffffffffff\n  and\n    /* \"contracts/sOHM.sol\":1243:1280  OwnershipPushed( address(0), _owner ) */\n  0xffffffffffffffffffffffffffffffffffffffff\n  and\n    /* \"contracts/sOHM.sol\":1268:1269  0 */\n  0x00\n    /* \"contracts/sOHM.sol\":1243:1280  OwnershipPushed( address(0), _owner ) */\n  0xffffffffffffffffffffffffffffffffffffffff\n  and\n  0xea8258f2d9ddb679928cf34b78cf645b7feda9acc828e4dd82d014eaae270eba\n  mload(0x40)\n  mload(0x40)\n  dup1\n  swap2\n  sub\n  swap1\n  log3\n    /* \"contracts/sOHM.sol\":3731:3741  msg.sender */\n  caller\n    /* \"contracts/sOHM.sol\":3717:3728  initializer */\n  0x0b\n  0x00\n    /* \"contracts/sOHM.sol\":3717:3741  initializer = msg.sender */\n  0x0100\n  exp\n  dup2\n  sload\n  dup2\n  0xffffffffffffffffffffffffffffffffffffffff\n  mul\n  not\n  and\n  swap1\n  dup4\n  0xffffffffffffffffffffffffffffffffffffffff\n  and\n  mul\n  or\n  swap1\n  sstore\n  pop\n    /* \"contracts/sOHM.sol\":3032:3047  5000000 * 10**9 */\n  0x11c37937e08000\n    /* \"contracts/sOHM.sol\":3751:3763  _totalSupply */\n  0x02\n    /* \"contracts/sOHM.sol\":3751:3790  _totalSupply = INITIAL_FRAGMENTS_SUPPLY */\n  dup2\n  swap1\n  sstore\n  pop\n    /* \"contracts/sOHM.sol\":3819:3847  TOTAL_GONS.div(_totalSupply) */\n  tag_15\n    /* \"contracts/sOHM.sol\":3834:3846  _totalSupply */\n  sload(0x02)\n    /* \"contracts/sOHM.sol\":3032:3047  5000000 * 10**9 */\n  0x11c37937e08000\n    /* \"contracts/sOHM.sol\":2972:2973  0 */\n  0x00\n    /* \"contracts/sOHM.sol\":2963:2974  ~uint256(0) */\n  not\n    /* \"contracts/sOHM.sol\":3280:3318  MAX_UINT256 % INITIAL_FRAGMENTS_SUPPLY */\n  dup2\n  tag_16\n  jumpi\n  invalid\ntag_16:\n  mod\n    /* \"contracts/sOHM.sol\":2972:2973  0 */\n  0x00\n    /* \"contracts/sOHM.sol\":2963:2974  ~uint256(0) */\n  not\n    /* \"contracts/sOHM.sol\":3265:3319  MAX_UINT256 - (MAX_UINT256 % INITIAL_FRAGMENTS_SUPPLY) */\n  sub\n    /* \"contracts/sOHM.sol\":3819:3833  TOTAL_GONS.div */\n  or(tag_0_124, shl(0x20, tag_17))\n  swap1\n    /* \"contracts/sOHM.sol\":3819:3847  TOTAL_GONS.div(_totalSupply) */\n  swap2\n  swap1\n  0x20\n  shr\n  jump\t// in\ntag_15:\n    /* \"contracts/sOHM.sol\":3800:3816  _gonsPerFragment */\n  0x0e\n    /* \"contracts/sOHM.sol\":3800:3847  _gonsPerFragment = TOTAL_GONS.div(_totalSupply) */\n  dup2\n  swap1\n  sstore\n  pop\n    /* \"contracts/sOHM.sol\":2161:9439  contract sOlympus is ERC20Permit, Ownable {... */\n  jump(tag_18)\n    /* \"contracts/types/ERC20.sol\":1286:1361  function name() public view returns (string memory) {... */\ntag_12:\n    /* \"contracts/types/ERC20.sol\":1323:1336  string memory */\n  0x60\n    /* \"contracts/types/ERC20.sol\":1351:1356  _name */\n  0x03\n    /* \"contracts/types/ERC20.sol\":1344:1356  return _name */\n  dup1\n  sload\n  0x01\n  dup2\n  0x01\n  and\n  iszero\n  0x0100\n  mul\n  sub\n  and\n  0x02\n  swap1\n  div\n  dup1\n  0x1f\n  add\n  0x20\n  dup1\n  swap2\n  div\n  mul\n  0x20\n  add\n  mload(0x40)\n  swap1\n  dup2\n  add\n  0x40\n  mstore\n  dup1\n  swap3\n  swap2\n  swap1\n  dup2\n  dup2\n  mstore\n  0x20\n  add\n  dup3\n  dup1\n  sload\n  0x01\n  dup2\n  0x01\n  and\n  iszero\n  0x0100\n  mul\n  sub\n  and\n  0x02\n  swap1\n  div\n  dup1\n  iszero\n  tag_20\n  jumpi\n  dup1\n  0x1f\n  lt\n  tag_21\n  jumpi\n  0x0100\n  dup1\n  dup4\n  sload\n  div\n  mul\n  dup4\n  mstore\n  swap2\n  0x20\n  add\n  swap2\n  jump(tag_20)\ntag_21:\n  dup3\n  add\n  swap2\n  swap1\n  0x00\n  mstore\n  keccak256(0x00, 0x20)\n  swap1\ntag_22:\n  dup2\n  sload\n  dup2\n  mstore\n  swap1\n  0x01\n  add\n  swap1\n  0x20\n  add\n  dup1\n  dup4\n  gt\n  tag_22\n  jumpi\n  dup3\n  swap1\n  sub\n  0x1f\n  and\n  dup3\n  add\n  swap2\ntag_20:\n  pop\n  pop\n  pop\n  pop\n  pop\n  swap1\n  pop\n    /* \"contracts/types/ERC20.sol\":1286:1361  function name() public view returns (string memory) {... */\n  swap1\n  jump\t// out\n    /* \"contracts/libraries/SafeMath.sol\":961:1091  function div(uint256 a, uint256 b) internal pure returns (uint256) {... */\ntag_17:\n    /* \"contracts/libraries/SafeMath.sol\":1019:1026  uint256 */\n  0x00\n    /* \"contracts/libraries/SafeMath.sol\":1045:1084  div(a, b, \"SafeMath: division by zero\") */\n  tag_24\n    /* \"contracts/libraries/SafeMath.sol\":1049:1050  a */\n  dup4\n    /* \"contracts/libraries/SafeMath.sol\":1052:1053  b */\n  dup4\n    /* \"contracts/libraries/SafeMath.sol\":1045:1084  div(a, b, \"SafeMath: division by zero\") */\n  mload(0x40)\n  dup1\n  0x40\n  add\n  0x40\n  mstore\n  dup1\n  0x1a\n  dup2\n  mstore\n  0x20\n  add\n  0x536166654d6174683a206469766973696f6e206279207a65726f000000000000\n  dup2\n  mstore\n  pop\n    /* \"contracts/libraries/SafeMath.sol\":1045:1048  div */\n  shl(0x20, tag_25)\n    /* \"contracts/libraries/SafeMath.sol\":1045:1084  div(a, b, \"SafeMath: division by zero\") */\n  0x20\n  shr\n  jump\t// in\ntag_24:\n    /* \"contracts/libraries/SafeMath.sol\":1038:1084  return div(a, b, \"SafeMath: division by zero\") */\n  swap1\n  pop\n    /* \"contracts/libraries/SafeMath.sol\":961:1091  function div(uint256 a, uint256 b) internal pure returns (uint256) {... */\n  swap3\n  swap2\n  pop\n  pop\n  jump\t// out\n    /* \"contracts/libraries/SafeMath.sol\":1097:1366  function div(uint256 a, uint256 b, string memory errorMessage) internal pure returns (uint256) {... */\ntag_25:\n    /* \"contracts/libraries/SafeMath.sol\":1183:1190  uint256 */\n  0x00\n    /* \"contracts/libraries/SafeMath.sol\":1214:1215  0 */\n  dup1\n    /* \"contracts/libraries/SafeMath.sol\":1210:1211  b */\n  dup4\n    /* \"contracts/libraries/SafeMath.sol\":1210:1215  b > 0 */\n  gt\n    /* \"contracts/libraries/SafeMath.sol\":1217:1229  errorMessage */\n  dup3\n    /* \"contracts/libraries/SafeMath.sol\":1202:1230  require(b > 0, errorMessage) */\n  swap1\n  tag_27\n  jumpi\n  mload(0x40)\n  0x08c379a000000000000000000000000000000000000000000000000000000000\n  dup2\n  mstore\n  0x04\n  add\n  dup1\n  dup1\n  0x20\n  add\n  dup3\n  dup2\n  sub\n  dup3\n  mstore\n  dup4\n  dup2\n  dup2\n  mload\n  dup2\n  mstore\n  0x20\n  add\n  swap2\n  pop\n  dup1\n  mload\n  swap1\n  0x20\n  add\n  swap1\n  dup1\n  dup4\n  dup4\n  0x00\ntag_28:\n  dup4\n  dup2\n  lt\n  iszero\n  tag_30\n  jumpi\n  dup1\n  dup3\n  add\n  mload\n  dup2\n  dup5\n  add\n  mstore\n  0x20\n  dup2\n  add\n  swap1\n  pop\n  jump(tag_28)\ntag_30:\n  pop\n  pop\n  pop\n  pop\n  swap1\n  pop\n  swap1\n  dup2\n  add\n  swap1\n  0x1f\n  and\n  dup1\n  iszero\n  tag_31\n  jumpi\n  dup1\n  dup3\n  sub\n  dup1\n  mload\n  0x01\n  dup4\n  0x20\n  sub\n  0x0100\n  exp\n  sub\n  not\n  and\n  dup2\n  mstore\n  0x20\n  add\n  swap2\n  pop\ntag_31:\n  pop\n  swap3\n  pop\n  pop\n  pop\n  mload(0x40)\n  dup1\n  swap2\n  sub\n  swap1\n  revert\ntag_27:\n  pop\n    /* \"contracts/libraries/SafeMath.sol\":1240:1249  uint256 c */\n  0x00\n    /* \"contracts/libraries/SafeMath.sol\":1256:1257  b */\n  dup4\n    /* \"contracts/libraries/SafeMath.sol\":1252:1253  a */\n  dup6\n    /* \"contracts/libraries/SafeMath.sol\":1252:1257  a / b */\n  dup2\n  tag_32\n  jumpi\n  invalid\ntag_32:\n  div\n    /* \"contracts/libraries/SafeMath.sol\":1240:1257  uint256 c = a / b */\n  swap1\n  pop\n    /* \"contracts/libraries/SafeMath.sol\":1291:1292  b */\n  dup4\n    /* \"contracts/libraries/SafeMath.sol\":1287:1288  a */\n  dup6\n    /* \"contracts/libraries/SafeMath.sol\":1287:1292  a % b */\n  dup2\n  tag_33\n  jumpi\n  invalid\ntag_33:\n  mod\n    /* \"contracts/libraries/SafeMath.sol\":1283:1284  c */\n  dup2\n    /* \"contracts/libraries/SafeMath.sol\":1279:1280  b */\n  dup6\n    /* \"contracts/libraries/SafeMath.sol\":1279:1284  b * c */\n  mul\n    /* \"contracts/libraries/SafeMath.sol\":1279:1292  b * c + a % b */\n  add\n    /* \"contracts/libraries/SafeMath.sol\":1274:1275  a */\n  dup6\n    /* \"contracts/libraries/SafeMath.sol\":1274:1292  a == b * c + a % b */\n  eq\n    /* \"contracts/libraries/SafeMath.sol\":1267:1293  assert(a == b * c + a % b) */\n  tag_34\n  jumpi\n  invalid\ntag_34:\n    /* \"contracts/libraries/SafeMath.sol\":1358:1359  c */\n  dup1\n    /* \"contracts/libraries/SafeMath.sol\":1351:1359  return c */\n  swap2\n  pop\n  pop\n    /* \"contracts/libraries/SafeMath.sol\":1097:1366  function div(uint256 a, uint256 b, string memory errorMessage) internal pure returns (uint256) {... */\n  swap4\n  swap3\n  pop\n  pop\n  pop\n  jump\t// out\n    /* \"contracts/sOHM.sol\":2161:9439  contract sOlympus is ERC20Permit, Ownable {... */\ntag_8:\n  dup3\n  dup1\n  sload\n  0x01\n  dup2\n  0x01\n  and\n  iszero\n  0x0100\n  mul\n  sub\n  and\n  0x02\n  swap1\n  div\n  swap1\n  0x00\n  mstore\n  keccak256(0x00, 0x20)\n  swap1\n  0x1f\n  add\n  0x20\n  swap1\n  div\n  dup2\n  add\n  swap3\n  dup3\n  tag_36\n  jumpi\n  0x00\n  dup6\n  sstore\n  jump(tag_35)\ntag_36:\n  dup3\n  0x1f\n  lt\n  tag_37\n  jumpi\n  dup1\n  mload\n  not(0xff)\n  and\n  dup4\n  dup1\n  add\n  or\n  dup6\n  sstore\n  jump(tag_35)\ntag_37:\n  dup3\n  dup1\n  add\n  0x01\n  add\n  dup6\n  sstore\n  dup3\n  iszero\n  tag_35\n  jumpi\n  swap2\n  dup3\n  add\ntag_38:\n  dup3\n  dup2\n  gt\n  iszero\n  tag_39\n  jumpi\n  dup3\n  mload\n  dup3\n  sstore\n  swap2\n  0x20\n  add\n  swap2\n  swap1\n  0x01\n  add\n  swap1\n  jump(tag_38)\ntag_39:\ntag_35:\n  pop\n  swap1\n  pop\n  tag_40\n  swap2\n  swap1\n  tag_41\n  jump\t// in\ntag_40:\n  pop\n  swap1\n  jump\t// out\ntag_41:\ntag_42:\n  dup1\n  dup3\n  gt\n  iszero\n  tag_43\n  jumpi\n  0x00\n  dup2\n  0x00\n  swap1\n  sstore\n  pop\n  0x01\n  add\n  jump(tag_42)\ntag_43:\n  pop\n  swap1\n  jump\t// out\ntag_18:\n  dataSize(sub_0)\n  dup1\n  dataOffset(sub_0)\n  0x00\n  codecopy\n  0x00\n  return\nstop\n\nsub_0: assembly {\n        /* \"contracts/sOHM.sol\":2161:9439  contract sOlympus is ERC20Permit, Ownable {... */\n      mstore(0x40, 0x80)\n      callvalue\n      dup1\n      iszero\n      tag_1\n      jumpi\n      0x00\n      dup1\n      revert\n    tag_1:\n      pop\n      jumpi(tag_2, lt(calldatasize, 0x04))\n      shr(0xe0, calldataload(0x00))\n      dup1\n      0x481c6a75\n      gt\n      tag_33\n      jumpi\n      dup1\n      0x95d89b41\n      gt\n      tag_34\n      jumpi\n      dup1\n      0xc4d66de8\n      gt\n      tag_35\n      jumpi\n      dup1\n      0xc4d66de8\n      eq\n      tag_29\n      jumpi\n      dup1\n      0xd505accf\n      eq\n      tag_30\n      jumpi\n      dup1\n      0xdd62ed3e\n      eq\n      tag_31\n      jumpi\n      dup1\n      0xee99205c\n      eq\n      tag_32\n      jumpi\n      jump(tag_2)\n    tag_35:\n      dup1\n      0x95d89b41\n      eq\n      tag_25\n      jumpi\n      dup1\n      0x9ce110d7\n      eq\n      tag_26\n      jumpi\n      dup1\n      0xa457c2d7\n      eq\n      tag_27\n      jumpi\n      dup1\n      0xa9059cbb\n      eq\n      tag_28\n      jumpi\n      jump(tag_2)\n    tag_34:\n      dup1\n      0x73c69eb7\n      gt\n      tag_36\n      jumpi\n      dup1\n      0x73c69eb7\n      eq\n      tag_21\n      jumpi\n      dup1\n      0x7965d56d\n      eq\n      tag_22\n      jumpi\n      dup1\n      0x7ecebe00\n      eq\n      tag_23\n      jumpi\n      dup1\n      0x9358928b\n      eq\n      tag_24\n      jumpi\n      jump(tag_2)\n    tag_36:\n      dup1\n      0x481c6a75\n      eq\n      tag_18\n      jumpi\n      dup1\n      0x5a96ac0a\n      eq\n      tag_19\n      jumpi\n      dup1\n      0x70a08231\n      eq\n      tag_20\n      jumpi\n      jump(tag_2)\n    tag_33:\n      dup1\n      0x2986c0e5\n      gt\n      tag_37\n      jumpi\n      dup1\n      0x3644e515\n      gt\n      tag_38\n      jumpi\n      dup1\n      0x3644e515\n      eq\n      tag_14\n      jumpi\n      dup1\n      0x39509351\n      eq\n      tag_15\n      jumpi\n      dup1\n      0x40a5737f\n      eq\n      tag_16\n      jumpi\n      dup1\n      0x46f68ee9\n      eq\n      tag_17\n      jumpi\n      jump(tag_2)\n    tag_38:\n      dup1\n      0x2986c0e5\n      eq\n      tag_10\n      jumpi\n      dup1\n      0x2df75cb1\n      eq\n      tag_11\n      jumpi\n      dup1\n      0x30adf81f\n      eq\n      tag_12\n      jumpi\n      dup1\n      0x313ce567\n      eq\n      tag_13\n      jumpi\n      jump(tag_2)\n    tag_37:\n      dup1\n      0x095ea7b3\n      gt\n      tag_39\n      jumpi\n      dup1\n      0x095ea7b3\n      eq\n      tag_6\n      jumpi\n      dup1\n      0x18160ddd\n      eq\n      tag_7\n      jumpi\n      dup1\n      0x1bd39674\n      eq\n      tag_8\n      jumpi\n      dup1\n      0x23b872dd\n      eq\n      tag_9\n      jumpi\n      jump(tag_2)\n    tag_39:\n      dup1\n      0x058ecdb4\n      eq\n      tag_3\n      jumpi\n      dup1\n      0x06fdde03\n      eq\n      tag_4\n      jumpi\n      dup1\n      0x089208d8\n      eq\n      tag_5\n      jumpi\n    tag_2:\n      0x00\n      dup1\n      revert\n        /* \"contracts/sOHM.sol\":4675:5544  function rebase( uint256 profit_, uint epoch_ ) public onlyStakingContract() returns ( uint256 ) {... */\n    tag_3:\n      tag_40\n      0x04\n      dup1\n      calldatasize\n      sub\n      0x40\n      dup2\n      lt\n      iszero\n      tag_41\n      jumpi\n      0x00\n      dup1\n      revert\n    tag_41:\n      dup2\n      add\n      swap1\n      dup1\n      dup1\n      calldataload\n      swap1\n      0x20\n      add\n      swap1\n      swap3\n      swap2\n      swap1\n      dup1\n      calldataload\n      swap1\n      0x20\n      add\n      swap1\n      swap3\n      swap2\n      swap1\n      pop\n      pop\n      pop\n      tag_42\n      jump\t// in\n    tag_40:\n      mload(0x40)\n      dup1\n      dup3\n      dup2\n      mstore\n      0x20\n      add\n      swap2\n      pop\n      pop\n      mload(0x40)\n      dup1\n      swap2\n      sub\n      swap1\n      return\n        /* \"contracts/types/ERC20.sol\":1286:1361  function name() public view returns (string memory) {... */\n    tag_4:\n      tag_43\n      tag_44\n      jump\t// in\n    tag_43:\n      mload(0x40)\n      dup1\n      dup1\n      0x20\n      add\n      dup3\n      dup2\n      sub\n      dup3\n      mstore\n      dup4\n      dup2\n      dup2\n      mload\n      dup2\n      mstore\n      0x20\n      add\n      swap2\n      pop\n      dup1\n      mload\n      swap1\n      0x20\n      add\n      swap1\n      dup1\n      dup4\n      dup4\n      0x00\n    tag_45:\n      dup4\n      dup2\n      lt\n      iszero\n      tag_47\n      jumpi\n      dup1\n      dup3\n      add\n      mload\n      dup2\n      dup5\n      add\n      mstore\n      0x20\n      dup2\n      add\n      swap1\n      pop\n      jump(tag_45)\n    tag_47:\n      pop\n      pop\n      pop\n      pop\n      swap1\n      pop\n      swap1\n      dup2\n      add\n      swap1\n      0x1f\n      and\n      dup1\n      iszero\n      tag_48\n      jumpi\n      dup1\n      dup3\n      sub\n      dup1\n      mload\n      0x01\n      dup4\n      0x20\n      sub\n      0x0100\n      exp\n      sub\n      not\n      and\n      dup2\n      mstore\n      0x20\n      add\n      swap2\n      pop\n    tag_48:\n      pop\n      swap3\n      pop\n      pop\n      pop\n      mload(0x40)\n      dup1\n      swap2\n      sub\n      swap1\n      return\n        /* \"contracts/sOHM.sol\":1511:1667  function renounceManagement() public virtual override onlyManager() {... */\n    tag_5:\n      tag_49\n      tag_50\n      jump\t// in\n    tag_49:\n      stop\n        /* \"contracts/sOHM.sol\":8153:8375  function approve( address spender, uint256 value ) public override returns (bool) {... */\n    tag_6:\n      tag_51\n      0x04\n      dup1\n      calldatasize\n      sub\n      0x40\n      dup2\n      lt\n      iszero\n      tag_52\n      jumpi\n      0x00\n      dup1\n      revert\n    tag_52:\n      dup2\n      add\n      swap1\n      dup1\n      dup1\n      calldataload\n      0xffffffffffffffffffffffffffffffffffffffff\n      and\n      swap1\n      0x20\n      add\n      swap1\n      swap3\n      swap2\n      swap1\n      dup1\n      calldataload\n      swap1\n      0x20\n      add\n      swap1\n      swap3\n      swap2\n      swap1\n      pop\n      pop\n      pop\n      tag_53\n      jump\t// in\n    tag_51:\n      mload(0x40)\n      dup1\n      dup3\n      iszero\n      iszero\n      dup2\n      mstore\n      0x20\n      add\n      swap2\n      pop\n      pop\n      mload(0x40)\n      dup1\n      swap2\n      sub\n      swap1\n      return\n        /* \"contracts/types/ERC20.sol\":2334:2426  function totalSupply() public view override returns (uint256) {... */\n    tag_7:\n      tag_54\n      tag_55\n      jump\t// in\n    tag_54:\n      mload(0x40)\n      dup1\n      dup3\n      dup2\n      mstore\n      0x20\n      add\n      swap2\n      pop\n      pop\n      mload(0x40)\n      dup1\n      swap2\n      sub\n      swap1\n      return\n        /* \"contracts/sOHM.sol\":6568:6690  function gonsForBalance( uint amount ) public view returns ( uint ) {... */\n    tag_8:\n      tag_56\n      0x04\n      dup1\n      calldatasize\n      sub\n      0x20\n      dup2\n      lt\n      iszero\n      tag_57\n      jumpi\n      0x00\n      dup1\n      revert\n    tag_57:\n      dup2\n      add\n      swap1\n      dup1\n      dup1\n      calldataload\n      swap1\n      0x20\n      add\n      swap1\n      swap3\n      swap2\n      swap1\n      pop\n      pop\n      pop\n      tag_58\n      jump\t// in\n    tag_56:\n      mload(0x40)\n      dup1\n      dup3\n      dup2\n      mstore\n      0x20\n      add\n      swap2\n      pop\n      pop\n      mload(0x40)\n      dup1\n      swap2\n      sub\n      swap1\n      return\n        /* \"contracts/sOHM.sol\":7620:8147  function transferFrom( address from, address to, uint256 value ) public override returns ( bool ) {... */\n    tag_9:\n      tag_59\n      0x04\n      dup1\n      calldatasize\n      sub\n      0x60\n      dup2\n      lt\n      iszero\n      tag_60\n      jumpi\n      0x00\n      dup1\n      revert\n    tag_60:\n      dup2\n      add\n      swap1\n      dup1\n      dup1\n      calldataload\n      0xffffffffffffffffffffffffffffffffffffffff\n      and\n      swap1\n      0x20\n      add\n      swap1\n      swap3\n      swap2\n      swap1\n      dup1\n      calldataload\n      0xffffffffffffffffffffffffffffffffffffffff\n      and\n      swap1\n      0x20\n      add\n      swap1\n      swap3\n      swap2\n      swap1\n      dup1\n      calldataload\n      swap1\n      0x20\n      add\n      swap1\n      swap3\n      swap2\n      swap1\n      pop\n      pop\n      pop\n      tag_61\n      jump\t// in\n    tag_59:\n      mload(0x40)\n      dup1\n      dup3\n      iszero\n      iszero\n      dup2\n      mstore\n      0x20\n      add\n      swap2\n      pop\n      pop\n      mload(0x40)\n      dup1\n      swap2\n      sub\n      swap1\n      return\n        /* \"contracts/sOHM.sol\":6998:7091  function index() public view returns ( uint ) {... */\n    tag_10:\n      tag_62\n      tag_63\n      jump\t// in\n    tag_62:\n      mload(0x40)\n      dup1\n      dup3\n      dup2\n      mstore\n      0x20\n      add\n      swap2\n      pop\n      pop\n      mload(0x40)\n      dup1\n      swap2\n      sub\n      swap1\n      return\n        /* \"contracts/sOHM.sol\":2900:2917  uint public INDEX */\n    tag_11:\n      tag_64\n      tag_65\n      jump\t// in\n    tag_64:\n      mload(0x40)\n      dup1\n      dup3\n      dup2\n      mstore\n      0x20\n      add\n      swap2\n      pop\n      pop\n      mload(0x40)\n      dup1\n      swap2\n      sub\n      swap1\n      return\n        /* \"contracts/types/ERC20Permit.sol\":438:546  bytes32 public constant PERMIT_TYPEHASH = 0x6e71edae12b1b97f4d1f60370fef10105fa2faae0126114a169c64845d6126c9 */\n    tag_12:\n      tag_66\n      tag_67\n      jump\t// in\n    tag_66:\n      mload(0x40)\n      dup1\n      dup3\n      dup2\n      mstore\n      0x20\n      add\n      swap2\n      pop\n      pop\n      mload(0x40)\n      dup1\n      swap2\n      sub\n      swap1\n      return\n        /* \"contracts/types/ERC20.sol\":2184:2259  function decimals() public view returns (uint8) {... */\n    tag_13:\n      tag_68\n      tag_69\n      jump\t// in\n    tag_68:\n      mload(0x40)\n      dup1\n      dup3\n      0xff\n      and\n      dup2\n      mstore\n      0x20\n      add\n      swap2\n      pop\n      pop\n      mload(0x40)\n      dup1\n      swap2\n      sub\n      swap1\n      return\n        /* \"contracts/types/ERC20Permit.sol\":553:584  bytes32 public DOMAIN_SEPARATOR */\n    tag_14:\n      tag_70\n      tag_71\n      jump\t// in\n    tag_70:\n      mload(0x40)\n      dup1\n      dup3\n      dup2\n      mstore\n      0x20\n      add\n      swap2\n      pop\n      pop\n      mload(0x40)\n      dup1\n      swap2\n      sub\n      swap1\n      return\n        /* \"contracts/sOHM.sol\":8618:8936  function increaseAllowance( address spender, uint256 addedValue ) public override returns (bool) {... */\n    tag_15:\n      tag_72\n      0x04\n      dup1\n      calldatasize\n      sub\n      0x40\n      dup2\n      lt\n      iszero\n      tag_73\n      jumpi\n      0x00\n      dup1\n      revert\n    tag_73:\n      dup2\n      add\n      swap1\n      dup1\n      dup1\n      calldataload\n      0xffffffffffffffffffffffffffffffffffffffff\n      and\n      swap1\n      0x20\n      add\n      swap1\n      swap3\n      swap2\n      swap1\n      dup1\n      calldataload\n      swap1\n      0x20\n      add\n      swap1\n      swap3\n      swap2\n      swap1\n      pop\n      pop\n      pop\n      tag_74\n      jump\t// in\n    tag_72:\n      mload(0x40)\n      dup1\n      dup3\n      iszero\n      iszero\n      dup2\n      mstore\n      0x20\n      add\n      swap2\n      pop\n      pop\n      mload(0x40)\n      dup1\n      swap2\n      sub\n      swap1\n      return\n        /* \"contracts/sOHM.sol\":4337:4511  function setIndex( uint _INDEX ) external onlyManager() returns ( bool ) {... */\n    tag_16:\n      tag_75\n      0x04\n      dup1\n      calldatasize\n      sub\n      0x20\n      dup2\n      lt\n      iszero\n      tag_76\n      jumpi\n      0x00\n      dup1\n      revert\n    tag_76:\n      dup2\n      add\n      swap1\n      dup1\n      dup1\n      calldataload\n      swap1\n      0x20\n      add\n      swap1\n      swap3\n      swap2\n      swap1\n      pop\n      pop\n      pop\n      tag_77\n      jump\t// in\n    tag_75:\n      mload(0x40)\n      dup1\n      dup3\n      iszero\n      iszero\n      dup2\n      mstore\n      0x20\n      add\n      swap2\n      pop\n      pop\n      mload(0x40)\n      dup1\n      swap2\n      sub\n      swap1\n      return\n        /* \"contracts/sOHM.sol\":1673:1930  function pushManagement( address newOwner_ ) public virtual override onlyManager() {... */\n    tag_17:\n      tag_78\n      0x04\n      dup1\n      calldatasize\n      sub\n      0x20\n      dup2\n      lt\n      iszero\n      tag_79\n      jumpi\n      0x00\n      dup1\n      revert\n    tag_79:\n      dup2\n      add\n      swap1\n      dup1\n      dup1\n      calldataload\n      0xffffffffffffffffffffffffffffffffffffffff\n      and\n      swap1\n      0x20\n      add\n      swap1\n      swap3\n      swap2\n      swap1\n      pop\n      pop\n      pop\n      tag_80\n      jump\t// in\n    tag_78:\n      stop\n        /* \"contracts/sOHM.sol\":1293:1381  function manager() public view override returns (address) {... */\n    tag_18:\n      tag_81\n      tag_82\n      jump\t// in\n    tag_81:\n      mload(0x40)\n      dup1\n      dup3\n      0xffffffffffffffffffffffffffffffffffffffff\n      and\n      dup2\n      mstore\n      0x20\n      add\n      swap2\n      pop\n      pop\n      mload(0x40)\n      dup1\n      swap2\n      sub\n      swap1\n      return\n        /* \"contracts/sOHM.sol\":1940:2157  function pullManagement() public virtual override {... */\n    tag_19:\n      tag_83\n      tag_84\n      jump\t// in\n    tag_83:\n      stop\n        /* \"contracts/sOHM.sol\":6420:6562  function balanceOf( address who ) public view override returns ( uint256 ) {... */\n    tag_20:\n      tag_85\n      0x04\n      dup1\n      calldatasize\n      sub\n      0x20\n      dup2\n      lt\n      iszero\n      tag_86\n      jumpi\n      0x00\n      dup1\n      revert\n    tag_86:\n      dup2\n      add\n      swap1\n      dup1\n      dup1\n      calldataload\n      0xffffffffffffffffffffffffffffffffffffffff\n      and\n      swap1\n      0x20\n      add\n      swap1\n      swap3\n      swap2\n      swap1\n      pop\n      pop\n      pop\n      tag_87\n      jump\t// in\n    tag_85:\n      mload(0x40)\n      dup1\n      dup3\n      dup2\n      mstore\n      0x20\n      add\n      swap2\n      pop\n      pop\n      mload(0x40)\n      dup1\n      swap2\n      sub\n      swap1\n      return\n        /* \"contracts/sOHM.sol\":2870:2893  Rebase[] public rebases */\n    tag_21:\n      tag_88\n      0x04\n      dup1\n      calldatasize\n      sub\n      0x20\n      dup2\n      lt\n      iszero\n      tag_89\n      jumpi\n      0x00\n      dup1\n      revert\n    tag_89:\n      dup2\n      add\n      swap1\n      dup1\n      dup1\n      calldataload\n      swap1\n      0x20\n      add\n      swap1\n      swap3\n      swap2\n      swap1\n      pop\n      pop\n      pop\n      tag_90\n      jump\t// in\n    tag_88:\n      mload(0x40)\n      dup1\n      dup9\n      dup2\n      mstore\n      0x20\n      add\n      dup8\n      dup2\n      mstore\n      0x20\n      add\n      dup7\n      dup2\n      mstore\n      0x20\n      add\n      dup6\n      dup2\n      mstore\n      0x20\n      add\n      dup5\n      dup2\n      mstore\n      0x20\n      add\n      dup4\n      dup2\n      mstore\n      0x20\n      add\n      dup3\n      dup2\n      mstore\n      0x20\n      add\n      swap8\n      pop\n      pop\n      pop\n      pop\n      pop\n      pop\n      pop\n      pop\n      mload(0x40)\n      dup1\n      swap2\n      sub\n      swap1\n      return\n        /* \"contracts/sOHM.sol\":6696:6814  function balanceForGons( uint gons ) public view returns ( uint ) {... */\n    tag_22:\n      tag_91\n      0x04\n      dup1\n      calldatasize\n      sub\n      0x20\n      dup2\n      lt\n      iszero\n      tag_92\n      jumpi\n      0x00\n      dup1\n      revert\n    tag_92:\n      dup2\n      add\n      swap1\n      dup1\n      dup1\n      calldataload\n      swap1\n      0x20\n      add\n      swap1\n      swap3\n      swap2\n      swap1\n      pop\n      pop\n      pop\n      tag_93\n      jump\t// in\n    tag_91:\n      mload(0x40)\n      dup1\n      dup3\n      dup2\n      mstore\n      0x20\n      add\n      swap2\n      pop\n      pop\n      mload(0x40)\n      dup1\n      swap2\n      sub\n      swap1\n      return\n        /* \"contracts/types/ERC20Permit.sol\":1884:2002  function nonces(address owner) public view override returns (uint256) {... */\n    tag_23:\n      tag_94\n      0x04\n      dup1\n      calldatasize\n      sub\n      0x20\n      dup2\n      lt\n      iszero\n      tag_95\n      jumpi\n      0x00\n      dup1\n      revert\n    tag_95:\n      dup2\n      add\n      swap1\n      dup1\n      dup1\n      calldataload\n      0xffffffffffffffffffffffffffffffffffffffff\n      and\n      swap1\n      0x20\n      add\n      swap1\n      swap3\n      swap2\n      swap1\n      pop\n      pop\n      pop\n      tag_96\n      jump\t// in\n    tag_94:\n      mload(0x40)\n      dup1\n      dup3\n      dup2\n      mstore\n      0x20\n      add\n      swap2\n      pop\n      pop\n      mload(0x40)\n      dup1\n      swap2\n      sub\n      swap1\n      return\n        /* \"contracts/sOHM.sol\":6862:6992  function circulatingSupply() public view returns ( uint ) {... */\n    tag_24:\n      tag_97\n      tag_98\n      jump\t// in\n    tag_97:\n      mload(0x40)\n      dup1\n      dup3\n      dup2\n      mstore\n      0x20\n      add\n      swap2\n      pop\n      pop\n      mload(0x40)\n      dup1\n      swap2\n      sub\n      swap1\n      return\n        /* \"contracts/types/ERC20.sol\":1487:1566  function symbol() public view returns (string memory) {... */\n    tag_25:\n      tag_99\n      tag_100\n      jump\t// in\n    tag_99:\n      mload(0x40)\n      dup1\n      dup1\n      0x20\n      add\n      dup3\n      dup2\n      sub\n      dup3\n      mstore\n      dup4\n      dup2\n      dup2\n      mload\n      dup2\n      mstore\n      0x20\n      add\n      swap2\n      pop\n      dup1\n      mload\n      swap1\n      0x20\n      add\n      swap1\n      dup1\n      dup4\n      dup4\n      0x00\n    tag_101:\n      dup4\n      dup2\n      lt\n      iszero\n      tag_103\n      jumpi\n      dup1\n      dup3\n      add\n      mload\n      dup2\n      dup5\n      add\n      mstore\n      0x20\n      dup2\n      add\n      swap1\n      pop\n      jump(tag_101)\n    tag_103:\n      pop\n      pop\n      pop\n      pop\n      swap1\n      pop\n      swap1\n      dup2\n      add\n      swap1\n      0x1f\n      and\n      dup1\n      iszero\n      tag_104\n      jumpi\n      dup1\n      dup3\n      sub\n      dup1\n      mload\n      0x01\n      dup4\n      0x20\n      sub\n      0x0100\n      exp\n      sub\n      not\n      and\n      dup2\n      mstore\n      0x20\n      add\n      swap2\n      pop\n    tag_104:\n      pop\n      swap3\n      pop\n      pop\n      pop\n      mload(0x40)\n      dup1\n      swap2\n      sub\n      swap1\n      return\n        /* \"contracts/sOHM.sol\":2384:2410  address public initializer */\n    tag_26:\n      tag_105\n      tag_106\n      jump\t// in\n    tag_105:\n      mload(0x40)\n      dup1\n      dup3\n      0xffffffffffffffffffffffffffffffffffffffff\n      and\n      dup2\n      mstore\n      0x20\n      add\n      swap2\n      pop\n      pop\n      mload(0x40)\n      dup1\n      swap2\n      sub\n      swap1\n      return\n        /* \"contracts/sOHM.sol\":8942:9437  function decreaseAllowance( address spender, uint256 subtractedValue ) public override returns (bool) {... */\n    tag_27:\n      tag_107\n      0x04\n      dup1\n      calldatasize\n      sub\n      0x40\n      dup2\n      lt\n      iszero\n      tag_108\n      jumpi\n      0x00\n      dup1\n      revert\n    tag_108:\n      dup2\n      add\n      swap1\n      dup1\n      dup1\n      calldataload\n      0xffffffffffffffffffffffffffffffffffffffff\n      and\n      swap1\n      0x20\n      add\n      swap1\n      swap3\n      swap2\n      swap1\n      dup1\n      calldataload\n      swap1\n      0x20\n      add\n      swap1\n      swap3\n      swap2\n      swap1\n      pop\n      pop\n      pop\n      tag_109\n      jump\t// in\n    tag_107:\n      mload(0x40)\n      dup1\n      dup3\n      iszero\n      iszero\n      dup2\n      mstore\n      0x20\n      add\n      swap2\n      pop\n      pop\n      mload(0x40)\n      dup1\n      swap2\n      sub\n      swap1\n      return\n        /* \"contracts/sOHM.sol\":7097:7455  function transfer( address to, uint256 value ) public override returns (bool) {... */\n    tag_28:\n      tag_110\n      0x04\n      dup1\n      calldatasize\n      sub\n      0x40\n      dup2\n      lt\n      iszero\n      tag_111\n      jumpi\n      0x00\n      dup1\n      revert\n    tag_111:\n      dup2\n      add\n      swap1\n      dup1\n      dup1\n      calldataload\n      0xffffffffffffffffffffffffffffffffffffffff\n      and\n      swap1\n      0x20\n      add\n      swap1\n      swap3\n      swap2\n      swap1\n      dup1\n      calldataload\n      swap1\n      0x20\n      add\n      swap1\n      swap3\n      swap2\n      swap1\n      pop\n      pop\n      pop\n      tag_112\n      jump\t// in\n    tag_110:\n      mload(0x40)\n      dup1\n      dup3\n      iszero\n      iszero\n      dup2\n      mstore\n      0x20\n      add\n      swap2\n      pop\n      pop\n      mload(0x40)\n      dup1\n      swap2\n      sub\n      swap1\n      return\n        /* \"contracts/sOHM.sol\":3860:4331  function initialize( address stakingContract_ ) external returns ( bool ) {... */\n    tag_29:\n      tag_113\n      0x04\n      dup1\n      calldatasize\n      sub\n      0x20\n      dup2\n      lt\n      iszero\n      tag_114\n      jumpi\n      0x00\n      dup1\n      revert\n    tag_114:\n      dup2\n      add\n      swap1\n      dup1\n      dup1\n      calldataload\n      0xffffffffffffffffffffffffffffffffffffffff\n      and\n      swap1\n      0x20\n      add\n      swap1\n      swap3\n      swap2\n      swap1\n      pop\n      pop\n      pop\n      tag_115\n      jump\t// in\n    tag_113:\n      mload(0x40)\n      dup1\n      dup3\n      iszero\n      iszero\n      dup2\n      mstore\n      0x20\n      add\n      swap2\n      pop\n      pop\n      mload(0x40)\n      dup1\n      swap2\n      sub\n      swap1\n      return\n        /* \"contracts/types/ERC20Permit.sol\":1072:1821  function permit(... */\n    tag_30:\n      tag_116\n      0x04\n      dup1\n      calldatasize\n      sub\n      0xe0\n      dup2\n      lt\n      iszero\n      tag_117\n      jumpi\n      0x00\n      dup1\n      revert\n    tag_117:\n      dup2\n      add\n      swap1\n      dup1\n      dup1\n      calldataload\n      0xffffffffffffffffffffffffffffffffffffffff\n      and\n      swap1\n      0x20\n      add\n      swap1\n      swap3\n      swap2\n      swap1\n      dup1\n      calldataload\n      0xffffffffffffffffffffffffffffffffffffffff\n      and\n      swap1\n      0x20\n      add\n      swap1\n      swap3\n      swap2\n      swap1\n      dup1\n      calldataload\n      swap1\n      0x20\n      add\n      swap1\n      swap3\n      swap2\n      swap1\n      dup1\n      calldataload\n      swap1\n      0x20\n      add\n      swap1\n      swap3\n      swap2\n      swap1\n      dup1\n      calldataload\n      0xff\n      and\n      swap1\n      0x20\n      add\n      swap1\n      swap3\n      swap2\n      swap1\n      dup1\n      calldataload\n      swap1\n      0x20\n      add\n      swap1\n      swap3\n      swap2\n      swap1\n      dup1\n      calldataload\n      swap1\n      0x20\n      add\n      swap1\n      swap3\n      swap2\n      swap1\n      pop\n      pop\n      pop\n      tag_118\n      jump\t// in\n    tag_116:\n      stop\n        /* \"contracts/sOHM.sol\":7461:7614  function allowance( address owner_, address spender ) public view override returns ( uint256 ) {... */\n    tag_31:\n      tag_119\n      0x04\n      dup1\n      calldatasize\n      sub\n      0x40\n      dup2\n      lt\n      iszero\n      tag_120\n      jumpi\n      0x00\n      dup1\n      revert\n    tag_120:\n      dup2\n      add\n      swap1\n      dup1\n      dup1\n      calldataload\n      0xffffffffffffffffffffffffffffffffffffffff\n      and\n      swap1\n      0x20\n      add\n      swap1\n      swap3\n      swap2\n      swap1\n      dup1\n      calldataload\n      0xffffffffffffffffffffffffffffffffffffffff\n      and\n      swap1\n      0x20\n      add\n      swap1\n      swap3\n      swap2\n      swap1\n      pop\n      pop\n      pop\n      tag_121\n      jump\t// in\n    tag_119:\n      mload(0x40)\n      dup1\n      dup3\n      dup2\n      mstore\n      0x20\n      add\n      swap2\n      pop\n      pop\n      mload(0x40)\n      dup1\n      swap2\n      sub\n      swap1\n      return\n        /* \"contracts/sOHM.sol\":2348:2378  address public stakingContract */\n    tag_32:\n      tag_122\n      tag_123\n      jump\t// in\n    tag_122:\n      mload(0x40)\n      dup1\n      dup3\n      0xffffffffffffffffffffffffffffffffffffffff\n      and\n      dup2\n      mstore\n      0x20\n      add\n      swap2\n      pop\n      pop\n      mload(0x40)\n      dup1\n      swap2\n      sub\n      swap1\n      return\n        /* \"contracts/sOHM.sol\":4675:5544  function rebase( uint256 profit_, uint epoch_ ) public onlyStakingContract() returns ( uint256 ) {... */\n    tag_42:\n        /* \"contracts/sOHM.sol\":4762:4769  uint256 */\n      0x00\n        /* \"contracts/sOHM.sol\":2307:2322  stakingContract */\n      0x0a\n      0x00\n      swap1\n      sload\n      swap1\n      0x0100\n      exp\n      swap1\n      div\n      0xffffffffffffffffffffffffffffffffffffffff\n      and\n        /* \"contracts/sOHM.sol\":2293:2322  msg.sender == stakingContract */\n      0xffffffffffffffffffffffffffffffffffffffff\n      and\n        /* \"contracts/sOHM.sol\":2293:2303  msg.sender */\n      caller\n        /* \"contracts/sOHM.sol\":2293:2322  msg.sender == stakingContract */\n      0xffffffffffffffffffffffffffffffffffffffff\n      and\n      eq\n        /* \"contracts/sOHM.sol\":2284:2324  require( msg.sender == stakingContract ) */\n      tag_126\n      jumpi\n      0x00\n      dup1\n      revert\n    tag_126:\n        /* \"contracts/sOHM.sol\":4782:4802  uint256 rebaseAmount */\n      0x00\n        /* \"contracts/sOHM.sol\":4812:4838  uint256 circulatingSupply_ */\n      dup1\n        /* \"contracts/sOHM.sol\":4841:4860  circulatingSupply() */\n      tag_128\n        /* \"contracts/sOHM.sol\":4841:4858  circulatingSupply */\n      tag_98\n        /* \"contracts/sOHM.sol\":4841:4860  circulatingSupply() */\n      jump\t// in\n    tag_128:\n        /* \"contracts/sOHM.sol\":4812:4860  uint256 circulatingSupply_ = circulatingSupply() */\n      swap1\n      pop\n        /* \"contracts/sOHM.sol\":4887:4888  0 */\n      0x00\n        /* \"contracts/sOHM.sol\":4876:4883  profit_ */\n      dup6\n        /* \"contracts/sOHM.sol\":4876:4888  profit_ == 0 */\n      eq\n        /* \"contracts/sOHM.sol\":4871:5235  if ( profit_ == 0 ) {... */\n      iszero\n      tag_129\n      jumpi\n        /* \"contracts/sOHM.sol\":4921:4927  epoch_ */\n      dup4\n        /* \"contracts/sOHM.sol\":4910:4960  LogSupply( epoch_, block.timestamp, _totalSupply ) */\n      0x917acfbe39be6509ccf7fecb66a7e42ce2be1083c2d7dd3b9b7491dabddb8da4\n        /* \"contracts/sOHM.sol\":4929:4944  block.timestamp */\n      timestamp\n        /* \"contracts/sOHM.sol\":4946:4958  _totalSupply */\n      sload(0x02)\n        /* \"contracts/sOHM.sol\":4910:4960  LogSupply( epoch_, block.timestamp, _totalSupply ) */\n      mload(0x40)\n      dup1\n      dup4\n      dup2\n      mstore\n      0x20\n      add\n      dup3\n      dup2\n      mstore\n      0x20\n      add\n      swap3\n      pop\n      pop\n      pop\n      mload(0x40)\n      dup1\n      swap2\n      sub\n      swap1\n      log2\n        /* \"contracts/sOHM.sol\":4990:4996  epoch_ */\n      dup4\n        /* \"contracts/sOHM.sol\":4979:5010  LogRebase( epoch_, 0, index() ) */\n      0x6012dbce857565c4a40974aa5de8373a761fc429077ef0c8c8611d1e20d63fb2\n        /* \"contracts/sOHM.sol\":4998:4999  0 */\n      0x00\n        /* \"contracts/sOHM.sol\":5001:5008  index() */\n      tag_130\n        /* \"contracts/sOHM.sol\":5001:5006  index */\n      tag_63\n        /* \"contracts/sOHM.sol\":5001:5008  index() */\n      jump\t// in\n    tag_130:\n        /* \"contracts/sOHM.sol\":4979:5010  LogRebase( epoch_, 0, index() ) */\n      mload(0x40)\n      dup1\n      dup4\n      dup2\n      mstore\n      0x20\n      add\n      dup3\n      dup2\n      mstore\n      0x20\n      add\n      swap3\n      pop\n      pop\n      pop\n      mload(0x40)\n      dup1\n      swap2\n      sub\n      swap1\n      log2\n        /* \"contracts/sOHM.sol\":5031:5043  _totalSupply */\n      sload(0x02)\n        /* \"contracts/sOHM.sol\":5024:5043  return _totalSupply */\n      swap3\n      pop\n      pop\n      pop\n      jump(tag_127)\n        /* \"contracts/sOHM.sol\":4871:5235  if ( profit_ == 0 ) {... */\n    tag_129:\n        /* \"contracts/sOHM.sol\":5086:5087  0 */\n      0x00\n        /* \"contracts/sOHM.sol\":5065:5083  circulatingSupply_ */\n      dup2\n        /* \"contracts/sOHM.sol\":5065:5087  circulatingSupply_ > 0 */\n      gt\n        /* \"contracts/sOHM.sol\":5060:5235  if ( circulatingSupply_ > 0 ){... */\n      iszero\n      tag_132\n      jumpi\n        /* \"contracts/sOHM.sol\":5118:5171  profit_.mul( _totalSupply ).div( circulatingSupply_ ) */\n      tag_133\n        /* \"contracts/sOHM.sol\":5151:5169  circulatingSupply_ */\n      dup2\n        /* \"contracts/sOHM.sol\":5118:5145  profit_.mul( _totalSupply ) */\n      tag_134\n        /* \"contracts/sOHM.sol\":5131:5143  _totalSupply */\n      sload(0x02)\n        /* \"contracts/sOHM.sol\":5118:5125  profit_ */\n      dup9\n        /* \"contracts/sOHM.sol\":5118:5129  profit_.mul */\n      tag_135\n      swap1\n        /* \"contracts/sOHM.sol\":5118:5145  profit_.mul( _totalSupply ) */\n      swap2\n      swap1\n      0xffffffff\n      and\n      jump\t// in\n    tag_134:\n        /* \"contracts/sOHM.sol\":5118:5149  profit_.mul( _totalSupply ).div */\n      tag_124\n      swap1\n        /* \"contracts/sOHM.sol\":5118:5171  profit_.mul( _totalSupply ).div( circulatingSupply_ ) */\n      swap2\n      swap1\n      0xffffffff\n      and\n      jump\t// in\n    tag_133:\n        /* \"contracts/sOHM.sol\":5103:5171  rebaseAmount = profit_.mul( _totalSupply ).div( circulatingSupply_ ) */\n      swap2\n      pop\n        /* \"contracts/sOHM.sol\":5060:5235  if ( circulatingSupply_ > 0 ){... */\n      jump(tag_136)\n    tag_132:\n        /* \"contracts/sOHM.sol\":5217:5224  profit_ */\n      dup5\n        /* \"contracts/sOHM.sol\":5202:5224  rebaseAmount = profit_ */\n      swap2\n      pop\n        /* \"contracts/sOHM.sol\":5060:5235  if ( circulatingSupply_ > 0 ){... */\n    tag_136:\n        /* \"contracts/sOHM.sol\":5260:5292  _totalSupply.add( rebaseAmount ) */\n      tag_137\n        /* \"contracts/sOHM.sol\":5278:5290  rebaseAmount */\n      dup3\n        /* \"contracts/sOHM.sol\":5260:5272  _totalSupply */\n      sload(0x02)\n        /* \"contracts/sOHM.sol\":5260:5276  _totalSupply.add */\n      tag_138\n      swap1\n        /* \"contracts/sOHM.sol\":5260:5292  _totalSupply.add( rebaseAmount ) */\n      swap2\n      swap1\n      0xffffffff\n      and\n      jump\t// in\n    tag_137:\n        /* \"contracts/sOHM.sol\":5245:5257  _totalSupply */\n      0x02\n        /* \"contracts/sOHM.sol\":5245:5292  _totalSupply = _totalSupply.add( rebaseAmount ) */\n      dup2\n      swap1\n      sstore\n      pop\n        /* \"contracts/sOHM.sol\":3444:3445  0 */\n      0x00\n        /* \"contracts/sOHM.sol\":3435:3446  ~uint128(0) */\n      not\n        /* \"contracts/sOHM.sol\":5323:5333  MAX_SUPPLY */\n      0xffffffffffffffffffffffffffffffff\n      and\n        /* \"contracts/sOHM.sol\":5308:5320  _totalSupply */\n      sload(0x02)\n        /* \"contracts/sOHM.sol\":5308:5333  _totalSupply > MAX_SUPPLY */\n      gt\n        /* \"contracts/sOHM.sol\":5303:5386  if ( _totalSupply > MAX_SUPPLY ) {... */\n      iszero\n      tag_139\n      jumpi\n        /* \"contracts/sOHM.sol\":3444:3445  0 */\n      0x00\n        /* \"contracts/sOHM.sol\":3435:3446  ~uint128(0) */\n      not\n        /* \"contracts/sOHM.sol\":5365:5375  MAX_SUPPLY */\n      0xffffffffffffffffffffffffffffffff\n      and\n        /* \"contracts/sOHM.sol\":5350:5362  _totalSupply */\n      0x02\n        /* \"contracts/sOHM.sol\":5350:5375  _totalSupply = MAX_SUPPLY */\n      dup2\n      swap1\n      sstore\n      pop\n        /* \"contracts/sOHM.sol\":5303:5386  if ( _totalSupply > MAX_SUPPLY ) {... */\n    tag_139:\n        /* \"contracts/sOHM.sol\":5415:5445  TOTAL_GONS.div( _totalSupply ) */\n      tag_140\n        /* \"contracts/sOHM.sol\":5431:5443  _totalSupply */\n      sload(0x02)\n        /* \"contracts/sOHM.sol\":3032:3047  5000000 * 10**9 */\n      0x11c37937e08000\n        /* \"contracts/sOHM.sol\":2972:2973  0 */\n      0x00\n        /* \"contracts/sOHM.sol\":2963:2974  ~uint256(0) */\n      not\n        /* \"contracts/sOHM.sol\":3280:3318  MAX_UINT256 % INITIAL_FRAGMENTS_SUPPLY */\n      dup2\n      tag_141\n      jumpi\n      invalid\n    tag_141:\n      mod\n        /* \"contracts/sOHM.sol\":2972:2973  0 */\n      0x00\n        /* \"contracts/sOHM.sol\":2963:2974  ~uint256(0) */\n      not\n        /* \"contracts/sOHM.sol\":3265:3319  MAX_UINT256 - (MAX_UINT256 % INITIAL_FRAGMENTS_SUPPLY) */\n      sub\n        /* \"contracts/sOHM.sol\":5415:5429  TOTAL_GONS.div */\n      tag_124\n      swap1\n        /* \"contracts/sOHM.sol\":5415:5445  TOTAL_GONS.div( _totalSupply ) */\n      swap2\n      swap1\n      0xffffffff\n      and\n      jump\t// in\n    tag_140:\n        /* \"contracts/sOHM.sol\":5396:5412  _gonsPerFragment */\n      0x0e\n        /* \"contracts/sOHM.sol\":5396:5445  _gonsPerFragment = TOTAL_GONS.div( _totalSupply ) */\n      dup2\n      swap1\n      sstore\n      pop\n        /* \"contracts/sOHM.sol\":5456:5507  _storeRebase( circulatingSupply_, profit_, epoch_ ) */\n      tag_142\n        /* \"contracts/sOHM.sol\":5470:5488  circulatingSupply_ */\n      dup2\n        /* \"contracts/sOHM.sol\":5490:5497  profit_ */\n      dup7\n        /* \"contracts/sOHM.sol\":5499:5505  epoch_ */\n      dup7\n        /* \"contracts/sOHM.sol\":5456:5468  _storeRebase */\n      tag_143\n        /* \"contracts/sOHM.sol\":5456:5507  _storeRebase( circulatingSupply_, profit_, epoch_ ) */\n      jump\t// in\n    tag_142:\n      pop\n        /* \"contracts/sOHM.sol\":5525:5537  _totalSupply */\n      sload(0x02)\n        /* \"contracts/sOHM.sol\":5518:5537  return _totalSupply */\n      swap3\n      pop\n      pop\n      pop\n        /* \"contracts/sOHM.sol\":2334:2335  _ */\n    tag_127:\n        /* \"contracts/sOHM.sol\":4675:5544  function rebase( uint256 profit_, uint epoch_ ) public onlyStakingContract() returns ( uint256 ) {... */\n      swap3\n      swap2\n      pop\n      pop\n      jump\t// out\n        /* \"contracts/types/ERC20.sol\":1286:1361  function name() public view returns (string memory) {... */\n    tag_44:\n        /* \"contracts/types/ERC20.sol\":1323:1336  string memory */\n      0x60\n        /* \"contracts/types/ERC20.sol\":1351:1356  _name */\n      0x03\n        /* \"contracts/types/ERC20.sol\":1344:1356  return _name */\n      dup1\n      sload\n      0x01\n      dup2\n      0x01\n      and\n      iszero\n      0x0100\n      mul\n      sub\n      and\n      0x02\n      swap1\n      div\n      dup1\n      0x1f\n      add\n      0x20\n      dup1\n      swap2\n      div\n      mul\n      0x20\n      add\n      mload(0x40)\n      swap1\n      dup2\n      add\n      0x40\n      mstore\n      dup1\n      swap3\n      swap2\n      swap1\n      dup2\n      dup2\n      mstore\n      0x20\n      add\n      dup3\n      dup1\n      sload\n      0x01\n      dup2\n      0x01\n      and\n      iszero\n      0x0100\n      mul\n      sub\n      and\n      0x02\n      swap1\n      div\n      dup1\n      iszero\n      tag_145\n      jumpi\n      dup1\n      0x1f\n      lt\n      tag_146\n      jumpi\n      0x0100\n      dup1\n      dup4\n      sload\n      div\n      mul\n      dup4\n      mstore\n      swap2\n      0x20\n      add\n      swap2\n      jump(tag_145)\n    tag_146:\n      dup3\n      add\n      swap2\n      swap1\n      0x00\n      mstore\n      keccak256(0x00, 0x20)\n      swap1\n    tag_147:\n      dup2\n      sload\n      dup2\n      mstore\n      swap1\n      0x01\n      add\n      swap1\n      0x20\n      add\n      dup1\n      dup4\n      gt\n      tag_147\n      jumpi\n      dup3\n      swap1\n      sub\n      0x1f\n      and\n      dup3\n      add\n      swap2\n    tag_145:\n      pop\n      pop\n      pop\n      pop\n      pop\n      swap1\n      pop\n        /* \"contracts/types/ERC20.sol\":1286:1361  function name() public view returns (string memory) {... */\n      swap1\n      jump\t// out\n        /* \"contracts/sOHM.sol\":1511:1667  function renounceManagement() public virtual override onlyManager() {... */\n    tag_50:\n        /* \"contracts/sOHM.sol\":1439:1449  msg.sender */\n      caller\n        /* \"contracts/sOHM.sol\":1429:1449  _owner == msg.sender */\n      0xffffffffffffffffffffffffffffffffffffffff\n      and\n        /* \"contracts/sOHM.sol\":1429:1435  _owner */\n      0x08\n      0x00\n      swap1\n      sload\n      swap1\n      0x0100\n      exp\n      swap1\n      div\n      0xffffffffffffffffffffffffffffffffffffffff\n      and\n        /* \"contracts/sOHM.sol\":1429:1449  _owner == msg.sender */\n      0xffffffffffffffffffffffffffffffffffffffff\n      and\n      eq\n        /* \"contracts/sOHM.sol\":1420:1487  require( _owner == msg.sender, \"Ownable: caller is not the owner\" ) */\n      tag_149\n      jumpi\n      mload(0x40)\n      0x08c379a000000000000000000000000000000000000000000000000000000000\n      dup2\n      mstore\n      0x04\n      add\n      dup1\n      dup1\n      0x20\n      add\n      dup3\n      dup2\n      sub\n      dup3\n      mstore\n      0x20\n      dup2\n      mstore\n      0x20\n      add\n      dup1\n      0x4f776e61626c653a2063616c6c6572206973206e6f7420746865206f776e6572\n      dup2\n      mstore\n      pop\n      0x20\n      add\n      swap2\n      pop\n      pop\n      mload(0x40)\n      dup1\n      swap2\n      sub\n      swap1\n      revert\n    tag_149:\n        /* \"contracts/sOHM.sol\":1627:1628  0 */\n      0x00\n        /* \"contracts/sOHM.sol\":1594:1631  OwnershipPushed( _owner, address(0) ) */\n      0xffffffffffffffffffffffffffffffffffffffff\n      and\n        /* \"contracts/sOHM.sol\":1611:1617  _owner */\n      0x08\n      0x00\n      swap1\n      sload\n      swap1\n      0x0100\n      exp\n      swap1\n      div\n      0xffffffffffffffffffffffffffffffffffffffff\n      and\n        /* \"contracts/sOHM.sol\":1594:1631  OwnershipPushed( _owner, address(0) ) */\n      0xffffffffffffffffffffffffffffffffffffffff\n      and\n      0xea8258f2d9ddb679928cf34b78cf645b7feda9acc828e4dd82d014eaae270eba\n      mload(0x40)\n      mload(0x40)\n      dup1\n      swap2\n      sub\n      swap1\n      log3\n        /* \"contracts/sOHM.sol\":1658:1659  0 */\n      0x00\n        /* \"contracts/sOHM.sol\":1641:1647  _owner */\n      0x08\n      0x00\n        /* \"contracts/sOHM.sol\":1641:1660  _owner = address(0) */\n      0x0100\n      exp\n      dup2\n      sload\n      dup2\n      0xffffffffffffffffffffffffffffffffffffffff\n      mul\n      not\n      and\n      swap1\n      dup4\n      0xffffffffffffffffffffffffffffffffffffffff\n      and\n      mul\n      or\n      swap1\n      sstore\n      pop\n        /* \"contracts/sOHM.sol\":1511:1667  function renounceManagement() public virtual override onlyManager() {... */\n      jump\t// out\n        /* \"contracts/sOHM.sol\":8153:8375  function approve( address spender, uint256 value ) public override returns (bool) {... */\n    tag_53:\n        /* \"contracts/sOHM.sol\":8229:8233  bool */\n      0x00\n        /* \"contracts/sOHM.sol\":8287:8292  value */\n      dup2\n        /* \"contracts/sOHM.sol\":8246:8259  _allowedValue */\n      0x10\n        /* \"contracts/sOHM.sol\":8246:8273  _allowedValue[ msg.sender ] */\n      0x00\n        /* \"contracts/sOHM.sol\":8261:8271  msg.sender */\n      caller\n        /* \"contracts/sOHM.sol\":8246:8273  _allowedValue[ msg.sender ] */\n      0xffffffffffffffffffffffffffffffffffffffff\n      and\n      0xffffffffffffffffffffffffffffffffffffffff\n      and\n      dup2\n      mstore\n      0x20\n      add\n      swap1\n      dup2\n      mstore\n      0x20\n      add\n      0x00\n      keccak256\n        /* \"contracts/sOHM.sol\":8246:8284  _allowedValue[ msg.sender ][ spender ] */\n      0x00\n        /* \"contracts/sOHM.sol\":8275:8282  spender */\n      dup6\n        /* \"contracts/sOHM.sol\":8246:8284  _allowedValue[ msg.sender ][ spender ] */\n      0xffffffffffffffffffffffffffffffffffffffff\n      and\n      0xffffffffffffffffffffffffffffffffffffffff\n      and\n      dup2\n      mstore\n      0x20\n      add\n      swap1\n      dup2\n      mstore\n      0x20\n      add\n      0x00\n      keccak256\n        /* \"contracts/sOHM.sol\":8246:8292  _allowedValue[ msg.sender ][ spender ] = value */\n      dup2\n      swap1\n      sstore\n      pop\n        /* \"contracts/sOHM.sol\":8330:8337  spender */\n      dup3\n        /* \"contracts/sOHM.sol\":8308:8346  Approval( msg.sender, spender, value ) */\n      0xffffffffffffffffffffffffffffffffffffffff\n      and\n        /* \"contracts/sOHM.sol\":8318:8328  msg.sender */\n      caller\n        /* \"contracts/sOHM.sol\":8308:8346  Approval( msg.sender, spender, value ) */\n      0xffffffffffffffffffffffffffffffffffffffff\n      and\n      0x8c5be1e5ebec7d5bd14f71427d1e84f3dd0314c0f7b2291e5b200ac8c7c3b925\n        /* \"contracts/sOHM.sol\":8339:8344  value */\n      dup5\n        /* \"contracts/sOHM.sol\":8308:8346  Approval( msg.sender, spender, value ) */\n      mload(0x40)\n      dup1\n      dup3\n      dup2\n      mstore\n      0x20\n      add\n      swap2\n      pop\n      pop\n      mload(0x40)\n      dup1\n      swap2\n      sub\n      swap1\n      log3\n        /* \"contracts/sOHM.sol\":8364:8368  true */\n      0x01\n        /* \"contracts/sOHM.sol\":8357:8368  return true */\n      swap1\n      pop\n        /* \"contracts/sOHM.sol\":8153:8375  function approve( address spender, uint256 value ) public override returns (bool) {... */\n      swap3\n      swap2\n      pop\n      pop\n      jump\t// out\n        /* \"contracts/types/ERC20.sol\":2334:2426  function totalSupply() public view override returns (uint256) {... */\n    tag_55:\n        /* \"contracts/types/ERC20.sol\":2387:2394  uint256 */\n      0x00\n        /* \"contracts/types/ERC20.sol\":2409:2421  _totalSupply */\n      sload(0x02)\n        /* \"contracts/types/ERC20.sol\":2402:2421  return _totalSupply */\n      swap1\n      pop\n        /* \"contracts/types/ERC20.sol\":2334:2426  function totalSupply() public view override returns (uint256) {... */\n      swap1\n      jump\t// out\n        /* \"contracts/sOHM.sol\":6568:6690  function gonsForBalance( uint amount ) public view returns ( uint ) {... */\n    tag_58:\n        /* \"contracts/sOHM.sol\":6629:6633  uint */\n      0x00\n        /* \"contracts/sOHM.sol\":6653:6683  amount.mul( _gonsPerFragment ) */\n      tag_154\n        /* \"contracts/sOHM.sol\":6665:6681  _gonsPerFragment */\n      sload(0x0e)\n        /* \"contracts/sOHM.sol\":6653:6659  amount */\n      dup4\n        /* \"contracts/sOHM.sol\":6653:6663  amount.mul */\n      tag_135\n      swap1\n        /* \"contracts/sOHM.sol\":6653:6683  amount.mul( _gonsPerFragment ) */\n      swap2\n      swap1\n      0xffffffff\n      and\n      jump\t// in\n    tag_154:\n        /* \"contracts/sOHM.sol\":6646:6683  return amount.mul( _gonsPerFragment ) */\n      swap1\n      pop\n        /* \"contracts/sOHM.sol\":6568:6690  function gonsForBalance( uint amount ) public view returns ( uint ) {... */\n      swap2\n      swap1\n      pop\n      jump\t// out\n        /* \"contracts/sOHM.sol\":7620:8147  function transferFrom( address from, address to, uint256 value ) public override returns ( bool ) {... */\n    tag_61:\n        /* \"contracts/sOHM.sol\":7711:7715  bool */\n      0x00\n        /* \"contracts/sOHM.sol\":7765:7813  _allowedValue[ from ][ msg.sender ].sub( value ) */\n      tag_156\n        /* \"contracts/sOHM.sol\":7806:7811  value */\n      dup3\n        /* \"contracts/sOHM.sol\":7765:7778  _allowedValue */\n      0x10\n        /* \"contracts/sOHM.sol\":7765:7786  _allowedValue[ from ] */\n      0x00\n        /* \"contracts/sOHM.sol\":7780:7784  from */\n      dup8\n        /* \"contracts/sOHM.sol\":7765:7786  _allowedValue[ from ] */\n      0xffffffffffffffffffffffffffffffffffffffff\n      and\n      0xffffffffffffffffffffffffffffffffffffffff\n      and\n      dup2\n      mstore\n      0x20\n      add\n      swap1\n      dup2\n      mstore\n      0x20\n      add\n      0x00\n      keccak256\n        /* \"contracts/sOHM.sol\":7765:7800  _allowedValue[ from ][ msg.sender ] */\n      0x00\n        /* \"contracts/sOHM.sol\":7788:7798  msg.sender */\n      caller\n        /* \"contracts/sOHM.sol\":7765:7800  _allowedValue[ from ][ msg.sender ] */\n      0xffffffffffffffffffffffffffffffffffffffff\n      and\n      0xffffffffffffffffffffffffffffffffffffffff\n      and\n      dup2\n      mstore\n      0x20\n      add\n      swap1\n      dup2\n      mstore\n      0x20\n      add\n      0x00\n      keccak256\n      sload\n        /* \"contracts/sOHM.sol\":7765:7804  _allowedValue[ from ][ msg.sender ].sub */\n      tag_157\n      swap1\n        /* \"contracts/sOHM.sol\":7765:7813  _allowedValue[ from ][ msg.sender ].sub( value ) */\n      swap2\n      swap1\n      0xffffffff\n      and\n      jump\t// in\n    tag_156:\n        /* \"contracts/sOHM.sol\":7727:7740  _allowedValue */\n      0x10\n        /* \"contracts/sOHM.sol\":7727:7748  _allowedValue[ from ] */\n      0x00\n        /* \"contracts/sOHM.sol\":7742:7746  from */\n      dup7\n        /* \"contracts/sOHM.sol\":7727:7748  _allowedValue[ from ] */\n      0xffffffffffffffffffffffffffffffffffffffff\n      and\n      0xffffffffffffffffffffffffffffffffffffffff\n      and\n      dup2\n      mstore\n      0x20\n      add\n      swap1\n      dup2\n      mstore\n      0x20\n      add\n      0x00\n      keccak256\n        /* \"contracts/sOHM.sol\":7727:7762  _allowedValue[ from ][ msg.sender ] */\n      0x00\n        /* \"contracts/sOHM.sol\":7750:7760  msg.sender */\n      caller\n        /* \"contracts/sOHM.sol\":7727:7762  _allowedValue[ from ][ msg.sender ] */\n      0xffffffffffffffffffffffffffffffffffffffff\n      and\n      0xffffffffffffffffffffffffffffffffffffffff\n      and\n      dup2\n      mstore\n      0x20\n      add\n      swap1\n      dup2\n      mstore\n      0x20\n      add\n      0x00\n      keccak256\n        /* \"contracts/sOHM.sol\":7727:7813  _allowedValue[ from ][ msg.sender ] = _allowedValue[ from ][ msg.sender ].sub( value ) */\n      dup2\n      swap1\n      sstore\n      pop\n        /* \"contracts/sOHM.sol\":7843:7853  msg.sender */\n      caller\n        /* \"contracts/sOHM.sol\":7827:7893  Approval( from, msg.sender,  _allowedValue[ from ][ msg.sender ] ) */\n      0xffffffffffffffffffffffffffffffffffffffff\n      and\n        /* \"contracts/sOHM.sol\":7837:7841  from */\n      dup5\n        /* \"contracts/sOHM.sol\":7827:7893  Approval( from, msg.sender,  _allowedValue[ from ][ msg.sender ] ) */\n      0xffffffffffffffffffffffffffffffffffffffff\n      and\n      0x8c5be1e5ebec7d5bd14f71427d1e84f3dd0314c0f7b2291e5b200ac8c7c3b925\n        /* \"contracts/sOHM.sol\":7856:7869  _allowedValue */\n      0x10\n        /* \"contracts/sOHM.sol\":7856:7877  _allowedValue[ from ] */\n      0x00\n        /* \"contracts/sOHM.sol\":7871:7875  from */\n      dup9\n        /* \"contracts/sOHM.sol\":7856:7877  _allowedValue[ from ] */\n      0xffffffffffffffffffffffffffffffffffffffff\n      and\n      0xffffffffffffffffffffffffffffffffffffffff\n      and\n      dup2\n      mstore\n      0x20\n      add\n      swap1\n      dup2\n      mstore\n      0x20\n      add\n      0x00\n      keccak256\n        /* \"contracts/sOHM.sol\":7856:7891  _allowedValue[ from ][ msg.sender ] */\n      0x00\n        /* \"contracts/sOHM.sol\":7879:7889  msg.sender */\n      caller\n        /* \"contracts/sOHM.sol\":7856:7891  _allowedValue[ from ][ msg.sender ] */\n      0xffffffffffffffffffffffffffffffffffffffff\n      and\n      0xffffffffffffffffffffffffffffffffffffffff\n      and\n      dup2\n      mstore\n      0x20\n      add\n      swap1\n      dup2\n      mstore\n      0x20\n      add\n      0x00\n      keccak256\n      sload\n        /* \"contracts/sOHM.sol\":7827:7893  Approval( from, msg.sender,  _allowedValue[ from ][ msg.sender ] ) */\n      mload(0x40)\n      dup1\n      dup3\n      dup2\n      mstore\n      0x20\n      add\n      swap2\n      pop\n      pop\n      mload(0x40)\n      dup1\n      swap2\n      sub\n      swap1\n      log3\n        /* \"contracts/sOHM.sol\":7904:7920  uint256 gonValue */\n      0x00\n        /* \"contracts/sOHM.sol\":7923:7946  gonsForBalance( value ) */\n      tag_158\n        /* \"contracts/sOHM.sol\":7939:7944  value */\n      dup4\n        /* \"contracts/sOHM.sol\":7923:7937  gonsForBalance */\n      tag_58\n        /* \"contracts/sOHM.sol\":7923:7946  gonsForBalance( value ) */\n      jump\t// in\n    tag_158:\n        /* \"contracts/sOHM.sol\":7904:7946  uint256 gonValue = gonsForBalance( value ) */\n      swap1\n      pop\n        /* \"contracts/sOHM.sol\":7979:8013  _gonBalances[from].sub( gonValue ) */\n      tag_159\n        /* \"contracts/sOHM.sol\":8003:8011  gonValue */\n      dup2\n        /* \"contracts/sOHM.sol\":7979:7991  _gonBalances */\n      0x0f\n        /* \"contracts/sOHM.sol\":7979:7997  _gonBalances[from] */\n      0x00\n        /* \"contracts/sOHM.sol\":7992:7996  from */\n      dup9\n        /* \"contracts/sOHM.sol\":7979:7997  _gonBalances[from] */\n      0xffffffffffffffffffffffffffffffffffffffff\n      and\n      0xffffffffffffffffffffffffffffffffffffffff\n      and\n      dup2\n      mstore\n      0x20\n      add\n      swap1\n      dup2\n      mstore\n      0x20\n      add\n      0x00\n      keccak256\n      sload\n        /* \"contracts/sOHM.sol\":7979:8001  _gonBalances[from].sub */\n      tag_157\n      swap1\n        /* \"contracts/sOHM.sol\":7979:8013  _gonBalances[from].sub( gonValue ) */\n      swap2\n      swap1\n      0xffffffff\n      and\n      jump\t// in\n    tag_159:\n        /* \"contracts/sOHM.sol\":7956:7968  _gonBalances */\n      0x0f\n        /* \"contracts/sOHM.sol\":7956:7976  _gonBalances[ from ] */\n      0x00\n        /* \"contracts/sOHM.sol\":7970:7974  from */\n      dup8\n        /* \"contracts/sOHM.sol\":7956:7976  _gonBalances[ from ] */\n      0xffffffffffffffffffffffffffffffffffffffff\n      and\n      0xffffffffffffffffffffffffffffffffffffffff\n      and\n      dup2\n      mstore\n      0x20\n      add\n      swap1\n      dup2\n      mstore\n      0x20\n      add\n      0x00\n      keccak256\n        /* \"contracts/sOHM.sol\":7956:8013  _gonBalances[ from ] = _gonBalances[from].sub( gonValue ) */\n      dup2\n      swap1\n      sstore\n      pop\n        /* \"contracts/sOHM.sol\":8044:8076  _gonBalances[to].add( gonValue ) */\n      tag_160\n        /* \"contracts/sOHM.sol\":8066:8074  gonValue */\n      dup2\n        /* \"contracts/sOHM.sol\":8044:8056  _gonBalances */\n      0x0f\n        /* \"contracts/sOHM.sol\":8044:8060  _gonBalances[to] */\n      0x00\n        /* \"contracts/sOHM.sol\":8057:8059  to */\n      dup8\n        /* \"contracts/sOHM.sol\":8044:8060  _gonBalances[to] */\n      0xffffffffffffffffffffffffffffffffffffffff\n      and\n      0xffffffffffffffffffffffffffffffffffffffff\n      and\n      dup2\n      mstore\n      0x20\n      add\n      swap1\n      dup2\n      mstore\n      0x20\n      add\n      0x00\n      keccak256\n      sload\n        /* \"contracts/sOHM.sol\":8044:8064  _gonBalances[to].add */\n      tag_138\n      swap1\n        /* \"contracts/sOHM.sol\":8044:8076  _gonBalances[to].add( gonValue ) */\n      swap2\n      swap1\n      0xffffffff\n      and\n      jump\t// in\n    tag_160:\n        /* \"contracts/sOHM.sol\":8023:8035  _gonBalances */\n      0x0f\n        /* \"contracts/sOHM.sol\":8023:8041  _gonBalances[ to ] */\n      0x00\n        /* \"contracts/sOHM.sol\":8037:8039  to */\n      dup7\n        /* \"contracts/sOHM.sol\":8023:8041  _gonBalances[ to ] */\n      0xffffffffffffffffffffffffffffffffffffffff\n      and\n      0xffffffffffffffffffffffffffffffffffffffff\n      and\n      dup2\n      mstore\n      0x20\n      add\n      swap1\n      dup2\n      mstore\n      0x20\n      add\n      0x00\n      keccak256\n        /* \"contracts/sOHM.sol\":8023:8076  _gonBalances[ to ] = _gonBalances[to].add( gonValue ) */\n      dup2\n      swap1\n      sstore\n      pop\n        /* \"contracts/sOHM.sol\":8107:8109  to */\n      dup4\n        /* \"contracts/sOHM.sol\":8091:8118  Transfer( from, to, value ) */\n      0xffffffffffffffffffffffffffffffffffffffff\n      and\n        /* \"contracts/sOHM.sol\":8101:8105  from */\n      dup6\n        /* \"contracts/sOHM.sol\":8091:8118  Transfer( from, to, value ) */\n      0xffffffffffffffffffffffffffffffffffffffff\n      and\n      0xddf252ad1be2c89b69c2b068fc378daa952ba7f163c4a11628f55a4df523b3ef\n        /* \"contracts/sOHM.sol\":8111:8116  value */\n      dup6\n        /* \"contracts/sOHM.sol\":8091:8118  Transfer( from, to, value ) */\n      mload(0x40)\n      dup1\n      dup3\n      dup2\n      mstore\n      0x20\n      add\n      swap2\n      pop\n      pop\n      mload(0x40)\n      dup1\n      swap2\n      sub\n      swap1\n      log3\n        /* \"contracts/sOHM.sol\":8136:8140  true */\n      0x01\n        /* \"contracts/sOHM.sol\":8129:8140  return true */\n      swap2\n      pop\n      pop\n        /* \"contracts/sOHM.sol\":7620:8147  function transferFrom( address from, address to, uint256 value ) public override returns ( bool ) {... */\n      swap4\n      swap3\n      pop\n      pop\n      pop\n      jump\t// out\n        /* \"contracts/sOHM.sol\":6998:7091  function index() public view returns ( uint ) {... */\n    tag_63:\n        /* \"contracts/sOHM.sol\":7037:7041  uint */\n      0x00\n        /* \"contracts/sOHM.sol\":7061:7084  balanceForGons( INDEX ) */\n      tag_162\n        /* \"contracts/sOHM.sol\":7077:7082  INDEX */\n      sload(0x0d)\n        /* \"contracts/sOHM.sol\":7061:7075  balanceForGons */\n      tag_93\n        /* \"contracts/sOHM.sol\":7061:7084  balanceForGons( INDEX ) */\n      jump\t// in\n    tag_162:\n        /* \"contracts/sOHM.sol\":7054:7084  return balanceForGons( INDEX ) */\n      swap1\n      pop\n        /* \"contracts/sOHM.sol\":6998:7091  function index() public view returns ( uint ) {... */\n      swap1\n      jump\t// out\n        /* \"contracts/sOHM.sol\":2900:2917  uint public INDEX */\n    tag_65:\n      sload(0x0d)\n      dup2\n      jump\t// out\n        /* \"contracts/types/ERC20Permit.sol\":438:546  bytes32 public constant PERMIT_TYPEHASH = 0x6e71edae12b1b97f4d1f60370fef10105fa2faae0126114a169c64845d6126c9 */\n    tag_67:\n        /* \"contracts/types/ERC20Permit.sol\":480:546  0x6e71edae12b1b97f4d1f60370fef10105fa2faae0126114a169c64845d6126c9 */\n      0x6e71edae12b1b97f4d1f60370fef10105fa2faae0126114a169c64845d6126c9\n        /* \"contracts/types/ERC20Permit.sol\":438:546  bytes32 public constant PERMIT_TYPEHASH = 0x6e71edae12b1b97f4d1f60370fef10105fa2faae0126114a169c64845d6126c9 */\n      0x00\n      shl\n      dup2\n      jump\t// out\n        /* \"contracts/types/ERC20.sol\":2184:2259  function decimals() public view returns (uint8) {... */\n    tag_69:\n        /* \"contracts/types/ERC20.sol\":2225:2230  uint8 */\n      0x00\n        /* \"contracts/types/ERC20.sol\":2245:2254  _decimals */\n      0x05\n      0x00\n      swap1\n      sload\n      swap1\n      0x0100\n      exp\n      swap1\n      div\n      0xff\n      and\n        /* \"contracts/types/ERC20.sol\":2238:2254  return _decimals */\n      swap1\n      pop\n        /* \"contracts/types/ERC20.sol\":2184:2259  function decimals() public view returns (uint8) {... */\n      swap1\n      jump\t// out\n        /* \"contracts/types/ERC20Permit.sol\":553:584  bytes32 public DOMAIN_SEPARATOR */\n    tag_71:\n      sload(0x07)\n      dup2\n      jump\t// out\n        /* \"contracts/sOHM.sol\":8618:8936  function increaseAllowance( address spender, uint256 addedValue ) public override returns (bool) {... */\n    tag_74:\n        /* \"contracts/sOHM.sol\":8709:8713  bool */\n      0x00\n        /* \"contracts/sOHM.sol\":8766:8822  _allowedValue[ msg.sender ][ spender ].add( addedValue ) */\n      tag_165\n        /* \"contracts/sOHM.sol\":8810:8820  addedValue */\n      dup3\n        /* \"contracts/sOHM.sol\":8766:8779  _allowedValue */\n      0x10\n        /* \"contracts/sOHM.sol\":8766:8793  _allowedValue[ msg.sender ] */\n      0x00\n        /* \"contracts/sOHM.sol\":8781:8791  msg.sender */\n      caller\n        /* \"contracts/sOHM.sol\":8766:8793  _allowedValue[ msg.sender ] */\n      0xffffffffffffffffffffffffffffffffffffffff\n      and\n      0xffffffffffffffffffffffffffffffffffffffff\n      and\n      dup2\n      mstore\n      0x20\n      add\n      swap1\n      dup2\n      mstore\n      0x20\n      add\n      0x00\n      keccak256\n        /* \"contracts/sOHM.sol\":8766:8804  _allowedValue[ msg.sender ][ spender ] */\n      0x00\n        /* \"contracts/sOHM.sol\":8795:8802  spender */\n      dup7\n        /* \"contracts/sOHM.sol\":8766:8804  _allowedValue[ msg.sender ][ spender ] */\n      0xffffffffffffffffffffffffffffffffffffffff\n      and\n      0xffffffffffffffffffffffffffffffffffffffff\n      and\n      dup2\n      mstore\n      0x20\n      add\n      swap1\n      dup2\n      mstore\n      0x20\n      add\n      0x00\n      keccak256\n      sload\n        /* \"contracts/sOHM.sol\":8766:8808  _allowedValue[ msg.sender ][ spender ].add */\n      tag_138\n      swap1\n        /* \"contracts/sOHM.sol\":8766:8822  _allowedValue[ msg.sender ][ spender ].add( addedValue ) */\n      swap2\n      swap1\n      0xffffffff\n      and\n      jump\t// in\n    tag_165:\n        /* \"contracts/sOHM.sol\":8725:8738  _allowedValue */\n      0x10\n        /* \"contracts/sOHM.sol\":8725:8752  _allowedValue[ msg.sender ] */\n      0x00\n        /* \"contracts/sOHM.sol\":8740:8750  msg.sender */\n      caller\n        /* \"contracts/sOHM.sol\":8725:8752  _allowedValue[ msg.sender ] */\n      0xffffffffffffffffffffffffffffffffffffffff\n      and\n      0xffffffffffffffffffffffffffffffffffffffff\n      and\n      dup2\n      mstore\n      0x20\n      add\n      swap1\n      dup2\n      mstore\n      0x20\n      add\n      0x00\n      keccak256\n        /* \"contracts/sOHM.sol\":8725:8763  _allowedValue[ msg.sender ][ spender ] */\n      0x00\n        /* \"contracts/sOHM.sol\":8754:8761  spender */\n      dup6\n        /* \"contracts/sOHM.sol\":8725:8763  _allowedValue[ msg.sender ][ spender ] */\n      0xffffffffffffffffffffffffffffffffffffffff\n      and\n      0xffffffffffffffffffffffffffffffffffffffff\n      and\n      dup2\n      mstore\n      0x20\n      add\n      swap1\n      dup2\n      mstore\n      0x20\n      add\n      0x00\n      keccak256\n        /* \"contracts/sOHM.sol\":8725:8822  _allowedValue[ msg.sender ][ spender ] = _allowedValue[ msg.sender ][ spender ].add( addedValue ) */\n      dup2\n      swap1\n      sstore\n      pop\n        /* \"contracts/sOHM.sol\":8859:8866  spender */\n      dup3\n        /* \"contracts/sOHM.sol\":8837:8908  Approval( msg.sender, spender, _allowedValue[ msg.sender ][ spender ] ) */\n      0xffffffffffffffffffffffffffffffffffffffff\n      and\n        /* \"contracts/sOHM.sol\":8847:8857  msg.sender */\n      caller\n        /* \"contracts/sOHM.sol\":8837:8908  Approval( msg.sender, spender, _allowedValue[ msg.sender ][ spender ] ) */\n      0xffffffffffffffffffffffffffffffffffffffff\n      and\n      0x8c5be1e5ebec7d5bd14f71427d1e84f3dd0314c0f7b2291e5b200ac8c7c3b925\n        /* \"contracts/sOHM.sol\":8868:8881  _allowedValue */\n      0x10\n        /* \"contracts/sOHM.sol\":8868:8895  _allowedValue[ msg.sender ] */\n      0x00\n        /* \"contracts/sOHM.sol\":8883:8893  msg.sender */\n      caller\n        /* \"contracts/sOHM.sol\":8868:8895  _allowedValue[ msg.sender ] */\n      0xffffffffffffffffffffffffffffffffffffffff\n      and\n      0xffffffffffffffffffffffffffffffffffffffff\n      and\n      dup2\n      mstore\n      0x20\n      add\n      swap1\n      dup2\n      mstore\n      0x20\n      add\n      0x00\n      keccak256\n        /* \"contracts/sOHM.sol\":8868:8906  _allowedValue[ msg.sender ][ spender ] */\n      0x00\n        /* \"contracts/sOHM.sol\":8897:8904  spender */\n      dup8\n        /* \"contracts/sOHM.sol\":8868:8906  _allowedValue[ msg.sender ][ spender ] */\n      0xffffffffffffffffffffffffffffffffffffffff\n      and\n      0xffffffffffffffffffffffffffffffffffffffff\n      and\n      dup2\n      mstore\n      0x20\n      add\n      swap1\n      dup2\n      mstore\n      0x20\n      add\n      0x00\n      keccak256\n      sload\n        /* \"contracts/sOHM.sol\":8837:8908  Approval( msg.sender, spender, _allowedValue[ msg.sender ][ spender ] ) */\n      mload(0x40)\n      dup1\n      dup3\n      dup2\n      mstore\n      0x20\n      add\n      swap2\n      pop\n      pop\n      mload(0x40)\n      dup1\n      swap2\n      sub\n      swap1\n      log3\n        /* \"contracts/sOHM.sol\":8925:8929  true */\n      0x01\n        /* \"contracts/sOHM.sol\":8918:8929  return true */\n      swap1\n      pop\n        /* \"contracts/sOHM.sol\":8618:8936  function increaseAllowance( address spender, uint256 addedValue ) public override returns (bool) {... */\n      swap3\n      swap2\n      pop\n      pop\n      jump\t// out\n        /* \"contracts/sOHM.sol\":4337:4511  function setIndex( uint _INDEX ) external onlyManager() returns ( bool ) {... */\n    tag_77:\n        /* \"contracts/sOHM.sol\":4403:4407  bool */\n      0x00\n        /* \"contracts/sOHM.sol\":1439:1449  msg.sender */\n      caller\n        /* \"contracts/sOHM.sol\":1429:1449  _owner == msg.sender */\n      0xffffffffffffffffffffffffffffffffffffffff\n      and\n        /* \"contracts/sOHM.sol\":1429:1435  _owner */\n      0x08\n      0x00\n      swap1\n      sload\n      swap1\n      0x0100\n      exp\n      swap1\n      div\n      0xffffffffffffffffffffffffffffffffffffffff\n      and\n        /* \"contracts/sOHM.sol\":1429:1449  _owner == msg.sender */\n      0xffffffffffffffffffffffffffffffffffffffff\n      and\n      eq\n        /* \"contracts/sOHM.sol\":1420:1487  require( _owner == msg.sender, \"Ownable: caller is not the owner\" ) */\n      tag_167\n      jumpi\n      mload(0x40)\n      0x08c379a000000000000000000000000000000000000000000000000000000000\n      dup2\n      mstore\n      0x04\n      add\n      dup1\n      dup1\n      0x20\n      add\n      dup3\n      dup2\n      sub\n      dup3\n      mstore\n      0x20\n      dup2\n      mstore\n      0x20\n      add\n      dup1\n      0x4f776e61626c653a2063616c6c6572206973206e6f7420746865206f776e6572\n      dup2\n      mstore\n      pop\n      0x20\n      add\n      swap2\n      pop\n      pop\n      mload(0x40)\n      dup1\n      swap2\n      sub\n      swap1\n      revert\n    tag_167:\n        /* \"contracts/sOHM.sol\":4438:4439  0 */\n      0x00\n        /* \"contracts/sOHM.sol\":4429:4434  INDEX */\n      sload(0x0d)\n        /* \"contracts/sOHM.sol\":4429:4439  INDEX == 0 */\n      eq\n        /* \"contracts/sOHM.sol\":4420:4441  require( INDEX == 0 ) */\n      tag_169\n      jumpi\n      0x00\n      dup1\n      revert\n    tag_169:\n        /* \"contracts/sOHM.sol\":4459:4483  gonsForBalance( _INDEX ) */\n      tag_170\n        /* \"contracts/sOHM.sol\":4475:4481  _INDEX */\n      dup3\n        /* \"contracts/sOHM.sol\":4459:4473  gonsForBalance */\n      tag_58\n        /* \"contracts/sOHM.sol\":4459:4483  gonsForBalance( _INDEX ) */\n      jump\t// in\n    tag_170:\n        /* \"contracts/sOHM.sol\":4451:4456  INDEX */\n      0x0d\n        /* \"contracts/sOHM.sol\":4451:4483  INDEX = gonsForBalance( _INDEX ) */\n      dup2\n      swap1\n      sstore\n      pop\n        /* \"contracts/sOHM.sol\":4500:4504  true */\n      0x01\n        /* \"contracts/sOHM.sol\":4493:4504  return true */\n      swap1\n      pop\n        /* \"contracts/sOHM.sol\":4337:4511  function setIndex( uint _INDEX ) external onlyManager() returns ( bool ) {... */\n      swap2\n      swap1\n      pop\n      jump\t// out\n        /* \"contracts/sOHM.sol\":1673:1930  function pushManagement( address newOwner_ ) public virtual override onlyManager() {... */\n    tag_80:\n        /* \"contracts/sOHM.sol\":1439:1449  msg.sender */\n      caller\n        /* \"contracts/sOHM.sol\":1429:1449  _owner == msg.sender */\n      0xffffffffffffffffffffffffffffffffffffffff\n      and\n        /* \"contracts/sOHM.sol\":1429:1435  _owner */\n      0x08\n      0x00\n      swap1\n      sload\n      swap1\n      0x0100\n      exp\n      swap1\n      div\n      0xffffffffffffffffffffffffffffffffffffffff\n      and\n        /* \"contracts/sOHM.sol\":1429:1449  _owner == msg.sender */\n      0xffffffffffffffffffffffffffffffffffffffff\n      and\n      eq\n        /* \"contracts/sOHM.sol\":1420:1487  require( _owner == msg.sender, \"Ownable: caller is not the owner\" ) */\n      tag_172\n      jumpi\n      mload(0x40)\n      0x08c379a000000000000000000000000000000000000000000000000000000000\n      dup2\n      mstore\n      0x04\n      add\n      dup1\n      dup1\n      0x20\n      add\n      dup3\n      dup2\n      sub\n      dup3\n      mstore\n      0x20\n      dup2\n      mstore\n      0x20\n      add\n      dup1\n      0x4f776e61626c653a2063616c6c6572206973206e6f7420746865206f776e6572\n      dup2\n      mstore\n      pop\n      0x20\n      add\n      swap2\n      pop\n      pop\n      mload(0x40)\n      dup1\n      swap2\n      sub\n      swap1\n      revert\n    tag_172:\n        /* \"contracts/sOHM.sol\":1796:1797  0 */\n      0x00\n        /* \"contracts/sOHM.sol\":1775:1798  newOwner_ != address(0) */\n      0xffffffffffffffffffffffffffffffffffffffff\n      and\n        /* \"contracts/sOHM.sol\":1775:1784  newOwner_ */\n      dup2\n        /* \"contracts/sOHM.sol\":1775:1798  newOwner_ != address(0) */\n      0xffffffffffffffffffffffffffffffffffffffff\n      and\n      eq\n      iszero\n        /* \"contracts/sOHM.sol\":1766:1841  require( newOwner_ != address(0), \"Ownable: new owner is the zero address\") */\n      tag_174\n      jumpi\n      mload(0x40)\n      0x08c379a000000000000000000000000000000000000000000000000000000000\n      dup2\n      mstore\n      0x04\n      add\n      dup1\n      dup1\n      0x20\n      add\n      dup3\n      dup2\n      sub\n      dup3\n      mstore\n      0x26\n      dup2\n      mstore\n      0x20\n      add\n      dup1\n      data_245f15ff17f551913a7a18385165551503906a406f905ac1c2437281a7cd0cfe\n      0x26\n      swap2\n      codecopy\n      0x40\n      add\n      swap2\n      pop\n      pop\n      mload(0x40)\n      dup1\n      swap2\n      sub\n      swap1\n      revert\n    tag_174:\n        /* \"contracts/sOHM.sol\":1881:1890  newOwner_ */\n      dup1\n        /* \"contracts/sOHM.sol\":1856:1892  OwnershipPushed( _owner, newOwner_ ) */\n      0xffffffffffffffffffffffffffffffffffffffff\n      and\n        /* \"contracts/sOHM.sol\":1873:1879  _owner */\n      0x08\n      0x00\n      swap1\n      sload\n      swap1\n      0x0100\n      exp\n      swap1\n      div\n      0xffffffffffffffffffffffffffffffffffffffff\n      and\n        /* \"contracts/sOHM.sol\":1856:1892  OwnershipPushed( _owner, newOwner_ ) */\n      0xffffffffffffffffffffffffffffffffffffffff\n      and\n      0xea8258f2d9ddb679928cf34b78cf645b7feda9acc828e4dd82d014eaae270eba\n      mload(0x40)\n      mload(0x40)\n      dup1\n      swap2\n      sub\n      swap1\n      log3\n        /* \"contracts/sOHM.sol\":1914:1923  newOwner_ */\n      dup1\n        /* \"contracts/sOHM.sol\":1902:1911  _newOwner */\n      0x09\n      0x00\n        /* \"contracts/sOHM.sol\":1902:1923  _newOwner = newOwner_ */\n      0x0100\n      exp\n      dup2\n      sload\n      dup2\n      0xffffffffffffffffffffffffffffffffffffffff\n      mul\n      not\n      and\n      swap1\n      dup4\n      0xffffffffffffffffffffffffffffffffffffffff\n      and\n      mul\n      or\n      swap1\n      sstore\n      pop\n        /* \"contracts/sOHM.sol\":1673:1930  function pushManagement( address newOwner_ ) public virtual override onlyManager() {... */\n      pop\n      jump\t// out\n        /* \"contracts/sOHM.sol\":1293:1381  function manager() public view override returns (address) {... */\n    tag_82:\n        /* \"contracts/sOHM.sol\":1342:1349  address */\n      0x00\n        /* \"contracts/sOHM.sol\":1368:1374  _owner */\n      0x08\n      0x00\n      swap1\n      sload\n      swap1\n      0x0100\n      exp\n      swap1\n      div\n      0xffffffffffffffffffffffffffffffffffffffff\n      and\n        /* \"contracts/sOHM.sol\":1361:1374  return _owner */\n      swap1\n      pop\n        /* \"contracts/sOHM.sol\":1293:1381  function manager() public view override returns (address) {... */\n      swap1\n      jump\t// out\n        /* \"contracts/sOHM.sol\":1940:2157  function pullManagement() public virtual override {... */\n    tag_84:\n        /* \"contracts/sOHM.sol\":2023:2032  _newOwner */\n      0x09\n      0x00\n      swap1\n      sload\n      swap1\n      0x0100\n      exp\n      swap1\n      div\n      0xffffffffffffffffffffffffffffffffffffffff\n      and\n        /* \"contracts/sOHM.sol\":2009:2032  msg.sender == _newOwner */\n      0xffffffffffffffffffffffffffffffffffffffff\n      and\n        /* \"contracts/sOHM.sol\":2009:2019  msg.sender */\n      caller\n        /* \"contracts/sOHM.sol\":2009:2032  msg.sender == _newOwner */\n      0xffffffffffffffffffffffffffffffffffffffff\n      and\n      eq\n        /* \"contracts/sOHM.sol\":2000:2071  require( msg.sender == _newOwner, \"Ownable: must be new owner to pull\") */\n      tag_177\n      jumpi\n      mload(0x40)\n      0x08c379a000000000000000000000000000000000000000000000000000000000\n      dup2\n      mstore\n      0x04\n      add\n      dup1\n      dup1\n      0x20\n      add\n      dup3\n      dup2\n      sub\n      dup3\n      mstore\n      0x22\n      dup2\n      mstore\n      0x20\n      add\n      dup1\n      data_4de71fbd3469e1b7fc89a70805ae86972c680281e629f271ab7471fd6321445c\n      0x22\n      swap2\n      codecopy\n      0x40\n      add\n      swap2\n      pop\n      pop\n      mload(0x40)\n      dup1\n      swap2\n      sub\n      swap1\n      revert\n    tag_177:\n        /* \"contracts/sOHM.sol\":2111:2120  _newOwner */\n      0x09\n      0x00\n      swap1\n      sload\n      swap1\n      0x0100\n      exp\n      swap1\n      div\n      0xffffffffffffffffffffffffffffffffffffffff\n      and\n        /* \"contracts/sOHM.sol\":2086:2122  OwnershipPulled( _owner, _newOwner ) */\n      0xffffffffffffffffffffffffffffffffffffffff\n      and\n        /* \"contracts/sOHM.sol\":2103:2109  _owner */\n      0x08\n      0x00\n      swap1\n      sload\n      swap1\n      0x0100\n      exp\n      swap1\n      div\n      0xffffffffffffffffffffffffffffffffffffffff\n      and\n        /* \"contracts/sOHM.sol\":2086:2122  OwnershipPulled( _owner, _newOwner ) */\n      0xffffffffffffffffffffffffffffffffffffffff\n      and\n      0xaa151555690c956fc3ea32f106bb9f119b5237a061eaa8557cff3e51e3792c8d\n      mload(0x40)\n      mload(0x40)\n      dup1\n      swap2\n      sub\n      swap1\n      log3\n        /* \"contracts/sOHM.sol\":2141:2150  _newOwner */\n      0x09\n      0x00\n      swap1\n      sload\n      swap1\n      0x0100\n      exp\n      swap1\n      div\n      0xffffffffffffffffffffffffffffffffffffffff\n      and\n        /* \"contracts/sOHM.sol\":2132:2138  _owner */\n      0x08\n      0x00\n        /* \"contracts/sOHM.sol\":2132:2150  _owner = _newOwner */\n      0x0100\n      exp\n      dup2\n      sload\n      dup2\n      0xffffffffffffffffffffffffffffffffffffffff\n      mul\n      not\n      and\n      swap1\n      dup4\n      0xffffffffffffffffffffffffffffffffffffffff\n      and\n      mul\n      or\n      swap1\n      sstore\n      pop\n        /* \"contracts/sOHM.sol\":1940:2157  function pullManagement() public virtual override {... */\n      jump\t// out\n        /* \"contracts/sOHM.sol\":6420:6562  function balanceOf( address who ) public view override returns ( uint256 ) {... */\n    tag_87:\n        /* \"contracts/sOHM.sol\":6485:6492  uint256 */\n      0x00\n        /* \"contracts/sOHM.sol\":6512:6555  _gonBalances[ who ].div( _gonsPerFragment ) */\n      tag_179\n        /* \"contracts/sOHM.sol\":6537:6553  _gonsPerFragment */\n      sload(0x0e)\n        /* \"contracts/sOHM.sol\":6512:6524  _gonBalances */\n      0x0f\n        /* \"contracts/sOHM.sol\":6512:6531  _gonBalances[ who ] */\n      0x00\n        /* \"contracts/sOHM.sol\":6526:6529  who */\n      dup6\n        /* \"contracts/sOHM.sol\":6512:6531  _gonBalances[ who ] */\n      0xffffffffffffffffffffffffffffffffffffffff\n      and\n      0xffffffffffffffffffffffffffffffffffffffff\n      and\n      dup2\n      mstore\n      0x20\n      add\n      swap1\n      dup2\n      mstore\n      0x20\n      add\n      0x00\n      keccak256\n      sload\n        /* \"contracts/sOHM.sol\":6512:6535  _gonBalances[ who ].div */\n      tag_124\n      swap1\n        /* \"contracts/sOHM.sol\":6512:6555  _gonBalances[ who ].div( _gonsPerFragment ) */\n      swap2\n      swap1\n      0xffffffff\n      and\n      jump\t// in\n    tag_179:\n        /* \"contracts/sOHM.sol\":6505:6555  return _gonBalances[ who ].div( _gonsPerFragment ) */\n      swap1\n      pop\n        /* \"contracts/sOHM.sol\":6420:6562  function balanceOf( address who ) public view override returns ( uint256 ) {... */\n      swap2\n      swap1\n      pop\n      jump\t// out\n        /* \"contracts/sOHM.sol\":2870:2893  Rebase[] public rebases */\n    tag_90:\n      0x0c\n      dup2\n      dup2\n      sload\n      dup2\n      lt\n      tag_180\n      jumpi\n      0x00\n      dup1\n      revert\n    tag_180:\n      swap1\n      0x00\n      mstore\n      keccak256(0x00, 0x20)\n      swap1\n      0x07\n      mul\n      add\n      0x00\n      swap2\n      pop\n      swap1\n      pop\n      dup1\n      0x00\n      add\n      sload\n      swap1\n      dup1\n      0x01\n      add\n      sload\n      swap1\n      dup1\n      0x02\n      add\n      sload\n      swap1\n      dup1\n      0x03\n      add\n      sload\n      swap1\n      dup1\n      0x04\n      add\n      sload\n      swap1\n      dup1\n      0x05\n      add\n      sload\n      swap1\n      dup1\n      0x06\n      add\n      sload\n      swap1\n      pop\n      dup8\n      jump\t// out\n        /* \"contracts/sOHM.sol\":6696:6814  function balanceForGons( uint gons ) public view returns ( uint ) {... */\n    tag_93:\n        /* \"contracts/sOHM.sol\":6755:6759  uint */\n      0x00\n        /* \"contracts/sOHM.sol\":6779:6807  gons.div( _gonsPerFragment ) */\n      tag_183\n        /* \"contracts/sOHM.sol\":6789:6805  _gonsPerFragment */\n      sload(0x0e)\n        /* \"contracts/sOHM.sol\":6779:6783  gons */\n      dup4\n        /* \"contracts/sOHM.sol\":6779:6787  gons.div */\n      tag_124\n      swap1\n        /* \"contracts/sOHM.sol\":6779:6807  gons.div( _gonsPerFragment ) */\n      swap2\n      swap1\n      0xffffffff\n      and\n      jump\t// in\n    tag_183:\n        /* \"contracts/sOHM.sol\":6772:6807  return gons.div( _gonsPerFragment ) */\n      swap1\n      pop\n        /* \"contracts/sOHM.sol\":6696:6814  function balanceForGons( uint gons ) public view returns ( uint ) {... */\n      swap2\n      swap1\n      pop\n      jump\t// out\n        /* \"contracts/types/ERC20Permit.sol\":1884:2002  function nonces(address owner) public view override returns (uint256) {... */\n    tag_96:\n        /* \"contracts/types/ERC20Permit.sol\":1945:1952  uint256 */\n      0x00\n        /* \"contracts/types/ERC20Permit.sol\":1971:1995  _nonces[owner].current() */\n      tag_185\n        /* \"contracts/types/ERC20Permit.sol\":1971:1978  _nonces */\n      0x06\n        /* \"contracts/types/ERC20Permit.sol\":1971:1985  _nonces[owner] */\n      0x00\n        /* \"contracts/types/ERC20Permit.sol\":1979:1984  owner */\n      dup5\n        /* \"contracts/types/ERC20Permit.sol\":1971:1985  _nonces[owner] */\n      0xffffffffffffffffffffffffffffffffffffffff\n      and\n      0xffffffffffffffffffffffffffffffffffffffff\n      and\n      dup2\n      mstore\n      0x20\n      add\n      swap1\n      dup2\n      mstore\n      0x20\n      add\n      0x00\n      keccak256\n        /* \"contracts/types/ERC20Permit.sol\":1971:1993  _nonces[owner].current */\n      tag_186\n        /* \"contracts/types/ERC20Permit.sol\":1971:1995  _nonces[owner].current() */\n      jump\t// in\n    tag_185:\n        /* \"contracts/types/ERC20Permit.sol\":1964:1995  return _nonces[owner].current() */\n      swap1\n      pop\n        /* \"contracts/types/ERC20Permit.sol\":1884:2002  function nonces(address owner) public view override returns (uint256) {... */\n      swap2\n      swap1\n      pop\n      jump\t// out\n        /* \"contracts/sOHM.sol\":6862:6992  function circulatingSupply() public view returns ( uint ) {... */\n    tag_98:\n        /* \"contracts/sOHM.sol\":6913:6917  uint */\n      0x00\n        /* \"contracts/sOHM.sol\":6937:6985  _totalSupply.sub( balanceOf( stakingContract ) ) */\n      tag_188\n        /* \"contracts/sOHM.sol\":6955:6983  balanceOf( stakingContract ) */\n      tag_189\n        /* \"contracts/sOHM.sol\":6966:6981  stakingContract */\n      0x0a\n      0x00\n      swap1\n      sload\n      swap1\n      0x0100\n      exp\n      swap1\n      div\n      0xffffffffffffffffffffffffffffffffffffffff\n      and\n        /* \"contracts/sOHM.sol\":6955:6964  balanceOf */\n      tag_87\n        /* \"contracts/sOHM.sol\":6955:6983  balanceOf( stakingContract ) */\n      jump\t// in\n    tag_189:\n        /* \"contracts/sOHM.sol\":6937:6949  _totalSupply */\n      sload(0x02)\n        /* \"contracts/sOHM.sol\":6937:6953  _totalSupply.sub */\n      tag_157\n      swap1\n        /* \"contracts/sOHM.sol\":6937:6985  _totalSupply.sub( balanceOf( stakingContract ) ) */\n      swap2\n      swap1\n      0xffffffff\n      and\n      jump\t// in\n    tag_188:\n        /* \"contracts/sOHM.sol\":6930:6985  return _totalSupply.sub( balanceOf( stakingContract ) ) */\n      swap1\n      pop\n        /* \"contracts/sOHM.sol\":6862:6992  function circulatingSupply() public view returns ( uint ) {... */\n      swap1\n      jump\t// out\n        /* \"contracts/types/ERC20.sol\":1487:1566  function symbol() public view returns (string memory) {... */\n    tag_100:\n        /* \"contracts/types/ERC20.sol\":1526:1539  string memory */\n      0x60\n        /* \"contracts/types/ERC20.sol\":1554:1561  _symbol */\n      0x04\n        /* \"contracts/types/ERC20.sol\":1547:1561  return _symbol */\n      dup1\n      sload\n      0x01\n      dup2\n      0x01\n      and\n      iszero\n      0x0100\n      mul\n      sub\n      and\n      0x02\n      swap1\n      div\n      dup1\n      0x1f\n      add\n      0x20\n      dup1\n      swap2\n      div\n      mul\n      0x20\n      add\n      mload(0x40)\n      swap1\n      dup2\n      add\n      0x40\n      mstore\n      dup1\n      swap3\n      swap2\n      swap1\n      dup2\n      dup2\n      mstore\n      0x20\n      add\n      dup3\n      dup1\n      sload\n      0x01\n      dup2\n      0x01\n      and\n      iszero\n      0x0100\n      mul\n      sub\n      and\n      0x02\n      swap1\n      div\n      dup1\n      iszero\n      tag_191\n      jumpi\n      dup1\n      0x1f\n      lt\n      tag_192\n      jumpi\n      0x0100\n      dup1\n      dup4\n      sload\n      div\n      mul\n      dup4\n      mstore\n      swap2\n      0x20\n      add\n      swap2\n      jump(tag_191)\n    tag_192:\n      dup3\n      add\n      swap2\n      swap1\n      0x00\n      mstore\n      keccak256(0x00, 0x20)\n      swap1\n    tag_193:\n      dup2\n      sload\n      dup2\n      mstore\n      swap1\n      0x01\n      add\n      swap1\n      0x20\n      add\n      dup1\n      dup4\n      gt\n      tag_193\n      jumpi\n      dup3\n      swap1\n      sub\n      0x1f\n      and\n      dup3\n      add\n      swap2\n    tag_191:\n      pop\n      pop\n      pop\n      pop\n      pop\n      swap1\n      pop\n        /* \"contracts/types/ERC20.sol\":1487:1566  function symbol() public view returns (string memory) {... */\n      swap1\n      jump\t// out\n        /* \"contracts/sOHM.sol\":2384:2410  address public initializer */\n    tag_106:\n      0x0b\n      0x00\n      swap1\n      sload\n      swap1\n      0x0100\n      exp\n      swap1\n      div\n      0xffffffffffffffffffffffffffffffffffffffff\n      and\n      dup2\n      jump\t// out\n        /* \"contracts/sOHM.sol\":8942:9437  function decreaseAllowance( address spender, uint256 subtractedValue ) public override returns (bool) {... */\n    tag_109:\n        /* \"contracts/sOHM.sol\":9038:9042  bool */\n      0x00\n        /* \"contracts/sOHM.sol\":9054:9070  uint256 oldValue */\n      dup1\n        /* \"contracts/sOHM.sol\":9073:9086  _allowedValue */\n      0x10\n        /* \"contracts/sOHM.sol\":9073:9100  _allowedValue[ msg.sender ] */\n      0x00\n        /* \"contracts/sOHM.sol\":9088:9098  msg.sender */\n      caller\n        /* \"contracts/sOHM.sol\":9073:9100  _allowedValue[ msg.sender ] */\n      0xffffffffffffffffffffffffffffffffffffffff\n      and\n      0xffffffffffffffffffffffffffffffffffffffff\n      and\n      dup2\n      mstore\n      0x20\n      add\n      swap1\n      dup2\n      mstore\n      0x20\n      add\n      0x00\n      keccak256\n        /* \"contracts/sOHM.sol\":9073:9111  _allowedValue[ msg.sender ][ spender ] */\n      0x00\n        /* \"contracts/sOHM.sol\":9102:9109  spender */\n      dup6\n        /* \"contracts/sOHM.sol\":9073:9111  _allowedValue[ msg.sender ][ spender ] */\n      0xffffffffffffffffffffffffffffffffffffffff\n      and\n      0xffffffffffffffffffffffffffffffffffffffff\n      and\n      dup2\n      mstore\n      0x20\n      add\n      swap1\n      dup2\n      mstore\n      0x20\n      add\n      0x00\n      keccak256\n      sload\n        /* \"contracts/sOHM.sol\":9054:9111  uint256 oldValue = _allowedValue[ msg.sender ][ spender ] */\n      swap1\n      pop\n        /* \"contracts/sOHM.sol\":9144:9152  oldValue */\n      dup1\n        /* \"contracts/sOHM.sol\":9125:9140  subtractedValue */\n      dup4\n        /* \"contracts/sOHM.sol\":9125:9152  subtractedValue >= oldValue */\n      lt\n        /* \"contracts/sOHM.sol\":9121:9324  if (subtractedValue >= oldValue) {... */\n      tag_195\n      jumpi\n        /* \"contracts/sOHM.sol\":9209:9210  0 */\n      0x00\n        /* \"contracts/sOHM.sol\":9168:9181  _allowedValue */\n      0x10\n        /* \"contracts/sOHM.sol\":9168:9195  _allowedValue[ msg.sender ] */\n      0x00\n        /* \"contracts/sOHM.sol\":9183:9193  msg.sender */\n      caller\n        /* \"contracts/sOHM.sol\":9168:9195  _allowedValue[ msg.sender ] */\n      0xffffffffffffffffffffffffffffffffffffffff\n      and\n      0xffffffffffffffffffffffffffffffffffffffff\n      and\n      dup2\n      mstore\n      0x20\n      add\n      swap1\n      dup2\n      mstore\n      0x20\n      add\n      0x00\n      keccak256\n        /* \"contracts/sOHM.sol\":9168:9206  _allowedValue[ msg.sender ][ spender ] */\n      0x00\n        /* \"contracts/sOHM.sol\":9197:9204  spender */\n      dup7\n        /* \"contracts/sOHM.sol\":9168:9206  _allowedValue[ msg.sender ][ spender ] */\n      0xffffffffffffffffffffffffffffffffffffffff\n      and\n      0xffffffffffffffffffffffffffffffffffffffff\n      and\n      dup2\n      mstore\n      0x20\n      add\n      swap1\n      dup2\n      mstore\n      0x20\n      add\n      0x00\n      keccak256\n        /* \"contracts/sOHM.sol\":9168:9210  _allowedValue[ msg.sender ][ spender ] = 0 */\n      dup2\n      swap1\n      sstore\n      pop\n        /* \"contracts/sOHM.sol\":9121:9324  if (subtractedValue >= oldValue) {... */\n      jump(tag_196)\n    tag_195:\n        /* \"contracts/sOHM.sol\":9282:9313  oldValue.sub( subtractedValue ) */\n      tag_197\n        /* \"contracts/sOHM.sol\":9296:9311  subtractedValue */\n      dup4\n        /* \"contracts/sOHM.sol\":9282:9290  oldValue */\n      dup3\n        /* \"contracts/sOHM.sol\":9282:9294  oldValue.sub */\n      tag_157\n      swap1\n        /* \"contracts/sOHM.sol\":9282:9313  oldValue.sub( subtractedValue ) */\n      swap2\n      swap1\n      0xffffffff\n      and\n      jump\t// in\n    tag_197:\n        /* \"contracts/sOHM.sol\":9241:9254  _allowedValue */\n      0x10\n        /* \"contracts/sOHM.sol\":9241:9268  _allowedValue[ msg.sender ] */\n      0x00\n        /* \"contracts/sOHM.sol\":9256:9266  msg.sender */\n      caller\n        /* \"contracts/sOHM.sol\":9241:9268  _allowedValue[ msg.sender ] */\n      0xffffffffffffffffffffffffffffffffffffffff\n      and\n      0xffffffffffffffffffffffffffffffffffffffff\n      and\n      dup2\n      mstore\n      0x20\n      add\n      swap1\n      dup2\n      mstore\n      0x20\n      add\n      0x00\n      keccak256\n        /* \"contracts/sOHM.sol\":9241:9279  _allowedValue[ msg.sender ][ spender ] */\n      0x00\n        /* \"contracts/sOHM.sol\":9270:9277  spender */\n      dup7\n        /* \"contracts/sOHM.sol\":9241:9279  _allowedValue[ msg.sender ][ spender ] */\n      0xffffffffffffffffffffffffffffffffffffffff\n      and\n      0xffffffffffffffffffffffffffffffffffffffff\n      and\n      dup2\n      mstore\n      0x20\n      add\n      swap1\n      dup2\n      mstore\n      0x20\n      add\n      0x00\n      keccak256\n        /* \"contracts/sOHM.sol\":9241:9313  _allowedValue[ msg.sender ][ spender ] = oldValue.sub( subtractedValue ) */\n      dup2\n      swap1\n      sstore\n      pop\n        /* \"contracts/sOHM.sol\":9121:9324  if (subtractedValue >= oldValue) {... */\n    tag_196:\n        /* \"contracts/sOHM.sol\":9360:9367  spender */\n      dup4\n        /* \"contracts/sOHM.sol\":9338:9409  Approval( msg.sender, spender, _allowedValue[ msg.sender ][ spender ] ) */\n      0xffffffffffffffffffffffffffffffffffffffff\n      and\n        /* \"contracts/sOHM.sol\":9348:9358  msg.sender */\n      caller\n        /* \"contracts/sOHM.sol\":9338:9409  Approval( msg.sender, spender, _allowedValue[ msg.sender ][ spender ] ) */\n      0xffffffffffffffffffffffffffffffffffffffff\n      and\n      0x8c5be1e5ebec7d5bd14f71427d1e84f3dd0314c0f7b2291e5b200ac8c7c3b925\n        /* \"contracts/sOHM.sol\":9369:9382  _allowedValue */\n      0x10\n        /* \"contracts/sOHM.sol\":9369:9396  _allowedValue[ msg.sender ] */\n      0x00\n        /* \"contracts/sOHM.sol\":9384:9394  msg.sender */\n      caller\n        /* \"contracts/sOHM.sol\":9369:9396  _allowedValue[ msg.sender ] */\n      0xffffffffffffffffffffffffffffffffffffffff\n      and\n      0xffffffffffffffffffffffffffffffffffffffff\n      and\n      dup2\n      mstore\n      0x20\n      add\n      swap1\n      dup2\n      mstore\n      0x20\n      add\n      0x00\n      keccak256\n        /* \"contracts/sOHM.sol\":9369:9407  _allowedValue[ msg.sender ][ spender ] */\n      0x00\n        /* \"contracts/sOHM.sol\":9398:9405  spender */\n      dup9\n        /* \"contracts/sOHM.sol\":9369:9407  _allowedValue[ msg.sender ][ spender ] */\n      0xffffffffffffffffffffffffffffffffffffffff\n      and\n      0xffffffffffffffffffffffffffffffffffffffff\n      and\n      dup2\n      mstore\n      0x20\n      add\n      swap1\n      dup2\n      mstore\n      0x20\n      add\n      0x00\n      keccak256\n      sload\n        /* \"contracts/sOHM.sol\":9338:9409  Approval( msg.sender, spender, _allowedValue[ msg.sender ][ spender ] ) */\n      mload(0x40)\n      dup1\n      dup3\n      dup2\n      mstore\n      0x20\n      add\n      swap2\n      pop\n      pop\n      mload(0x40)\n      dup1\n      swap2\n      sub\n      swap1\n      log3\n        /* \"contracts/sOHM.sol\":9426:9430  true */\n      0x01\n        /* \"contracts/sOHM.sol\":9419:9430  return true */\n      swap2\n      pop\n      pop\n        /* \"contracts/sOHM.sol\":8942:9437  function decreaseAllowance( address spender, uint256 subtractedValue ) public override returns (bool) {... */\n      swap3\n      swap2\n      pop\n      pop\n      jump\t// out\n        /* \"contracts/sOHM.sol\":7097:7455  function transfer( address to, uint256 value ) public override returns (bool) {... */\n    tag_112:\n        /* \"contracts/sOHM.sol\":7169:7173  bool */\n      0x00\n        /* \"contracts/sOHM.sol\":7185:7201  uint256 gonValue */\n      dup1\n        /* \"contracts/sOHM.sol\":7204:7233  value.mul( _gonsPerFragment ) */\n      tag_199\n        /* \"contracts/sOHM.sol\":7215:7231  _gonsPerFragment */\n      sload(0x0e)\n        /* \"contracts/sOHM.sol\":7204:7209  value */\n      dup5\n        /* \"contracts/sOHM.sol\":7204:7213  value.mul */\n      tag_135\n      swap1\n        /* \"contracts/sOHM.sol\":7204:7233  value.mul( _gonsPerFragment ) */\n      swap2\n      swap1\n      0xffffffff\n      and\n      jump\t// in\n    tag_199:\n        /* \"contracts/sOHM.sol\":7185:7233  uint256 gonValue = value.mul( _gonsPerFragment ) */\n      swap1\n      pop\n        /* \"contracts/sOHM.sol\":7272:7314  _gonBalances[ msg.sender ].sub( gonValue ) */\n      tag_200\n        /* \"contracts/sOHM.sol\":7304:7312  gonValue */\n      dup2\n        /* \"contracts/sOHM.sol\":7272:7284  _gonBalances */\n      0x0f\n        /* \"contracts/sOHM.sol\":7272:7298  _gonBalances[ msg.sender ] */\n      0x00\n        /* \"contracts/sOHM.sol\":7286:7296  msg.sender */\n      caller\n        /* \"contracts/sOHM.sol\":7272:7298  _gonBalances[ msg.sender ] */\n      0xffffffffffffffffffffffffffffffffffffffff\n      and\n      0xffffffffffffffffffffffffffffffffffffffff\n      and\n      dup2\n      mstore\n      0x20\n      add\n      swap1\n      dup2\n      mstore\n      0x20\n      add\n      0x00\n      keccak256\n      sload\n        /* \"contracts/sOHM.sol\":7272:7302  _gonBalances[ msg.sender ].sub */\n      tag_157\n      swap1\n        /* \"contracts/sOHM.sol\":7272:7314  _gonBalances[ msg.sender ].sub( gonValue ) */\n      swap2\n      swap1\n      0xffffffff\n      and\n      jump\t// in\n    tag_200:\n        /* \"contracts/sOHM.sol\":7243:7255  _gonBalances */\n      0x0f\n        /* \"contracts/sOHM.sol\":7243:7269  _gonBalances[ msg.sender ] */\n      0x00\n        /* \"contracts/sOHM.sol\":7257:7267  msg.sender */\n      caller\n        /* \"contracts/sOHM.sol\":7243:7269  _gonBalances[ msg.sender ] */\n      0xffffffffffffffffffffffffffffffffffffffff\n      and\n      0xffffffffffffffffffffffffffffffffffffffff\n      and\n      dup2\n      mstore\n      0x20\n      add\n      swap1\n      dup2\n      mstore\n      0x20\n      add\n      0x00\n      keccak256\n        /* \"contracts/sOHM.sol\":7243:7314  _gonBalances[ msg.sender ] = _gonBalances[ msg.sender ].sub( gonValue ) */\n      dup2\n      swap1\n      sstore\n      pop\n        /* \"contracts/sOHM.sol\":7345:7379  _gonBalances[ to ].add( gonValue ) */\n      tag_201\n        /* \"contracts/sOHM.sol\":7369:7377  gonValue */\n      dup2\n        /* \"contracts/sOHM.sol\":7345:7357  _gonBalances */\n      0x0f\n        /* \"contracts/sOHM.sol\":7345:7363  _gonBalances[ to ] */\n      0x00\n        /* \"contracts/sOHM.sol\":7359:7361  to */\n      dup8\n        /* \"contracts/sOHM.sol\":7345:7363  _gonBalances[ to ] */\n      0xffffffffffffffffffffffffffffffffffffffff\n      and\n      0xffffffffffffffffffffffffffffffffffffffff\n      and\n      dup2\n      mstore\n      0x20\n      add\n      swap1\n      dup2\n      mstore\n      0x20\n      add\n      0x00\n      keccak256\n      sload\n        /* \"contracts/sOHM.sol\":7345:7367  _gonBalances[ to ].add */\n      tag_138\n      swap1\n        /* \"contracts/sOHM.sol\":7345:7379  _gonBalances[ to ].add( gonValue ) */\n      swap2\n      swap1\n      0xffffffff\n      and\n      jump\t// in\n    tag_201:\n        /* \"contracts/sOHM.sol\":7324:7336  _gonBalances */\n      0x0f\n        /* \"contracts/sOHM.sol\":7324:7342  _gonBalances[ to ] */\n      0x00\n        /* \"contracts/sOHM.sol\":7338:7340  to */\n      dup7\n        /* \"contracts/sOHM.sol\":7324:7342  _gonBalances[ to ] */\n      0xffffffffffffffffffffffffffffffffffffffff\n      and\n      0xffffffffffffffffffffffffffffffffffffffff\n      and\n      dup2\n      mstore\n      0x20\n      add\n      swap1\n      dup2\n      mstore\n      0x20\n      add\n      0x00\n      keccak256\n        /* \"contracts/sOHM.sol\":7324:7379  _gonBalances[ to ] = _gonBalances[ to ].add( gonValue ) */\n      dup2\n      swap1\n      sstore\n      pop\n        /* \"contracts/sOHM.sol\":7416:7418  to */\n      dup4\n        /* \"contracts/sOHM.sol\":7394:7427  Transfer( msg.sender, to, value ) */\n      0xffffffffffffffffffffffffffffffffffffffff\n      and\n        /* \"contracts/sOHM.sol\":7404:7414  msg.sender */\n      caller\n        /* \"contracts/sOHM.sol\":7394:7427  Transfer( msg.sender, to, value ) */\n      0xffffffffffffffffffffffffffffffffffffffff\n      and\n      0xddf252ad1be2c89b69c2b068fc378daa952ba7f163c4a11628f55a4df523b3ef\n        /* \"contracts/sOHM.sol\":7420:7425  value */\n      dup6\n        /* \"contracts/sOHM.sol\":7394:7427  Transfer( msg.sender, to, value ) */\n      mload(0x40)\n      dup1\n      dup3\n      dup2\n      mstore\n      0x20\n      add\n      swap2\n      pop\n      pop\n      mload(0x40)\n      dup1\n      swap2\n      sub\n      swap1\n      log3\n        /* \"contracts/sOHM.sol\":7444:7448  true */\n      0x01\n        /* \"contracts/sOHM.sol\":7437:7448  return true */\n      swap2\n      pop\n      pop\n        /* \"contracts/sOHM.sol\":7097:7455  function transfer( address to, uint256 value ) public override returns (bool) {... */\n      swap3\n      swap2\n      pop\n      pop\n      jump\t// out\n        /* \"contracts/sOHM.sol\":3860:4331  function initialize( address stakingContract_ ) external returns ( bool ) {... */\n    tag_115:\n        /* \"contracts/sOHM.sol\":3927:3931  bool */\n      0x00\n        /* \"contracts/sOHM.sol\":3967:3978  initializer */\n      0x0b\n      0x00\n      swap1\n      sload\n      swap1\n      0x0100\n      exp\n      swap1\n      div\n      0xffffffffffffffffffffffffffffffffffffffff\n      and\n        /* \"contracts/sOHM.sol\":3953:3978  msg.sender == initializer */\n      0xffffffffffffffffffffffffffffffffffffffff\n      and\n        /* \"contracts/sOHM.sol\":3953:3963  msg.sender */\n      caller\n        /* \"contracts/sOHM.sol\":3953:3978  msg.sender == initializer */\n      0xffffffffffffffffffffffffffffffffffffffff\n      and\n      eq\n        /* \"contracts/sOHM.sol\":3944:3980  require( msg.sender == initializer ) */\n      tag_203\n      jumpi\n      0x00\n      dup1\n      revert\n    tag_203:\n        /* \"contracts/sOHM.sol\":4027:4028  0 */\n      0x00\n        /* \"contracts/sOHM.sol\":3999:4029  stakingContract_ != address(0) */\n      0xffffffffffffffffffffffffffffffffffffffff\n      and\n        /* \"contracts/sOHM.sol\":3999:4015  stakingContract_ */\n      dup3\n        /* \"contracts/sOHM.sol\":3999:4029  stakingContract_ != address(0) */\n      0xffffffffffffffffffffffffffffffffffffffff\n      and\n      eq\n      iszero\n        /* \"contracts/sOHM.sol\":3990:4031  require( stakingContract_ != address(0) ) */\n      tag_204\n      jumpi\n      0x00\n      dup1\n      revert\n    tag_204:\n        /* \"contracts/sOHM.sol\":4059:4075  stakingContract_ */\n      dup2\n        /* \"contracts/sOHM.sol\":4041:4056  stakingContract */\n      0x0a\n      0x00\n        /* \"contracts/sOHM.sol\":4041:4075  stakingContract = stakingContract_ */\n      0x0100\n      exp\n      dup2\n      sload\n      dup2\n      0xffffffffffffffffffffffffffffffffffffffff\n      mul\n      not\n      and\n      swap1\n      dup4\n      0xffffffffffffffffffffffffffffffffffffffff\n      and\n      mul\n      or\n      swap1\n      sstore\n      pop\n        /* \"contracts/sOHM.sol\":3032:3047  5000000 * 10**9 */\n      0x11c37937e08000\n        /* \"contracts/sOHM.sol\":2972:2973  0 */\n      0x00\n        /* \"contracts/sOHM.sol\":2963:2974  ~uint256(0) */\n      not\n        /* \"contracts/sOHM.sol\":3280:3318  MAX_UINT256 % INITIAL_FRAGMENTS_SUPPLY */\n      dup2\n      tag_205\n      jumpi\n      invalid\n    tag_205:\n      mod\n        /* \"contracts/sOHM.sol\":2972:2973  0 */\n      0x00\n        /* \"contracts/sOHM.sol\":2963:2974  ~uint256(0) */\n      not\n        /* \"contracts/sOHM.sol\":3265:3319  MAX_UINT256 - (MAX_UINT256 % INITIAL_FRAGMENTS_SUPPLY) */\n      sub\n        /* \"contracts/sOHM.sol\":4085:4097  _gonBalances */\n      0x0f\n        /* \"contracts/sOHM.sol\":4085:4116  _gonBalances[ stakingContract ] */\n      0x00\n        /* \"contracts/sOHM.sol\":4099:4114  stakingContract */\n      0x0a\n      0x00\n      swap1\n      sload\n      swap1\n      0x0100\n      exp\n      swap1\n      div\n      0xffffffffffffffffffffffffffffffffffffffff\n      and\n        /* \"contracts/sOHM.sol\":4085:4116  _gonBalances[ stakingContract ] */\n      0xffffffffffffffffffffffffffffffffffffffff\n      and\n      0xffffffffffffffffffffffffffffffffffffffff\n      and\n      dup2\n      mstore\n      0x20\n      add\n      swap1\n      dup2\n      mstore\n      0x20\n      add\n      0x00\n      keccak256\n        /* \"contracts/sOHM.sol\":4085:4129  _gonBalances[ stakingContract ] = TOTAL_GONS */\n      dup2\n      swap1\n      sstore\n      pop\n        /* \"contracts/sOHM.sol\":4169:4184  stakingContract */\n      0x0a\n      0x00\n      swap1\n      sload\n      swap1\n      0x0100\n      exp\n      swap1\n      div\n      0xffffffffffffffffffffffffffffffffffffffff\n      and\n        /* \"contracts/sOHM.sol\":4145:4200  Transfer( address(0x0), stakingContract, _totalSupply ) */\n      0xffffffffffffffffffffffffffffffffffffffff\n      and\n        /* \"contracts/sOHM.sol\":4163:4166  0x0 */\n      0x00\n        /* \"contracts/sOHM.sol\":4145:4200  Transfer( address(0x0), stakingContract, _totalSupply ) */\n      0xffffffffffffffffffffffffffffffffffffffff\n      and\n      0xddf252ad1be2c89b69c2b068fc378daa952ba7f163c4a11628f55a4df523b3ef\n        /* \"contracts/sOHM.sol\":4186:4198  _totalSupply */\n      sload(0x02)\n        /* \"contracts/sOHM.sol\":4145:4200  Transfer( address(0x0), stakingContract, _totalSupply ) */\n      mload(0x40)\n      dup1\n      dup3\n      dup2\n      mstore\n      0x20\n      add\n      swap2\n      pop\n      pop\n      mload(0x40)\n      dup1\n      swap2\n      sub\n      swap1\n      log3\n        /* \"contracts/sOHM.sol\":4215:4260  LogStakingContractUpdated( stakingContract_ ) */\n      0x817c653428858ed536dc085c5d8273734c517b55de44b55f5c5877a75e3373a1\n        /* \"contracts/sOHM.sol\":4242:4258  stakingContract_ */\n      dup3\n        /* \"contracts/sOHM.sol\":4215:4260  LogStakingContractUpdated( stakingContract_ ) */\n      mload(0x40)\n      dup1\n      dup3\n      0xffffffffffffffffffffffffffffffffffffffff\n      and\n      dup2\n      mstore\n      0x20\n      add\n      swap2\n      pop\n      pop\n      mload(0x40)\n      dup1\n      swap2\n      sub\n      swap1\n      log1\n        /* \"contracts/sOHM.sol\":4301:4302  0 */\n      0x00\n        /* \"contracts/sOHM.sol\":4279:4290  initializer */\n      0x0b\n      0x00\n        /* \"contracts/sOHM.sol\":4279:4303  initializer = address(0) */\n      0x0100\n      exp\n      dup2\n      sload\n      dup2\n      0xffffffffffffffffffffffffffffffffffffffff\n      mul\n      not\n      and\n      swap1\n      dup4\n      0xffffffffffffffffffffffffffffffffffffffff\n      and\n      mul\n      or\n      swap1\n      sstore\n      pop\n        /* \"contracts/sOHM.sol\":4320:4324  true */\n      0x01\n        /* \"contracts/sOHM.sol\":4313:4324  return true */\n      swap1\n      pop\n        /* \"contracts/sOHM.sol\":3860:4331  function initialize( address stakingContract_ ) external returns ( bool ) {... */\n      swap2\n      swap1\n      pop\n      jump\t// out\n        /* \"contracts/types/ERC20Permit.sol\":1072:1821  function permit(... */\n    tag_118:\n        /* \"contracts/types/ERC20Permit.sol\":1308:1316  deadline */\n      dup4\n        /* \"contracts/types/ERC20Permit.sol\":1289:1304  block.timestamp */\n      timestamp\n        /* \"contracts/types/ERC20Permit.sol\":1289:1316  block.timestamp <= deadline */\n      gt\n      iszero\n        /* \"contracts/types/ERC20Permit.sol\":1281:1345  require(block.timestamp <= deadline, \"Permit: expired deadline\") */\n      tag_207\n      jumpi\n      mload(0x40)\n      0x08c379a000000000000000000000000000000000000000000000000000000000\n      dup2\n      mstore\n      0x04\n      add\n      dup1\n      dup1\n      0x20\n      add\n      dup3\n      dup2\n      sub\n      dup3\n      mstore\n      0x18\n      dup2\n      mstore\n      0x20\n      add\n      dup1\n      0x5065726d69743a206578706972656420646561646c696e650000000000000000\n      dup2\n      mstore\n      pop\n      0x20\n      add\n      swap2\n      pop\n      pop\n      mload(0x40)\n      dup1\n      swap2\n      sub\n      swap1\n      revert\n    tag_207:\n        /* \"contracts/types/ERC20Permit.sol\":1356:1374  bytes32 hashStruct */\n      0x00\n        /* \"contracts/types/ERC20Permit.sol\":480:546  0x6e71edae12b1b97f4d1f60370fef10105fa2faae0126114a169c64845d6126c9 */\n      0x6e71edae12b1b97f4d1f60370fef10105fa2faae0126114a169c64845d6126c9\n        /* \"contracts/types/ERC20Permit.sol\":1410:1425  PERMIT_TYPEHASH */\n      0x00\n      shl\n        /* \"contracts/types/ERC20Permit.sol\":1427:1432  owner */\n      dup9\n        /* \"contracts/types/ERC20Permit.sol\":1434:1441  spender */\n      dup9\n        /* \"contracts/types/ERC20Permit.sol\":1443:1449  amount */\n      dup9\n        /* \"contracts/types/ERC20Permit.sol\":1451:1475  _nonces[owner].current() */\n      tag_208\n        /* \"contracts/types/ERC20Permit.sol\":1451:1458  _nonces */\n      0x06\n        /* \"contracts/types/ERC20Permit.sol\":1451:1465  _nonces[owner] */\n      0x00\n        /* \"contracts/types/ERC20Permit.sol\":1459:1464  owner */\n      dup15\n        /* \"contracts/types/ERC20Permit.sol\":1451:1465  _nonces[owner] */\n      0xffffffffffffffffffffffffffffffffffffffff\n      and\n      0xffffffffffffffffffffffffffffffffffffffff\n      and\n      dup2\n      mstore\n      0x20\n      add\n      swap1\n      dup2\n      mstore\n      0x20\n      add\n      0x00\n      keccak256\n        /* \"contracts/types/ERC20Permit.sol\":1451:1473  _nonces[owner].current */\n      tag_186\n        /* \"contracts/types/ERC20Permit.sol\":1451:1475  _nonces[owner].current() */\n      jump\t// in\n    tag_208:\n        /* \"contracts/types/ERC20Permit.sol\":1477:1485  deadline */\n      dup10\n        /* \"contracts/types/ERC20Permit.sol\":1399:1486  abi.encode(PERMIT_TYPEHASH, owner, spender, amount, _nonces[owner].current(), deadline) */\n      add(0x20, mload(0x40))\n      dup1\n      dup8\n      dup2\n      mstore\n      0x20\n      add\n      dup7\n      0xffffffffffffffffffffffffffffffffffffffff\n      and\n      dup2\n      mstore\n      0x20\n      add\n      dup6\n      0xffffffffffffffffffffffffffffffffffffffff\n      and\n      dup2\n      mstore\n      0x20\n      add\n      dup5\n      dup2\n      mstore\n      0x20\n      add\n      dup4\n      dup2\n      mstore\n      0x20\n      add\n      dup3\n      dup2\n      mstore\n      0x20\n      add\n      swap7\n      pop\n      pop\n      pop\n      pop\n      pop\n      pop\n      pop\n      mload(0x40)\n      0x20\n      dup2\n      dup4\n      sub\n      sub\n      dup2\n      mstore\n      swap1\n      0x40\n      mstore\n        /* \"contracts/types/ERC20Permit.sol\":1389:1487  keccak256(abi.encode(PERMIT_TYPEHASH, owner, spender, amount, _nonces[owner].current(), deadline)) */\n      dup1\n      mload\n      swap1\n      0x20\n      add\n      keccak256\n        /* \"contracts/types/ERC20Permit.sol\":1356:1487  bytes32 hashStruct =... */\n      swap1\n      pop\n        /* \"contracts/types/ERC20Permit.sol\":1498:1511  bytes32 _hash */\n      0x00\n        /* \"contracts/types/ERC20Permit.sol\":1548:1554  0x1901 */\n      0x1901\n        /* \"contracts/types/ERC20Permit.sol\":1557:1573  DOMAIN_SEPARATOR */\n      sload(0x07)\n        /* \"contracts/types/ERC20Permit.sol\":1575:1585  hashStruct */\n      dup4\n        /* \"contracts/types/ERC20Permit.sol\":1524:1586  abi.encodePacked(uint16(0x1901), DOMAIN_SEPARATOR, hashStruct) */\n      add(0x20, mload(0x40))\n      dup1\n      dup5\n      0xffff\n      and\n      0xf0\n      shl\n      dup2\n      mstore\n      0x02\n      add\n      dup4\n      dup2\n      mstore\n      0x20\n      add\n      dup3\n      dup2\n      mstore\n      0x20\n      add\n      swap4\n      pop\n      pop\n      pop\n      pop\n      mload(0x40)\n      0x20\n      dup2\n      dup4\n      sub\n      sub\n      dup2\n      mstore\n      swap1\n      0x40\n      mstore\n        /* \"contracts/types/ERC20Permit.sol\":1514:1587  keccak256(abi.encodePacked(uint16(0x1901), DOMAIN_SEPARATOR, hashStruct)) */\n      dup1\n      mload\n      swap1\n      0x20\n      add\n      keccak256\n        /* \"contracts/types/ERC20Permit.sol\":1498:1587  bytes32 _hash = keccak256(abi.encodePacked(uint16(0x1901), DOMAIN_SEPARATOR, hashStruct)) */\n      swap1\n      pop\n        /* \"contracts/types/ERC20Permit.sol\":1598:1612  address signer */\n      0x00\n        /* \"contracts/types/ERC20Permit.sol\":1615:1640  ecrecover(_hash, v, r, s) */\n      0x01\n        /* \"contracts/types/ERC20Permit.sol\":1625:1630  _hash */\n      dup3\n        /* \"contracts/types/ERC20Permit.sol\":1632:1633  v */\n      dup8\n        /* \"contracts/types/ERC20Permit.sol\":1635:1636  r */\n      dup8\n        /* \"contracts/types/ERC20Permit.sol\":1638:1639  s */\n      dup8\n        /* \"contracts/types/ERC20Permit.sol\":1615:1640  ecrecover(_hash, v, r, s) */\n      mload(0x40)\n      0x00\n      dup2\n      mstore\n      0x20\n      add\n      0x40\n      mstore\n      mload(0x40)\n      dup1\n      dup6\n      dup2\n      mstore\n      0x20\n      add\n      dup5\n      0xff\n      and\n      dup2\n      mstore\n      0x20\n      add\n      dup4\n      dup2\n      mstore\n      0x20\n      add\n      dup3\n      dup2\n      mstore\n      0x20\n      add\n      swap5\n      pop\n      pop\n      pop\n      pop\n      pop\n      0x20\n      mload(0x40)\n      0x20\n      dup2\n      sub\n      swap1\n      dup1\n      dup5\n      sub\n      swap1\n      dup6\n      gas\n      staticcall\n      iszero\n      dup1\n      iszero\n      tag_210\n      jumpi\n      returndatasize\n      0x00\n      dup1\n      returndatacopy\n      revert(0x00, returndatasize)\n    tag_210:\n      pop\n      pop\n      pop\n      mload(sub(mload(0x40), 0x20))\n        /* \"contracts/types/ERC20Permit.sol\":1598:1640  address signer = ecrecover(_hash, v, r, s) */\n      swap1\n      pop\n        /* \"contracts/types/ERC20Permit.sol\":1676:1677  0 */\n      0x00\n        /* \"contracts/types/ERC20Permit.sol\":1658:1678  signer != address(0) */\n      0xffffffffffffffffffffffffffffffffffffffff\n      and\n        /* \"contracts/types/ERC20Permit.sol\":1658:1664  signer */\n      dup2\n        /* \"contracts/types/ERC20Permit.sol\":1658:1678  signer != address(0) */\n      0xffffffffffffffffffffffffffffffffffffffff\n      and\n      eq\n      iszero\n        /* \"contracts/types/ERC20Permit.sol\":1658:1697  signer != address(0) && signer == owner */\n      dup1\n      iszero\n      tag_211\n      jumpi\n      pop\n        /* \"contracts/types/ERC20Permit.sol\":1692:1697  owner */\n      dup10\n        /* \"contracts/types/ERC20Permit.sol\":1682:1697  signer == owner */\n      0xffffffffffffffffffffffffffffffffffffffff\n      and\n        /* \"contracts/types/ERC20Permit.sol\":1682:1688  signer */\n      dup2\n        /* \"contracts/types/ERC20Permit.sol\":1682:1697  signer == owner */\n      0xffffffffffffffffffffffffffffffffffffffff\n      and\n      eq\n        /* \"contracts/types/ERC20Permit.sol\":1658:1697  signer != address(0) && signer == owner */\n    tag_211:\n        /* \"contracts/types/ERC20Permit.sol\":1650:1735  require(signer != address(0) && signer == owner, \"ZeroSwapPermit: Invalid signature\") */\n      tag_212\n      jumpi\n      mload(0x40)\n      0x08c379a000000000000000000000000000000000000000000000000000000000\n      dup2\n      mstore\n      0x04\n      add\n      dup1\n      dup1\n      0x20\n      add\n      dup3\n      dup2\n      sub\n      dup3\n      mstore\n      0x21\n      dup2\n      mstore\n      0x20\n      add\n      dup1\n      data_5ef653edfc38c403ea52d691304feffa27a665e594b07a1719ac6b055d64dbee\n      0x21\n      swap2\n      codecopy\n      0x40\n      add\n      swap2\n      pop\n      pop\n      mload(0x40)\n      dup1\n      swap2\n      sub\n      swap1\n      revert\n    tag_212:\n        /* \"contracts/types/ERC20Permit.sol\":1746:1772  _nonces[owner].increment() */\n      tag_213\n        /* \"contracts/types/ERC20Permit.sol\":1746:1753  _nonces */\n      0x06\n        /* \"contracts/types/ERC20Permit.sol\":1746:1760  _nonces[owner] */\n      0x00\n        /* \"contracts/types/ERC20Permit.sol\":1754:1759  owner */\n      dup13\n        /* \"contracts/types/ERC20Permit.sol\":1746:1760  _nonces[owner] */\n      0xffffffffffffffffffffffffffffffffffffffff\n      and\n      0xffffffffffffffffffffffffffffffffffffffff\n      and\n      dup2\n      mstore\n      0x20\n      add\n      swap1\n      dup2\n      mstore\n      0x20\n      add\n      0x00\n      keccak256\n        /* \"contracts/types/ERC20Permit.sol\":1746:1770  _nonces[owner].increment */\n      tag_214\n        /* \"contracts/types/ERC20Permit.sol\":1746:1772  _nonces[owner].increment() */\n      jump\t// in\n    tag_213:\n        /* \"contracts/types/ERC20Permit.sol\":1782:1814  _approve(owner, spender, amount) */\n      tag_215\n        /* \"contracts/types/ERC20Permit.sol\":1791:1796  owner */\n      dup11\n        /* \"contracts/types/ERC20Permit.sol\":1798:1805  spender */\n      dup11\n        /* \"contracts/types/ERC20Permit.sol\":1807:1813  amount */\n      dup11\n        /* \"contracts/types/ERC20Permit.sol\":1782:1790  _approve */\n      tag_216\n        /* \"contracts/types/ERC20Permit.sol\":1782:1814  _approve(owner, spender, amount) */\n      jump\t// in\n    tag_215:\n        /* \"contracts/types/ERC20Permit.sol\":1072:1821  function permit(... */\n      pop\n      pop\n      pop\n      pop\n      pop\n      pop\n      pop\n      pop\n      pop\n      pop\n      jump\t// out\n        /* \"contracts/sOHM.sol\":7461:7614  function allowance( address owner_, address spender ) public view override returns ( uint256 ) {... */\n    tag_121:\n        /* \"contracts/sOHM.sol\":7546:7553  uint256 */\n      0x00\n        /* \"contracts/sOHM.sol\":7573:7586  _allowedValue */\n      0x10\n        /* \"contracts/sOHM.sol\":7573:7596  _allowedValue[ owner_ ] */\n      0x00\n        /* \"contracts/sOHM.sol\":7588:7594  owner_ */\n      dup5\n        /* \"contracts/sOHM.sol\":7573:7596  _allowedValue[ owner_ ] */\n      0xffffffffffffffffffffffffffffffffffffffff\n      and\n      0xffffffffffffffffffffffffffffffffffffffff\n      and\n      dup2\n      mstore\n      0x20\n      add\n      swap1\n      dup2\n      mstore\n      0x20\n      add\n      0x00\n      keccak256\n        /* \"contracts/sOHM.sol\":7573:7607  _allowedValue[ owner_ ][ spender ] */\n      0x00\n        /* \"contracts/sOHM.sol\":7598:7605  spender */\n      dup4\n        /* \"contracts/sOHM.sol\":7573:7607  _allowedValue[ owner_ ][ spender ] */\n      0xffffffffffffffffffffffffffffffffffffffff\n      and\n      0xffffffffffffffffffffffffffffffffffffffff\n      and\n      dup2\n      mstore\n      0x20\n      add\n      swap1\n      dup2\n      mstore\n      0x20\n      add\n      0x00\n      keccak256\n      sload\n        /* \"contracts/sOHM.sol\":7566:7607  return _allowedValue[ owner_ ][ spender ] */\n      swap1\n      pop\n        /* \"contracts/sOHM.sol\":7461:7614  function allowance( address owner_, address spender ) public view override returns ( uint256 ) {... */\n      swap3\n      swap2\n      pop\n      pop\n      jump\t// out\n        /* \"contracts/sOHM.sol\":2348:2378  address public stakingContract */\n    tag_123:\n      0x0a\n      0x00\n      swap1\n      sload\n      swap1\n      0x0100\n      exp\n      swap1\n      div\n      0xffffffffffffffffffffffffffffffffffffffff\n      and\n      dup2\n      jump\t// out\n        /* \"contracts/libraries/SafeMath.sol\":961:1091  function div(uint256 a, uint256 b) internal pure returns (uint256) {... */\n    tag_124:\n        /* \"contracts/libraries/SafeMath.sol\":1019:1026  uint256 */\n      0x00\n        /* \"contracts/libraries/SafeMath.sol\":1045:1084  div(a, b, \"SafeMath: division by zero\") */\n      tag_219\n        /* \"contracts/libraries/SafeMath.sol\":1049:1050  a */\n      dup4\n        /* \"contracts/libraries/SafeMath.sol\":1052:1053  b */\n      dup4\n        /* \"contracts/libraries/SafeMath.sol\":1045:1084  div(a, b, \"SafeMath: division by zero\") */\n      mload(0x40)\n      dup1\n      0x40\n      add\n      0x40\n      mstore\n      dup1\n      0x1a\n      dup2\n      mstore\n      0x20\n      add\n      0x536166654d6174683a206469766973696f6e206279207a65726f000000000000\n      dup2\n      mstore\n      pop\n        /* \"contracts/libraries/SafeMath.sol\":1045:1048  div */\n      tag_220\n        /* \"contracts/libraries/SafeMath.sol\":1045:1084  div(a, b, \"SafeMath: division by zero\") */\n      jump\t// in\n    tag_219:\n        /* \"contracts/libraries/SafeMath.sol\":1038:1084  return div(a, b, \"SafeMath: division by zero\") */\n      swap1\n      pop\n        /* \"contracts/libraries/SafeMath.sol\":961:1091  function div(uint256 a, uint256 b) internal pure returns (uint256) {... */\n      swap3\n      swap2\n      pop\n      pop\n      jump\t// out\n        /* \"contracts/libraries/SafeMath.sol\":714:955  function mul(uint256 a, uint256 b) internal pure returns (uint256) {... */\n    tag_135:\n        /* \"contracts/libraries/SafeMath.sol\":772:779  uint256 */\n      0x00\n        /* \"contracts/libraries/SafeMath.sol\":800:801  0 */\n      dup1\n        /* \"contracts/libraries/SafeMath.sol\":795:796  a */\n      dup4\n        /* \"contracts/libraries/SafeMath.sol\":795:801  a == 0 */\n      eq\n        /* \"contracts/libraries/SafeMath.sol\":791:836  if (a == 0) {... */\n      iszero\n      tag_222\n      jumpi\n        /* \"contracts/libraries/SafeMath.sol\":824:825  0 */\n      0x00\n        /* \"contracts/libraries/SafeMath.sol\":817:825  return 0 */\n      swap1\n      pop\n      jump(tag_221)\n        /* \"contracts/libraries/SafeMath.sol\":791:836  if (a == 0) {... */\n    tag_222:\n        /* \"contracts/libraries/SafeMath.sol\":846:855  uint256 c */\n      0x00\n        /* \"contracts/libraries/SafeMath.sol\":862:863  b */\n      dup3\n        /* \"contracts/libraries/SafeMath.sol\":858:859  a */\n      dup5\n        /* \"contracts/libraries/SafeMath.sol\":858:863  a * b */\n      mul\n        /* \"contracts/libraries/SafeMath.sol\":846:863  uint256 c = a * b */\n      swap1\n      pop\n        /* \"contracts/libraries/SafeMath.sol\":890:891  b */\n      dup3\n        /* \"contracts/libraries/SafeMath.sol\":885:886  a */\n      dup5\n        /* \"contracts/libraries/SafeMath.sol\":881:882  c */\n      dup3\n        /* \"contracts/libraries/SafeMath.sol\":881:886  c / a */\n      dup2\n      tag_223\n      jumpi\n      invalid\n    tag_223:\n      div\n        /* \"contracts/libraries/SafeMath.sol\":881:891  c / a == b */\n      eq\n        /* \"contracts/libraries/SafeMath.sol\":873:929  require(c / a == b, \"SafeMath: multiplication overflow\") */\n      tag_224\n      jumpi\n      mload(0x40)\n      0x08c379a000000000000000000000000000000000000000000000000000000000\n      dup2\n      mstore\n      0x04\n      add\n      dup1\n      dup1\n      0x20\n      add\n      dup3\n      dup2\n      sub\n      dup3\n      mstore\n      0x21\n      dup2\n      mstore\n      0x20\n      add\n      dup1\n      data_9113bb53c2876a3805b2c9242029423fc540a728243ce887ab24c82cf119fba3\n      0x21\n      swap2\n      codecopy\n      0x40\n      add\n      swap2\n      pop\n      pop\n      mload(0x40)\n      dup1\n      swap2\n      sub\n      swap1\n      revert\n    tag_224:\n        /* \"contracts/libraries/SafeMath.sol\":947:948  c */\n      dup1\n        /* \"contracts/libraries/SafeMath.sol\":940:948  return c */\n      swap2\n      pop\n      pop\n        /* \"contracts/libraries/SafeMath.sol\":714:955  function mul(uint256 a, uint256 b) internal pure returns (uint256) {... */\n    tag_221:\n      swap3\n      swap2\n      pop\n      pop\n      jump\t// out\n        /* \"contracts/libraries/SafeMath.sol\":199:375  function add(uint256 a, uint256 b) internal pure returns (uint256) {... */\n    tag_138:\n        /* \"contracts/libraries/SafeMath.sol\":257:264  uint256 */\n      0x00\n        /* \"contracts/libraries/SafeMath.sol\":276:285  uint256 c */\n      dup1\n        /* \"contracts/libraries/SafeMath.sol\":292:293  b */\n      dup3\n        /* \"contracts/libraries/SafeMath.sol\":288:289  a */\n      dup5\n        /* \"contracts/libraries/SafeMath.sol\":288:293  a + b */\n      add\n        /* \"contracts/libraries/SafeMath.sol\":276:293  uint256 c = a + b */\n      swap1\n      pop\n        /* \"contracts/libraries/SafeMath.sol\":316:317  a */\n      dup4\n        /* \"contracts/libraries/SafeMath.sol\":311:312  c */\n      dup2\n        /* \"contracts/libraries/SafeMath.sol\":311:317  c >= a */\n      lt\n      iszero\n        /* \"contracts/libraries/SafeMath.sol\":303:349  require(c >= a, \"SafeMath: addition overflow\") */\n      tag_226\n      jumpi\n      mload(0x40)\n      0x08c379a000000000000000000000000000000000000000000000000000000000\n      dup2\n      mstore\n      0x04\n      add\n      dup1\n      dup1\n      0x20\n      add\n      dup3\n      dup2\n      sub\n      dup3\n      mstore\n      0x1b\n      dup2\n      mstore\n      0x20\n      add\n      dup1\n      0x536166654d6174683a206164646974696f6e206f766572666c6f770000000000\n      dup2\n      mstore\n      pop\n      0x20\n      add\n      swap2\n      pop\n      pop\n      mload(0x40)\n      dup1\n      swap2\n      sub\n      swap1\n      revert\n    tag_226:\n        /* \"contracts/libraries/SafeMath.sol\":367:368  c */\n      dup1\n        /* \"contracts/libraries/SafeMath.sol\":360:368  return c */\n      swap2\n      pop\n      pop\n        /* \"contracts/libraries/SafeMath.sol\":199:375  function add(uint256 a, uint256 b) internal pure returns (uint256) {... */\n      swap3\n      swap2\n      pop\n      pop\n      jump\t// out\n        /* \"contracts/sOHM.sol\":5734:6414  function _storeRebase( uint previousCirculating_, uint profit_, uint epoch_ ) internal returns ( bool ) {... */\n    tag_143:\n        /* \"contracts/sOHM.sol\":5831:5835  bool */\n      0x00\n        /* \"contracts/sOHM.sol\":5848:5866  uint rebasePercent */\n      dup1\n        /* \"contracts/sOHM.sol\":5869:5916  profit_.mul( 1e18 ).div( previousCirculating_ ) */\n      tag_228\n        /* \"contracts/sOHM.sol\":5894:5914  previousCirculating_ */\n      dup6\n        /* \"contracts/sOHM.sol\":5869:5888  profit_.mul( 1e18 ) */\n      tag_229\n        /* \"contracts/sOHM.sol\":5882:5886  1e18 */\n      0x0de0b6b3a7640000\n        /* \"contracts/sOHM.sol\":5869:5876  profit_ */\n      dup8\n        /* \"contracts/sOHM.sol\":5869:5880  profit_.mul */\n      tag_135\n      swap1\n        /* \"contracts/sOHM.sol\":5869:5888  profit_.mul( 1e18 ) */\n      swap2\n      swap1\n      0xffffffff\n      and\n      jump\t// in\n    tag_229:\n        /* \"contracts/sOHM.sol\":5869:5892  profit_.mul( 1e18 ).div */\n      tag_124\n      swap1\n        /* \"contracts/sOHM.sol\":5869:5916  profit_.mul( 1e18 ).div( previousCirculating_ ) */\n      swap2\n      swap1\n      0xffffffff\n      and\n      jump\t// in\n    tag_228:\n        /* \"contracts/sOHM.sol\":5848:5916  uint rebasePercent = profit_.mul( 1e18 ).div( previousCirculating_ ) */\n      swap1\n      pop\n        /* \"contracts/sOHM.sol\":5927:5934  rebases */\n      0x0c\n        /* \"contracts/sOHM.sol\":5941:6252  Rebase ( {... */\n      mload(0x40)\n      dup1\n      0xe0\n      add\n      0x40\n      mstore\n      dup1\n        /* \"contracts/sOHM.sol\":5971:5977  epoch_ */\n      dup6\n        /* \"contracts/sOHM.sol\":5941:6252  Rebase ( {... */\n      dup2\n      mstore\n      0x20\n      add\n        /* \"contracts/sOHM.sol\":5999:6012  rebasePercent */\n      dup4\n        /* \"contracts/sOHM.sol\":5941:6252  Rebase ( {... */\n      dup2\n      mstore\n      0x20\n      add\n        /* \"contracts/sOHM.sol\":6060:6080  previousCirculating_ */\n      dup8\n        /* \"contracts/sOHM.sol\":5941:6252  Rebase ( {... */\n      dup2\n      mstore\n      0x20\n      add\n        /* \"contracts/sOHM.sol\":6112:6131  circulatingSupply() */\n      tag_230\n        /* \"contracts/sOHM.sol\":6112:6129  circulatingSupply */\n      tag_98\n        /* \"contracts/sOHM.sol\":6112:6131  circulatingSupply() */\n      jump\t// in\n    tag_230:\n        /* \"contracts/sOHM.sol\":5941:6252  Rebase ( {... */\n      dup2\n      mstore\n      0x20\n      add\n        /* \"contracts/sOHM.sol\":6160:6167  profit_ */\n      dup7\n        /* \"contracts/sOHM.sol\":5941:6252  Rebase ( {... */\n      dup2\n      mstore\n      0x20\n      add\n        /* \"contracts/sOHM.sol\":6188:6195  index() */\n      tag_231\n        /* \"contracts/sOHM.sol\":6188:6193  index */\n      tag_63\n        /* \"contracts/sOHM.sol\":6188:6195  index() */\n      jump\t// in\n    tag_231:\n        /* \"contracts/sOHM.sol\":5941:6252  Rebase ( {... */\n      dup2\n      mstore\n      0x20\n      add\n        /* \"contracts/sOHM.sol\":6229:6241  block.number */\n      number\n        /* \"contracts/sOHM.sol\":5941:6252  Rebase ( {... */\n      dup2\n      mstore\n      pop\n        /* \"contracts/sOHM.sol\":5927:6253  rebases.push( Rebase ( {... */\n      swap1\n      dup1\n      0x01\n      dup2\n      sload\n      add\n      dup1\n      dup3\n      sstore\n      dup1\n      swap2\n      pop\n      pop\n      0x01\n      swap1\n      sub\n      swap1\n      0x00\n      mstore\n      keccak256(0x00, 0x20)\n      swap1\n      0x07\n      mul\n      add\n      0x00\n      swap1\n      swap2\n      swap1\n      swap2\n      swap1\n      swap2\n      pop\n      0x00\n      dup3\n      add\n      mload\n      dup2\n      0x00\n      add\n      sstore\n      0x20\n      dup3\n      add\n      mload\n      dup2\n      0x01\n      add\n      sstore\n      0x40\n      dup3\n      add\n      mload\n      dup2\n      0x02\n      add\n      sstore\n      0x60\n      dup3\n      add\n      mload\n      dup2\n      0x03\n      add\n      sstore\n      0x80\n      dup3\n      add\n      mload\n      dup2\n      0x04\n      add\n      sstore\n      0xa0\n      dup3\n      add\n      mload\n      dup2\n      0x05\n      add\n      sstore\n      0xc0\n      dup3\n      add\n      mload\n      dup2\n      0x06\n      add\n      sstore\n      pop\n      pop\n        /* \"contracts/sOHM.sol\":6288:6294  epoch_ */\n      dup3\n        /* \"contracts/sOHM.sol\":6277:6327  LogSupply( epoch_, block.timestamp, _totalSupply ) */\n      0x917acfbe39be6509ccf7fecb66a7e42ce2be1083c2d7dd3b9b7491dabddb8da4\n        /* \"contracts/sOHM.sol\":6296:6311  block.timestamp */\n      timestamp\n        /* \"contracts/sOHM.sol\":6313:6325  _totalSupply */\n      sload(0x02)\n        /* \"contracts/sOHM.sol\":6277:6327  LogSupply( epoch_, block.timestamp, _totalSupply ) */\n      mload(0x40)\n      dup1\n      dup4\n      dup2\n      mstore\n      0x20\n      add\n      dup3\n      dup2\n      mstore\n      0x20\n      add\n      swap3\n      pop\n      pop\n      pop\n      mload(0x40)\n      dup1\n      swap2\n      sub\n      swap1\n      log2\n        /* \"contracts/sOHM.sol\":6353:6359  epoch_ */\n      dup3\n        /* \"contracts/sOHM.sol\":6342:6385  LogRebase( epoch_, rebasePercent, index() ) */\n      0x6012dbce857565c4a40974aa5de8373a761fc429077ef0c8c8611d1e20d63fb2\n        /* \"contracts/sOHM.sol\":6361:6374  rebasePercent */\n      dup3\n        /* \"contracts/sOHM.sol\":6376:6383  index() */\n      tag_233\n        /* \"contracts/sOHM.sol\":6376:6381  index */\n      tag_63\n        /* \"contracts/sOHM.sol\":6376:6383  index() */\n      jump\t// in\n    tag_233:\n        /* \"contracts/sOHM.sol\":6342:6385  LogRebase( epoch_, rebasePercent, index() ) */\n      mload(0x40)\n      dup1\n      dup4\n      dup2\n      mstore\n      0x20\n      add\n      dup3\n      dup2\n      mstore\n      0x20\n      add\n      swap3\n      pop\n      pop\n      pop\n      mload(0x40)\n      dup1\n      swap2\n      sub\n      swap1\n      log2\n        /* \"contracts/sOHM.sol\":6403:6407  true */\n      0x01\n        /* \"contracts/sOHM.sol\":6396:6407  return true */\n      swap2\n      pop\n      pop\n        /* \"contracts/sOHM.sol\":5734:6414  function _storeRebase( uint previousCirculating_, uint profit_, uint epoch_ ) internal returns ( bool ) {... */\n      swap4\n      swap3\n      pop\n      pop\n      pop\n      jump\t// out\n        /* \"contracts/libraries/SafeMath.sol\":381:515  function sub(uint256 a, uint256 b) internal pure returns (uint256) {... */\n    tag_157:\n        /* \"contracts/libraries/SafeMath.sol\":439:446  uint256 */\n      0x00\n        /* \"contracts/libraries/SafeMath.sol\":465:508  sub(a, b, \"SafeMath: subtraction overflow\") */\n      tag_235\n        /* \"contracts/libraries/SafeMath.sol\":469:470  a */\n      dup4\n        /* \"contracts/libraries/SafeMath.sol\":472:473  b */\n      dup4\n        /* \"contracts/libraries/SafeMath.sol\":465:508  sub(a, b, \"SafeMath: subtraction overflow\") */\n      mload(0x40)\n      dup1\n      0x40\n      add\n      0x40\n      mstore\n      dup1\n      0x1e\n      dup2\n      mstore\n      0x20\n      add\n      0x536166654d6174683a207375627472616374696f6e206f766572666c6f770000\n      dup2\n      mstore\n      pop\n        /* \"contracts/libraries/SafeMath.sol\":465:468  sub */\n      tag_236\n        /* \"contracts/libraries/SafeMath.sol\":465:508  sub(a, b, \"SafeMath: subtraction overflow\") */\n      jump\t// in\n    tag_235:\n        /* \"contracts/libraries/SafeMath.sol\":458:508  return sub(a, b, \"SafeMath: subtraction overflow\") */\n      swap1\n      pop\n        /* \"contracts/libraries/SafeMath.sol\":381:515  function sub(uint256 a, uint256 b) internal pure returns (uint256) {... */\n      swap3\n      swap2\n      pop\n      pop\n      jump\t// out\n        /* \"contracts/libraries/Counters.sol\":532:644  function current(Counter storage counter) internal view returns (uint256) {... */\n    tag_186:\n        /* \"contracts/libraries/Counters.sol\":597:604  uint256 */\n      0x00\n        /* \"contracts/libraries/Counters.sol\":623:630  counter */\n      dup2\n        /* \"contracts/libraries/Counters.sol\":623:637  counter._value */\n      0x00\n      add\n      sload\n        /* \"contracts/libraries/Counters.sol\":616:637  return counter._value */\n      swap1\n      pop\n        /* \"contracts/libraries/Counters.sol\":532:644  function current(Counter storage counter) internal view returns (uint256) {... */\n      swap2\n      swap1\n      pop\n      jump\t// out\n        /* \"contracts/libraries/Counters.sol\":650:828  function increment(Counter storage counter) internal {... */\n    tag_214:\n        /* \"contracts/libraries/Counters.sol\":820:821  1 */\n      0x01\n        /* \"contracts/libraries/Counters.sol\":802:809  counter */\n      dup2\n        /* \"contracts/libraries/Counters.sol\":802:816  counter._value */\n      0x00\n      add\n      0x00\n        /* \"contracts/libraries/Counters.sol\":802:821  counter._value += 1 */\n      dup3\n      dup3\n      sload\n      add\n      swap3\n      pop\n      pop\n      dup2\n      swap1\n      sstore\n      pop\n        /* \"contracts/libraries/Counters.sol\":650:828  function increment(Counter storage counter) internal {... */\n      pop\n      jump\t// out\n        /* \"contracts/sOHM.sol\":8417:8612  function _approve( address owner, address spender, uint256 value ) internal override virtual {... */\n    tag_216:\n        /* \"contracts/sOHM.sol\":8552:8557  value */\n      dup1\n        /* \"contracts/sOHM.sol\":8520:8533  _allowedValue */\n      0x10\n        /* \"contracts/sOHM.sol\":8520:8540  _allowedValue[owner] */\n      0x00\n        /* \"contracts/sOHM.sol\":8534:8539  owner */\n      dup6\n        /* \"contracts/sOHM.sol\":8520:8540  _allowedValue[owner] */\n      0xffffffffffffffffffffffffffffffffffffffff\n      and\n      0xffffffffffffffffffffffffffffffffffffffff\n      and\n      dup2\n      mstore\n      0x20\n      add\n      swap1\n      dup2\n      mstore\n      0x20\n      add\n      0x00\n      keccak256\n        /* \"contracts/sOHM.sol\":8520:8549  _allowedValue[owner][spender] */\n      0x00\n        /* \"contracts/sOHM.sol\":8541:8548  spender */\n      dup5\n        /* \"contracts/sOHM.sol\":8520:8549  _allowedValue[owner][spender] */\n      0xffffffffffffffffffffffffffffffffffffffff\n      and\n      0xffffffffffffffffffffffffffffffffffffffff\n      and\n      dup2\n      mstore\n      0x20\n      add\n      swap1\n      dup2\n      mstore\n      0x20\n      add\n      0x00\n      keccak256\n        /* \"contracts/sOHM.sol\":8520:8557  _allowedValue[owner][spender] = value */\n      dup2\n      swap1\n      sstore\n      pop\n        /* \"contracts/sOHM.sol\":8589:8596  spender */\n      dup2\n        /* \"contracts/sOHM.sol\":8572:8605  Approval( owner, spender, value ) */\n      0xffffffffffffffffffffffffffffffffffffffff\n      and\n        /* \"contracts/sOHM.sol\":8582:8587  owner */\n      dup4\n        /* \"contracts/sOHM.sol\":8572:8605  Approval( owner, spender, value ) */\n      0xffffffffffffffffffffffffffffffffffffffff\n      and\n      0x8c5be1e5ebec7d5bd14f71427d1e84f3dd0314c0f7b2291e5b200ac8c7c3b925\n        /* \"contracts/sOHM.sol\":8598:8603  value */\n      dup4\n        /* \"contracts/sOHM.sol\":8572:8605  Approval( owner, spender, value ) */\n      mload(0x40)\n      dup1\n      dup3\n      dup2\n      mstore\n      0x20\n      add\n      swap2\n      pop\n      pop\n      mload(0x40)\n      dup1\n      swap2\n      sub\n      swap1\n      log3\n        /* \"contracts/sOHM.sol\":8417:8612  function _approve( address owner, address spender, uint256 value ) internal override virtual {... */\n      pop\n      pop\n      pop\n      jump\t// out\n        /* \"contracts/libraries/SafeMath.sol\":1097:1366  function div(uint256 a, uint256 b, string memory errorMessage) internal pure returns (uint256) {... */\n    tag_220:\n        /* \"contracts/libraries/SafeMath.sol\":1183:1190  uint256 */\n      0x00\n        /* \"contracts/libraries/SafeMath.sol\":1214:1215  0 */\n      dup1\n        /* \"contracts/libraries/SafeMath.sol\":1210:1211  b */\n      dup4\n        /* \"contracts/libraries/SafeMath.sol\":1210:1215  b > 0 */\n      gt\n        /* \"contracts/libraries/SafeMath.sol\":1217:1229  errorMessage */\n      dup3\n        /* \"contracts/libraries/SafeMath.sol\":1202:1230  require(b > 0, errorMessage) */\n      swap1\n      tag_241\n      jumpi\n      mload(0x40)\n      0x08c379a000000000000000000000000000000000000000000000000000000000\n      dup2\n      mstore\n      0x04\n      add\n      dup1\n      dup1\n      0x20\n      add\n      dup3\n      dup2\n      sub\n      dup3\n      mstore\n      dup4\n      dup2\n      dup2\n      mload\n      dup2\n      mstore\n      0x20\n      add\n      swap2\n      pop\n      dup1\n      mload\n      swap1\n      0x20\n      add\n      swap1\n      dup1\n      dup4\n      dup4\n      0x00\n    tag_242:\n      dup4\n      dup2\n      lt\n      iszero\n      tag_244\n      jumpi\n      dup1\n      dup3\n      add\n      mload\n      dup2\n      dup5\n      add\n      mstore\n      0x20\n      dup2\n      add\n      swap1\n      pop\n      jump(tag_242)\n    tag_244:\n      pop\n      pop\n      pop\n      pop\n      swap1\n      pop\n      swap1\n      dup2\n      add\n      swap1\n      0x1f\n      and\n      dup1\n      iszero\n      tag_245\n      jumpi\n      dup1\n      dup3\n      sub\n      dup1\n      mload\n      0x01\n      dup4\n      0x20\n      sub\n      0x0100\n      exp\n      sub\n      not\n      and\n      dup2\n      mstore\n      0x20\n      add\n      swap2\n      pop\n    tag_245:\n      pop\n      swap3\n      pop\n      pop\n      pop\n      mload(0x40)\n      dup1\n      swap2\n      sub\n      swap1\n      revert\n    tag_241:\n      pop\n        /* \"contracts/libraries/SafeMath.sol\":1240:1249  uint256 c */\n      0x00\n        /* \"contracts/libraries/SafeMath.sol\":1256:1257  b */\n      dup4\n        /* \"contracts/libraries/SafeMath.sol\":1252:1253  a */\n      dup6\n        /* \"contracts/libraries/SafeMath.sol\":1252:1257  a / b */\n      dup2\n      tag_246\n      jumpi\n      invalid\n    tag_246:\n      div\n        /* \"contracts/libraries/SafeMath.sol\":1240:1257  uint256 c = a / b */\n      swap1\n      pop\n        /* \"contracts/libraries/SafeMath.sol\":1291:1292  b */\n      dup4\n        /* \"contracts/libraries/SafeMath.sol\":1287:1288  a */\n      dup6\n        /* \"contracts/libraries/SafeMath.sol\":1287:1292  a % b */\n      dup2\n      tag_247\n      jumpi\n      invalid\n    tag_247:\n      mod\n        /* \"contracts/libraries/SafeMath.sol\":1283:1284  c */\n      dup2\n        /* \"contracts/libraries/SafeMath.sol\":1279:1280  b */\n      dup6\n        /* \"contracts/libraries/SafeMath.sol\":1279:1284  b * c */\n      mul\n        /* \"contracts/libraries/SafeMath.sol\":1279:1292  b * c + a % b */\n      add\n        /* \"contracts/libraries/SafeMath.sol\":1274:1275  a */\n      dup6\n        /* \"contracts/libraries/SafeMath.sol\":1274:1292  a == b * c + a % b */\n      eq\n        /* \"contracts/libraries/SafeMath.sol\":1267:1293  assert(a == b * c + a % b) */\n      tag_248\n      jumpi\n      invalid\n    tag_248:\n        /* \"contracts/libraries/SafeMath.sol\":1358:1359  c */\n      dup1\n        /* \"contracts/libraries/SafeMath.sol\":1351:1359  return c */\n      swap2\n      pop\n      pop\n        /* \"contracts/libraries/SafeMath.sol\":1097:1366  function div(uint256 a, uint256 b, string memory errorMessage) internal pure returns (uint256) {... */\n      swap4\n      swap3\n      pop\n      pop\n      pop\n      jump\t// out\n        /* \"contracts/libraries/SafeMath.sol\":521:708  function sub(uint256 a, uint256 b, string memory errorMessage) internal pure returns (uint256) {... */\n    tag_236:\n        /* \"contracts/libraries/SafeMath.sol\":607:614  uint256 */\n      0x00\n        /* \"contracts/libraries/SafeMath.sol\":639:640  a */\n      dup4\n        /* \"contracts/libraries/SafeMath.sol\":634:635  b */\n      dup4\n        /* \"contracts/libraries/SafeMath.sol\":634:640  b <= a */\n      gt\n      iszero\n        /* \"contracts/libraries/SafeMath.sol\":642:654  errorMessage */\n      dup3\n        /* \"contracts/libraries/SafeMath.sol\":626:655  require(b <= a, errorMessage) */\n      swap1\n      tag_250\n      jumpi\n      mload(0x40)\n      0x08c379a000000000000000000000000000000000000000000000000000000000\n      dup2\n      mstore\n      0x04\n      add\n      dup1\n      dup1\n      0x20\n      add\n      dup3\n      dup2\n      sub\n      dup3\n      mstore\n      dup4\n      dup2\n      dup2\n      mload\n      dup2\n      mstore\n      0x20\n      add\n      swap2\n      pop\n      dup1\n      mload\n      swap1\n      0x20\n      add\n      swap1\n      dup1\n      dup4\n      dup4\n      0x00\n    tag_251:\n      dup4\n      dup2\n      lt\n      iszero\n      tag_253\n      jumpi\n      dup1\n      dup3\n      add\n      mload\n      dup2\n      dup5\n      add\n      mstore\n      0x20\n      dup2\n      add\n      swap1\n      pop\n      jump(tag_251)\n    tag_253:\n      pop\n      pop\n      pop\n      pop\n      swap1\n      pop\n      swap1\n      dup2\n      add\n      swap1\n      0x1f\n      and\n      dup1\n      iszero\n      tag_254\n      jumpi\n      dup1\n      dup3\n      sub\n      dup1\n      mload\n      0x01\n      dup4\n      0x20\n      sub\n      0x0100\n      exp\n      sub\n      not\n      and\n      dup2\n      mstore\n      0x20\n      add\n      swap2\n      pop\n    tag_254:\n      pop\n      swap3\n      pop\n      pop\n      pop\n      mload(0x40)\n      dup1\n      swap2\n      sub\n      swap1\n      revert\n    tag_250:\n      pop\n        /* \"contracts/libraries/SafeMath.sol\":665:674  uint256 c */\n      0x00\n        /* \"contracts/libraries/SafeMath.sol\":681:682  b */\n      dup4\n        /* \"contracts/libraries/SafeMath.sol\":677:678  a */\n      dup6\n        /* \"contracts/libraries/SafeMath.sol\":677:682  a - b */\n      sub\n        /* \"contracts/libraries/SafeMath.sol\":665:682  uint256 c = a - b */\n      swap1\n      pop\n        /* \"contracts/libraries/SafeMath.sol\":700:701  c */\n      dup1\n        /* \"contracts/libraries/SafeMath.sol\":693:701  return c */\n      swap2\n      pop\n      pop\n        /* \"contracts/libraries/SafeMath.sol\":521:708  function sub(uint256 a, uint256 b, string memory errorMessage) internal pure returns (uint256) {... */\n      swap4\n      swap3\n      pop\n      pop\n      pop\n      jump\t// out\n    stop\n    data_245f15ff17f551913a7a18385165551503906a406f905ac1c2437281a7cd0cfe 4f776e61626c653a206e6577206f776e657220697320746865207a65726f2061646472657373\n    data_4de71fbd3469e1b7fc89a70805ae86972c680281e629f271ab7471fd6321445c 4f776e61626c653a206d757374206265206e6577206f776e657220746f2070756c6c\n    data_5ef653edfc38c403ea52d691304feffa27a665e594b07a1719ac6b055d64dbee 5a65726f537761705065726d69743a20496e76616c6964207369676e6174757265\n    data_9113bb53c2876a3805b2c9242029423fc540a728243ce887ab24c82cf119fba3 536166654d6174683a206d756c7469706c69636174696f6e206f766572666c6f77\n\n    auxdata: 0xa26469706673582212208c31d43949b5d7780891dbe250420dbc32ce468355f0cbd9a03613315dc5d11e64736f6c63430007050033\n}\n",
				"bytecode": {
					"linkReferences": {},
					"object": "60806040523480156200001157600080fd5b506040518060400160405280600e81526020017f5374616b6564204f6c796d7075730000000000000000000000000000000000008152506040518060400160405280600481526020017f734f484d000000000000000000000000000000000000000000000000000000008152506009826003908051906020019062000098929190620004d2565b508160049080519060200190620000b1929190620004d2565b5080600560006101000a81548160ff021916908360ff16021790555050505060004690507f8b73c3c69bb8fe3d512ecc4cf759cc79239f7b179b0ffacaa9a75d522b39400f62000106620002f760201b60201c565b805190602001206040518060400160405280600181526020017f3100000000000000000000000000000000000000000000000000000000000000815250805190602001208330604051602001808681526020018581526020018481526020018381526020018273ffffffffffffffffffffffffffffffffffffffff16815260200195505050505050604051602081830303815290604052805190602001206007819055505033600860006101000a81548173ffffffffffffffffffffffffffffffffffffffff021916908373ffffffffffffffffffffffffffffffffffffffff160217905550600860009054906101000a900473ffffffffffffffffffffffffffffffffffffffff1673ffffffffffffffffffffffffffffffffffffffff16600073ffffffffffffffffffffffffffffffffffffffff167fea8258f2d9ddb679928cf34b78cf645b7feda9acc828e4dd82d014eaae270eba60405160405180910390a333600b60006101000a81548173ffffffffffffffffffffffffffffffffffffffff021916908373ffffffffffffffffffffffffffffffffffffffff1602179055506611c37937e08000600281905550620002eb6002546611c37937e0800060001981620002d257fe5b06600019036200039d60201b620026f21790919060201c565b600e8190555062000588565b606060038054600181600116156101000203166002900480601f016020809104026020016040519081016040528092919081815260200182805460018160011615610100020316600290048015620003935780601f10620003675761010080835404028352916020019162000393565b820191906000526020600020905b8154815290600101906020018083116200037557829003601f168201915b5050505050905090565b6000620003e783836040518060400160405280601a81526020017f536166654d6174683a206469766973696f6e206279207a65726f000000000000815250620003ef60201b60201c565b905092915050565b600080831182906200049f576040517f08c379a00000000000000000000000000000000000000000000000000000000081526004018080602001828103825283818151815260200191508051906020019080838360005b838110156200046357808201518184015260208101905062000446565b50505050905090810190601f168015620004915780820380516001836020036101000a031916815260200191505b509250505060405180910390fd5b506000838581620004ac57fe5b049050838581620004b957fe5b06818502018514620004c757fe5b809150509392505050565b828054600181600116156101000203166002900490600052602060002090601f0160209004810192826200050a576000855562000556565b82601f106200052557805160ff191683800117855562000556565b8280016001018555821562000556579182015b828111156200055557825182559160200191906001019062000538565b5b50905062000565919062000569565b5090565b5b80821115620005845760008160009055506001016200056a565b5090565b612d7a80620005986000396000f3fe608060405234801561001057600080fd5b50600436106101da5760003560e01c8063481c6a751161010457806395d89b41116100a2578063c4d66de811610071578063c4d66de8146108be578063d505accf14610918578063dd62ed3e146109b1578063ee99205c14610a29576101da565b806395d89b411461073f5780639ce110d7146107c2578063a457c2d7146107f6578063a9059cbb1461085a576101da565b806373c69eb7116100de57806373c69eb71461061b5780637965d56d146106875780637ecebe00146106c95780639358928b14610721576101da565b8063481c6a75146105855780635a96ac0a146105b957806370a08231146105c3576101da565b80632986c0e51161017c5780633644e5151161014b5780633644e5151461047b578063395093511461049957806340a5737f146104fd57806346f68ee914610541576101da565b80632986c0e5146104005780632df75cb11461041e57806330adf81f1461043c578063313ce5671461045a576101da565b8063095ea7b3116101b8578063095ea7b3146102b857806318160ddd1461031c5780631bd396741461033a57806323b872dd1461037c576101da565b8063058ecdb4146101df57806306fdde031461022b578063089208d8146102ae575b600080fd5b610215600480360360408110156101f557600080fd5b810190808035906020019092919080359060200190929190505050610a5d565b6040518082815260200191505060405180910390f35b610233610c40565b6040518080602001828103825283818151815260200191508051906020019080838360005b83811015610273578082015181840152602081019050610258565b50505050905090810190601f1680156102a05780820380516001836020036101000a031916815260200191505b509250505060405180910390f35b6102b6610ce2565b005b610304600480360360408110156102ce57600080fd5b81019080803573ffffffffffffffffffffffffffffffffffffffff16906020019092919080359060200190929190505050610e66565b60405180821515815260200191505060405180910390f35b610324610f58565b6040518082815260200191505060405180910390f35b6103666004803603602081101561035057600080fd5b8101908080359060200190929190505050610f62565b6040518082815260200191505060405180910390f35b6103e86004803603606081101561039257600080fd5b81019080803573ffffffffffffffffffffffffffffffffffffffff169060200190929190803573ffffffffffffffffffffffffffffffffffffffff16906020019092919080359060200190929190505050610f80565b60405180821515815260200191505060405180910390f35b61040861131a565b6040518082815260200191505060405180910390f35b61042661132c565b6040518082815260200191505060405180910390f35b610444611332565b6040518082815260200191505060405180910390f35b610462611359565b604051808260ff16815260200191505060405180910390f35b610483611370565b6040518082815260200191505060405180910390f35b6104e5600480360360408110156104af57600080fd5b81019080803573ffffffffffffffffffffffffffffffffffffffff16906020019092919080359060200190929190505050611376565b60405180821515815260200191505060405180910390f35b6105296004803603602081101561051357600080fd5b8101908080359060200190929190505050611572565b60405180821515815260200191505060405180910390f35b6105836004803603602081101561055757600080fd5b81019080803573ffffffffffffffffffffffffffffffffffffffff16906020019092919050505061165e565b005b61058d611867565b604051808273ffffffffffffffffffffffffffffffffffffffff16815260200191505060405180910390f35b6105c1611891565b005b610605600480360360208110156105d957600080fd5b81019080803573ffffffffffffffffffffffffffffffffffffffff169060200190929190505050611a3a565b6040518082815260200191505060405180910390f35b6106476004803603602081101561063157600080fd5b8101908080359060200190929190505050611a97565b6040518088815260200187815260200186815260200185815260200184815260200183815260200182815260200197505050505050505060405180910390f35b6106b36004803603602081101561069d57600080fd5b8101908080359060200190929190505050611ae9565b6040518082815260200191505060405180910390f35b61070b600480360360208110156106df57600080fd5b81019080803573ffffffffffffffffffffffffffffffffffffffff169060200190929190505050611b07565b6040518082815260200191505060405180910390f35b610729611b57565b6040518082815260200191505060405180910390f35b610747611b9d565b6040518080602001828103825283818151815260200191508051906020019080838360005b8381101561078757808201518184015260208101905061076c565b50505050905090810190601f1680156107b45780820380516001836020036101000a031916815260200191505b509250505060405180910390f35b6107ca611c3f565b604051808273ffffffffffffffffffffffffffffffffffffffff16815260200191505060405180910390f35b6108426004803603604081101561080c57600080fd5b81019080803573ffffffffffffffffffffffffffffffffffffffff16906020019092919080359060200190929190505050611c65565b60405180821515815260200191505060405180910390f35b6108a66004803603604081101561087057600080fd5b81019080803573ffffffffffffffffffffffffffffffffffffffff16906020019092919080359060200190929190505050611ef5565b60405180821515815260200191505060405180910390f35b610900600480360360208110156108d457600080fd5b81019080803573ffffffffffffffffffffffffffffffffffffffff1690602001909291905050506120a9565b60405180821515815260200191505060405180910390f35b6109af600480360360e081101561092e57600080fd5b81019080803573ffffffffffffffffffffffffffffffffffffffff169060200190929190803573ffffffffffffffffffffffffffffffffffffffff1690602001909291908035906020019092919080359060200190929190803560ff169060200190929190803590602001909291908035906020019092919050505061231e565b005b610a13600480360360408110156109c757600080fd5b81019080803573ffffffffffffffffffffffffffffffffffffffff169060200190929190803573ffffffffffffffffffffffffffffffffffffffff169060200190929190505050612645565b6040518082815260200191505060405180910390f35b610a316126cc565b604051808273ffffffffffffffffffffffffffffffffffffffff16815260200191505060405180910390f35b6000600a60009054906101000a900473ffffffffffffffffffffffffffffffffffffffff1673ffffffffffffffffffffffffffffffffffffffff163373ffffffffffffffffffffffffffffffffffffffff1614610ab957600080fd5b600080610ac4611b57565b90506000851415610b6557837f917acfbe39be6509ccf7fecb66a7e42ce2be1083c2d7dd3b9b7491dabddb8da442600254604051808381526020018281526020019250505060405180910390a2837f6012dbce857565c4a40974aa5de8373a761fc429077ef0c8c8611d1e20d63fb26000610b3d61131a565b604051808381526020018281526020019250505060405180910390a260025492505050610c3a565b6000811115610b9c57610b9581610b876002548861273c90919063ffffffff16565b6126f290919063ffffffff16565b9150610ba0565b8491505b610bb5826002546127c290919063ffffffff16565b6002819055506000196fffffffffffffffffffffffffffffffff166002541115610bf5576000196fffffffffffffffffffffffffffffffff166002819055505b610c206002546611c37937e0800060001981610c0d57fe5b06600019036126f290919063ffffffff16565b600e81905550610c3181868661284a565b50600254925050505b92915050565b606060038054600181600116156101000203166002900480601f016020809104026020016040519081016040528092919081815260200182805460018160011615610100020316600290048015610cd85780601f10610cad57610100808354040283529160200191610cd8565b820191906000526020600020905b815481529060010190602001808311610cbb57829003601f168201915b5050505050905090565b3373ffffffffffffffffffffffffffffffffffffffff16600860009054906101000a900473ffffffffffffffffffffffffffffffffffffffff1673ffffffffffffffffffffffffffffffffffffffff1614610da5576040517f08c379a00000000000000000000000000000000000000000000000000000000081526004018080602001828103825260208152602001807f4f776e61626c653a2063616c6c6572206973206e6f7420746865206f776e657281525060200191505060405180910390fd5b600073ffffffffffffffffffffffffffffffffffffffff16600860009054906101000a900473ffffffffffffffffffffffffffffffffffffffff1673ffffffffffffffffffffffffffffffffffffffff167fea8258f2d9ddb679928cf34b78cf645b7feda9acc828e4dd82d014eaae270eba60405160405180910390a36000600860006101000a81548173ffffffffffffffffffffffffffffffffffffffff021916908373ffffffffffffffffffffffffffffffffffffffff160217905550565b600081601060003373ffffffffffffffffffffffffffffffffffffffff1673ffffffffffffffffffffffffffffffffffffffff16815260200190815260200160002060008573ffffffffffffffffffffffffffffffffffffffff1673ffffffffffffffffffffffffffffffffffffffff168152602001908152602001600020819055508273ffffffffffffffffffffffffffffffffffffffff163373ffffffffffffffffffffffffffffffffffffffff167f8c5be1e5ebec7d5bd14f71427d1e84f3dd0314c0f7b2291e5b200ac8c7c3b925846040518082815260200191505060405180910390a36001905092915050565b6000600254905090565b6000610f79600e548361273c90919063ffffffff16565b9050919050565b600061101182601060008773ffffffffffffffffffffffffffffffffffffffff1673ffffffffffffffffffffffffffffffffffffffff16815260200190815260200160002060003373ffffffffffffffffffffffffffffffffffffffff1673ffffffffffffffffffffffffffffffffffffffff168152602001908152602001600020546129c590919063ffffffff16565b601060008673ffffffffffffffffffffffffffffffffffffffff1673ffffffffffffffffffffffffffffffffffffffff16815260200190815260200160002060003373ffffffffffffffffffffffffffffffffffffffff1673ffffffffffffffffffffffffffffffffffffffff168152602001908152602001600020819055503373ffffffffffffffffffffffffffffffffffffffff168473ffffffffffffffffffffffffffffffffffffffff167f8c5be1e5ebec7d5bd14f71427d1e84f3dd0314c0f7b2291e5b200ac8c7c3b925601060008873ffffffffffffffffffffffffffffffffffffffff1673ffffffffffffffffffffffffffffffffffffffff16815260200190815260200160002060003373ffffffffffffffffffffffffffffffffffffffff1673ffffffffffffffffffffffffffffffffffffffff168152602001908152602001600020546040518082815260200191505060405180910390a3600061117d83610f62565b90506111d181600f60008873ffffffffffffffffffffffffffffffffffffffff1673ffffffffffffffffffffffffffffffffffffffff168152602001908152602001600020546129c590919063ffffffff16565b600f60008773ffffffffffffffffffffffffffffffffffffffff1673ffffffffffffffffffffffffffffffffffffffff1681526020019081526020016000208190555061126681600f60008773ffffffffffffffffffffffffffffffffffffffff1673ffffffffffffffffffffffffffffffffffffffff168152602001908152602001600020546127c290919063ffffffff16565b600f60008673ffffffffffffffffffffffffffffffffffffffff1673ffffffffffffffffffffffffffffffffffffffff168152602001908152602001600020819055508373ffffffffffffffffffffffffffffffffffffffff168573ffffffffffffffffffffffffffffffffffffffff167fddf252ad1be2c89b69c2b068fc378daa952ba7f163c4a11628f55a4df523b3ef856040518082815260200191505060405180910390a360019150509392505050565b6000611327600d54611ae9565b905090565b600d5481565b7f6e71edae12b1b97f4d1f60370fef10105fa2faae0126114a169c64845d6126c960001b81565b6000600560009054906101000a900460ff16905090565b60075481565b600061140782601060003373ffffffffffffffffffffffffffffffffffffffff1673ffffffffffffffffffffffffffffffffffffffff16815260200190815260200160002060008673ffffffffffffffffffffffffffffffffffffffff1673ffffffffffffffffffffffffffffffffffffffff168152602001908152602001600020546127c290919063ffffffff16565b601060003373ffffffffffffffffffffffffffffffffffffffff1673ffffffffffffffffffffffffffffffffffffffff16815260200190815260200160002060008573ffffffffffffffffffffffffffffffffffffffff1673ffffffffffffffffffffffffffffffffffffffff168152602001908152602001600020819055508273ffffffffffffffffffffffffffffffffffffffff163373ffffffffffffffffffffffffffffffffffffffff167f8c5be1e5ebec7d5bd14f71427d1e84f3dd0314c0f7b2291e5b200ac8c7c3b925601060003373ffffffffffffffffffffffffffffffffffffffff1673ffffffffffffffffffffffffffffffffffffffff16815260200190815260200160002060008773ffffffffffffffffffffffffffffffffffffffff1673ffffffffffffffffffffffffffffffffffffffff168152602001908152602001600020546040518082815260200191505060405180910390a36001905092915050565b60003373ffffffffffffffffffffffffffffffffffffffff16600860009054906101000a900473ffffffffffffffffffffffffffffffffffffffff1673ffffffffffffffffffffffffffffffffffffffff1614611637576040517f08c379a00000000000000000000000000000000000000000000000000000000081526004018080602001828103825260208152602001807f4f776e61626c653a2063616c6c6572206973206e6f7420746865206f776e657281525060200191505060405180910390fd5b6000600d541461164657600080fd5b61164f82610f62565b600d8190555060019050919050565b3373ffffffffffffffffffffffffffffffffffffffff16600860009054906101000a900473ffffffffffffffffffffffffffffffffffffffff1673ffffffffffffffffffffffffffffffffffffffff1614611721576040517f08c379a00000000000000000000000000000000000000000000000000000000081526004018080602001828103825260208152602001807f4f776e61626c653a2063616c6c6572206973206e6f7420746865206f776e657281525060200191505060405180910390fd5b600073ffffffffffffffffffffffffffffffffffffffff168173ffffffffffffffffffffffffffffffffffffffff1614156117a7576040517f08c379a0000000000000000000000000000000000000000000000000000000008152600401808060200182810382526026815260200180612cbb6026913960400191505060405180910390fd5b8073ffffffffffffffffffffffffffffffffffffffff16600860009054906101000a900473ffffffffffffffffffffffffffffffffffffffff1673ffffffffffffffffffffffffffffffffffffffff167fea8258f2d9ddb679928cf34b78cf645b7feda9acc828e4dd82d014eaae270eba60405160405180910390a380600960006101000a81548173ffffffffffffffffffffffffffffffffffffffff021916908373ffffffffffffffffffffffffffffffffffffffff16021790555050565b6000600860009054906101000a900473ffffffffffffffffffffffffffffffffffffffff16905090565b600960009054906101000a900473ffffffffffffffffffffffffffffffffffffffff1673ffffffffffffffffffffffffffffffffffffffff163373ffffffffffffffffffffffffffffffffffffffff1614611937576040517f08c379a0000000000000000000000000000000000000000000000000000000008152600401808060200182810382526022815260200180612ce16022913960400191505060405180910390fd5b600960009054906101000a900473ffffffffffffffffffffffffffffffffffffffff1673ffffffffffffffffffffffffffffffffffffffff16600860009054906101000a900473ffffffffffffffffffffffffffffffffffffffff1673ffffffffffffffffffffffffffffffffffffffff167faa151555690c956fc3ea32f106bb9f119b5237a061eaa8557cff3e51e3792c8d60405160405180910390a3600960009054906101000a900473ffffffffffffffffffffffffffffffffffffffff16600860006101000a81548173ffffffffffffffffffffffffffffffffffffffff021916908373ffffffffffffffffffffffffffffffffffffffff160217905550565b6000611a90600e54600f60008573ffffffffffffffffffffffffffffffffffffffff1673ffffffffffffffffffffffffffffffffffffffff168152602001908152602001600020546126f290919063ffffffff16565b9050919050565b600c8181548110611aa757600080fd5b90600052602060002090600702016000915090508060000154908060010154908060020154908060030154908060040154908060050154908060060154905087565b6000611b00600e54836126f290919063ffffffff16565b9050919050565b6000611b50600660008473ffffffffffffffffffffffffffffffffffffffff1673ffffffffffffffffffffffffffffffffffffffff168152602001908152602001600020612a0f565b9050919050565b6000611b98611b87600a60009054906101000a900473ffffffffffffffffffffffffffffffffffffffff16611a3a565b6002546129c590919063ffffffff16565b905090565b606060048054600181600116156101000203166002900480601f016020809104026020016040519081016040528092919081815260200182805460018160011615610100020316600290048015611c355780601f10611c0a57610100808354040283529160200191611c35565b820191906000526020600020905b815481529060010190602001808311611c1857829003601f168201915b5050505050905090565b600b60009054906101000a900473ffffffffffffffffffffffffffffffffffffffff1681565b600080601060003373ffffffffffffffffffffffffffffffffffffffff1673ffffffffffffffffffffffffffffffffffffffff16815260200190815260200160002060008573ffffffffffffffffffffffffffffffffffffffff1673ffffffffffffffffffffffffffffffffffffffff168152602001908152602001600020549050808310611d75576000601060003373ffffffffffffffffffffffffffffffffffffffff1673ffffffffffffffffffffffffffffffffffffffff16815260200190815260200160002060008673ffffffffffffffffffffffffffffffffffffffff1673ffffffffffffffffffffffffffffffffffffffff16815260200190815260200160002081905550611e09565b611d8883826129c590919063ffffffff16565b601060003373ffffffffffffffffffffffffffffffffffffffff1673ffffffffffffffffffffffffffffffffffffffff16815260200190815260200160002060008673ffffffffffffffffffffffffffffffffffffffff1673ffffffffffffffffffffffffffffffffffffffff168152602001908152602001600020819055505b8373ffffffffffffffffffffffffffffffffffffffff163373ffffffffffffffffffffffffffffffffffffffff167f8c5be1e5ebec7d5bd14f71427d1e84f3dd0314c0f7b2291e5b200ac8c7c3b925601060003373ffffffffffffffffffffffffffffffffffffffff1673ffffffffffffffffffffffffffffffffffffffff16815260200190815260200160002060008873ffffffffffffffffffffffffffffffffffffffff1673ffffffffffffffffffffffffffffffffffffffff168152602001908152602001600020546040518082815260200191505060405180910390a3600191505092915050565b600080611f0d600e548461273c90919063ffffffff16565b9050611f6181600f60003373ffffffffffffffffffffffffffffffffffffffff1673ffffffffffffffffffffffffffffffffffffffff168152602001908152602001600020546129c590919063ffffffff16565b600f60003373ffffffffffffffffffffffffffffffffffffffff1673ffffffffffffffffffffffffffffffffffffffff16815260200190815260200160002081905550611ff681600f60008773ffffffffffffffffffffffffffffffffffffffff1673ffffffffffffffffffffffffffffffffffffffff168152602001908152602001600020546127c290919063ffffffff16565b600f60008673ffffffffffffffffffffffffffffffffffffffff1673ffffffffffffffffffffffffffffffffffffffff168152602001908152602001600020819055508373ffffffffffffffffffffffffffffffffffffffff163373ffffffffffffffffffffffffffffffffffffffff167fddf252ad1be2c89b69c2b068fc378daa952ba7f163c4a11628f55a4df523b3ef856040518082815260200191505060405180910390a3600191505092915050565b6000600b60009054906101000a900473ffffffffffffffffffffffffffffffffffffffff1673ffffffffffffffffffffffffffffffffffffffff163373ffffffffffffffffffffffffffffffffffffffff161461210557600080fd5b600073ffffffffffffffffffffffffffffffffffffffff168273ffffffffffffffffffffffffffffffffffffffff16141561213f57600080fd5b81600a60006101000a81548173ffffffffffffffffffffffffffffffffffffffff021916908373ffffffffffffffffffffffffffffffffffffffff1602179055506611c37937e080006000198161219257fe5b0660001903600f6000600a60009054906101000a900473ffffffffffffffffffffffffffffffffffffffff1673ffffffffffffffffffffffffffffffffffffffff1673ffffffffffffffffffffffffffffffffffffffff16815260200190815260200160002081905550600a60009054906101000a900473ffffffffffffffffffffffffffffffffffffffff1673ffffffffffffffffffffffffffffffffffffffff16600073ffffffffffffffffffffffffffffffffffffffff167fddf252ad1be2c89b69c2b068fc378daa952ba7f163c4a11628f55a4df523b3ef6002546040518082815260200191505060405180910390a37f817c653428858ed536dc085c5d8273734c517b55de44b55f5c5877a75e3373a182604051808273ffffffffffffffffffffffffffffffffffffffff16815260200191505060405180910390a16000600b60006101000a81548173ffffffffffffffffffffffffffffffffffffffff021916908373ffffffffffffffffffffffffffffffffffffffff16021790555060019050919050565b83421115612394576040517f08c379a00000000000000000000000000000000000000000000000000000000081526004018080602001828103825260188152602001807f5065726d69743a206578706972656420646561646c696e65000000000000000081525060200191505060405180910390fd5b60007f6e71edae12b1b97f4d1f60370fef10105fa2faae0126114a169c64845d6126c960001b888888612404600660008e73ffffffffffffffffffffffffffffffffffffffff1673ffffffffffffffffffffffffffffffffffffffff168152602001908152602001600020612a0f565b89604051602001808781526020018673ffffffffffffffffffffffffffffffffffffffff1681526020018573ffffffffffffffffffffffffffffffffffffffff1681526020018481526020018381526020018281526020019650505050505050604051602081830303815290604052805190602001209050600061190160075483604051602001808461ffff1660f01b81526002018381526020018281526020019350505050604051602081830303815290604052805190602001209050600060018287878760405160008152602001604052604051808581526020018460ff1681526020018381526020018281526020019450505050506020604051602081039080840390855afa15801561251e573d6000803e3d6000fd5b505050602060405103519050600073ffffffffffffffffffffffffffffffffffffffff168173ffffffffffffffffffffffffffffffffffffffff161415801561259257508973ffffffffffffffffffffffffffffffffffffffff168173ffffffffffffffffffffffffffffffffffffffff16145b6125e7576040517f08c379a0000000000000000000000000000000000000000000000000000000008152600401808060200182810382526021815260200180612d036021913960400191505060405180910390fd5b61262e600660008c73ffffffffffffffffffffffffffffffffffffffff1673ffffffffffffffffffffffffffffffffffffffff168152602001908152602001600020612a1d565b6126398a8a8a612a33565b50505050505050505050565b6000601060008473ffffffffffffffffffffffffffffffffffffffff1673ffffffffffffffffffffffffffffffffffffffff16815260200190815260200160002060008373ffffffffffffffffffffffffffffffffffffffff1673ffffffffffffffffffffffffffffffffffffffff16815260200190815260200160002054905092915050565b600a60009054906101000a900473ffffffffffffffffffffffffffffffffffffffff1681565b600061273483836040518060400160405280601a81526020017f536166654d6174683a206469766973696f6e206279207a65726f000000000000815250612b1e565b905092915050565b60008083141561274f57600090506127bc565b600082840290508284828161276057fe5b04146127b7576040517f08c379a0000000000000000000000000000000000000000000000000000000008152600401808060200182810382526021815260200180612d246021913960400191505060405180910390fd5b809150505b92915050565b600080828401905083811015612840576040517f08c379a000000000000000000000000000000000000000000000000000000000815260040180806020018281038252601b8152602001807f536166654d6174683a206164646974696f6e206f766572666c6f77000000000081525060200191505060405180910390fd5b8091505092915050565b60008061287a8561286c670de0b6b3a76400008761273c90919063ffffffff16565b6126f290919063ffffffff16565b9050600c6040518060e001604052808581526020018381526020018781526020016128a3611b57565b81526020018681526020016128b661131a565b8152602001438152509080600181540180825580915050600190039060005260206000209060070201600090919091909150600082015181600001556020820151816001015560408201518160020155606082015181600301556080820151816004015560a0820151816005015560c082015181600601555050827f917acfbe39be6509ccf7fecb66a7e42ce2be1083c2d7dd3b9b7491dabddb8da442600254604051808381526020018281526020019250505060405180910390a2827f6012dbce857565c4a40974aa5de8373a761fc429077ef0c8c8611d1e20d63fb28261299d61131a565b604051808381526020018281526020019250505060405180910390a260019150509392505050565b6000612a0783836040518060400160405280601e81526020017f536166654d6174683a207375627472616374696f6e206f766572666c6f770000815250612bfa565b905092915050565b600081600001549050919050565b6001816000016000828254019250508190555050565b80601060008573ffffffffffffffffffffffffffffffffffffffff1673ffffffffffffffffffffffffffffffffffffffff16815260200190815260200160002060008473ffffffffffffffffffffffffffffffffffffffff1673ffffffffffffffffffffffffffffffffffffffff168152602001908152602001600020819055508173ffffffffffffffffffffffffffffffffffffffff168373ffffffffffffffffffffffffffffffffffffffff167f8c5be1e5ebec7d5bd14f71427d1e84f3dd0314c0f7b2291e5b200ac8c7c3b925836040518082815260200191505060405180910390a3505050565b60008083118290612bca576040517f08c379a00000000000000000000000000000000000000000000000000000000081526004018080602001828103825283818151815260200191508051906020019080838360005b83811015612b8f578082015181840152602081019050612b74565b50505050905090810190601f168015612bbc5780820380516001836020036101000a031916815260200191505b509250505060405180910390fd5b506000838581612bd657fe5b049050838581612be257fe5b06818502018514612bef57fe5b809150509392505050565b6000838311158290612ca7576040517f08c379a00000000000000000000000000000000000000000000000000000000081526004018080602001828103825283818151815260200191508051906020019080838360005b83811015612c6c578082015181840152602081019050612c51565b50505050905090810190601f168015612c995780820380516001836020036101000a031916815260200191505b509250505060405180910390fd5b506000838503905080915050939250505056fe4f776e61626c653a206e6577206f776e657220697320746865207a65726f20616464726573734f776e61626c653a206d757374206265206e6577206f776e657220746f2070756c6c5a65726f537761705065726d69743a20496e76616c6964207369676e6174757265536166654d6174683a206d756c7469706c69636174696f6e206f766572666c6f77a26469706673582212208c31d43949b5d7780891dbe250420dbc32ce468355f0cbd9a03613315dc5d11e64736f6c63430007050033",
					"opcodes": "PUSH1 0x80 PUSH1 0x40 MSTORE CALLVALUE DUP1 ISZERO PUSH3 0x11 JUMPI PUSH1 0x0 DUP1 REVERT JUMPDEST POP PUSH1 0x40 MLOAD DUP1 PUSH1 0x40 ADD PUSH1 0x40 MSTORE DUP1 PUSH1 0xE DUP2 MSTORE PUSH1 0x20 ADD PUSH32 0x5374616B6564204F6C796D707573000000000000000000000000000000000000 DUP2 MSTORE POP PUSH1 0x40 MLOAD DUP1 PUSH1 0x40 ADD PUSH1 0x40 MSTORE DUP1 PUSH1 0x4 DUP2 MSTORE PUSH1 0x20 ADD PUSH32 0x734F484D00000000000000000000000000000000000000000000000000000000 DUP2 MSTORE POP PUSH1 0x9 DUP3 PUSH1 0x3 SWAP1 DUP1 MLOAD SWAP1 PUSH1 0x20 ADD SWAP1 PUSH3 0x98 SWAP3 SWAP2 SWAP1 PUSH3 0x4D2 JUMP JUMPDEST POP DUP2 PUSH1 0x4 SWAP1 DUP1 MLOAD SWAP1 PUSH1 0x20 ADD SWAP1 PUSH3 0xB1 SWAP3 SWAP2 SWAP1 PUSH3 0x4D2 JUMP JUMPDEST POP DUP1 PUSH1 0x5 PUSH1 0x0 PUSH2 0x100 EXP DUP2 SLOAD DUP2 PUSH1 0xFF MUL NOT AND SWAP1 DUP4 PUSH1 0xFF AND MUL OR SWAP1 SSTORE POP POP POP POP PUSH1 0x0 CHAINID SWAP1 POP PUSH32 0x8B73C3C69BB8FE3D512ECC4CF759CC79239F7B179B0FFACAA9A75D522B39400F PUSH3 0x106 PUSH3 0x2F7 PUSH1 0x20 SHL PUSH1 0x20 SHR JUMP JUMPDEST DUP1 MLOAD SWAP1 PUSH1 0x20 ADD KECCAK256 PUSH1 0x40 MLOAD DUP1 PUSH1 0x40 ADD PUSH1 0x40 MSTORE DUP1 PUSH1 0x1 DUP2 MSTORE PUSH1 0x20 ADD PUSH32 0x3100000000000000000000000000000000000000000000000000000000000000 DUP2 MSTORE POP DUP1 MLOAD SWAP1 PUSH1 0x20 ADD KECCAK256 DUP4 ADDRESS PUSH1 0x40 MLOAD PUSH1 0x20 ADD DUP1 DUP7 DUP2 MSTORE PUSH1 0x20 ADD DUP6 DUP2 MSTORE PUSH1 0x20 ADD DUP5 DUP2 MSTORE PUSH1 0x20 ADD DUP4 DUP2 MSTORE PUSH1 0x20 ADD DUP3 PUSH20 0xFFFFFFFFFFFFFFFFFFFFFFFFFFFFFFFFFFFFFFFF AND DUP2 MSTORE PUSH1 0x20 ADD SWAP6 POP POP POP POP POP POP PUSH1 0x40 MLOAD PUSH1 0x20 DUP2 DUP4 SUB SUB DUP2 MSTORE SWAP1 PUSH1 0x40 MSTORE DUP1 MLOAD SWAP1 PUSH1 0x20 ADD KECCAK256 PUSH1 0x7 DUP2 SWAP1 SSTORE POP POP CALLER PUSH1 0x8 PUSH1 0x0 PUSH2 0x100 EXP DUP2 SLOAD DUP2 PUSH20 0xFFFFFFFFFFFFFFFFFFFFFFFFFFFFFFFFFFFFFFFF MUL NOT AND SWAP1 DUP4 PUSH20 0xFFFFFFFFFFFFFFFFFFFFFFFFFFFFFFFFFFFFFFFF AND MUL OR SWAP1 SSTORE POP PUSH1 0x8 PUSH1 0x0 SWAP1 SLOAD SWAP1 PUSH2 0x100 EXP SWAP1 DIV PUSH20 0xFFFFFFFFFFFFFFFFFFFFFFFFFFFFFFFFFFFFFFFF AND PUSH20 0xFFFFFFFFFFFFFFFFFFFFFFFFFFFFFFFFFFFFFFFF AND PUSH1 0x0 PUSH20 0xFFFFFFFFFFFFFFFFFFFFFFFFFFFFFFFFFFFFFFFF AND PUSH32 0xEA8258F2D9DDB679928CF34B78CF645B7FEDA9ACC828E4DD82D014EAAE270EBA PUSH1 0x40 MLOAD PUSH1 0x40 MLOAD DUP1 SWAP2 SUB SWAP1 LOG3 CALLER PUSH1 0xB PUSH1 0x0 PUSH2 0x100 EXP DUP2 SLOAD DUP2 PUSH20 0xFFFFFFFFFFFFFFFFFFFFFFFFFFFFFFFFFFFFFFFF MUL NOT AND SWAP1 DUP4 PUSH20 0xFFFFFFFFFFFFFFFFFFFFFFFFFFFFFFFFFFFFFFFF AND MUL OR SWAP1 SSTORE POP PUSH7 0x11C37937E08000 PUSH1 0x2 DUP2 SWAP1 SSTORE POP PUSH3 0x2EB PUSH1 0x2 SLOAD PUSH7 0x11C37937E08000 PUSH1 0x0 NOT DUP2 PUSH3 0x2D2 JUMPI INVALID JUMPDEST MOD PUSH1 0x0 NOT SUB PUSH3 0x39D PUSH1 0x20 SHL PUSH3 0x26F2 OR SWAP1 SWAP2 SWAP1 PUSH1 0x20 SHR JUMP JUMPDEST PUSH1 0xE DUP2 SWAP1 SSTORE POP PUSH3 0x588 JUMP JUMPDEST PUSH1 0x60 PUSH1 0x3 DUP1 SLOAD PUSH1 0x1 DUP2 PUSH1 0x1 AND ISZERO PUSH2 0x100 MUL SUB AND PUSH1 0x2 SWAP1 DIV DUP1 PUSH1 0x1F ADD PUSH1 0x20 DUP1 SWAP2 DIV MUL PUSH1 0x20 ADD PUSH1 0x40 MLOAD SWAP1 DUP2 ADD PUSH1 0x40 MSTORE DUP1 SWAP3 SWAP2 SWAP1 DUP2 DUP2 MSTORE PUSH1 0x20 ADD DUP3 DUP1 SLOAD PUSH1 0x1 DUP2 PUSH1 0x1 AND ISZERO PUSH2 0x100 MUL SUB AND PUSH1 0x2 SWAP1 DIV DUP1 ISZERO PUSH3 0x393 JUMPI DUP1 PUSH1 0x1F LT PUSH3 0x367 JUMPI PUSH2 0x100 DUP1 DUP4 SLOAD DIV MUL DUP4 MSTORE SWAP2 PUSH1 0x20 ADD SWAP2 PUSH3 0x393 JUMP JUMPDEST DUP3 ADD SWAP2 SWAP1 PUSH1 0x0 MSTORE PUSH1 0x20 PUSH1 0x0 KECCAK256 SWAP1 JUMPDEST DUP2 SLOAD DUP2 MSTORE SWAP1 PUSH1 0x1 ADD SWAP1 PUSH1 0x20 ADD DUP1 DUP4 GT PUSH3 0x375 JUMPI DUP3 SWAP1 SUB PUSH1 0x1F AND DUP3 ADD SWAP2 JUMPDEST POP POP POP POP POP SWAP1 POP SWAP1 JUMP JUMPDEST PUSH1 0x0 PUSH3 0x3E7 DUP4 DUP4 PUSH1 0x40 MLOAD DUP1 PUSH1 0x40 ADD PUSH1 0x40 MSTORE DUP1 PUSH1 0x1A DUP2 MSTORE PUSH1 0x20 ADD PUSH32 0x536166654D6174683A206469766973696F6E206279207A65726F000000000000 DUP2 MSTORE POP PUSH3 0x3EF PUSH1 0x20 SHL PUSH1 0x20 SHR JUMP JUMPDEST SWAP1 POP SWAP3 SWAP2 POP POP JUMP JUMPDEST PUSH1 0x0 DUP1 DUP4 GT DUP3 SWAP1 PUSH3 0x49F JUMPI PUSH1 0x40 MLOAD PUSH32 0x8C379A000000000000000000000000000000000000000000000000000000000 DUP2 MSTORE PUSH1 0x4 ADD DUP1 DUP1 PUSH1 0x20 ADD DUP3 DUP2 SUB DUP3 MSTORE DUP4 DUP2 DUP2 MLOAD DUP2 MSTORE PUSH1 0x20 ADD SWAP2 POP DUP1 MLOAD SWAP1 PUSH1 0x20 ADD SWAP1 DUP1 DUP4 DUP4 PUSH1 0x0 JUMPDEST DUP4 DUP2 LT ISZERO PUSH3 0x463 JUMPI DUP1 DUP3 ADD MLOAD DUP2 DUP5 ADD MSTORE PUSH1 0x20 DUP2 ADD SWAP1 POP PUSH3 0x446 JUMP JUMPDEST POP POP POP POP SWAP1 POP SWAP1 DUP2 ADD SWAP1 PUSH1 0x1F AND DUP1 ISZERO PUSH3 0x491 JUMPI DUP1 DUP3 SUB DUP1 MLOAD PUSH1 0x1 DUP4 PUSH1 0x20 SUB PUSH2 0x100 EXP SUB NOT AND DUP2 MSTORE PUSH1 0x20 ADD SWAP2 POP JUMPDEST POP SWAP3 POP POP POP PUSH1 0x40 MLOAD DUP1 SWAP2 SUB SWAP1 REVERT JUMPDEST POP PUSH1 0x0 DUP4 DUP6 DUP2 PUSH3 0x4AC JUMPI INVALID JUMPDEST DIV SWAP1 POP DUP4 DUP6 DUP2 PUSH3 0x4B9 JUMPI INVALID JUMPDEST MOD DUP2 DUP6 MUL ADD DUP6 EQ PUSH3 0x4C7 JUMPI INVALID JUMPDEST DUP1 SWAP2 POP POP SWAP4 SWAP3 POP POP POP JUMP JUMPDEST DUP3 DUP1 SLOAD PUSH1 0x1 DUP2 PUSH1 0x1 AND ISZERO PUSH2 0x100 MUL SUB AND PUSH1 0x2 SWAP1 DIV SWAP1 PUSH1 0x0 MSTORE PUSH1 0x20 PUSH1 0x0 KECCAK256 SWAP1 PUSH1 0x1F ADD PUSH1 0x20 SWAP1 DIV DUP2 ADD SWAP3 DUP3 PUSH3 0x50A JUMPI PUSH1 0x0 DUP6 SSTORE PUSH3 0x556 JUMP JUMPDEST DUP3 PUSH1 0x1F LT PUSH3 0x525 JUMPI DUP1 MLOAD PUSH1 0xFF NOT AND DUP4 DUP1 ADD OR DUP6 SSTORE PUSH3 0x556 JUMP JUMPDEST DUP3 DUP1 ADD PUSH1 0x1 ADD DUP6 SSTORE DUP3 ISZERO PUSH3 0x556 JUMPI SWAP2 DUP3 ADD JUMPDEST DUP3 DUP2 GT ISZERO PUSH3 0x555 JUMPI DUP3 MLOAD DUP3 SSTORE SWAP2 PUSH1 0x20 ADD SWAP2 SWAP1 PUSH1 0x1 ADD SWAP1 PUSH3 0x538 JUMP JUMPDEST JUMPDEST POP SWAP1 POP PUSH3 0x565 SWAP2 SWAP1 PUSH3 0x569 JUMP JUMPDEST POP SWAP1 JUMP JUMPDEST JUMPDEST DUP1 DUP3 GT ISZERO PUSH3 0x584 JUMPI PUSH1 0x0 DUP2 PUSH1 0x0 SWAP1 SSTORE POP PUSH1 0x1 ADD PUSH3 0x56A JUMP JUMPDEST POP SWAP1 JUMP JUMPDEST PUSH2 0x2D7A DUP1 PUSH3 0x598 PUSH1 0x0 CODECOPY PUSH1 0x0 RETURN INVALID PUSH1 0x80 PUSH1 0x40 MSTORE CALLVALUE DUP1 ISZERO PUSH2 0x10 JUMPI PUSH1 0x0 DUP1 REVERT JUMPDEST POP PUSH1 0x4 CALLDATASIZE LT PUSH2 0x1DA JUMPI PUSH1 0x0 CALLDATALOAD PUSH1 0xE0 SHR DUP1 PUSH4 0x481C6A75 GT PUSH2 0x104 JUMPI DUP1 PUSH4 0x95D89B41 GT PUSH2 0xA2 JUMPI DUP1 PUSH4 0xC4D66DE8 GT PUSH2 0x71 JUMPI DUP1 PUSH4 0xC4D66DE8 EQ PUSH2 0x8BE JUMPI DUP1 PUSH4 0xD505ACCF EQ PUSH2 0x918 JUMPI DUP1 PUSH4 0xDD62ED3E EQ PUSH2 0x9B1 JUMPI DUP1 PUSH4 0xEE99205C EQ PUSH2 0xA29 JUMPI PUSH2 0x1DA JUMP JUMPDEST DUP1 PUSH4 0x95D89B41 EQ PUSH2 0x73F JUMPI DUP1 PUSH4 0x9CE110D7 EQ PUSH2 0x7C2 JUMPI DUP1 PUSH4 0xA457C2D7 EQ PUSH2 0x7F6 JUMPI DUP1 PUSH4 0xA9059CBB EQ PUSH2 0x85A JUMPI PUSH2 0x1DA JUMP JUMPDEST DUP1 PUSH4 0x73C69EB7 GT PUSH2 0xDE JUMPI DUP1 PUSH4 0x73C69EB7 EQ PUSH2 0x61B JUMPI DUP1 PUSH4 0x7965D56D EQ PUSH2 0x687 JUMPI DUP1 PUSH4 0x7ECEBE00 EQ PUSH2 0x6C9 JUMPI DUP1 PUSH4 0x9358928B EQ PUSH2 0x721 JUMPI PUSH2 0x1DA JUMP JUMPDEST DUP1 PUSH4 0x481C6A75 EQ PUSH2 0x585 JUMPI DUP1 PUSH4 0x5A96AC0A EQ PUSH2 0x5B9 JUMPI DUP1 PUSH4 0x70A08231 EQ PUSH2 0x5C3 JUMPI PUSH2 0x1DA JUMP JUMPDEST DUP1 PUSH4 0x2986C0E5 GT PUSH2 0x17C JUMPI DUP1 PUSH4 0x3644E515 GT PUSH2 0x14B JUMPI DUP1 PUSH4 0x3644E515 EQ PUSH2 0x47B JUMPI DUP1 PUSH4 0x39509351 EQ PUSH2 0x499 JUMPI DUP1 PUSH4 0x40A5737F EQ PUSH2 0x4FD JUMPI DUP1 PUSH4 0x46F68EE9 EQ PUSH2 0x541 JUMPI PUSH2 0x1DA JUMP JUMPDEST DUP1 PUSH4 0x2986C0E5 EQ PUSH2 0x400 JUMPI DUP1 PUSH4 0x2DF75CB1 EQ PUSH2 0x41E JUMPI DUP1 PUSH4 0x30ADF81F EQ PUSH2 0x43C JUMPI DUP1 PUSH4 0x313CE567 EQ PUSH2 0x45A JUMPI PUSH2 0x1DA JUMP JUMPDEST DUP1 PUSH4 0x95EA7B3 GT PUSH2 0x1B8 JUMPI DUP1 PUSH4 0x95EA7B3 EQ PUSH2 0x2B8 JUMPI DUP1 PUSH4 0x18160DDD EQ PUSH2 0x31C JUMPI DUP1 PUSH4 0x1BD39674 EQ PUSH2 0x33A JUMPI DUP1 PUSH4 0x23B872DD EQ PUSH2 0x37C JUMPI PUSH2 0x1DA JUMP JUMPDEST DUP1 PUSH4 0x58ECDB4 EQ PUSH2 0x1DF JUMPI DUP1 PUSH4 0x6FDDE03 EQ PUSH2 0x22B JUMPI DUP1 PUSH4 0x89208D8 EQ PUSH2 0x2AE JUMPI JUMPDEST PUSH1 0x0 DUP1 REVERT JUMPDEST PUSH2 0x215 PUSH1 0x4 DUP1 CALLDATASIZE SUB PUSH1 0x40 DUP2 LT ISZERO PUSH2 0x1F5 JUMPI PUSH1 0x0 DUP1 REVERT JUMPDEST DUP2 ADD SWAP1 DUP1 DUP1 CALLDATALOAD SWAP1 PUSH1 0x20 ADD SWAP1 SWAP3 SWAP2 SWAP1 DUP1 CALLDATALOAD SWAP1 PUSH1 0x20 ADD SWAP1 SWAP3 SWAP2 SWAP1 POP POP POP PUSH2 0xA5D JUMP JUMPDEST PUSH1 0x40 MLOAD DUP1 DUP3 DUP2 MSTORE PUSH1 0x20 ADD SWAP2 POP POP PUSH1 0x40 MLOAD DUP1 SWAP2 SUB SWAP1 RETURN JUMPDEST PUSH2 0x233 PUSH2 0xC40 JUMP JUMPDEST PUSH1 0x40 MLOAD DUP1 DUP1 PUSH1 0x20 ADD DUP3 DUP2 SUB DUP3 MSTORE DUP4 DUP2 DUP2 MLOAD DUP2 MSTORE PUSH1 0x20 ADD SWAP2 POP DUP1 MLOAD SWAP1 PUSH1 0x20 ADD SWAP1 DUP1 DUP4 DUP4 PUSH1 0x0 JUMPDEST DUP4 DUP2 LT ISZERO PUSH2 0x273 JUMPI DUP1 DUP3 ADD MLOAD DUP2 DUP5 ADD MSTORE PUSH1 0x20 DUP2 ADD SWAP1 POP PUSH2 0x258 JUMP JUMPDEST POP POP POP POP SWAP1 POP SWAP1 DUP2 ADD SWAP1 PUSH1 0x1F AND DUP1 ISZERO PUSH2 0x2A0 JUMPI DUP1 DUP3 SUB DUP1 MLOAD PUSH1 0x1 DUP4 PUSH1 0x20 SUB PUSH2 0x100 EXP SUB NOT AND DUP2 MSTORE PUSH1 0x20 ADD SWAP2 POP JUMPDEST POP SWAP3 POP POP POP PUSH1 0x40 MLOAD DUP1 SWAP2 SUB SWAP1 RETURN JUMPDEST PUSH2 0x2B6 PUSH2 0xCE2 JUMP JUMPDEST STOP JUMPDEST PUSH2 0x304 PUSH1 0x4 DUP1 CALLDATASIZE SUB PUSH1 0x40 DUP2 LT ISZERO PUSH2 0x2CE JUMPI PUSH1 0x0 DUP1 REVERT JUMPDEST DUP2 ADD SWAP1 DUP1 DUP1 CALLDATALOAD PUSH20 0xFFFFFFFFFFFFFFFFFFFFFFFFFFFFFFFFFFFFFFFF AND SWAP1 PUSH1 0x20 ADD SWAP1 SWAP3 SWAP2 SWAP1 DUP1 CALLDATALOAD SWAP1 PUSH1 0x20 ADD SWAP1 SWAP3 SWAP2 SWAP1 POP POP POP PUSH2 0xE66 JUMP JUMPDEST PUSH1 0x40 MLOAD DUP1 DUP3 ISZERO ISZERO DUP2 MSTORE PUSH1 0x20 ADD SWAP2 POP POP PUSH1 0x40 MLOAD DUP1 SWAP2 SUB SWAP1 RETURN JUMPDEST PUSH2 0x324 PUSH2 0xF58 JUMP JUMPDEST PUSH1 0x40 MLOAD DUP1 DUP3 DUP2 MSTORE PUSH1 0x20 ADD SWAP2 POP POP PUSH1 0x40 MLOAD DUP1 SWAP2 SUB SWAP1 RETURN JUMPDEST PUSH2 0x366 PUSH1 0x4 DUP1 CALLDATASIZE SUB PUSH1 0x20 DUP2 LT ISZERO PUSH2 0x350 JUMPI PUSH1 0x0 DUP1 REVERT JUMPDEST DUP2 ADD SWAP1 DUP1 DUP1 CALLDATALOAD SWAP1 PUSH1 0x20 ADD SWAP1 SWAP3 SWAP2 SWAP1 POP POP POP PUSH2 0xF62 JUMP JUMPDEST PUSH1 0x40 MLOAD DUP1 DUP3 DUP2 MSTORE PUSH1 0x20 ADD SWAP2 POP POP PUSH1 0x40 MLOAD DUP1 SWAP2 SUB SWAP1 RETURN JUMPDEST PUSH2 0x3E8 PUSH1 0x4 DUP1 CALLDATASIZE SUB PUSH1 0x60 DUP2 LT ISZERO PUSH2 0x392 JUMPI PUSH1 0x0 DUP1 REVERT JUMPDEST DUP2 ADD SWAP1 DUP1 DUP1 CALLDATALOAD PUSH20 0xFFFFFFFFFFFFFFFFFFFFFFFFFFFFFFFFFFFFFFFF AND SWAP1 PUSH1 0x20 ADD SWAP1 SWAP3 SWAP2 SWAP1 DUP1 CALLDATALOAD PUSH20 0xFFFFFFFFFFFFFFFFFFFFFFFFFFFFFFFFFFFFFFFF AND SWAP1 PUSH1 0x20 ADD SWAP1 SWAP3 SWAP2 SWAP1 DUP1 CALLDATALOAD SWAP1 PUSH1 0x20 ADD SWAP1 SWAP3 SWAP2 SWAP1 POP POP POP PUSH2 0xF80 JUMP JUMPDEST PUSH1 0x40 MLOAD DUP1 DUP3 ISZERO ISZERO DUP2 MSTORE PUSH1 0x20 ADD SWAP2 POP POP PUSH1 0x40 MLOAD DUP1 SWAP2 SUB SWAP1 RETURN JUMPDEST PUSH2 0x408 PUSH2 0x131A JUMP JUMPDEST PUSH1 0x40 MLOAD DUP1 DUP3 DUP2 MSTORE PUSH1 0x20 ADD SWAP2 POP POP PUSH1 0x40 MLOAD DUP1 SWAP2 SUB SWAP1 RETURN JUMPDEST PUSH2 0x426 PUSH2 0x132C JUMP JUMPDEST PUSH1 0x40 MLOAD DUP1 DUP3 DUP2 MSTORE PUSH1 0x20 ADD SWAP2 POP POP PUSH1 0x40 MLOAD DUP1 SWAP2 SUB SWAP1 RETURN JUMPDEST PUSH2 0x444 PUSH2 0x1332 JUMP JUMPDEST PUSH1 0x40 MLOAD DUP1 DUP3 DUP2 MSTORE PUSH1 0x20 ADD SWAP2 POP POP PUSH1 0x40 MLOAD DUP1 SWAP2 SUB SWAP1 RETURN JUMPDEST PUSH2 0x462 PUSH2 0x1359 JUMP JUMPDEST PUSH1 0x40 MLOAD DUP1 DUP3 PUSH1 0xFF AND DUP2 MSTORE PUSH1 0x20 ADD SWAP2 POP POP PUSH1 0x40 MLOAD DUP1 SWAP2 SUB SWAP1 RETURN JUMPDEST PUSH2 0x483 PUSH2 0x1370 JUMP JUMPDEST PUSH1 0x40 MLOAD DUP1 DUP3 DUP2 MSTORE PUSH1 0x20 ADD SWAP2 POP POP PUSH1 0x40 MLOAD DUP1 SWAP2 SUB SWAP1 RETURN JUMPDEST PUSH2 0x4E5 PUSH1 0x4 DUP1 CALLDATASIZE SUB PUSH1 0x40 DUP2 LT ISZERO PUSH2 0x4AF JUMPI PUSH1 0x0 DUP1 REVERT JUMPDEST DUP2 ADD SWAP1 DUP1 DUP1 CALLDATALOAD PUSH20 0xFFFFFFFFFFFFFFFFFFFFFFFFFFFFFFFFFFFFFFFF AND SWAP1 PUSH1 0x20 ADD SWAP1 SWAP3 SWAP2 SWAP1 DUP1 CALLDATALOAD SWAP1 PUSH1 0x20 ADD SWAP1 SWAP3 SWAP2 SWAP1 POP POP POP PUSH2 0x1376 JUMP JUMPDEST PUSH1 0x40 MLOAD DUP1 DUP3 ISZERO ISZERO DUP2 MSTORE PUSH1 0x20 ADD SWAP2 POP POP PUSH1 0x40 MLOAD DUP1 SWAP2 SUB SWAP1 RETURN JUMPDEST PUSH2 0x529 PUSH1 0x4 DUP1 CALLDATASIZE SUB PUSH1 0x20 DUP2 LT ISZERO PUSH2 0x513 JUMPI PUSH1 0x0 DUP1 REVERT JUMPDEST DUP2 ADD SWAP1 DUP1 DUP1 CALLDATALOAD SWAP1 PUSH1 0x20 ADD SWAP1 SWAP3 SWAP2 SWAP1 POP POP POP PUSH2 0x1572 JUMP JUMPDEST PUSH1 0x40 MLOAD DUP1 DUP3 ISZERO ISZERO DUP2 MSTORE PUSH1 0x20 ADD SWAP2 POP POP PUSH1 0x40 MLOAD DUP1 SWAP2 SUB SWAP1 RETURN JUMPDEST PUSH2 0x583 PUSH1 0x4 DUP1 CALLDATASIZE SUB PUSH1 0x20 DUP2 LT ISZERO PUSH2 0x557 JUMPI PUSH1 0x0 DUP1 REVERT JUMPDEST DUP2 ADD SWAP1 DUP1 DUP1 CALLDATALOAD PUSH20 0xFFFFFFFFFFFFFFFFFFFFFFFFFFFFFFFFFFFFFFFF AND SWAP1 PUSH1 0x20 ADD SWAP1 SWAP3 SWAP2 SWAP1 POP POP POP PUSH2 0x165E JUMP JUMPDEST STOP JUMPDEST PUSH2 0x58D PUSH2 0x1867 JUMP JUMPDEST PUSH1 0x40 MLOAD DUP1 DUP3 PUSH20 0xFFFFFFFFFFFFFFFFFFFFFFFFFFFFFFFFFFFFFFFF AND DUP2 MSTORE PUSH1 0x20 ADD SWAP2 POP POP PUSH1 0x40 MLOAD DUP1 SWAP2 SUB SWAP1 RETURN JUMPDEST PUSH2 0x5C1 PUSH2 0x1891 JUMP JUMPDEST STOP JUMPDEST PUSH2 0x605 PUSH1 0x4 DUP1 CALLDATASIZE SUB PUSH1 0x20 DUP2 LT ISZERO PUSH2 0x5D9 JUMPI PUSH1 0x0 DUP1 REVERT JUMPDEST DUP2 ADD SWAP1 DUP1 DUP1 CALLDATALOAD PUSH20 0xFFFFFFFFFFFFFFFFFFFFFFFFFFFFFFFFFFFFFFFF AND SWAP1 PUSH1 0x20 ADD SWAP1 SWAP3 SWAP2 SWAP1 POP POP POP PUSH2 0x1A3A JUMP JUMPDEST PUSH1 0x40 MLOAD DUP1 DUP3 DUP2 MSTORE PUSH1 0x20 ADD SWAP2 POP POP PUSH1 0x40 MLOAD DUP1 SWAP2 SUB SWAP1 RETURN JUMPDEST PUSH2 0x647 PUSH1 0x4 DUP1 CALLDATASIZE SUB PUSH1 0x20 DUP2 LT ISZERO PUSH2 0x631 JUMPI PUSH1 0x0 DUP1 REVERT JUMPDEST DUP2 ADD SWAP1 DUP1 DUP1 CALLDATALOAD SWAP1 PUSH1 0x20 ADD SWAP1 SWAP3 SWAP2 SWAP1 POP POP POP PUSH2 0x1A97 JUMP JUMPDEST PUSH1 0x40 MLOAD DUP1 DUP9 DUP2 MSTORE PUSH1 0x20 ADD DUP8 DUP2 MSTORE PUSH1 0x20 ADD DUP7 DUP2 MSTORE PUSH1 0x20 ADD DUP6 DUP2 MSTORE PUSH1 0x20 ADD DUP5 DUP2 MSTORE PUSH1 0x20 ADD DUP4 DUP2 MSTORE PUSH1 0x20 ADD DUP3 DUP2 MSTORE PUSH1 0x20 ADD SWAP8 POP POP POP POP POP POP POP POP PUSH1 0x40 MLOAD DUP1 SWAP2 SUB SWAP1 RETURN JUMPDEST PUSH2 0x6B3 PUSH1 0x4 DUP1 CALLDATASIZE SUB PUSH1 0x20 DUP2 LT ISZERO PUSH2 0x69D JUMPI PUSH1 0x0 DUP1 REVERT JUMPDEST DUP2 ADD SWAP1 DUP1 DUP1 CALLDATALOAD SWAP1 PUSH1 0x20 ADD SWAP1 SWAP3 SWAP2 SWAP1 POP POP POP PUSH2 0x1AE9 JUMP JUMPDEST PUSH1 0x40 MLOAD DUP1 DUP3 DUP2 MSTORE PUSH1 0x20 ADD SWAP2 POP POP PUSH1 0x40 MLOAD DUP1 SWAP2 SUB SWAP1 RETURN JUMPDEST PUSH2 0x70B PUSH1 0x4 DUP1 CALLDATASIZE SUB PUSH1 0x20 DUP2 LT ISZERO PUSH2 0x6DF JUMPI PUSH1 0x0 DUP1 REVERT JUMPDEST DUP2 ADD SWAP1 DUP1 DUP1 CALLDATALOAD PUSH20 0xFFFFFFFFFFFFFFFFFFFFFFFFFFFFFFFFFFFFFFFF AND SWAP1 PUSH1 0x20 ADD SWAP1 SWAP3 SWAP2 SWAP1 POP POP POP PUSH2 0x1B07 JUMP JUMPDEST PUSH1 0x40 MLOAD DUP1 DUP3 DUP2 MSTORE PUSH1 0x20 ADD SWAP2 POP POP PUSH1 0x40 MLOAD DUP1 SWAP2 SUB SWAP1 RETURN JUMPDEST PUSH2 0x729 PUSH2 0x1B57 JUMP JUMPDEST PUSH1 0x40 MLOAD DUP1 DUP3 DUP2 MSTORE PUSH1 0x20 ADD SWAP2 POP POP PUSH1 0x40 MLOAD DUP1 SWAP2 SUB SWAP1 RETURN JUMPDEST PUSH2 0x747 PUSH2 0x1B9D JUMP JUMPDEST PUSH1 0x40 MLOAD DUP1 DUP1 PUSH1 0x20 ADD DUP3 DUP2 SUB DUP3 MSTORE DUP4 DUP2 DUP2 MLOAD DUP2 MSTORE PUSH1 0x20 ADD SWAP2 POP DUP1 MLOAD SWAP1 PUSH1 0x20 ADD SWAP1 DUP1 DUP4 DUP4 PUSH1 0x0 JUMPDEST DUP4 DUP2 LT ISZERO PUSH2 0x787 JUMPI DUP1 DUP3 ADD MLOAD DUP2 DUP5 ADD MSTORE PUSH1 0x20 DUP2 ADD SWAP1 POP PUSH2 0x76C JUMP JUMPDEST POP POP POP POP SWAP1 POP SWAP1 DUP2 ADD SWAP1 PUSH1 0x1F AND DUP1 ISZERO PUSH2 0x7B4 JUMPI DUP1 DUP3 SUB DUP1 MLOAD PUSH1 0x1 DUP4 PUSH1 0x20 SUB PUSH2 0x100 EXP SUB NOT AND DUP2 MSTORE PUSH1 0x20 ADD SWAP2 POP JUMPDEST POP SWAP3 POP POP POP PUSH1 0x40 MLOAD DUP1 SWAP2 SUB SWAP1 RETURN JUMPDEST PUSH2 0x7CA PUSH2 0x1C3F JUMP JUMPDEST PUSH1 0x40 MLOAD DUP1 DUP3 PUSH20 0xFFFFFFFFFFFFFFFFFFFFFFFFFFFFFFFFFFFFFFFF AND DUP2 MSTORE PUSH1 0x20 ADD SWAP2 POP POP PUSH1 0x40 MLOAD DUP1 SWAP2 SUB SWAP1 RETURN JUMPDEST PUSH2 0x842 PUSH1 0x4 DUP1 CALLDATASIZE SUB PUSH1 0x40 DUP2 LT ISZERO PUSH2 0x80C JUMPI PUSH1 0x0 DUP1 REVERT JUMPDEST DUP2 ADD SWAP1 DUP1 DUP1 CALLDATALOAD PUSH20 0xFFFFFFFFFFFFFFFFFFFFFFFFFFFFFFFFFFFFFFFF AND SWAP1 PUSH1 0x20 ADD SWAP1 SWAP3 SWAP2 SWAP1 DUP1 CALLDATALOAD SWAP1 PUSH1 0x20 ADD SWAP1 SWAP3 SWAP2 SWAP1 POP POP POP PUSH2 0x1C65 JUMP JUMPDEST PUSH1 0x40 MLOAD DUP1 DUP3 ISZERO ISZERO DUP2 MSTORE PUSH1 0x20 ADD SWAP2 POP POP PUSH1 0x40 MLOAD DUP1 SWAP2 SUB SWAP1 RETURN JUMPDEST PUSH2 0x8A6 PUSH1 0x4 DUP1 CALLDATASIZE SUB PUSH1 0x40 DUP2 LT ISZERO PUSH2 0x870 JUMPI PUSH1 0x0 DUP1 REVERT JUMPDEST DUP2 ADD SWAP1 DUP1 DUP1 CALLDATALOAD PUSH20 0xFFFFFFFFFFFFFFFFFFFFFFFFFFFFFFFFFFFFFFFF AND SWAP1 PUSH1 0x20 ADD SWAP1 SWAP3 SWAP2 SWAP1 DUP1 CALLDATALOAD SWAP1 PUSH1 0x20 ADD SWAP1 SWAP3 SWAP2 SWAP1 POP POP POP PUSH2 0x1EF5 JUMP JUMPDEST PUSH1 0x40 MLOAD DUP1 DUP3 ISZERO ISZERO DUP2 MSTORE PUSH1 0x20 ADD SWAP2 POP POP PUSH1 0x40 MLOAD DUP1 SWAP2 SUB SWAP1 RETURN JUMPDEST PUSH2 0x900 PUSH1 0x4 DUP1 CALLDATASIZE SUB PUSH1 0x20 DUP2 LT ISZERO PUSH2 0x8D4 JUMPI PUSH1 0x0 DUP1 REVERT JUMPDEST DUP2 ADD SWAP1 DUP1 DUP1 CALLDATALOAD PUSH20 0xFFFFFFFFFFFFFFFFFFFFFFFFFFFFFFFFFFFFFFFF AND SWAP1 PUSH1 0x20 ADD SWAP1 SWAP3 SWAP2 SWAP1 POP POP POP PUSH2 0x20A9 JUMP JUMPDEST PUSH1 0x40 MLOAD DUP1 DUP3 ISZERO ISZERO DUP2 MSTORE PUSH1 0x20 ADD SWAP2 POP POP PUSH1 0x40 MLOAD DUP1 SWAP2 SUB SWAP1 RETURN JUMPDEST PUSH2 0x9AF PUSH1 0x4 DUP1 CALLDATASIZE SUB PUSH1 0xE0 DUP2 LT ISZERO PUSH2 0x92E JUMPI PUSH1 0x0 DUP1 REVERT JUMPDEST DUP2 ADD SWAP1 DUP1 DUP1 CALLDATALOAD PUSH20 0xFFFFFFFFFFFFFFFFFFFFFFFFFFFFFFFFFFFFFFFF AND SWAP1 PUSH1 0x20 ADD SWAP1 SWAP3 SWAP2 SWAP1 DUP1 CALLDATALOAD PUSH20 0xFFFFFFFFFFFFFFFFFFFFFFFFFFFFFFFFFFFFFFFF AND SWAP1 PUSH1 0x20 ADD SWAP1 SWAP3 SWAP2 SWAP1 DUP1 CALLDATALOAD SWAP1 PUSH1 0x20 ADD SWAP1 SWAP3 SWAP2 SWAP1 DUP1 CALLDATALOAD SWAP1 PUSH1 0x20 ADD SWAP1 SWAP3 SWAP2 SWAP1 DUP1 CALLDATALOAD PUSH1 0xFF AND SWAP1 PUSH1 0x20 ADD SWAP1 SWAP3 SWAP2 SWAP1 DUP1 CALLDATALOAD SWAP1 PUSH1 0x20 ADD SWAP1 SWAP3 SWAP2 SWAP1 DUP1 CALLDATALOAD SWAP1 PUSH1 0x20 ADD SWAP1 SWAP3 SWAP2 SWAP1 POP POP POP PUSH2 0x231E JUMP JUMPDEST STOP JUMPDEST PUSH2 0xA13 PUSH1 0x4 DUP1 CALLDATASIZE SUB PUSH1 0x40 DUP2 LT ISZERO PUSH2 0x9C7 JUMPI PUSH1 0x0 DUP1 REVERT JUMPDEST DUP2 ADD SWAP1 DUP1 DUP1 CALLDATALOAD PUSH20 0xFFFFFFFFFFFFFFFFFFFFFFFFFFFFFFFFFFFFFFFF AND SWAP1 PUSH1 0x20 ADD SWAP1 SWAP3 SWAP2 SWAP1 DUP1 CALLDATALOAD PUSH20 0xFFFFFFFFFFFFFFFFFFFFFFFFFFFFFFFFFFFFFFFF AND SWAP1 PUSH1 0x20 ADD SWAP1 SWAP3 SWAP2 SWAP1 POP POP POP PUSH2 0x2645 JUMP JUMPDEST PUSH1 0x40 MLOAD DUP1 DUP3 DUP2 MSTORE PUSH1 0x20 ADD SWAP2 POP POP PUSH1 0x40 MLOAD DUP1 SWAP2 SUB SWAP1 RETURN JUMPDEST PUSH2 0xA31 PUSH2 0x26CC JUMP JUMPDEST PUSH1 0x40 MLOAD DUP1 DUP3 PUSH20 0xFFFFFFFFFFFFFFFFFFFFFFFFFFFFFFFFFFFFFFFF AND DUP2 MSTORE PUSH1 0x20 ADD SWAP2 POP POP PUSH1 0x40 MLOAD DUP1 SWAP2 SUB SWAP1 RETURN JUMPDEST PUSH1 0x0 PUSH1 0xA PUSH1 0x0 SWAP1 SLOAD SWAP1 PUSH2 0x100 EXP SWAP1 DIV PUSH20 0xFFFFFFFFFFFFFFFFFFFFFFFFFFFFFFFFFFFFFFFF AND PUSH20 0xFFFFFFFFFFFFFFFFFFFFFFFFFFFFFFFFFFFFFFFF AND CALLER PUSH20 0xFFFFFFFFFFFFFFFFFFFFFFFFFFFFFFFFFFFFFFFF AND EQ PUSH2 0xAB9 JUMPI PUSH1 0x0 DUP1 REVERT JUMPDEST PUSH1 0x0 DUP1 PUSH2 0xAC4 PUSH2 0x1B57 JUMP JUMPDEST SWAP1 POP PUSH1 0x0 DUP6 EQ ISZERO PUSH2 0xB65 JUMPI DUP4 PUSH32 0x917ACFBE39BE6509CCF7FECB66A7E42CE2BE1083C2D7DD3B9B7491DABDDB8DA4 TIMESTAMP PUSH1 0x2 SLOAD PUSH1 0x40 MLOAD DUP1 DUP4 DUP2 MSTORE PUSH1 0x20 ADD DUP3 DUP2 MSTORE PUSH1 0x20 ADD SWAP3 POP POP POP PUSH1 0x40 MLOAD DUP1 SWAP2 SUB SWAP1 LOG2 DUP4 PUSH32 0x6012DBCE857565C4A40974AA5DE8373A761FC429077EF0C8C8611D1E20D63FB2 PUSH1 0x0 PUSH2 0xB3D PUSH2 0x131A JUMP JUMPDEST PUSH1 0x40 MLOAD DUP1 DUP4 DUP2 MSTORE PUSH1 0x20 ADD DUP3 DUP2 MSTORE PUSH1 0x20 ADD SWAP3 POP POP POP PUSH1 0x40 MLOAD DUP1 SWAP2 SUB SWAP1 LOG2 PUSH1 0x2 SLOAD SWAP3 POP POP POP PUSH2 0xC3A JUMP JUMPDEST PUSH1 0x0 DUP2 GT ISZERO PUSH2 0xB9C JUMPI PUSH2 0xB95 DUP2 PUSH2 0xB87 PUSH1 0x2 SLOAD DUP9 PUSH2 0x273C SWAP1 SWAP2 SWAP1 PUSH4 0xFFFFFFFF AND JUMP JUMPDEST PUSH2 0x26F2 SWAP1 SWAP2 SWAP1 PUSH4 0xFFFFFFFF AND JUMP JUMPDEST SWAP2 POP PUSH2 0xBA0 JUMP JUMPDEST DUP5 SWAP2 POP JUMPDEST PUSH2 0xBB5 DUP3 PUSH1 0x2 SLOAD PUSH2 0x27C2 SWAP1 SWAP2 SWAP1 PUSH4 0xFFFFFFFF AND JUMP JUMPDEST PUSH1 0x2 DUP2 SWAP1 SSTORE POP PUSH1 0x0 NOT PUSH16 0xFFFFFFFFFFFFFFFFFFFFFFFFFFFFFFFF AND PUSH1 0x2 SLOAD GT ISZERO PUSH2 0xBF5 JUMPI PUSH1 0x0 NOT PUSH16 0xFFFFFFFFFFFFFFFFFFFFFFFFFFFFFFFF AND PUSH1 0x2 DUP2 SWAP1 SSTORE POP JUMPDEST PUSH2 0xC20 PUSH1 0x2 SLOAD PUSH7 0x11C37937E08000 PUSH1 0x0 NOT DUP2 PUSH2 0xC0D JUMPI INVALID JUMPDEST MOD PUSH1 0x0 NOT SUB PUSH2 0x26F2 SWAP1 SWAP2 SWAP1 PUSH4 0xFFFFFFFF AND JUMP JUMPDEST PUSH1 0xE DUP2 SWAP1 SSTORE POP PUSH2 0xC31 DUP2 DUP7 DUP7 PUSH2 0x284A JUMP JUMPDEST POP PUSH1 0x2 SLOAD SWAP3 POP POP POP JUMPDEST SWAP3 SWAP2 POP POP JUMP JUMPDEST PUSH1 0x60 PUSH1 0x3 DUP1 SLOAD PUSH1 0x1 DUP2 PUSH1 0x1 AND ISZERO PUSH2 0x100 MUL SUB AND PUSH1 0x2 SWAP1 DIV DUP1 PUSH1 0x1F ADD PUSH1 0x20 DUP1 SWAP2 DIV MUL PUSH1 0x20 ADD PUSH1 0x40 MLOAD SWAP1 DUP2 ADD PUSH1 0x40 MSTORE DUP1 SWAP3 SWAP2 SWAP1 DUP2 DUP2 MSTORE PUSH1 0x20 ADD DUP3 DUP1 SLOAD PUSH1 0x1 DUP2 PUSH1 0x1 AND ISZERO PUSH2 0x100 MUL SUB AND PUSH1 0x2 SWAP1 DIV DUP1 ISZERO PUSH2 0xCD8 JUMPI DUP1 PUSH1 0x1F LT PUSH2 0xCAD JUMPI PUSH2 0x100 DUP1 DUP4 SLOAD DIV MUL DUP4 MSTORE SWAP2 PUSH1 0x20 ADD SWAP2 PUSH2 0xCD8 JUMP JUMPDEST DUP3 ADD SWAP2 SWAP1 PUSH1 0x0 MSTORE PUSH1 0x20 PUSH1 0x0 KECCAK256 SWAP1 JUMPDEST DUP2 SLOAD DUP2 MSTORE SWAP1 PUSH1 0x1 ADD SWAP1 PUSH1 0x20 ADD DUP1 DUP4 GT PUSH2 0xCBB JUMPI DUP3 SWAP1 SUB PUSH1 0x1F AND DUP3 ADD SWAP2 JUMPDEST POP POP POP POP POP SWAP1 POP SWAP1 JUMP JUMPDEST CALLER PUSH20 0xFFFFFFFFFFFFFFFFFFFFFFFFFFFFFFFFFFFFFFFF AND PUSH1 0x8 PUSH1 0x0 SWAP1 SLOAD SWAP1 PUSH2 0x100 EXP SWAP1 DIV PUSH20 0xFFFFFFFFFFFFFFFFFFFFFFFFFFFFFFFFFFFFFFFF AND PUSH20 0xFFFFFFFFFFFFFFFFFFFFFFFFFFFFFFFFFFFFFFFF AND EQ PUSH2 0xDA5 JUMPI PUSH1 0x40 MLOAD PUSH32 0x8C379A000000000000000000000000000000000000000000000000000000000 DUP2 MSTORE PUSH1 0x4 ADD DUP1 DUP1 PUSH1 0x20 ADD DUP3 DUP2 SUB DUP3 MSTORE PUSH1 0x20 DUP2 MSTORE PUSH1 0x20 ADD DUP1 PUSH32 0x4F776E61626C653A2063616C6C6572206973206E6F7420746865206F776E6572 DUP2 MSTORE POP PUSH1 0x20 ADD SWAP2 POP POP PUSH1 0x40 MLOAD DUP1 SWAP2 SUB SWAP1 REVERT JUMPDEST PUSH1 0x0 PUSH20 0xFFFFFFFFFFFFFFFFFFFFFFFFFFFFFFFFFFFFFFFF AND PUSH1 0x8 PUSH1 0x0 SWAP1 SLOAD SWAP1 PUSH2 0x100 EXP SWAP1 DIV PUSH20 0xFFFFFFFFFFFFFFFFFFFFFFFFFFFFFFFFFFFFFFFF AND PUSH20 0xFFFFFFFFFFFFFFFFFFFFFFFFFFFFFFFFFFFFFFFF AND PUSH32 0xEA8258F2D9DDB679928CF34B78CF645B7FEDA9ACC828E4DD82D014EAAE270EBA PUSH1 0x40 MLOAD PUSH1 0x40 MLOAD DUP1 SWAP2 SUB SWAP1 LOG3 PUSH1 0x0 PUSH1 0x8 PUSH1 0x0 PUSH2 0x100 EXP DUP2 SLOAD DUP2 PUSH20 0xFFFFFFFFFFFFFFFFFFFFFFFFFFFFFFFFFFFFFFFF MUL NOT AND SWAP1 DUP4 PUSH20 0xFFFFFFFFFFFFFFFFFFFFFFFFFFFFFFFFFFFFFFFF AND MUL OR SWAP1 SSTORE POP JUMP JUMPDEST PUSH1 0x0 DUP2 PUSH1 0x10 PUSH1 0x0 CALLER PUSH20 0xFFFFFFFFFFFFFFFFFFFFFFFFFFFFFFFFFFFFFFFF AND PUSH20 0xFFFFFFFFFFFFFFFFFFFFFFFFFFFFFFFFFFFFFFFF AND DUP2 MSTORE PUSH1 0x20 ADD SWAP1 DUP2 MSTORE PUSH1 0x20 ADD PUSH1 0x0 KECCAK256 PUSH1 0x0 DUP6 PUSH20 0xFFFFFFFFFFFFFFFFFFFFFFFFFFFFFFFFFFFFFFFF AND PUSH20 0xFFFFFFFFFFFFFFFFFFFFFFFFFFFFFFFFFFFFFFFF AND DUP2 MSTORE PUSH1 0x20 ADD SWAP1 DUP2 MSTORE PUSH1 0x20 ADD PUSH1 0x0 KECCAK256 DUP2 SWAP1 SSTORE POP DUP3 PUSH20 0xFFFFFFFFFFFFFFFFFFFFFFFFFFFFFFFFFFFFFFFF AND CALLER PUSH20 0xFFFFFFFFFFFFFFFFFFFFFFFFFFFFFFFFFFFFFFFF AND PUSH32 0x8C5BE1E5EBEC7D5BD14F71427D1E84F3DD0314C0F7B2291E5B200AC8C7C3B925 DUP5 PUSH1 0x40 MLOAD DUP1 DUP3 DUP2 MSTORE PUSH1 0x20 ADD SWAP2 POP POP PUSH1 0x40 MLOAD DUP1 SWAP2 SUB SWAP1 LOG3 PUSH1 0x1 SWAP1 POP SWAP3 SWAP2 POP POP JUMP JUMPDEST PUSH1 0x0 PUSH1 0x2 SLOAD SWAP1 POP SWAP1 JUMP JUMPDEST PUSH1 0x0 PUSH2 0xF79 PUSH1 0xE SLOAD DUP4 PUSH2 0x273C SWAP1 SWAP2 SWAP1 PUSH4 0xFFFFFFFF AND JUMP JUMPDEST SWAP1 POP SWAP2 SWAP1 POP JUMP JUMPDEST PUSH1 0x0 PUSH2 0x1011 DUP3 PUSH1 0x10 PUSH1 0x0 DUP8 PUSH20 0xFFFFFFFFFFFFFFFFFFFFFFFFFFFFFFFFFFFFFFFF AND PUSH20 0xFFFFFFFFFFFFFFFFFFFFFFFFFFFFFFFFFFFFFFFF AND DUP2 MSTORE PUSH1 0x20 ADD SWAP1 DUP2 MSTORE PUSH1 0x20 ADD PUSH1 0x0 KECCAK256 PUSH1 0x0 CALLER PUSH20 0xFFFFFFFFFFFFFFFFFFFFFFFFFFFFFFFFFFFFFFFF AND PUSH20 0xFFFFFFFFFFFFFFFFFFFFFFFFFFFFFFFFFFFFFFFF AND DUP2 MSTORE PUSH1 0x20 ADD SWAP1 DUP2 MSTORE PUSH1 0x20 ADD PUSH1 0x0 KECCAK256 SLOAD PUSH2 0x29C5 SWAP1 SWAP2 SWAP1 PUSH4 0xFFFFFFFF AND JUMP JUMPDEST PUSH1 0x10 PUSH1 0x0 DUP7 PUSH20 0xFFFFFFFFFFFFFFFFFFFFFFFFFFFFFFFFFFFFFFFF AND PUSH20 0xFFFFFFFFFFFFFFFFFFFFFFFFFFFFFFFFFFFFFFFF AND DUP2 MSTORE PUSH1 0x20 ADD SWAP1 DUP2 MSTORE PUSH1 0x20 ADD PUSH1 0x0 KECCAK256 PUSH1 0x0 CALLER PUSH20 0xFFFFFFFFFFFFFFFFFFFFFFFFFFFFFFFFFFFFFFFF AND PUSH20 0xFFFFFFFFFFFFFFFFFFFFFFFFFFFFFFFFFFFFFFFF AND DUP2 MSTORE PUSH1 0x20 ADD SWAP1 DUP2 MSTORE PUSH1 0x20 ADD PUSH1 0x0 KECCAK256 DUP2 SWAP1 SSTORE POP CALLER PUSH20 0xFFFFFFFFFFFFFFFFFFFFFFFFFFFFFFFFFFFFFFFF AND DUP5 PUSH20 0xFFFFFFFFFFFFFFFFFFFFFFFFFFFFFFFFFFFFFFFF AND PUSH32 0x8C5BE1E5EBEC7D5BD14F71427D1E84F3DD0314C0F7B2291E5B200AC8C7C3B925 PUSH1 0x10 PUSH1 0x0 DUP9 PUSH20 0xFFFFFFFFFFFFFFFFFFFFFFFFFFFFFFFFFFFFFFFF AND PUSH20 0xFFFFFFFFFFFFFFFFFFFFFFFFFFFFFFFFFFFFFFFF AND DUP2 MSTORE PUSH1 0x20 ADD SWAP1 DUP2 MSTORE PUSH1 0x20 ADD PUSH1 0x0 KECCAK256 PUSH1 0x0 CALLER PUSH20 0xFFFFFFFFFFFFFFFFFFFFFFFFFFFFFFFFFFFFFFFF AND PUSH20 0xFFFFFFFFFFFFFFFFFFFFFFFFFFFFFFFFFFFFFFFF AND DUP2 MSTORE PUSH1 0x20 ADD SWAP1 DUP2 MSTORE PUSH1 0x20 ADD PUSH1 0x0 KECCAK256 SLOAD PUSH1 0x40 MLOAD DUP1 DUP3 DUP2 MSTORE PUSH1 0x20 ADD SWAP2 POP POP PUSH1 0x40 MLOAD DUP1 SWAP2 SUB SWAP1 LOG3 PUSH1 0x0 PUSH2 0x117D DUP4 PUSH2 0xF62 JUMP JUMPDEST SWAP1 POP PUSH2 0x11D1 DUP2 PUSH1 0xF PUSH1 0x0 DUP9 PUSH20 0xFFFFFFFFFFFFFFFFFFFFFFFFFFFFFFFFFFFFFFFF AND PUSH20 0xFFFFFFFFFFFFFFFFFFFFFFFFFFFFFFFFFFFFFFFF AND DUP2 MSTORE PUSH1 0x20 ADD SWAP1 DUP2 MSTORE PUSH1 0x20 ADD PUSH1 0x0 KECCAK256 SLOAD PUSH2 0x29C5 SWAP1 SWAP2 SWAP1 PUSH4 0xFFFFFFFF AND JUMP JUMPDEST PUSH1 0xF PUSH1 0x0 DUP8 PUSH20 0xFFFFFFFFFFFFFFFFFFFFFFFFFFFFFFFFFFFFFFFF AND PUSH20 0xFFFFFFFFFFFFFFFFFFFFFFFFFFFFFFFFFFFFFFFF AND DUP2 MSTORE PUSH1 0x20 ADD SWAP1 DUP2 MSTORE PUSH1 0x20 ADD PUSH1 0x0 KECCAK256 DUP2 SWAP1 SSTORE POP PUSH2 0x1266 DUP2 PUSH1 0xF PUSH1 0x0 DUP8 PUSH20 0xFFFFFFFFFFFFFFFFFFFFFFFFFFFFFFFFFFFFFFFF AND PUSH20 0xFFFFFFFFFFFFFFFFFFFFFFFFFFFFFFFFFFFFFFFF AND DUP2 MSTORE PUSH1 0x20 ADD SWAP1 DUP2 MSTORE PUSH1 0x20 ADD PUSH1 0x0 KECCAK256 SLOAD PUSH2 0x27C2 SWAP1 SWAP2 SWAP1 PUSH4 0xFFFFFFFF AND JUMP JUMPDEST PUSH1 0xF PUSH1 0x0 DUP7 PUSH20 0xFFFFFFFFFFFFFFFFFFFFFFFFFFFFFFFFFFFFFFFF AND PUSH20 0xFFFFFFFFFFFFFFFFFFFFFFFFFFFFFFFFFFFFFFFF AND DUP2 MSTORE PUSH1 0x20 ADD SWAP1 DUP2 MSTORE PUSH1 0x20 ADD PUSH1 0x0 KECCAK256 DUP2 SWAP1 SSTORE POP DUP4 PUSH20 0xFFFFFFFFFFFFFFFFFFFFFFFFFFFFFFFFFFFFFFFF AND DUP6 PUSH20 0xFFFFFFFFFFFFFFFFFFFFFFFFFFFFFFFFFFFFFFFF AND PUSH32 0xDDF252AD1BE2C89B69C2B068FC378DAA952BA7F163C4A11628F55A4DF523B3EF DUP6 PUSH1 0x40 MLOAD DUP1 DUP3 DUP2 MSTORE PUSH1 0x20 ADD SWAP2 POP POP PUSH1 0x40 MLOAD DUP1 SWAP2 SUB SWAP1 LOG3 PUSH1 0x1 SWAP2 POP POP SWAP4 SWAP3 POP POP POP JUMP JUMPDEST PUSH1 0x0 PUSH2 0x1327 PUSH1 0xD SLOAD PUSH2 0x1AE9 JUMP JUMPDEST SWAP1 POP SWAP1 JUMP JUMPDEST PUSH1 0xD SLOAD DUP2 JUMP JUMPDEST PUSH32 0x6E71EDAE12B1B97F4D1F60370FEF10105FA2FAAE0126114A169C64845D6126C9 PUSH1 0x0 SHL DUP2 JUMP JUMPDEST PUSH1 0x0 PUSH1 0x5 PUSH1 0x0 SWAP1 SLOAD SWAP1 PUSH2 0x100 EXP SWAP1 DIV PUSH1 0xFF AND SWAP1 POP SWAP1 JUMP JUMPDEST PUSH1 0x7 SLOAD DUP2 JUMP JUMPDEST PUSH1 0x0 PUSH2 0x1407 DUP3 PUSH1 0x10 PUSH1 0x0 CALLER PUSH20 0xFFFFFFFFFFFFFFFFFFFFFFFFFFFFFFFFFFFFFFFF AND PUSH20 0xFFFFFFFFFFFFFFFFFFFFFFFFFFFFFFFFFFFFFFFF AND DUP2 MSTORE PUSH1 0x20 ADD SWAP1 DUP2 MSTORE PUSH1 0x20 ADD PUSH1 0x0 KECCAK256 PUSH1 0x0 DUP7 PUSH20 0xFFFFFFFFFFFFFFFFFFFFFFFFFFFFFFFFFFFFFFFF AND PUSH20 0xFFFFFFFFFFFFFFFFFFFFFFFFFFFFFFFFFFFFFFFF AND DUP2 MSTORE PUSH1 0x20 ADD SWAP1 DUP2 MSTORE PUSH1 0x20 ADD PUSH1 0x0 KECCAK256 SLOAD PUSH2 0x27C2 SWAP1 SWAP2 SWAP1 PUSH4 0xFFFFFFFF AND JUMP JUMPDEST PUSH1 0x10 PUSH1 0x0 CALLER PUSH20 0xFFFFFFFFFFFFFFFFFFFFFFFFFFFFFFFFFFFFFFFF AND PUSH20 0xFFFFFFFFFFFFFFFFFFFFFFFFFFFFFFFFFFFFFFFF AND DUP2 MSTORE PUSH1 0x20 ADD SWAP1 DUP2 MSTORE PUSH1 0x20 ADD PUSH1 0x0 KECCAK256 PUSH1 0x0 DUP6 PUSH20 0xFFFFFFFFFFFFFFFFFFFFFFFFFFFFFFFFFFFFFFFF AND PUSH20 0xFFFFFFFFFFFFFFFFFFFFFFFFFFFFFFFFFFFFFFFF AND DUP2 MSTORE PUSH1 0x20 ADD SWAP1 DUP2 MSTORE PUSH1 0x20 ADD PUSH1 0x0 KECCAK256 DUP2 SWAP1 SSTORE POP DUP3 PUSH20 0xFFFFFFFFFFFFFFFFFFFFFFFFFFFFFFFFFFFFFFFF AND CALLER PUSH20 0xFFFFFFFFFFFFFFFFFFFFFFFFFFFFFFFFFFFFFFFF AND PUSH32 0x8C5BE1E5EBEC7D5BD14F71427D1E84F3DD0314C0F7B2291E5B200AC8C7C3B925 PUSH1 0x10 PUSH1 0x0 CALLER PUSH20 0xFFFFFFFFFFFFFFFFFFFFFFFFFFFFFFFFFFFFFFFF AND PUSH20 0xFFFFFFFFFFFFFFFFFFFFFFFFFFFFFFFFFFFFFFFF AND DUP2 MSTORE PUSH1 0x20 ADD SWAP1 DUP2 MSTORE PUSH1 0x20 ADD PUSH1 0x0 KECCAK256 PUSH1 0x0 DUP8 PUSH20 0xFFFFFFFFFFFFFFFFFFFFFFFFFFFFFFFFFFFFFFFF AND PUSH20 0xFFFFFFFFFFFFFFFFFFFFFFFFFFFFFFFFFFFFFFFF AND DUP2 MSTORE PUSH1 0x20 ADD SWAP1 DUP2 MSTORE PUSH1 0x20 ADD PUSH1 0x0 KECCAK256 SLOAD PUSH1 0x40 MLOAD DUP1 DUP3 DUP2 MSTORE PUSH1 0x20 ADD SWAP2 POP POP PUSH1 0x40 MLOAD DUP1 SWAP2 SUB SWAP1 LOG3 PUSH1 0x1 SWAP1 POP SWAP3 SWAP2 POP POP JUMP JUMPDEST PUSH1 0x0 CALLER PUSH20 0xFFFFFFFFFFFFFFFFFFFFFFFFFFFFFFFFFFFFFFFF AND PUSH1 0x8 PUSH1 0x0 SWAP1 SLOAD SWAP1 PUSH2 0x100 EXP SWAP1 DIV PUSH20 0xFFFFFFFFFFFFFFFFFFFFFFFFFFFFFFFFFFFFFFFF AND PUSH20 0xFFFFFFFFFFFFFFFFFFFFFFFFFFFFFFFFFFFFFFFF AND EQ PUSH2 0x1637 JUMPI PUSH1 0x40 MLOAD PUSH32 0x8C379A000000000000000000000000000000000000000000000000000000000 DUP2 MSTORE PUSH1 0x4 ADD DUP1 DUP1 PUSH1 0x20 ADD DUP3 DUP2 SUB DUP3 MSTORE PUSH1 0x20 DUP2 MSTORE PUSH1 0x20 ADD DUP1 PUSH32 0x4F776E61626C653A2063616C6C6572206973206E6F7420746865206F776E6572 DUP2 MSTORE POP PUSH1 0x20 ADD SWAP2 POP POP PUSH1 0x40 MLOAD DUP1 SWAP2 SUB SWAP1 REVERT JUMPDEST PUSH1 0x0 PUSH1 0xD SLOAD EQ PUSH2 0x1646 JUMPI PUSH1 0x0 DUP1 REVERT JUMPDEST PUSH2 0x164F DUP3 PUSH2 0xF62 JUMP JUMPDEST PUSH1 0xD DUP2 SWAP1 SSTORE POP PUSH1 0x1 SWAP1 POP SWAP2 SWAP1 POP JUMP JUMPDEST CALLER PUSH20 0xFFFFFFFFFFFFFFFFFFFFFFFFFFFFFFFFFFFFFFFF AND PUSH1 0x8 PUSH1 0x0 SWAP1 SLOAD SWAP1 PUSH2 0x100 EXP SWAP1 DIV PUSH20 0xFFFFFFFFFFFFFFFFFFFFFFFFFFFFFFFFFFFFFFFF AND PUSH20 0xFFFFFFFFFFFFFFFFFFFFFFFFFFFFFFFFFFFFFFFF AND EQ PUSH2 0x1721 JUMPI PUSH1 0x40 MLOAD PUSH32 0x8C379A000000000000000000000000000000000000000000000000000000000 DUP2 MSTORE PUSH1 0x4 ADD DUP1 DUP1 PUSH1 0x20 ADD DUP3 DUP2 SUB DUP3 MSTORE PUSH1 0x20 DUP2 MSTORE PUSH1 0x20 ADD DUP1 PUSH32 0x4F776E61626C653A2063616C6C6572206973206E6F7420746865206F776E6572 DUP2 MSTORE POP PUSH1 0x20 ADD SWAP2 POP POP PUSH1 0x40 MLOAD DUP1 SWAP2 SUB SWAP1 REVERT JUMPDEST PUSH1 0x0 PUSH20 0xFFFFFFFFFFFFFFFFFFFFFFFFFFFFFFFFFFFFFFFF AND DUP2 PUSH20 0xFFFFFFFFFFFFFFFFFFFFFFFFFFFFFFFFFFFFFFFF AND EQ ISZERO PUSH2 0x17A7 JUMPI PUSH1 0x40 MLOAD PUSH32 0x8C379A000000000000000000000000000000000000000000000000000000000 DUP2 MSTORE PUSH1 0x4 ADD DUP1 DUP1 PUSH1 0x20 ADD DUP3 DUP2 SUB DUP3 MSTORE PUSH1 0x26 DUP2 MSTORE PUSH1 0x20 ADD DUP1 PUSH2 0x2CBB PUSH1 0x26 SWAP2 CODECOPY PUSH1 0x40 ADD SWAP2 POP POP PUSH1 0x40 MLOAD DUP1 SWAP2 SUB SWAP1 REVERT JUMPDEST DUP1 PUSH20 0xFFFFFFFFFFFFFFFFFFFFFFFFFFFFFFFFFFFFFFFF AND PUSH1 0x8 PUSH1 0x0 SWAP1 SLOAD SWAP1 PUSH2 0x100 EXP SWAP1 DIV PUSH20 0xFFFFFFFFFFFFFFFFFFFFFFFFFFFFFFFFFFFFFFFF AND PUSH20 0xFFFFFFFFFFFFFFFFFFFFFFFFFFFFFFFFFFFFFFFF AND PUSH32 0xEA8258F2D9DDB679928CF34B78CF645B7FEDA9ACC828E4DD82D014EAAE270EBA PUSH1 0x40 MLOAD PUSH1 0x40 MLOAD DUP1 SWAP2 SUB SWAP1 LOG3 DUP1 PUSH1 0x9 PUSH1 0x0 PUSH2 0x100 EXP DUP2 SLOAD DUP2 PUSH20 0xFFFFFFFFFFFFFFFFFFFFFFFFFFFFFFFFFFFFFFFF MUL NOT AND SWAP1 DUP4 PUSH20 0xFFFFFFFFFFFFFFFFFFFFFFFFFFFFFFFFFFFFFFFF AND MUL OR SWAP1 SSTORE POP POP JUMP JUMPDEST PUSH1 0x0 PUSH1 0x8 PUSH1 0x0 SWAP1 SLOAD SWAP1 PUSH2 0x100 EXP SWAP1 DIV PUSH20 0xFFFFFFFFFFFFFFFFFFFFFFFFFFFFFFFFFFFFFFFF AND SWAP1 POP SWAP1 JUMP JUMPDEST PUSH1 0x9 PUSH1 0x0 SWAP1 SLOAD SWAP1 PUSH2 0x100 EXP SWAP1 DIV PUSH20 0xFFFFFFFFFFFFFFFFFFFFFFFFFFFFFFFFFFFFFFFF AND PUSH20 0xFFFFFFFFFFFFFFFFFFFFFFFFFFFFFFFFFFFFFFFF AND CALLER PUSH20 0xFFFFFFFFFFFFFFFFFFFFFFFFFFFFFFFFFFFFFFFF AND EQ PUSH2 0x1937 JUMPI PUSH1 0x40 MLOAD PUSH32 0x8C379A000000000000000000000000000000000000000000000000000000000 DUP2 MSTORE PUSH1 0x4 ADD DUP1 DUP1 PUSH1 0x20 ADD DUP3 DUP2 SUB DUP3 MSTORE PUSH1 0x22 DUP2 MSTORE PUSH1 0x20 ADD DUP1 PUSH2 0x2CE1 PUSH1 0x22 SWAP2 CODECOPY PUSH1 0x40 ADD SWAP2 POP POP PUSH1 0x40 MLOAD DUP1 SWAP2 SUB SWAP1 REVERT JUMPDEST PUSH1 0x9 PUSH1 0x0 SWAP1 SLOAD SWAP1 PUSH2 0x100 EXP SWAP1 DIV PUSH20 0xFFFFFFFFFFFFFFFFFFFFFFFFFFFFFFFFFFFFFFFF AND PUSH20 0xFFFFFFFFFFFFFFFFFFFFFFFFFFFFFFFFFFFFFFFF AND PUSH1 0x8 PUSH1 0x0 SWAP1 SLOAD SWAP1 PUSH2 0x100 EXP SWAP1 DIV PUSH20 0xFFFFFFFFFFFFFFFFFFFFFFFFFFFFFFFFFFFFFFFF AND PUSH20 0xFFFFFFFFFFFFFFFFFFFFFFFFFFFFFFFFFFFFFFFF AND PUSH32 0xAA151555690C956FC3EA32F106BB9F119B5237A061EAA8557CFF3E51E3792C8D PUSH1 0x40 MLOAD PUSH1 0x40 MLOAD DUP1 SWAP2 SUB SWAP1 LOG3 PUSH1 0x9 PUSH1 0x0 SWAP1 SLOAD SWAP1 PUSH2 0x100 EXP SWAP1 DIV PUSH20 0xFFFFFFFFFFFFFFFFFFFFFFFFFFFFFFFFFFFFFFFF AND PUSH1 0x8 PUSH1 0x0 PUSH2 0x100 EXP DUP2 SLOAD DUP2 PUSH20 0xFFFFFFFFFFFFFFFFFFFFFFFFFFFFFFFFFFFFFFFF MUL NOT AND SWAP1 DUP4 PUSH20 0xFFFFFFFFFFFFFFFFFFFFFFFFFFFFFFFFFFFFFFFF AND MUL OR SWAP1 SSTORE POP JUMP JUMPDEST PUSH1 0x0 PUSH2 0x1A90 PUSH1 0xE SLOAD PUSH1 0xF PUSH1 0x0 DUP6 PUSH20 0xFFFFFFFFFFFFFFFFFFFFFFFFFFFFFFFFFFFFFFFF AND PUSH20 0xFFFFFFFFFFFFFFFFFFFFFFFFFFFFFFFFFFFFFFFF AND DUP2 MSTORE PUSH1 0x20 ADD SWAP1 DUP2 MSTORE PUSH1 0x20 ADD PUSH1 0x0 KECCAK256 SLOAD PUSH2 0x26F2 SWAP1 SWAP2 SWAP1 PUSH4 0xFFFFFFFF AND JUMP JUMPDEST SWAP1 POP SWAP2 SWAP1 POP JUMP JUMPDEST PUSH1 0xC DUP2 DUP2 SLOAD DUP2 LT PUSH2 0x1AA7 JUMPI PUSH1 0x0 DUP1 REVERT JUMPDEST SWAP1 PUSH1 0x0 MSTORE PUSH1 0x20 PUSH1 0x0 KECCAK256 SWAP1 PUSH1 0x7 MUL ADD PUSH1 0x0 SWAP2 POP SWAP1 POP DUP1 PUSH1 0x0 ADD SLOAD SWAP1 DUP1 PUSH1 0x1 ADD SLOAD SWAP1 DUP1 PUSH1 0x2 ADD SLOAD SWAP1 DUP1 PUSH1 0x3 ADD SLOAD SWAP1 DUP1 PUSH1 0x4 ADD SLOAD SWAP1 DUP1 PUSH1 0x5 ADD SLOAD SWAP1 DUP1 PUSH1 0x6 ADD SLOAD SWAP1 POP DUP8 JUMP JUMPDEST PUSH1 0x0 PUSH2 0x1B00 PUSH1 0xE SLOAD DUP4 PUSH2 0x26F2 SWAP1 SWAP2 SWAP1 PUSH4 0xFFFFFFFF AND JUMP JUMPDEST SWAP1 POP SWAP2 SWAP1 POP JUMP JUMPDEST PUSH1 0x0 PUSH2 0x1B50 PUSH1 0x6 PUSH1 0x0 DUP5 PUSH20 0xFFFFFFFFFFFFFFFFFFFFFFFFFFFFFFFFFFFFFFFF AND PUSH20 0xFFFFFFFFFFFFFFFFFFFFFFFFFFFFFFFFFFFFFFFF AND DUP2 MSTORE PUSH1 0x20 ADD SWAP1 DUP2 MSTORE PUSH1 0x20 ADD PUSH1 0x0 KECCAK256 PUSH2 0x2A0F JUMP JUMPDEST SWAP1 POP SWAP2 SWAP1 POP JUMP JUMPDEST PUSH1 0x0 PUSH2 0x1B98 PUSH2 0x1B87 PUSH1 0xA PUSH1 0x0 SWAP1 SLOAD SWAP1 PUSH2 0x100 EXP SWAP1 DIV PUSH20 0xFFFFFFFFFFFFFFFFFFFFFFFFFFFFFFFFFFFFFFFF AND PUSH2 0x1A3A JUMP JUMPDEST PUSH1 0x2 SLOAD PUSH2 0x29C5 SWAP1 SWAP2 SWAP1 PUSH4 0xFFFFFFFF AND JUMP JUMPDEST SWAP1 POP SWAP1 JUMP JUMPDEST PUSH1 0x60 PUSH1 0x4 DUP1 SLOAD PUSH1 0x1 DUP2 PUSH1 0x1 AND ISZERO PUSH2 0x100 MUL SUB AND PUSH1 0x2 SWAP1 DIV DUP1 PUSH1 0x1F ADD PUSH1 0x20 DUP1 SWAP2 DIV MUL PUSH1 0x20 ADD PUSH1 0x40 MLOAD SWAP1 DUP2 ADD PUSH1 0x40 MSTORE DUP1 SWAP3 SWAP2 SWAP1 DUP2 DUP2 MSTORE PUSH1 0x20 ADD DUP3 DUP1 SLOAD PUSH1 0x1 DUP2 PUSH1 0x1 AND ISZERO PUSH2 0x100 MUL SUB AND PUSH1 0x2 SWAP1 DIV DUP1 ISZERO PUSH2 0x1C35 JUMPI DUP1 PUSH1 0x1F LT PUSH2 0x1C0A JUMPI PUSH2 0x100 DUP1 DUP4 SLOAD DIV MUL DUP4 MSTORE SWAP2 PUSH1 0x20 ADD SWAP2 PUSH2 0x1C35 JUMP JUMPDEST DUP3 ADD SWAP2 SWAP1 PUSH1 0x0 MSTORE PUSH1 0x20 PUSH1 0x0 KECCAK256 SWAP1 JUMPDEST DUP2 SLOAD DUP2 MSTORE SWAP1 PUSH1 0x1 ADD SWAP1 PUSH1 0x20 ADD DUP1 DUP4 GT PUSH2 0x1C18 JUMPI DUP3 SWAP1 SUB PUSH1 0x1F AND DUP3 ADD SWAP2 JUMPDEST POP POP POP POP POP SWAP1 POP SWAP1 JUMP JUMPDEST PUSH1 0xB PUSH1 0x0 SWAP1 SLOAD SWAP1 PUSH2 0x100 EXP SWAP1 DIV PUSH20 0xFFFFFFFFFFFFFFFFFFFFFFFFFFFFFFFFFFFFFFFF AND DUP2 JUMP JUMPDEST PUSH1 0x0 DUP1 PUSH1 0x10 PUSH1 0x0 CALLER PUSH20 0xFFFFFFFFFFFFFFFFFFFFFFFFFFFFFFFFFFFFFFFF AND PUSH20 0xFFFFFFFFFFFFFFFFFFFFFFFFFFFFFFFFFFFFFFFF AND DUP2 MSTORE PUSH1 0x20 ADD SWAP1 DUP2 MSTORE PUSH1 0x20 ADD PUSH1 0x0 KECCAK256 PUSH1 0x0 DUP6 PUSH20 0xFFFFFFFFFFFFFFFFFFFFFFFFFFFFFFFFFFFFFFFF AND PUSH20 0xFFFFFFFFFFFFFFFFFFFFFFFFFFFFFFFFFFFFFFFF AND DUP2 MSTORE PUSH1 0x20 ADD SWAP1 DUP2 MSTORE PUSH1 0x20 ADD PUSH1 0x0 KECCAK256 SLOAD SWAP1 POP DUP1 DUP4 LT PUSH2 0x1D75 JUMPI PUSH1 0x0 PUSH1 0x10 PUSH1 0x0 CALLER PUSH20 0xFFFFFFFFFFFFFFFFFFFFFFFFFFFFFFFFFFFFFFFF AND PUSH20 0xFFFFFFFFFFFFFFFFFFFFFFFFFFFFFFFFFFFFFFFF AND DUP2 MSTORE PUSH1 0x20 ADD SWAP1 DUP2 MSTORE PUSH1 0x20 ADD PUSH1 0x0 KECCAK256 PUSH1 0x0 DUP7 PUSH20 0xFFFFFFFFFFFFFFFFFFFFFFFFFFFFFFFFFFFFFFFF AND PUSH20 0xFFFFFFFFFFFFFFFFFFFFFFFFFFFFFFFFFFFFFFFF AND DUP2 MSTORE PUSH1 0x20 ADD SWAP1 DUP2 MSTORE PUSH1 0x20 ADD PUSH1 0x0 KECCAK256 DUP2 SWAP1 SSTORE POP PUSH2 0x1E09 JUMP JUMPDEST PUSH2 0x1D88 DUP4 DUP3 PUSH2 0x29C5 SWAP1 SWAP2 SWAP1 PUSH4 0xFFFFFFFF AND JUMP JUMPDEST PUSH1 0x10 PUSH1 0x0 CALLER PUSH20 0xFFFFFFFFFFFFFFFFFFFFFFFFFFFFFFFFFFFFFFFF AND PUSH20 0xFFFFFFFFFFFFFFFFFFFFFFFFFFFFFFFFFFFFFFFF AND DUP2 MSTORE PUSH1 0x20 ADD SWAP1 DUP2 MSTORE PUSH1 0x20 ADD PUSH1 0x0 KECCAK256 PUSH1 0x0 DUP7 PUSH20 0xFFFFFFFFFFFFFFFFFFFFFFFFFFFFFFFFFFFFFFFF AND PUSH20 0xFFFFFFFFFFFFFFFFFFFFFFFFFFFFFFFFFFFFFFFF AND DUP2 MSTORE PUSH1 0x20 ADD SWAP1 DUP2 MSTORE PUSH1 0x20 ADD PUSH1 0x0 KECCAK256 DUP2 SWAP1 SSTORE POP JUMPDEST DUP4 PUSH20 0xFFFFFFFFFFFFFFFFFFFFFFFFFFFFFFFFFFFFFFFF AND CALLER PUSH20 0xFFFFFFFFFFFFFFFFFFFFFFFFFFFFFFFFFFFFFFFF AND PUSH32 0x8C5BE1E5EBEC7D5BD14F71427D1E84F3DD0314C0F7B2291E5B200AC8C7C3B925 PUSH1 0x10 PUSH1 0x0 CALLER PUSH20 0xFFFFFFFFFFFFFFFFFFFFFFFFFFFFFFFFFFFFFFFF AND PUSH20 0xFFFFFFFFFFFFFFFFFFFFFFFFFFFFFFFFFFFFFFFF AND DUP2 MSTORE PUSH1 0x20 ADD SWAP1 DUP2 MSTORE PUSH1 0x20 ADD PUSH1 0x0 KECCAK256 PUSH1 0x0 DUP9 PUSH20 0xFFFFFFFFFFFFFFFFFFFFFFFFFFFFFFFFFFFFFFFF AND PUSH20 0xFFFFFFFFFFFFFFFFFFFFFFFFFFFFFFFFFFFFFFFF AND DUP2 MSTORE PUSH1 0x20 ADD SWAP1 DUP2 MSTORE PUSH1 0x20 ADD PUSH1 0x0 KECCAK256 SLOAD PUSH1 0x40 MLOAD DUP1 DUP3 DUP2 MSTORE PUSH1 0x20 ADD SWAP2 POP POP PUSH1 0x40 MLOAD DUP1 SWAP2 SUB SWAP1 LOG3 PUSH1 0x1 SWAP2 POP POP SWAP3 SWAP2 POP POP JUMP JUMPDEST PUSH1 0x0 DUP1 PUSH2 0x1F0D PUSH1 0xE SLOAD DUP5 PUSH2 0x273C SWAP1 SWAP2 SWAP1 PUSH4 0xFFFFFFFF AND JUMP JUMPDEST SWAP1 POP PUSH2 0x1F61 DUP2 PUSH1 0xF PUSH1 0x0 CALLER PUSH20 0xFFFFFFFFFFFFFFFFFFFFFFFFFFFFFFFFFFFFFFFF AND PUSH20 0xFFFFFFFFFFFFFFFFFFFFFFFFFFFFFFFFFFFFFFFF AND DUP2 MSTORE PUSH1 0x20 ADD SWAP1 DUP2 MSTORE PUSH1 0x20 ADD PUSH1 0x0 KECCAK256 SLOAD PUSH2 0x29C5 SWAP1 SWAP2 SWAP1 PUSH4 0xFFFFFFFF AND JUMP JUMPDEST PUSH1 0xF PUSH1 0x0 CALLER PUSH20 0xFFFFFFFFFFFFFFFFFFFFFFFFFFFFFFFFFFFFFFFF AND PUSH20 0xFFFFFFFFFFFFFFFFFFFFFFFFFFFFFFFFFFFFFFFF AND DUP2 MSTORE PUSH1 0x20 ADD SWAP1 DUP2 MSTORE PUSH1 0x20 ADD PUSH1 0x0 KECCAK256 DUP2 SWAP1 SSTORE POP PUSH2 0x1FF6 DUP2 PUSH1 0xF PUSH1 0x0 DUP8 PUSH20 0xFFFFFFFFFFFFFFFFFFFFFFFFFFFFFFFFFFFFFFFF AND PUSH20 0xFFFFFFFFFFFFFFFFFFFFFFFFFFFFFFFFFFFFFFFF AND DUP2 MSTORE PUSH1 0x20 ADD SWAP1 DUP2 MSTORE PUSH1 0x20 ADD PUSH1 0x0 KECCAK256 SLOAD PUSH2 0x27C2 SWAP1 SWAP2 SWAP1 PUSH4 0xFFFFFFFF AND JUMP JUMPDEST PUSH1 0xF PUSH1 0x0 DUP7 PUSH20 0xFFFFFFFFFFFFFFFFFFFFFFFFFFFFFFFFFFFFFFFF AND PUSH20 0xFFFFFFFFFFFFFFFFFFFFFFFFFFFFFFFFFFFFFFFF AND DUP2 MSTORE PUSH1 0x20 ADD SWAP1 DUP2 MSTORE PUSH1 0x20 ADD PUSH1 0x0 KECCAK256 DUP2 SWAP1 SSTORE POP DUP4 PUSH20 0xFFFFFFFFFFFFFFFFFFFFFFFFFFFFFFFFFFFFFFFF AND CALLER PUSH20 0xFFFFFFFFFFFFFFFFFFFFFFFFFFFFFFFFFFFFFFFF AND PUSH32 0xDDF252AD1BE2C89B69C2B068FC378DAA952BA7F163C4A11628F55A4DF523B3EF DUP6 PUSH1 0x40 MLOAD DUP1 DUP3 DUP2 MSTORE PUSH1 0x20 ADD SWAP2 POP POP PUSH1 0x40 MLOAD DUP1 SWAP2 SUB SWAP1 LOG3 PUSH1 0x1 SWAP2 POP POP SWAP3 SWAP2 POP POP JUMP JUMPDEST PUSH1 0x0 PUSH1 0xB PUSH1 0x0 SWAP1 SLOAD SWAP1 PUSH2 0x100 EXP SWAP1 DIV PUSH20 0xFFFFFFFFFFFFFFFFFFFFFFFFFFFFFFFFFFFFFFFF AND PUSH20 0xFFFFFFFFFFFFFFFFFFFFFFFFFFFFFFFFFFFFFFFF AND CALLER PUSH20 0xFFFFFFFFFFFFFFFFFFFFFFFFFFFFFFFFFFFFFFFF AND EQ PUSH2 0x2105 JUMPI PUSH1 0x0 DUP1 REVERT JUMPDEST PUSH1 0x0 PUSH20 0xFFFFFFFFFFFFFFFFFFFFFFFFFFFFFFFFFFFFFFFF AND DUP3 PUSH20 0xFFFFFFFFFFFFFFFFFFFFFFFFFFFFFFFFFFFFFFFF AND EQ ISZERO PUSH2 0x213F JUMPI PUSH1 0x0 DUP1 REVERT JUMPDEST DUP2 PUSH1 0xA PUSH1 0x0 PUSH2 0x100 EXP DUP2 SLOAD DUP2 PUSH20 0xFFFFFFFFFFFFFFFFFFFFFFFFFFFFFFFFFFFFFFFF MUL NOT AND SWAP1 DUP4 PUSH20 0xFFFFFFFFFFFFFFFFFFFFFFFFFFFFFFFFFFFFFFFF AND MUL OR SWAP1 SSTORE POP PUSH7 0x11C37937E08000 PUSH1 0x0 NOT DUP2 PUSH2 0x2192 JUMPI INVALID JUMPDEST MOD PUSH1 0x0 NOT SUB PUSH1 0xF PUSH1 0x0 PUSH1 0xA PUSH1 0x0 SWAP1 SLOAD SWAP1 PUSH2 0x100 EXP SWAP1 DIV PUSH20 0xFFFFFFFFFFFFFFFFFFFFFFFFFFFFFFFFFFFFFFFF AND PUSH20 0xFFFFFFFFFFFFFFFFFFFFFFFFFFFFFFFFFFFFFFFF AND PUSH20 0xFFFFFFFFFFFFFFFFFFFFFFFFFFFFFFFFFFFFFFFF AND DUP2 MSTORE PUSH1 0x20 ADD SWAP1 DUP2 MSTORE PUSH1 0x20 ADD PUSH1 0x0 KECCAK256 DUP2 SWAP1 SSTORE POP PUSH1 0xA PUSH1 0x0 SWAP1 SLOAD SWAP1 PUSH2 0x100 EXP SWAP1 DIV PUSH20 0xFFFFFFFFFFFFFFFFFFFFFFFFFFFFFFFFFFFFFFFF AND PUSH20 0xFFFFFFFFFFFFFFFFFFFFFFFFFFFFFFFFFFFFFFFF AND PUSH1 0x0 PUSH20 0xFFFFFFFFFFFFFFFFFFFFFFFFFFFFFFFFFFFFFFFF AND PUSH32 0xDDF252AD1BE2C89B69C2B068FC378DAA952BA7F163C4A11628F55A4DF523B3EF PUSH1 0x2 SLOAD PUSH1 0x40 MLOAD DUP1 DUP3 DUP2 MSTORE PUSH1 0x20 ADD SWAP2 POP POP PUSH1 0x40 MLOAD DUP1 SWAP2 SUB SWAP1 LOG3 PUSH32 0x817C653428858ED536DC085C5D8273734C517B55DE44B55F5C5877A75E3373A1 DUP3 PUSH1 0x40 MLOAD DUP1 DUP3 PUSH20 0xFFFFFFFFFFFFFFFFFFFFFFFFFFFFFFFFFFFFFFFF AND DUP2 MSTORE PUSH1 0x20 ADD SWAP2 POP POP PUSH1 0x40 MLOAD DUP1 SWAP2 SUB SWAP1 LOG1 PUSH1 0x0 PUSH1 0xB PUSH1 0x0 PUSH2 0x100 EXP DUP2 SLOAD DUP2 PUSH20 0xFFFFFFFFFFFFFFFFFFFFFFFFFFFFFFFFFFFFFFFF MUL NOT AND SWAP1 DUP4 PUSH20 0xFFFFFFFFFFFFFFFFFFFFFFFFFFFFFFFFFFFFFFFF AND MUL OR SWAP1 SSTORE POP PUSH1 0x1 SWAP1 POP SWAP2 SWAP1 POP JUMP JUMPDEST DUP4 TIMESTAMP GT ISZERO PUSH2 0x2394 JUMPI PUSH1 0x40 MLOAD PUSH32 0x8C379A000000000000000000000000000000000000000000000000000000000 DUP2 MSTORE PUSH1 0x4 ADD DUP1 DUP1 PUSH1 0x20 ADD DUP3 DUP2 SUB DUP3 MSTORE PUSH1 0x18 DUP2 MSTORE PUSH1 0x20 ADD DUP1 PUSH32 0x5065726D69743A206578706972656420646561646C696E650000000000000000 DUP2 MSTORE POP PUSH1 0x20 ADD SWAP2 POP POP PUSH1 0x40 MLOAD DUP1 SWAP2 SUB SWAP1 REVERT JUMPDEST PUSH1 0x0 PUSH32 0x6E71EDAE12B1B97F4D1F60370FEF10105FA2FAAE0126114A169C64845D6126C9 PUSH1 0x0 SHL DUP9 DUP9 DUP9 PUSH2 0x2404 PUSH1 0x6 PUSH1 0x0 DUP15 PUSH20 0xFFFFFFFFFFFFFFFFFFFFFFFFFFFFFFFFFFFFFFFF AND PUSH20 0xFFFFFFFFFFFFFFFFFFFFFFFFFFFFFFFFFFFFFFFF AND DUP2 MSTORE PUSH1 0x20 ADD SWAP1 DUP2 MSTORE PUSH1 0x20 ADD PUSH1 0x0 KECCAK256 PUSH2 0x2A0F JUMP JUMPDEST DUP10 PUSH1 0x40 MLOAD PUSH1 0x20 ADD DUP1 DUP8 DUP2 MSTORE PUSH1 0x20 ADD DUP7 PUSH20 0xFFFFFFFFFFFFFFFFFFFFFFFFFFFFFFFFFFFFFFFF AND DUP2 MSTORE PUSH1 0x20 ADD DUP6 PUSH20 0xFFFFFFFFFFFFFFFFFFFFFFFFFFFFFFFFFFFFFFFF AND DUP2 MSTORE PUSH1 0x20 ADD DUP5 DUP2 MSTORE PUSH1 0x20 ADD DUP4 DUP2 MSTORE PUSH1 0x20 ADD DUP3 DUP2 MSTORE PUSH1 0x20 ADD SWAP7 POP POP POP POP POP POP POP PUSH1 0x40 MLOAD PUSH1 0x20 DUP2 DUP4 SUB SUB DUP2 MSTORE SWAP1 PUSH1 0x40 MSTORE DUP1 MLOAD SWAP1 PUSH1 0x20 ADD KECCAK256 SWAP1 POP PUSH1 0x0 PUSH2 0x1901 PUSH1 0x7 SLOAD DUP4 PUSH1 0x40 MLOAD PUSH1 0x20 ADD DUP1 DUP5 PUSH2 0xFFFF AND PUSH1 0xF0 SHL DUP2 MSTORE PUSH1 0x2 ADD DUP4 DUP2 MSTORE PUSH1 0x20 ADD DUP3 DUP2 MSTORE PUSH1 0x20 ADD SWAP4 POP POP POP POP PUSH1 0x40 MLOAD PUSH1 0x20 DUP2 DUP4 SUB SUB DUP2 MSTORE SWAP1 PUSH1 0x40 MSTORE DUP1 MLOAD SWAP1 PUSH1 0x20 ADD KECCAK256 SWAP1 POP PUSH1 0x0 PUSH1 0x1 DUP3 DUP8 DUP8 DUP8 PUSH1 0x40 MLOAD PUSH1 0x0 DUP2 MSTORE PUSH1 0x20 ADD PUSH1 0x40 MSTORE PUSH1 0x40 MLOAD DUP1 DUP6 DUP2 MSTORE PUSH1 0x20 ADD DUP5 PUSH1 0xFF AND DUP2 MSTORE PUSH1 0x20 ADD DUP4 DUP2 MSTORE PUSH1 0x20 ADD DUP3 DUP2 MSTORE PUSH1 0x20 ADD SWAP5 POP POP POP POP POP PUSH1 0x20 PUSH1 0x40 MLOAD PUSH1 0x20 DUP2 SUB SWAP1 DUP1 DUP5 SUB SWAP1 DUP6 GAS STATICCALL ISZERO DUP1 ISZERO PUSH2 0x251E JUMPI RETURNDATASIZE PUSH1 0x0 DUP1 RETURNDATACOPY RETURNDATASIZE PUSH1 0x0 REVERT JUMPDEST POP POP POP PUSH1 0x20 PUSH1 0x40 MLOAD SUB MLOAD SWAP1 POP PUSH1 0x0 PUSH20 0xFFFFFFFFFFFFFFFFFFFFFFFFFFFFFFFFFFFFFFFF AND DUP2 PUSH20 0xFFFFFFFFFFFFFFFFFFFFFFFFFFFFFFFFFFFFFFFF AND EQ ISZERO DUP1 ISZERO PUSH2 0x2592 JUMPI POP DUP10 PUSH20 0xFFFFFFFFFFFFFFFFFFFFFFFFFFFFFFFFFFFFFFFF AND DUP2 PUSH20 0xFFFFFFFFFFFFFFFFFFFFFFFFFFFFFFFFFFFFFFFF AND EQ JUMPDEST PUSH2 0x25E7 JUMPI PUSH1 0x40 MLOAD PUSH32 0x8C379A000000000000000000000000000000000000000000000000000000000 DUP2 MSTORE PUSH1 0x4 ADD DUP1 DUP1 PUSH1 0x20 ADD DUP3 DUP2 SUB DUP3 MSTORE PUSH1 0x21 DUP2 MSTORE PUSH1 0x20 ADD DUP1 PUSH2 0x2D03 PUSH1 0x21 SWAP2 CODECOPY PUSH1 0x40 ADD SWAP2 POP POP PUSH1 0x40 MLOAD DUP1 SWAP2 SUB SWAP1 REVERT JUMPDEST PUSH2 0x262E PUSH1 0x6 PUSH1 0x0 DUP13 PUSH20 0xFFFFFFFFFFFFFFFFFFFFFFFFFFFFFFFFFFFFFFFF AND PUSH20 0xFFFFFFFFFFFFFFFFFFFFFFFFFFFFFFFFFFFFFFFF AND DUP2 MSTORE PUSH1 0x20 ADD SWAP1 DUP2 MSTORE PUSH1 0x20 ADD PUSH1 0x0 KECCAK256 PUSH2 0x2A1D JUMP JUMPDEST PUSH2 0x2639 DUP11 DUP11 DUP11 PUSH2 0x2A33 JUMP JUMPDEST POP POP POP POP POP POP POP POP POP POP JUMP JUMPDEST PUSH1 0x0 PUSH1 0x10 PUSH1 0x0 DUP5 PUSH20 0xFFFFFFFFFFFFFFFFFFFFFFFFFFFFFFFFFFFFFFFF AND PUSH20 0xFFFFFFFFFFFFFFFFFFFFFFFFFFFFFFFFFFFFFFFF AND DUP2 MSTORE PUSH1 0x20 ADD SWAP1 DUP2 MSTORE PUSH1 0x20 ADD PUSH1 0x0 KECCAK256 PUSH1 0x0 DUP4 PUSH20 0xFFFFFFFFFFFFFFFFFFFFFFFFFFFFFFFFFFFFFFFF AND PUSH20 0xFFFFFFFFFFFFFFFFFFFFFFFFFFFFFFFFFFFFFFFF AND DUP2 MSTORE PUSH1 0x20 ADD SWAP1 DUP2 MSTORE PUSH1 0x20 ADD PUSH1 0x0 KECCAK256 SLOAD SWAP1 POP SWAP3 SWAP2 POP POP JUMP JUMPDEST PUSH1 0xA PUSH1 0x0 SWAP1 SLOAD SWAP1 PUSH2 0x100 EXP SWAP1 DIV PUSH20 0xFFFFFFFFFFFFFFFFFFFFFFFFFFFFFFFFFFFFFFFF AND DUP2 JUMP JUMPDEST PUSH1 0x0 PUSH2 0x2734 DUP4 DUP4 PUSH1 0x40 MLOAD DUP1 PUSH1 0x40 ADD PUSH1 0x40 MSTORE DUP1 PUSH1 0x1A DUP2 MSTORE PUSH1 0x20 ADD PUSH32 0x536166654D6174683A206469766973696F6E206279207A65726F000000000000 DUP2 MSTORE POP PUSH2 0x2B1E JUMP JUMPDEST SWAP1 POP SWAP3 SWAP2 POP POP JUMP JUMPDEST PUSH1 0x0 DUP1 DUP4 EQ ISZERO PUSH2 0x274F JUMPI PUSH1 0x0 SWAP1 POP PUSH2 0x27BC JUMP JUMPDEST PUSH1 0x0 DUP3 DUP5 MUL SWAP1 POP DUP3 DUP5 DUP3 DUP2 PUSH2 0x2760 JUMPI INVALID JUMPDEST DIV EQ PUSH2 0x27B7 JUMPI PUSH1 0x40 MLOAD PUSH32 0x8C379A000000000000000000000000000000000000000000000000000000000 DUP2 MSTORE PUSH1 0x4 ADD DUP1 DUP1 PUSH1 0x20 ADD DUP3 DUP2 SUB DUP3 MSTORE PUSH1 0x21 DUP2 MSTORE PUSH1 0x20 ADD DUP1 PUSH2 0x2D24 PUSH1 0x21 SWAP2 CODECOPY PUSH1 0x40 ADD SWAP2 POP POP PUSH1 0x40 MLOAD DUP1 SWAP2 SUB SWAP1 REVERT JUMPDEST DUP1 SWAP2 POP POP JUMPDEST SWAP3 SWAP2 POP POP JUMP JUMPDEST PUSH1 0x0 DUP1 DUP3 DUP5 ADD SWAP1 POP DUP4 DUP2 LT ISZERO PUSH2 0x2840 JUMPI PUSH1 0x40 MLOAD PUSH32 0x8C379A000000000000000000000000000000000000000000000000000000000 DUP2 MSTORE PUSH1 0x4 ADD DUP1 DUP1 PUSH1 0x20 ADD DUP3 DUP2 SUB DUP3 MSTORE PUSH1 0x1B DUP2 MSTORE PUSH1 0x20 ADD DUP1 PUSH32 0x536166654D6174683A206164646974696F6E206F766572666C6F770000000000 DUP2 MSTORE POP PUSH1 0x20 ADD SWAP2 POP POP PUSH1 0x40 MLOAD DUP1 SWAP2 SUB SWAP1 REVERT JUMPDEST DUP1 SWAP2 POP POP SWAP3 SWAP2 POP POP JUMP JUMPDEST PUSH1 0x0 DUP1 PUSH2 0x287A DUP6 PUSH2 0x286C PUSH8 0xDE0B6B3A7640000 DUP8 PUSH2 0x273C SWAP1 SWAP2 SWAP1 PUSH4 0xFFFFFFFF AND JUMP JUMPDEST PUSH2 0x26F2 SWAP1 SWAP2 SWAP1 PUSH4 0xFFFFFFFF AND JUMP JUMPDEST SWAP1 POP PUSH1 0xC PUSH1 0x40 MLOAD DUP1 PUSH1 0xE0 ADD PUSH1 0x40 MSTORE DUP1 DUP6 DUP2 MSTORE PUSH1 0x20 ADD DUP4 DUP2 MSTORE PUSH1 0x20 ADD DUP8 DUP2 MSTORE PUSH1 0x20 ADD PUSH2 0x28A3 PUSH2 0x1B57 JUMP JUMPDEST DUP2 MSTORE PUSH1 0x20 ADD DUP7 DUP2 MSTORE PUSH1 0x20 ADD PUSH2 0x28B6 PUSH2 0x131A JUMP JUMPDEST DUP2 MSTORE PUSH1 0x20 ADD NUMBER DUP2 MSTORE POP SWAP1 DUP1 PUSH1 0x1 DUP2 SLOAD ADD DUP1 DUP3 SSTORE DUP1 SWAP2 POP POP PUSH1 0x1 SWAP1 SUB SWAP1 PUSH1 0x0 MSTORE PUSH1 0x20 PUSH1 0x0 KECCAK256 SWAP1 PUSH1 0x7 MUL ADD PUSH1 0x0 SWAP1 SWAP2 SWAP1 SWAP2 SWAP1 SWAP2 POP PUSH1 0x0 DUP3 ADD MLOAD DUP2 PUSH1 0x0 ADD SSTORE PUSH1 0x20 DUP3 ADD MLOAD DUP2 PUSH1 0x1 ADD SSTORE PUSH1 0x40 DUP3 ADD MLOAD DUP2 PUSH1 0x2 ADD SSTORE PUSH1 0x60 DUP3 ADD MLOAD DUP2 PUSH1 0x3 ADD SSTORE PUSH1 0x80 DUP3 ADD MLOAD DUP2 PUSH1 0x4 ADD SSTORE PUSH1 0xA0 DUP3 ADD MLOAD DUP2 PUSH1 0x5 ADD SSTORE PUSH1 0xC0 DUP3 ADD MLOAD DUP2 PUSH1 0x6 ADD SSTORE POP POP DUP3 PUSH32 0x917ACFBE39BE6509CCF7FECB66A7E42CE2BE1083C2D7DD3B9B7491DABDDB8DA4 TIMESTAMP PUSH1 0x2 SLOAD PUSH1 0x40 MLOAD DUP1 DUP4 DUP2 MSTORE PUSH1 0x20 ADD DUP3 DUP2 MSTORE PUSH1 0x20 ADD SWAP3 POP POP POP PUSH1 0x40 MLOAD DUP1 SWAP2 SUB SWAP1 LOG2 DUP3 PUSH32 0x6012DBCE857565C4A40974AA5DE8373A761FC429077EF0C8C8611D1E20D63FB2 DUP3 PUSH2 0x299D PUSH2 0x131A JUMP JUMPDEST PUSH1 0x40 MLOAD DUP1 DUP4 DUP2 MSTORE PUSH1 0x20 ADD DUP3 DUP2 MSTORE PUSH1 0x20 ADD SWAP3 POP POP POP PUSH1 0x40 MLOAD DUP1 SWAP2 SUB SWAP1 LOG2 PUSH1 0x1 SWAP2 POP POP SWAP4 SWAP3 POP POP POP JUMP JUMPDEST PUSH1 0x0 PUSH2 0x2A07 DUP4 DUP4 PUSH1 0x40 MLOAD DUP1 PUSH1 0x40 ADD PUSH1 0x40 MSTORE DUP1 PUSH1 0x1E DUP2 MSTORE PUSH1 0x20 ADD PUSH32 0x536166654D6174683A207375627472616374696F6E206F766572666C6F770000 DUP2 MSTORE POP PUSH2 0x2BFA JUMP JUMPDEST SWAP1 POP SWAP3 SWAP2 POP POP JUMP JUMPDEST PUSH1 0x0 DUP2 PUSH1 0x0 ADD SLOAD SWAP1 POP SWAP2 SWAP1 POP JUMP JUMPDEST PUSH1 0x1 DUP2 PUSH1 0x0 ADD PUSH1 0x0 DUP3 DUP3 SLOAD ADD SWAP3 POP POP DUP2 SWAP1 SSTORE POP POP JUMP JUMPDEST DUP1 PUSH1 0x10 PUSH1 0x0 DUP6 PUSH20 0xFFFFFFFFFFFFFFFFFFFFFFFFFFFFFFFFFFFFFFFF AND PUSH20 0xFFFFFFFFFFFFFFFFFFFFFFFFFFFFFFFFFFFFFFFF AND DUP2 MSTORE PUSH1 0x20 ADD SWAP1 DUP2 MSTORE PUSH1 0x20 ADD PUSH1 0x0 KECCAK256 PUSH1 0x0 DUP5 PUSH20 0xFFFFFFFFFFFFFFFFFFFFFFFFFFFFFFFFFFFFFFFF AND PUSH20 0xFFFFFFFFFFFFFFFFFFFFFFFFFFFFFFFFFFFFFFFF AND DUP2 MSTORE PUSH1 0x20 ADD SWAP1 DUP2 MSTORE PUSH1 0x20 ADD PUSH1 0x0 KECCAK256 DUP2 SWAP1 SSTORE POP DUP2 PUSH20 0xFFFFFFFFFFFFFFFFFFFFFFFFFFFFFFFFFFFFFFFF AND DUP4 PUSH20 0xFFFFFFFFFFFFFFFFFFFFFFFFFFFFFFFFFFFFFFFF AND PUSH32 0x8C5BE1E5EBEC7D5BD14F71427D1E84F3DD0314C0F7B2291E5B200AC8C7C3B925 DUP4 PUSH1 0x40 MLOAD DUP1 DUP3 DUP2 MSTORE PUSH1 0x20 ADD SWAP2 POP POP PUSH1 0x40 MLOAD DUP1 SWAP2 SUB SWAP1 LOG3 POP POP POP JUMP JUMPDEST PUSH1 0x0 DUP1 DUP4 GT DUP3 SWAP1 PUSH2 0x2BCA JUMPI PUSH1 0x40 MLOAD PUSH32 0x8C379A000000000000000000000000000000000000000000000000000000000 DUP2 MSTORE PUSH1 0x4 ADD DUP1 DUP1 PUSH1 0x20 ADD DUP3 DUP2 SUB DUP3 MSTORE DUP4 DUP2 DUP2 MLOAD DUP2 MSTORE PUSH1 0x20 ADD SWAP2 POP DUP1 MLOAD SWAP1 PUSH1 0x20 ADD SWAP1 DUP1 DUP4 DUP4 PUSH1 0x0 JUMPDEST DUP4 DUP2 LT ISZERO PUSH2 0x2B8F JUMPI DUP1 DUP3 ADD MLOAD DUP2 DUP5 ADD MSTORE PUSH1 0x20 DUP2 ADD SWAP1 POP PUSH2 0x2B74 JUMP JUMPDEST POP POP POP POP SWAP1 POP SWAP1 DUP2 ADD SWAP1 PUSH1 0x1F AND DUP1 ISZERO PUSH2 0x2BBC JUMPI DUP1 DUP3 SUB DUP1 MLOAD PUSH1 0x1 DUP4 PUSH1 0x20 SUB PUSH2 0x100 EXP SUB NOT AND DUP2 MSTORE PUSH1 0x20 ADD SWAP2 POP JUMPDEST POP SWAP3 POP POP POP PUSH1 0x40 MLOAD DUP1 SWAP2 SUB SWAP1 REVERT JUMPDEST POP PUSH1 0x0 DUP4 DUP6 DUP2 PUSH2 0x2BD6 JUMPI INVALID JUMPDEST DIV SWAP1 POP DUP4 DUP6 DUP2 PUSH2 0x2BE2 JUMPI INVALID JUMPDEST MOD DUP2 DUP6 MUL ADD DUP6 EQ PUSH2 0x2BEF JUMPI INVALID JUMPDEST DUP1 SWAP2 POP POP SWAP4 SWAP3 POP POP POP JUMP JUMPDEST PUSH1 0x0 DUP4 DUP4 GT ISZERO DUP3 SWAP1 PUSH2 0x2CA7 JUMPI PUSH1 0x40 MLOAD PUSH32 0x8C379A000000000000000000000000000000000000000000000000000000000 DUP2 MSTORE PUSH1 0x4 ADD DUP1 DUP1 PUSH1 0x20 ADD DUP3 DUP2 SUB DUP3 MSTORE DUP4 DUP2 DUP2 MLOAD DUP2 MSTORE PUSH1 0x20 ADD SWAP2 POP DUP1 MLOAD SWAP1 PUSH1 0x20 ADD SWAP1 DUP1 DUP4 DUP4 PUSH1 0x0 JUMPDEST DUP4 DUP2 LT ISZERO PUSH2 0x2C6C JUMPI DUP1 DUP3 ADD MLOAD DUP2 DUP5 ADD MSTORE PUSH1 0x20 DUP2 ADD SWAP1 POP PUSH2 0x2C51 JUMP JUMPDEST POP POP POP POP SWAP1 POP SWAP1 DUP2 ADD SWAP1 PUSH1 0x1F AND DUP1 ISZERO PUSH2 0x2C99 JUMPI DUP1 DUP3 SUB DUP1 MLOAD PUSH1 0x1 DUP4 PUSH1 0x20 SUB PUSH2 0x100 EXP SUB NOT AND DUP2 MSTORE PUSH1 0x20 ADD SWAP2 POP JUMPDEST POP SWAP3 POP POP POP PUSH1 0x40 MLOAD DUP1 SWAP2 SUB SWAP1 REVERT JUMPDEST POP PUSH1 0x0 DUP4 DUP6 SUB SWAP1 POP DUP1 SWAP2 POP POP SWAP4 SWAP3 POP POP POP JUMP INVALID 0x4F PUSH24 0x6E61626C653A206E6577206F776E65722069732074686520 PUSH27 0x65726F20616464726573734F776E61626C653A206D757374206265 KECCAK256 PUSH15 0x6577206F776E657220746F2070756C PUSH13 0x5A65726F537761705065726D69 PUSH21 0x3A20496E76616C6964207369676E61747572655361 PUSH7 0x654D6174683A20 PUSH14 0x756C7469706C69636174696F6E20 PUSH16 0x766572666C6F77A26469706673582212 KECCAK256 DUP13 BALANCE 0xD4 CODECOPY 0x49 0xB5 0xD7 PUSH25 0x891DBE250420DBC32CE468355F0CBD9A03613315DC5D11E64 PUSH20 0x6F6C634300070500330000000000000000000000 "
				},
				"gasEstimates": {
					"creation": {
						"codeDepositCost": "2328400",
						"executionCost": "infinite",
						"totalCost": "infinite"
					},
					"external": {
						"DOMAIN_SEPARATOR()": "1050",
						"INDEX()": "1073",
						"PERMIT_TYPEHASH()": "301",
						"allowance(address,address)": "1409",
						"approve(address,uint256)": "22408",
						"balanceForGons(uint256)": "infinite",
						"balanceOf(address)": "infinite",
						"circulatingSupply()": "infinite",
						"decimals()": "1167",
						"decreaseAllowance(address,uint256)": "infinite",
						"gonsForBalance(uint256)": "infinite",
						"increaseAllowance(address,uint256)": "infinite",
						"index()": "infinite",
						"initialize(address)": "68507",
						"initializer()": "1114",
						"manager()": "1101",
						"name()": "infinite",
						"nonces(address)": "1334",
						"permit(address,address,uint256,uint256,uint8,bytes32,bytes32)": "infinite",
						"pullManagement()": "infinite",
						"pushManagement(address)": "infinite",
						"rebase(uint256,uint256)": "infinite",
						"rebases(uint256)": "7042",
						"renounceManagement()": "24353",
						"setIndex(uint256)": "infinite",
						"stakingContract()": "1157",
						"symbol()": "infinite",
						"totalSupply()": "1081",
						"transfer(address,uint256)": "infinite",
						"transferFrom(address,address,uint256)": "infinite"
					},
					"internal": {
						"_approve(address,address,uint256)": "infinite",
						"_storeRebase(uint256,uint256,uint256)": "infinite"
					}
				},
				"methodIdentifiers": {
					"DOMAIN_SEPARATOR()": "3644e515",
					"INDEX()": "2df75cb1",
					"PERMIT_TYPEHASH()": "30adf81f",
					"allowance(address,address)": "dd62ed3e",
					"approve(address,uint256)": "095ea7b3",
					"balanceForGons(uint256)": "7965d56d",
					"balanceOf(address)": "70a08231",
					"circulatingSupply()": "9358928b",
					"decimals()": "313ce567",
					"decreaseAllowance(address,uint256)": "a457c2d7",
					"gonsForBalance(uint256)": "1bd39674",
					"increaseAllowance(address,uint256)": "39509351",
					"index()": "2986c0e5",
					"initialize(address)": "c4d66de8",
					"initializer()": "9ce110d7",
					"manager()": "481c6a75",
					"name()": "06fdde03",
					"nonces(address)": "7ecebe00",
					"permit(address,address,uint256,uint256,uint8,bytes32,bytes32)": "d505accf",
					"pullManagement()": "5a96ac0a",
					"pushManagement(address)": "46f68ee9",
					"rebase(uint256,uint256)": "058ecdb4",
					"rebases(uint256)": "73c69eb7",
					"renounceManagement()": "089208d8",
					"setIndex(uint256)": "40a5737f",
					"stakingContract()": "ee99205c",
					"symbol()": "95d89b41",
					"totalSupply()": "18160ddd",
					"transfer(address,uint256)": "a9059cbb",
					"transferFrom(address,address,uint256)": "23b872dd"
				}
			},
			"storageLayout": {
				"storage": [
					{
						"astId": 1842,
						"contract": "contracts/sOHM.sol:sOlympus",
						"label": "_balances",
						"offset": 0,
						"slot": "0",
						"type": "t_mapping(t_address,t_uint256)"
					},
					{
						"astId": 1848,
						"contract": "contracts/sOHM.sol:sOlympus",
						"label": "_allowances",
						"offset": 0,
						"slot": "1",
						"type": "t_mapping(t_address,t_mapping(t_address,t_uint256))"
					},
					{
						"astId": 1850,
						"contract": "contracts/sOHM.sol:sOlympus",
						"label": "_totalSupply",
						"offset": 0,
						"slot": "2",
						"type": "t_uint256"
					},
					{
						"astId": 1852,
						"contract": "contracts/sOHM.sol:sOlympus",
						"label": "_name",
						"offset": 0,
						"slot": "3",
						"type": "t_string_storage"
					},
					{
						"astId": 1854,
						"contract": "contracts/sOHM.sol:sOlympus",
						"label": "_symbol",
						"offset": 0,
						"slot": "4",
						"type": "t_string_storage"
					},
					{
						"astId": 1856,
						"contract": "contracts/sOHM.sol:sOlympus",
						"label": "_decimals",
						"offset": 0,
						"slot": "5",
						"type": "t_uint8"
					},
					{
						"astId": 2335,
						"contract": "contracts/sOHM.sol:sOlympus",
						"label": "_nonces",
						"offset": 0,
						"slot": "6",
						"type": "t_mapping(t_address,t_struct(Counter)578_storage)"
					},
					{
						"astId": 2340,
						"contract": "contracts/sOHM.sol:sOlympus",
						"label": "DOMAIN_SEPARATOR",
						"offset": 0,
						"slot": "7",
						"type": "t_bytes32"
					},
					{
						"astId": 971,
						"contract": "contracts/sOHM.sol:sOlympus",
						"label": "_owner",
						"offset": 0,
						"slot": "8",
						"type": "t_address"
					},
					{
						"astId": 973,
						"contract": "contracts/sOHM.sol:sOlympus",
						"label": "_newOwner",
						"offset": 0,
						"slot": "9",
						"type": "t_address"
					},
					{
						"astId": 1116,
						"contract": "contracts/sOHM.sol:sOlympus",
						"label": "stakingContract",
						"offset": 0,
						"slot": "10",
						"type": "t_address"
					},
					{
						"astId": 1118,
						"contract": "contracts/sOHM.sol:sOlympus",
						"label": "initializer",
						"offset": 0,
						"slot": "11",
						"type": "t_address"
					},
					{
						"astId": 1156,
						"contract": "contracts/sOHM.sol:sOlympus",
						"label": "rebases",
						"offset": 0,
						"slot": "12",
						"type": "t_array(t_struct(Rebase)1153_storage)dyn_storage"
					},
					{
						"astId": 1158,
						"contract": "contracts/sOHM.sol:sOlympus",
						"label": "INDEX",
						"offset": 0,
						"slot": "13",
						"type": "t_uint256"
					},
					{
						"astId": 1189,
						"contract": "contracts/sOHM.sol:sOlympus",
						"label": "_gonsPerFragment",
						"offset": 0,
						"slot": "14",
						"type": "t_uint256"
					},
					{
						"astId": 1193,
						"contract": "contracts/sOHM.sol:sOlympus",
						"label": "_gonBalances",
						"offset": 0,
						"slot": "15",
						"type": "t_mapping(t_address,t_uint256)"
					},
					{
						"astId": 1199,
						"contract": "contracts/sOHM.sol:sOlympus",
						"label": "_allowedValue",
						"offset": 0,
						"slot": "16",
						"type": "t_mapping(t_address,t_mapping(t_address,t_uint256))"
					}
				],
				"types": {
					"t_address": {
						"encoding": "inplace",
						"label": "address",
						"numberOfBytes": "20"
					},
					"t_array(t_struct(Rebase)1153_storage)dyn_storage": {
						"base": "t_struct(Rebase)1153_storage",
						"encoding": "dynamic_array",
						"label": "struct sOlympus.Rebase[]",
						"numberOfBytes": "32"
					},
					"t_bytes32": {
						"encoding": "inplace",
						"label": "bytes32",
						"numberOfBytes": "32"
					},
					"t_mapping(t_address,t_mapping(t_address,t_uint256))": {
						"encoding": "mapping",
						"key": "t_address",
						"label": "mapping(address => mapping(address => uint256))",
						"numberOfBytes": "32",
						"value": "t_mapping(t_address,t_uint256)"
					},
					"t_mapping(t_address,t_struct(Counter)578_storage)": {
						"encoding": "mapping",
						"key": "t_address",
						"label": "mapping(address => struct Counters.Counter)",
						"numberOfBytes": "32",
						"value": "t_struct(Counter)578_storage"
					},
					"t_mapping(t_address,t_uint256)": {
						"encoding": "mapping",
						"key": "t_address",
						"label": "mapping(address => uint256)",
						"numberOfBytes": "32",
						"value": "t_uint256"
					},
					"t_string_storage": {
						"encoding": "bytes",
						"label": "string",
						"numberOfBytes": "32"
					},
					"t_struct(Counter)578_storage": {
						"encoding": "inplace",
						"label": "struct Counters.Counter",
						"members": [
							{
								"astId": 577,
								"contract": "contracts/sOHM.sol:sOlympus",
								"label": "_value",
								"offset": 0,
								"slot": "0",
								"type": "t_uint256"
							}
						],
						"numberOfBytes": "32"
					},
					"t_struct(Rebase)1153_storage": {
						"encoding": "inplace",
						"label": "struct sOlympus.Rebase",
						"members": [
							{
								"astId": 1140,
								"contract": "contracts/sOHM.sol:sOlympus",
								"label": "epoch",
								"offset": 0,
								"slot": "0",
								"type": "t_uint256"
							},
							{
								"astId": 1142,
								"contract": "contracts/sOHM.sol:sOlympus",
								"label": "rebase",
								"offset": 0,
								"slot": "1",
								"type": "t_uint256"
							},
							{
								"astId": 1144,
								"contract": "contracts/sOHM.sol:sOlympus",
								"label": "totalStakedBefore",
								"offset": 0,
								"slot": "2",
								"type": "t_uint256"
							},
							{
								"astId": 1146,
								"contract": "contracts/sOHM.sol:sOlympus",
								"label": "totalStakedAfter",
								"offset": 0,
								"slot": "3",
								"type": "t_uint256"
							},
							{
								"astId": 1148,
								"contract": "contracts/sOHM.sol:sOlympus",
								"label": "amountRebased",
								"offset": 0,
								"slot": "4",
								"type": "t_uint256"
							},
							{
								"astId": 1150,
								"contract": "contracts/sOHM.sol:sOlympus",
								"label": "index",
								"offset": 0,
								"slot": "5",
								"type": "t_uint256"
							},
							{
								"astId": 1152,
								"contract": "contracts/sOHM.sol:sOlympus",
								"label": "blockNumberOccured",
								"offset": 0,
								"slot": "6",
								"type": "t_uint256"
							}
						],
						"numberOfBytes": "224"
					},
					"t_uint256": {
						"encoding": "inplace",
						"label": "uint256",
						"numberOfBytes": "32"
					},
					"t_uint8": {
						"encoding": "inplace",
						"label": "uint8",
						"numberOfBytes": "1"
					}
				}
			},
			"userdoc": {
				"kind": "user",
				"methods": {
					"rebase(uint256,uint256)": {
						"notice": "increases sOHM supply to increase staking balances relative to profit_"
					}
				},
				"version": 1
			}
		}
	}
}