{
	"contracts/votes.sol": {
		"votes": {
			"abi": [
				{
					"inputs": [
						{
							"internalType": "address",
							"name": "account",
							"type": "address"
						},
						{
							"internalType": "uint256",
							"name": "_votes",
							"type": "uint256"
						}
					],
					"name": "Votes",
					"outputs": [],
					"stateMutability": "nonpayable",
					"type": "function"
				},
				{
					"inputs": [
						{
							"internalType": "address",
							"name": "",
							"type": "address"
						},
						{
							"internalType": "uint256",
							"name": "",
							"type": "uint256"
						}
					],
					"name": "checkpoints",
					"outputs": [
						{
							"internalType": "uint256",
							"name": "fromBlock",
							"type": "uint256"
						},
						{
							"internalType": "uint256",
							"name": "votes",
							"type": "uint256"
						}
					],
					"stateMutability": "view",
					"type": "function"
				},
				{
					"inputs": [
						{
							"internalType": "address",
							"name": "account",
							"type": "address"
						}
					],
					"name": "getCurrentVotes",
					"outputs": [
						{
							"internalType": "uint256",
							"name": "",
							"type": "uint256"
						}
					],
					"stateMutability": "view",
					"type": "function"
				},
				{
					"inputs": [
						{
							"internalType": "address",
							"name": "account",
							"type": "address"
						},
						{
							"internalType": "uint256",
							"name": "blockNumber",
							"type": "uint256"
						}
					],
					"name": "getPriorVotes",
					"outputs": [
						{
							"internalType": "uint256",
							"name": "",
							"type": "uint256"
						}
					],
					"stateMutability": "view",
					"type": "function"
				},
				{
					"inputs": [
						{
							"internalType": "address",
							"name": "",
							"type": "address"
						}
					],
					"name": "numCheckpoints",
					"outputs": [
						{
							"internalType": "uint256",
							"name": "",
							"type": "uint256"
						}
					],
					"stateMutability": "view",
					"type": "function"
				}
			],
			"devdoc": {
				"kind": "dev",
				"methods": {},
				"version": 1
			},
			"evm": {
				"assembly": "    /* \"contracts/votes.sol\":78:2036  contract votes {... */\n  mstore(0x40, 0x80)\n  callvalue\n  dup1\n  iszero\n  tag_1\n  jumpi\n  0x00\n  dup1\n  revert\ntag_1:\n  pop\n  dataSize(sub_0)\n  dup1\n  dataOffset(sub_0)\n  0x00\n  codecopy\n  0x00\n  return\nstop\n\nsub_0: assembly {\n        /* \"contracts/votes.sol\":78:2036  contract votes {... */\n      mstore(0x40, 0x80)\n      callvalue\n      dup1\n      iszero\n      tag_1\n      jumpi\n      0x00\n      dup1\n      revert\n    tag_1:\n      pop\n      jumpi(tag_2, lt(calldatasize, 0x04))\n      shr(0xe0, calldataload(0x00))\n      dup1\n      0x0cdfebfa\n      eq\n      tag_3\n      jumpi\n      dup1\n      0x68e17b24\n      eq\n      tag_4\n      jumpi\n      dup1\n      0x6fcfff45\n      eq\n      tag_5\n      jumpi\n      dup1\n      0x782d6fe1\n      eq\n      tag_6\n      jumpi\n      dup1\n      0xb4b5ea57\n      eq\n      tag_7\n      jumpi\n    tag_2:\n      0x00\n      dup1\n      revert\n        /* \"contracts/votes.sol\":185:254  mapping(address => mapping(uint256 => Checkpoint)) public checkpoints */\n    tag_3:\n      tag_8\n      0x04\n      dup1\n      calldatasize\n      sub\n      0x40\n      dup2\n      lt\n      iszero\n      tag_9\n      jumpi\n      0x00\n      dup1\n      revert\n    tag_9:\n      dup2\n      add\n      swap1\n      dup1\n      dup1\n      calldataload\n      0xffffffffffffffffffffffffffffffffffffffff\n      and\n      swap1\n      0x20\n      add\n      swap1\n      swap3\n      swap2\n      swap1\n      dup1\n      calldataload\n      swap1\n      0x20\n      add\n      swap1\n      swap3\n      swap2\n      swap1\n      pop\n      pop\n      pop\n      tag_10\n      jump\t// in\n    tag_8:\n      mload(0x40)\n      dup1\n      dup4\n      dup2\n      mstore\n      0x20\n      add\n      dup3\n      dup2\n      mstore\n      0x20\n      add\n      swap3\n      pop\n      pop\n      pop\n      mload(0x40)\n      dup1\n      swap2\n      sub\n      swap1\n      return\n        /* \"contracts/votes.sol\":316:597  function Votes(address account, uint _votes) public {... */\n    tag_4:\n      tag_11\n      0x04\n      dup1\n      calldatasize\n      sub\n      0x40\n      dup2\n      lt\n      iszero\n      tag_12\n      jumpi\n      0x00\n      dup1\n      revert\n    tag_12:\n      dup2\n      add\n      swap1\n      dup1\n      dup1\n      calldataload\n      0xffffffffffffffffffffffffffffffffffffffff\n      and\n      swap1\n      0x20\n      add\n      swap1\n      swap3\n      swap2\n      swap1\n      dup1\n      calldataload\n      swap1\n      0x20\n      add\n      swap1\n      swap3\n      swap2\n      swap1\n      pop\n      pop\n      pop\n      tag_13\n      jump\t// in\n    tag_11:\n      stop\n        /* \"contracts/votes.sol\":260:309  mapping(address => uint256) public numCheckpoints */\n    tag_5:\n      tag_14\n      0x04\n      dup1\n      calldatasize\n      sub\n      0x20\n      dup2\n      lt\n      iszero\n      tag_15\n      jumpi\n      0x00\n      dup1\n      revert\n    tag_15:\n      dup2\n      add\n      swap1\n      dup1\n      dup1\n      calldataload\n      0xffffffffffffffffffffffffffffffffffffffff\n      and\n      swap1\n      0x20\n      add\n      swap1\n      swap3\n      swap2\n      swap1\n      pop\n      pop\n      pop\n      tag_16\n      jump\t// in\n    tag_14:\n      mload(0x40)\n      dup1\n      dup3\n      dup2\n      mstore\n      0x20\n      add\n      swap2\n      pop\n      pop\n      mload(0x40)\n      dup1\n      swap2\n      sub\n      swap1\n      return\n        /* \"contracts/votes.sol\":834:2030  function getPriorVotes(address account, uint256 blockNumber) external view returns (uint256) {... */\n    tag_6:\n      tag_17\n      0x04\n      dup1\n      calldatasize\n      sub\n      0x40\n      dup2\n      lt\n      iszero\n      tag_18\n      jumpi\n      0x00\n      dup1\n      revert\n    tag_18:\n      dup2\n      add\n      swap1\n      dup1\n      dup1\n      calldataload\n      0xffffffffffffffffffffffffffffffffffffffff\n      and\n      swap1\n      0x20\n      add\n      swap1\n      swap3\n      swap2\n      swap1\n      dup1\n      calldataload\n      swap1\n      0x20\n      add\n      swap1\n      swap3\n      swap2\n      swap1\n      pop\n      pop\n      pop\n      tag_19\n      jump\t// in\n    tag_17:\n      mload(0x40)\n      dup1\n      dup3\n      dup2\n      mstore\n      0x20\n      add\n      swap2\n      pop\n      pop\n      mload(0x40)\n      dup1\n      swap2\n      sub\n      swap1\n      return\n        /* \"contracts/votes.sol\":603:824  function getCurrentVotes(address account) external view returns (uint256) {... */\n    tag_7:\n      tag_20\n      0x04\n      dup1\n      calldatasize\n      sub\n      0x20\n      dup2\n      lt\n      iszero\n      tag_21\n      jumpi\n      0x00\n      dup1\n      revert\n    tag_21:\n      dup2\n      add\n      swap1\n      dup1\n      dup1\n      calldataload\n      0xffffffffffffffffffffffffffffffffffffffff\n      and\n      swap1\n      0x20\n      add\n      swap1\n      swap3\n      swap2\n      swap1\n      pop\n      pop\n      pop\n      tag_22\n      jump\t// in\n    tag_20:\n      mload(0x40)\n      dup1\n      dup3\n      dup2\n      mstore\n      0x20\n      add\n      swap2\n      pop\n      pop\n      mload(0x40)\n      dup1\n      swap2\n      sub\n      swap1\n      return\n        /* \"contracts/votes.sol\":185:254  mapping(address => mapping(uint256 => Checkpoint)) public checkpoints */\n    tag_10:\n      mstore(0x20, 0x00)\n      dup2\n      0x00\n      mstore\n      mstore(0x20, keccak256(0x00, 0x40))\n      dup1\n      0x00\n      mstore\n      keccak256(0x00, 0x40)\n      0x00\n      swap2\n      pop\n      swap2\n      pop\n      pop\n      dup1\n      0x00\n      add\n      sload\n      swap1\n      dup1\n      0x01\n      add\n      sload\n      swap1\n      pop\n      dup3\n      jump\t// out\n        /* \"contracts/votes.sol\":316:597  function Votes(address account, uint _votes) public {... */\n    tag_13:\n        /* \"contracts/votes.sol\":378:398  uint256 nCheckpoints */\n      0x00\n        /* \"contracts/votes.sol\":401:415  numCheckpoints */\n      0x01\n        /* \"contracts/votes.sol\":401:424  numCheckpoints[account] */\n      0x00\n        /* \"contracts/votes.sol\":416:423  account */\n      dup5\n        /* \"contracts/votes.sol\":401:424  numCheckpoints[account] */\n      0xffffffffffffffffffffffffffffffffffffffff\n      and\n      0xffffffffffffffffffffffffffffffffffffffff\n      and\n      dup2\n      mstore\n      0x20\n      add\n      swap1\n      dup2\n      mstore\n      0x20\n      add\n      0x00\n      keccak256\n      sload\n        /* \"contracts/votes.sol\":378:424  uint256 nCheckpoints = numCheckpoints[account] */\n      swap1\n      pop\n        /* \"contracts/votes.sol\":477:483  _votes */\n      dup2\n        /* \"contracts/votes.sol\":434:445  checkpoints */\n      0x00\n        /* \"contracts/votes.sol\":434:454  checkpoints[account] */\n      dup1\n        /* \"contracts/votes.sol\":446:453  account */\n      dup6\n        /* \"contracts/votes.sol\":434:454  checkpoints[account] */\n      0xffffffffffffffffffffffffffffffffffffffff\n      and\n      0xffffffffffffffffffffffffffffffffffffffff\n      and\n      dup2\n      mstore\n      0x20\n      add\n      swap1\n      dup2\n      mstore\n      0x20\n      add\n      0x00\n      keccak256\n        /* \"contracts/votes.sol\":434:468  checkpoints[account][nCheckpoints] */\n      0x00\n        /* \"contracts/votes.sol\":455:467  nCheckpoints */\n      dup4\n        /* \"contracts/votes.sol\":434:468  checkpoints[account][nCheckpoints] */\n      dup2\n      mstore\n      0x20\n      add\n      swap1\n      dup2\n      mstore\n      0x20\n      add\n      0x00\n      keccak256\n        /* \"contracts/votes.sol\":434:474  checkpoints[account][nCheckpoints].votes */\n      0x01\n      add\n        /* \"contracts/votes.sol\":434:483  checkpoints[account][nCheckpoints].votes = _votes */\n      dup2\n      swap1\n      sstore\n      pop\n        /* \"contracts/votes.sol\":540:552  block.number */\n      number\n        /* \"contracts/votes.sol\":493:504  checkpoints */\n      0x00\n        /* \"contracts/votes.sol\":493:513  checkpoints[account] */\n      dup1\n        /* \"contracts/votes.sol\":505:512  account */\n      dup6\n        /* \"contracts/votes.sol\":493:513  checkpoints[account] */\n      0xffffffffffffffffffffffffffffffffffffffff\n      and\n      0xffffffffffffffffffffffffffffffffffffffff\n      and\n      dup2\n      mstore\n      0x20\n      add\n      swap1\n      dup2\n      mstore\n      0x20\n      add\n      0x00\n      keccak256\n        /* \"contracts/votes.sol\":493:527  checkpoints[account][nCheckpoints] */\n      0x00\n        /* \"contracts/votes.sol\":514:526  nCheckpoints */\n      dup4\n        /* \"contracts/votes.sol\":493:527  checkpoints[account][nCheckpoints] */\n      dup2\n      mstore\n      0x20\n      add\n      swap1\n      dup2\n      mstore\n      0x20\n      add\n      0x00\n      keccak256\n        /* \"contracts/votes.sol\":493:537  checkpoints[account][nCheckpoints].fromBlock */\n      0x00\n      add\n        /* \"contracts/votes.sol\":493:552  checkpoints[account][nCheckpoints].fromBlock = block.number */\n      dup2\n      swap1\n      sstore\n      pop\n        /* \"contracts/votes.sol\":589:590  1 */\n      0x01\n        /* \"contracts/votes.sol\":562:576  numCheckpoints */\n      dup1\n        /* \"contracts/votes.sol\":562:585  numCheckpoints[account] */\n      0x00\n        /* \"contracts/votes.sol\":577:584  account */\n      dup6\n        /* \"contracts/votes.sol\":562:585  numCheckpoints[account] */\n      0xffffffffffffffffffffffffffffffffffffffff\n      and\n      0xffffffffffffffffffffffffffffffffffffffff\n      and\n      dup2\n      mstore\n      0x20\n      add\n      swap1\n      dup2\n      mstore\n      0x20\n      add\n      0x00\n      keccak256\n      0x00\n        /* \"contracts/votes.sol\":562:590  numCheckpoints[account] += 1 */\n      dup3\n      dup3\n      sload\n      add\n      swap3\n      pop\n      pop\n      dup2\n      swap1\n      sstore\n      pop\n        /* \"contracts/votes.sol\":316:597  function Votes(address account, uint _votes) public {... */\n      pop\n      pop\n      pop\n      jump\t// out\n        /* \"contracts/votes.sol\":260:309  mapping(address => uint256) public numCheckpoints */\n    tag_16:\n      mstore(0x20, 0x01)\n      dup1\n      0x00\n      mstore\n      keccak256(0x00, 0x40)\n      0x00\n      swap2\n      pop\n      swap1\n      pop\n      sload\n      dup2\n      jump\t// out\n        /* \"contracts/votes.sol\":834:2030  function getPriorVotes(address account, uint256 blockNumber) external view returns (uint256) {... */\n    tag_19:\n        /* \"contracts/votes.sol\":918:925  uint256 */\n      0x00\n        /* \"contracts/votes.sol\":959:971  block.number */\n      number\n        /* \"contracts/votes.sol\":945:956  blockNumber */\n      dup3\n        /* \"contracts/votes.sol\":945:971  blockNumber < block.number */\n      lt\n        /* \"contracts/votes.sol\":937:1015  require(blockNumber < block.number, \"gOHM::getPriorVotes: not yet determined\") */\n      tag_25\n      jumpi\n      mload(0x40)\n      0x08c379a000000000000000000000000000000000000000000000000000000000\n      dup2\n      mstore\n      0x04\n      add\n      dup1\n      dup1\n      0x20\n      add\n      dup3\n      dup2\n      sub\n      dup3\n      mstore\n      0x27\n      dup2\n      mstore\n      0x20\n      add\n      dup1\n      data_af7c5741dc8cf648e56d5bf296014d9d34a36f052c1eefaa826779d4817e5e92\n      0x27\n      swap2\n      codecopy\n      0x40\n      add\n      swap2\n      pop\n      pop\n      mload(0x40)\n      dup1\n      swap2\n      sub\n      swap1\n      revert\n    tag_25:\n        /* \"contracts/votes.sol\":1026:1046  uint256 nCheckpoints */\n      0x00\n        /* \"contracts/votes.sol\":1049:1063  numCheckpoints */\n      0x01\n        /* \"contracts/votes.sol\":1049:1072  numCheckpoints[account] */\n      0x00\n        /* \"contracts/votes.sol\":1064:1071  account */\n      dup6\n        /* \"contracts/votes.sol\":1049:1072  numCheckpoints[account] */\n      0xffffffffffffffffffffffffffffffffffffffff\n      and\n      0xffffffffffffffffffffffffffffffffffffffff\n      and\n      dup2\n      mstore\n      0x20\n      add\n      swap1\n      dup2\n      mstore\n      0x20\n      add\n      0x00\n      keccak256\n      sload\n        /* \"contracts/votes.sol\":1026:1072  uint256 nCheckpoints = numCheckpoints[account] */\n      swap1\n      pop\n        /* \"contracts/votes.sol\":1102:1103  0 */\n      0x00\n        /* \"contracts/votes.sol\":1086:1098  nCheckpoints */\n      dup2\n        /* \"contracts/votes.sol\":1086:1103  nCheckpoints == 0 */\n      eq\n        /* \"contracts/votes.sol\":1082:1138  if (nCheckpoints == 0) {... */\n      iszero\n      tag_26\n      jumpi\n        /* \"contracts/votes.sol\":1126:1127  0 */\n      0x00\n        /* \"contracts/votes.sol\":1119:1127  return 0 */\n      swap2\n      pop\n      pop\n      jump(tag_24)\n        /* \"contracts/votes.sol\":1082:1138  if (nCheckpoints == 0) {... */\n    tag_26:\n        /* \"contracts/votes.sol\":1247:1258  blockNumber */\n      dup3\n        /* \"contracts/votes.sol\":1195:1206  checkpoints */\n      0x00\n        /* \"contracts/votes.sol\":1195:1215  checkpoints[account] */\n      dup1\n        /* \"contracts/votes.sol\":1207:1214  account */\n      dup7\n        /* \"contracts/votes.sol\":1195:1215  checkpoints[account] */\n      0xffffffffffffffffffffffffffffffffffffffff\n      and\n      0xffffffffffffffffffffffffffffffffffffffff\n      and\n      dup2\n      mstore\n      0x20\n      add\n      swap1\n      dup2\n      mstore\n      0x20\n      add\n      0x00\n      keccak256\n        /* \"contracts/votes.sol\":1195:1233  checkpoints[account][nCheckpoints - 1] */\n      0x00\n        /* \"contracts/votes.sol\":1231:1232  1 */\n      0x01\n        /* \"contracts/votes.sol\":1216:1228  nCheckpoints */\n      dup5\n        /* \"contracts/votes.sol\":1216:1232  nCheckpoints - 1 */\n      sub\n        /* \"contracts/votes.sol\":1195:1233  checkpoints[account][nCheckpoints - 1] */\n      dup2\n      mstore\n      0x20\n      add\n      swap1\n      dup2\n      mstore\n      0x20\n      add\n      0x00\n      keccak256\n        /* \"contracts/votes.sol\":1195:1243  checkpoints[account][nCheckpoints - 1].fromBlock */\n      0x00\n      add\n      sload\n        /* \"contracts/votes.sol\":1195:1258  checkpoints[account][nCheckpoints - 1].fromBlock <= blockNumber */\n      gt\n        /* \"contracts/votes.sol\":1191:1336  if (checkpoints[account][nCheckpoints - 1].fromBlock <= blockNumber) {... */\n      tag_27\n      jumpi\n        /* \"contracts/votes.sol\":1281:1292  checkpoints */\n      0x00\n        /* \"contracts/votes.sol\":1281:1301  checkpoints[account] */\n      dup1\n        /* \"contracts/votes.sol\":1293:1300  account */\n      dup6\n        /* \"contracts/votes.sol\":1281:1301  checkpoints[account] */\n      0xffffffffffffffffffffffffffffffffffffffff\n      and\n      0xffffffffffffffffffffffffffffffffffffffff\n      and\n      dup2\n      mstore\n      0x20\n      add\n      swap1\n      dup2\n      mstore\n      0x20\n      add\n      0x00\n      keccak256\n        /* \"contracts/votes.sol\":1281:1319  checkpoints[account][nCheckpoints - 1] */\n      0x00\n        /* \"contracts/votes.sol\":1317:1318  1 */\n      0x01\n        /* \"contracts/votes.sol\":1302:1314  nCheckpoints */\n      dup4\n        /* \"contracts/votes.sol\":1302:1318  nCheckpoints - 1 */\n      sub\n        /* \"contracts/votes.sol\":1281:1319  checkpoints[account][nCheckpoints - 1] */\n      dup2\n      mstore\n      0x20\n      add\n      swap1\n      dup2\n      mstore\n      0x20\n      add\n      0x00\n      keccak256\n        /* \"contracts/votes.sol\":1281:1325  checkpoints[account][nCheckpoints - 1].votes */\n      0x01\n      add\n      sload\n        /* \"contracts/votes.sol\":1274:1325  return checkpoints[account][nCheckpoints - 1].votes */\n      swap2\n      pop\n      pop\n      jump(tag_24)\n        /* \"contracts/votes.sol\":1191:1336  if (checkpoints[account][nCheckpoints - 1].fromBlock <= blockNumber) {... */\n    tag_27:\n        /* \"contracts/votes.sol\":1430:1441  blockNumber */\n      dup3\n        /* \"contracts/votes.sol\":1394:1405  checkpoints */\n      0x00\n        /* \"contracts/votes.sol\":1394:1414  checkpoints[account] */\n      dup1\n        /* \"contracts/votes.sol\":1406:1413  account */\n      dup7\n        /* \"contracts/votes.sol\":1394:1414  checkpoints[account] */\n      0xffffffffffffffffffffffffffffffffffffffff\n      and\n      0xffffffffffffffffffffffffffffffffffffffff\n      and\n      dup2\n      mstore\n      0x20\n      add\n      swap1\n      dup2\n      mstore\n      0x20\n      add\n      0x00\n      keccak256\n        /* \"contracts/votes.sol\":1394:1417  checkpoints[account][0] */\n      0x00\n        /* \"contracts/votes.sol\":1415:1416  0 */\n      dup1\n        /* \"contracts/votes.sol\":1394:1417  checkpoints[account][0] */\n      dup2\n      mstore\n      0x20\n      add\n      swap1\n      dup2\n      mstore\n      0x20\n      add\n      0x00\n      keccak256\n        /* \"contracts/votes.sol\":1394:1427  checkpoints[account][0].fromBlock */\n      0x00\n      add\n      sload\n        /* \"contracts/votes.sol\":1394:1441  checkpoints[account][0].fromBlock > blockNumber */\n      gt\n        /* \"contracts/votes.sol\":1390:1476  if (checkpoints[account][0].fromBlock > blockNumber) {... */\n      iszero\n      tag_28\n      jumpi\n        /* \"contracts/votes.sol\":1464:1465  0 */\n      0x00\n        /* \"contracts/votes.sol\":1457:1465  return 0 */\n      swap2\n      pop\n      pop\n      jump(tag_24)\n        /* \"contracts/votes.sol\":1390:1476  if (checkpoints[account][0].fromBlock > blockNumber) {... */\n    tag_28:\n        /* \"contracts/votes.sol\":1486:1499  uint256 lower */\n      0x00\n        /* \"contracts/votes.sol\":1513:1526  uint256 upper */\n      dup1\n        /* \"contracts/votes.sol\":1544:1545  1 */\n      0x01\n        /* \"contracts/votes.sol\":1529:1541  nCheckpoints */\n      dup4\n        /* \"contracts/votes.sol\":1529:1545  nCheckpoints - 1 */\n      sub\n        /* \"contracts/votes.sol\":1513:1545  uint256 upper = nCheckpoints - 1 */\n      swap1\n      pop\n        /* \"contracts/votes.sol\":1555:1974  while (upper > lower) {... */\n    tag_29:\n        /* \"contracts/votes.sol\":1570:1575  lower */\n      dup2\n        /* \"contracts/votes.sol\":1562:1567  upper */\n      dup2\n        /* \"contracts/votes.sol\":1562:1575  upper > lower */\n      gt\n        /* \"contracts/votes.sol\":1555:1974  while (upper > lower) {... */\n      iszero\n      tag_30\n      jumpi\n        /* \"contracts/votes.sol\":1591:1605  uint256 center */\n      0x00\n        /* \"contracts/votes.sol\":1634:1635  2 */\n      0x02\n        /* \"contracts/votes.sol\":1625:1630  lower */\n      dup4\n        /* \"contracts/votes.sol\":1617:1622  upper */\n      dup4\n        /* \"contracts/votes.sol\":1617:1630  upper - lower */\n      sub\n        /* \"contracts/votes.sol\":1616:1635  (upper - lower) / 2 */\n      dup2\n      tag_31\n      jumpi\n      invalid\n    tag_31:\n      div\n        /* \"contracts/votes.sol\":1608:1613  upper */\n      dup3\n        /* \"contracts/votes.sol\":1608:1635  upper - (upper - lower) / 2 */\n      sub\n        /* \"contracts/votes.sol\":1591:1635  uint256 center = upper - (upper - lower) / 2 */\n      swap1\n      pop\n        /* \"contracts/votes.sol\":1676:1696  Checkpoint memory cp */\n      tag_32\n      tag_33\n      jump\t// in\n    tag_32:\n        /* \"contracts/votes.sol\":1699:1710  checkpoints */\n      0x00\n        /* \"contracts/votes.sol\":1699:1719  checkpoints[account] */\n      dup1\n        /* \"contracts/votes.sol\":1711:1718  account */\n      dup10\n        /* \"contracts/votes.sol\":1699:1719  checkpoints[account] */\n      0xffffffffffffffffffffffffffffffffffffffff\n      and\n      0xffffffffffffffffffffffffffffffffffffffff\n      and\n      dup2\n      mstore\n      0x20\n      add\n      swap1\n      dup2\n      mstore\n      0x20\n      add\n      0x00\n      keccak256\n        /* \"contracts/votes.sol\":1699:1727  checkpoints[account][center] */\n      0x00\n        /* \"contracts/votes.sol\":1720:1726  center */\n      dup4\n        /* \"contracts/votes.sol\":1699:1727  checkpoints[account][center] */\n      dup2\n      mstore\n      0x20\n      add\n      swap1\n      dup2\n      mstore\n      0x20\n      add\n      0x00\n      keccak256\n        /* \"contracts/votes.sol\":1676:1727  Checkpoint memory cp = checkpoints[account][center] */\n      mload(0x40)\n      dup1\n      0x40\n      add\n      0x40\n      mstore\n      swap1\n      dup2\n      0x00\n      dup3\n      add\n      sload\n      dup2\n      mstore\n      0x20\n      add\n      0x01\n      dup3\n      add\n      sload\n      dup2\n      mstore\n      pop\n      pop\n      swap1\n      pop\n        /* \"contracts/votes.sol\":1761:1772  blockNumber */\n      dup7\n        /* \"contracts/votes.sol\":1745:1747  cp */\n      dup2\n        /* \"contracts/votes.sol\":1745:1757  cp.fromBlock */\n      0x00\n      add\n      mload\n        /* \"contracts/votes.sol\":1745:1772  cp.fromBlock == blockNumber */\n      eq\n        /* \"contracts/votes.sol\":1741:1964  if (cp.fromBlock == blockNumber) {... */\n      iszero\n      tag_34\n      jumpi\n        /* \"contracts/votes.sol\":1799:1801  cp */\n      dup1\n        /* \"contracts/votes.sol\":1799:1807  cp.votes */\n      0x20\n      add\n      mload\n        /* \"contracts/votes.sol\":1792:1807  return cp.votes */\n      swap6\n      pop\n      pop\n      pop\n      pop\n      pop\n      pop\n      jump(tag_24)\n        /* \"contracts/votes.sol\":1741:1964  if (cp.fromBlock == blockNumber) {... */\n    tag_34:\n        /* \"contracts/votes.sol\":1847:1858  blockNumber */\n      dup7\n        /* \"contracts/votes.sol\":1832:1834  cp */\n      dup2\n        /* \"contracts/votes.sol\":1832:1844  cp.fromBlock */\n      0x00\n      add\n      mload\n        /* \"contracts/votes.sol\":1832:1858  cp.fromBlock < blockNumber */\n      lt\n        /* \"contracts/votes.sol\":1828:1964  if (cp.fromBlock < blockNumber) {... */\n      iszero\n      tag_36\n      jumpi\n        /* \"contracts/votes.sol\":1886:1892  center */\n      dup2\n        /* \"contracts/votes.sol\":1878:1892  lower = center */\n      swap4\n      pop\n        /* \"contracts/votes.sol\":1828:1964  if (cp.fromBlock < blockNumber) {... */\n      jump(tag_37)\n    tag_36:\n        /* \"contracts/votes.sol\":1948:1949  1 */\n      0x01\n        /* \"contracts/votes.sol\":1939:1945  center */\n      dup3\n        /* \"contracts/votes.sol\":1939:1949  center - 1 */\n      sub\n        /* \"contracts/votes.sol\":1931:1949  upper = center - 1 */\n      swap3\n      pop\n        /* \"contracts/votes.sol\":1828:1964  if (cp.fromBlock < blockNumber) {... */\n    tag_37:\n        /* \"contracts/votes.sol\":1555:1974  while (upper > lower) {... */\n      pop\n      pop\n      jump(tag_29)\n    tag_30:\n        /* \"contracts/votes.sol\":1990:2001  checkpoints */\n      0x00\n        /* \"contracts/votes.sol\":1990:2010  checkpoints[account] */\n      dup1\n        /* \"contracts/votes.sol\":2002:2009  account */\n      dup8\n        /* \"contracts/votes.sol\":1990:2010  checkpoints[account] */\n      0xffffffffffffffffffffffffffffffffffffffff\n      and\n      0xffffffffffffffffffffffffffffffffffffffff\n      and\n      dup2\n      mstore\n      0x20\n      add\n      swap1\n      dup2\n      mstore\n      0x20\n      add\n      0x00\n      keccak256\n        /* \"contracts/votes.sol\":1990:2017  checkpoints[account][lower] */\n      0x00\n        /* \"contracts/votes.sol\":2011:2016  lower */\n      dup4\n        /* \"contracts/votes.sol\":1990:2017  checkpoints[account][lower] */\n      dup2\n      mstore\n      0x20\n      add\n      swap1\n      dup2\n      mstore\n      0x20\n      add\n      0x00\n      keccak256\n        /* \"contracts/votes.sol\":1990:2023  checkpoints[account][lower].votes */\n      0x01\n      add\n      sload\n        /* \"contracts/votes.sol\":1983:2023  return checkpoints[account][lower].votes */\n      swap4\n      pop\n      pop\n      pop\n      pop\n        /* \"contracts/votes.sol\":834:2030  function getPriorVotes(address account, uint256 blockNumber) external view returns (uint256) {... */\n    tag_24:\n      swap3\n      swap2\n      pop\n      pop\n      jump\t// out\n        /* \"contracts/votes.sol\":603:824  function getCurrentVotes(address account) external view returns (uint256) {... */\n    tag_22:\n        /* \"contracts/votes.sol\":668:675  uint256 */\n      0x00\n        /* \"contracts/votes.sol\":687:707  uint256 nCheckpoints */\n      dup1\n        /* \"contracts/votes.sol\":710:724  numCheckpoints */\n      0x01\n        /* \"contracts/votes.sol\":710:733  numCheckpoints[account] */\n      0x00\n        /* \"contracts/votes.sol\":725:732  account */\n      dup5\n        /* \"contracts/votes.sol\":710:733  numCheckpoints[account] */\n      0xffffffffffffffffffffffffffffffffffffffff\n      and\n      0xffffffffffffffffffffffffffffffffffffffff\n      and\n      dup2\n      mstore\n      0x20\n      add\n      swap1\n      dup2\n      mstore\n      0x20\n      add\n      0x00\n      keccak256\n      sload\n        /* \"contracts/votes.sol\":687:733  uint256 nCheckpoints = numCheckpoints[account] */\n      swap1\n      pop\n        /* \"contracts/votes.sol\":765:766  0 */\n      0x00\n        /* \"contracts/votes.sol\":750:762  nCheckpoints */\n      dup2\n        /* \"contracts/votes.sol\":750:766  nCheckpoints > 0 */\n      gt\n        /* \"contracts/votes.sol\":750:817  nCheckpoints > 0 ? checkpoints[account][nCheckpoints - 1].votes : 0 */\n      tag_39\n      jumpi\n        /* \"contracts/votes.sol\":816:817  0 */\n      0x00\n        /* \"contracts/votes.sol\":750:817  nCheckpoints > 0 ? checkpoints[account][nCheckpoints - 1].votes : 0 */\n      jump(tag_40)\n    tag_39:\n        /* \"contracts/votes.sol\":769:780  checkpoints */\n      0x00\n        /* \"contracts/votes.sol\":769:789  checkpoints[account] */\n      dup1\n        /* \"contracts/votes.sol\":781:788  account */\n      dup5\n        /* \"contracts/votes.sol\":769:789  checkpoints[account] */\n      0xffffffffffffffffffffffffffffffffffffffff\n      and\n      0xffffffffffffffffffffffffffffffffffffffff\n      and\n      dup2\n      mstore\n      0x20\n      add\n      swap1\n      dup2\n      mstore\n      0x20\n      add\n      0x00\n      keccak256\n        /* \"contracts/votes.sol\":769:807  checkpoints[account][nCheckpoints - 1] */\n      0x00\n        /* \"contracts/votes.sol\":805:806  1 */\n      0x01\n        /* \"contracts/votes.sol\":790:802  nCheckpoints */\n      dup4\n        /* \"contracts/votes.sol\":790:806  nCheckpoints - 1 */\n      sub\n        /* \"contracts/votes.sol\":769:807  checkpoints[account][nCheckpoints - 1] */\n      dup2\n      mstore\n      0x20\n      add\n      swap1\n      dup2\n      mstore\n      0x20\n      add\n      0x00\n      keccak256\n        /* \"contracts/votes.sol\":769:813  checkpoints[account][nCheckpoints - 1].votes */\n      0x01\n      add\n      sload\n        /* \"contracts/votes.sol\":750:817  nCheckpoints > 0 ? checkpoints[account][nCheckpoints - 1].votes : 0 */\n    tag_40:\n        /* \"contracts/votes.sol\":743:817  return nCheckpoints > 0 ? checkpoints[account][nCheckpoints - 1].votes : 0 */\n      swap2\n      pop\n      pop\n        /* \"contracts/votes.sol\":603:824  function getCurrentVotes(address account) external view returns (uint256) {... */\n      swap2\n      swap1\n      pop\n      jump\t// out\n    tag_33:\n      mload(0x40)\n      dup1\n      0x40\n      add\n      0x40\n      mstore\n      dup1\n      0x00\n      dup2\n      mstore\n      0x20\n      add\n      0x00\n      dup2\n      mstore\n      pop\n      swap1\n      jump\t// out\n    stop\n    data_af7c5741dc8cf648e56d5bf296014d9d34a36f052c1eefaa826779d4817e5e92 674f484d3a3a6765745072696f72566f7465733a206e6f74207965742064657465726d696e6564\n\n    auxdata: 0xa2646970667358221220175bc040fbf4318ec4658937dd5ff754e2b5713465c2700a02f72341c4d541db64736f6c63430007050033\n}\n",
				"bytecode": {
					"linkReferences": {},
					"object": "608060405234801561001057600080fd5b506107e6806100206000396000f3fe608060405234801561001057600080fd5b50600436106100575760003560e01c80630cdfebfa1461005c57806368e17b24146100c55780636fcfff4514610113578063782d6fe11461016b578063b4b5ea57146101cd575b600080fd5b6100a86004803603604081101561007257600080fd5b81019080803573ffffffffffffffffffffffffffffffffffffffff16906020019092919080359060200190929190505050610225565b604051808381526020018281526020019250505060405180910390f35b610111600480360360408110156100db57600080fd5b81019080803573ffffffffffffffffffffffffffffffffffffffff16906020019092919080359060200190929190505050610256565b005b6101556004803603602081101561012957600080fd5b81019080803573ffffffffffffffffffffffffffffffffffffffff16906020019092919050505061039a565b6040518082815260200191505060405180910390f35b6101b76004803603604081101561018157600080fd5b81019080803573ffffffffffffffffffffffffffffffffffffffff169060200190929190803590602001909291905050506103b2565b6040518082815260200191505060405180910390f35b61020f600480360360208110156101e357600080fd5b81019080803573ffffffffffffffffffffffffffffffffffffffff1690602001909291905050506106bc565b6040518082815260200191505060405180910390f35b6000602052816000526040600020602052806000526040600020600091509150508060000154908060010154905082565b6000600160008473ffffffffffffffffffffffffffffffffffffffff1673ffffffffffffffffffffffffffffffffffffffff168152602001908152602001600020549050816000808573ffffffffffffffffffffffffffffffffffffffff1673ffffffffffffffffffffffffffffffffffffffff168152602001908152602001600020600083815260200190815260200160002060010181905550436000808573ffffffffffffffffffffffffffffffffffffffff1673ffffffffffffffffffffffffffffffffffffffff16815260200190815260200160002060008381526020019081526020016000206000018190555060018060008573ffffffffffffffffffffffffffffffffffffffff1673ffffffffffffffffffffffffffffffffffffffff16815260200190815260200160002060008282540192505081905550505050565b60016020528060005260406000206000915090505481565b600043821061040c576040517f08c379a000000000000000000000000000000000000000000000000000000000815260040180806020018281038252602781526020018061078a6027913960400191505060405180910390fd5b6000600160008573ffffffffffffffffffffffffffffffffffffffff1673ffffffffffffffffffffffffffffffffffffffff16815260200190815260200160002054905060008114156104635760009150506106b6565b826000808673ffffffffffffffffffffffffffffffffffffffff1673ffffffffffffffffffffffffffffffffffffffff1681526020019081526020016000206000600184038152602001908152602001600020600001541161051d576000808573ffffffffffffffffffffffffffffffffffffffff1673ffffffffffffffffffffffffffffffffffffffff1681526020019081526020016000206000600183038152602001908152602001600020600101549150506106b6565b826000808673ffffffffffffffffffffffffffffffffffffffff1673ffffffffffffffffffffffffffffffffffffffff16815260200190815260200160002060008081526020019081526020016000206000015411156105815760009150506106b6565b6000806001830390505b8181111561065d5760006002838303816105a157fe5b04820390506105ae61076f565b6000808973ffffffffffffffffffffffffffffffffffffffff1673ffffffffffffffffffffffffffffffffffffffff1681526020019081526020016000206000838152602001908152602001600020604051806040016040529081600082015481526020016001820154815250509050868160000151141561063b578060200151955050505050506106b6565b868160000151101561064f57819350610656565b6001820392505b505061058b565b6000808773ffffffffffffffffffffffffffffffffffffffff1673ffffffffffffffffffffffffffffffffffffffff16815260200190815260200160002060008381526020019081526020016000206001015493505050505b92915050565b600080600160008473ffffffffffffffffffffffffffffffffffffffff1673ffffffffffffffffffffffffffffffffffffffff16815260200190815260200160002054905060008111610710576000610767565b6000808473ffffffffffffffffffffffffffffffffffffffff1673ffffffffffffffffffffffffffffffffffffffff1681526020019081526020016000206000600183038152602001908152602001600020600101545b915050919050565b60405180604001604052806000815260200160008152509056fe674f484d3a3a6765745072696f72566f7465733a206e6f74207965742064657465726d696e6564a2646970667358221220175bc040fbf4318ec4658937dd5ff754e2b5713465c2700a02f72341c4d541db64736f6c63430007050033",
					"opcodes": "PUSH1 0x80 PUSH1 0x40 MSTORE CALLVALUE DUP1 ISZERO PUSH2 0x10 JUMPI PUSH1 0x0 DUP1 REVERT JUMPDEST POP PUSH2 0x7E6 DUP1 PUSH2 0x20 PUSH1 0x0 CODECOPY PUSH1 0x0 RETURN INVALID PUSH1 0x80 PUSH1 0x40 MSTORE CALLVALUE DUP1 ISZERO PUSH2 0x10 JUMPI PUSH1 0x0 DUP1 REVERT JUMPDEST POP PUSH1 0x4 CALLDATASIZE LT PUSH2 0x57 JUMPI PUSH1 0x0 CALLDATALOAD PUSH1 0xE0 SHR DUP1 PUSH4 0xCDFEBFA EQ PUSH2 0x5C JUMPI DUP1 PUSH4 0x68E17B24 EQ PUSH2 0xC5 JUMPI DUP1 PUSH4 0x6FCFFF45 EQ PUSH2 0x113 JUMPI DUP1 PUSH4 0x782D6FE1 EQ PUSH2 0x16B JUMPI DUP1 PUSH4 0xB4B5EA57 EQ PUSH2 0x1CD JUMPI JUMPDEST PUSH1 0x0 DUP1 REVERT JUMPDEST PUSH2 0xA8 PUSH1 0x4 DUP1 CALLDATASIZE SUB PUSH1 0x40 DUP2 LT ISZERO PUSH2 0x72 JUMPI PUSH1 0x0 DUP1 REVERT JUMPDEST DUP2 ADD SWAP1 DUP1 DUP1 CALLDATALOAD PUSH20 0xFFFFFFFFFFFFFFFFFFFFFFFFFFFFFFFFFFFFFFFF AND SWAP1 PUSH1 0x20 ADD SWAP1 SWAP3 SWAP2 SWAP1 DUP1 CALLDATALOAD SWAP1 PUSH1 0x20 ADD SWAP1 SWAP3 SWAP2 SWAP1 POP POP POP PUSH2 0x225 JUMP JUMPDEST PUSH1 0x40 MLOAD DUP1 DUP4 DUP2 MSTORE PUSH1 0x20 ADD DUP3 DUP2 MSTORE PUSH1 0x20 ADD SWAP3 POP POP POP PUSH1 0x40 MLOAD DUP1 SWAP2 SUB SWAP1 RETURN JUMPDEST PUSH2 0x111 PUSH1 0x4 DUP1 CALLDATASIZE SUB PUSH1 0x40 DUP2 LT ISZERO PUSH2 0xDB JUMPI PUSH1 0x0 DUP1 REVERT JUMPDEST DUP2 ADD SWAP1 DUP1 DUP1 CALLDATALOAD PUSH20 0xFFFFFFFFFFFFFFFFFFFFFFFFFFFFFFFFFFFFFFFF AND SWAP1 PUSH1 0x20 ADD SWAP1 SWAP3 SWAP2 SWAP1 DUP1 CALLDATALOAD SWAP1 PUSH1 0x20 ADD SWAP1 SWAP3 SWAP2 SWAP1 POP POP POP PUSH2 0x256 JUMP JUMPDEST STOP JUMPDEST PUSH2 0x155 PUSH1 0x4 DUP1 CALLDATASIZE SUB PUSH1 0x20 DUP2 LT ISZERO PUSH2 0x129 JUMPI PUSH1 0x0 DUP1 REVERT JUMPDEST DUP2 ADD SWAP1 DUP1 DUP1 CALLDATALOAD PUSH20 0xFFFFFFFFFFFFFFFFFFFFFFFFFFFFFFFFFFFFFFFF AND SWAP1 PUSH1 0x20 ADD SWAP1 SWAP3 SWAP2 SWAP1 POP POP POP PUSH2 0x39A JUMP JUMPDEST PUSH1 0x40 MLOAD DUP1 DUP3 DUP2 MSTORE PUSH1 0x20 ADD SWAP2 POP POP PUSH1 0x40 MLOAD DUP1 SWAP2 SUB SWAP1 RETURN JUMPDEST PUSH2 0x1B7 PUSH1 0x4 DUP1 CALLDATASIZE SUB PUSH1 0x40 DUP2 LT ISZERO PUSH2 0x181 JUMPI PUSH1 0x0 DUP1 REVERT JUMPDEST DUP2 ADD SWAP1 DUP1 DUP1 CALLDATALOAD PUSH20 0xFFFFFFFFFFFFFFFFFFFFFFFFFFFFFFFFFFFFFFFF AND SWAP1 PUSH1 0x20 ADD SWAP1 SWAP3 SWAP2 SWAP1 DUP1 CALLDATALOAD SWAP1 PUSH1 0x20 ADD SWAP1 SWAP3 SWAP2 SWAP1 POP POP POP PUSH2 0x3B2 JUMP JUMPDEST PUSH1 0x40 MLOAD DUP1 DUP3 DUP2 MSTORE PUSH1 0x20 ADD SWAP2 POP POP PUSH1 0x40 MLOAD DUP1 SWAP2 SUB SWAP1 RETURN JUMPDEST PUSH2 0x20F PUSH1 0x4 DUP1 CALLDATASIZE SUB PUSH1 0x20 DUP2 LT ISZERO PUSH2 0x1E3 JUMPI PUSH1 0x0 DUP1 REVERT JUMPDEST DUP2 ADD SWAP1 DUP1 DUP1 CALLDATALOAD PUSH20 0xFFFFFFFFFFFFFFFFFFFFFFFFFFFFFFFFFFFFFFFF AND SWAP1 PUSH1 0x20 ADD SWAP1 SWAP3 SWAP2 SWAP1 POP POP POP PUSH2 0x6BC JUMP JUMPDEST PUSH1 0x40 MLOAD DUP1 DUP3 DUP2 MSTORE PUSH1 0x20 ADD SWAP2 POP POP PUSH1 0x40 MLOAD DUP1 SWAP2 SUB SWAP1 RETURN JUMPDEST PUSH1 0x0 PUSH1 0x20 MSTORE DUP2 PUSH1 0x0 MSTORE PUSH1 0x40 PUSH1 0x0 KECCAK256 PUSH1 0x20 MSTORE DUP1 PUSH1 0x0 MSTORE PUSH1 0x40 PUSH1 0x0 KECCAK256 PUSH1 0x0 SWAP2 POP SWAP2 POP POP DUP1 PUSH1 0x0 ADD SLOAD SWAP1 DUP1 PUSH1 0x1 ADD SLOAD SWAP1 POP DUP3 JUMP JUMPDEST PUSH1 0x0 PUSH1 0x1 PUSH1 0x0 DUP5 PUSH20 0xFFFFFFFFFFFFFFFFFFFFFFFFFFFFFFFFFFFFFFFF AND PUSH20 0xFFFFFFFFFFFFFFFFFFFFFFFFFFFFFFFFFFFFFFFF AND DUP2 MSTORE PUSH1 0x20 ADD SWAP1 DUP2 MSTORE PUSH1 0x20 ADD PUSH1 0x0 KECCAK256 SLOAD SWAP1 POP DUP2 PUSH1 0x0 DUP1 DUP6 PUSH20 0xFFFFFFFFFFFFFFFFFFFFFFFFFFFFFFFFFFFFFFFF AND PUSH20 0xFFFFFFFFFFFFFFFFFFFFFFFFFFFFFFFFFFFFFFFF AND DUP2 MSTORE PUSH1 0x20 ADD SWAP1 DUP2 MSTORE PUSH1 0x20 ADD PUSH1 0x0 KECCAK256 PUSH1 0x0 DUP4 DUP2 MSTORE PUSH1 0x20 ADD SWAP1 DUP2 MSTORE PUSH1 0x20 ADD PUSH1 0x0 KECCAK256 PUSH1 0x1 ADD DUP2 SWAP1 SSTORE POP NUMBER PUSH1 0x0 DUP1 DUP6 PUSH20 0xFFFFFFFFFFFFFFFFFFFFFFFFFFFFFFFFFFFFFFFF AND PUSH20 0xFFFFFFFFFFFFFFFFFFFFFFFFFFFFFFFFFFFFFFFF AND DUP2 MSTORE PUSH1 0x20 ADD SWAP1 DUP2 MSTORE PUSH1 0x20 ADD PUSH1 0x0 KECCAK256 PUSH1 0x0 DUP4 DUP2 MSTORE PUSH1 0x20 ADD SWAP1 DUP2 MSTORE PUSH1 0x20 ADD PUSH1 0x0 KECCAK256 PUSH1 0x0 ADD DUP2 SWAP1 SSTORE POP PUSH1 0x1 DUP1 PUSH1 0x0 DUP6 PUSH20 0xFFFFFFFFFFFFFFFFFFFFFFFFFFFFFFFFFFFFFFFF AND PUSH20 0xFFFFFFFFFFFFFFFFFFFFFFFFFFFFFFFFFFFFFFFF AND DUP2 MSTORE PUSH1 0x20 ADD SWAP1 DUP2 MSTORE PUSH1 0x20 ADD PUSH1 0x0 KECCAK256 PUSH1 0x0 DUP3 DUP3 SLOAD ADD SWAP3 POP POP DUP2 SWAP1 SSTORE POP POP POP POP JUMP JUMPDEST PUSH1 0x1 PUSH1 0x20 MSTORE DUP1 PUSH1 0x0 MSTORE PUSH1 0x40 PUSH1 0x0 KECCAK256 PUSH1 0x0 SWAP2 POP SWAP1 POP SLOAD DUP2 JUMP JUMPDEST PUSH1 0x0 NUMBER DUP3 LT PUSH2 0x40C JUMPI PUSH1 0x40 MLOAD PUSH32 0x8C379A000000000000000000000000000000000000000000000000000000000 DUP2 MSTORE PUSH1 0x4 ADD DUP1 DUP1 PUSH1 0x20 ADD DUP3 DUP2 SUB DUP3 MSTORE PUSH1 0x27 DUP2 MSTORE PUSH1 0x20 ADD DUP1 PUSH2 0x78A PUSH1 0x27 SWAP2 CODECOPY PUSH1 0x40 ADD SWAP2 POP POP PUSH1 0x40 MLOAD DUP1 SWAP2 SUB SWAP1 REVERT JUMPDEST PUSH1 0x0 PUSH1 0x1 PUSH1 0x0 DUP6 PUSH20 0xFFFFFFFFFFFFFFFFFFFFFFFFFFFFFFFFFFFFFFFF AND PUSH20 0xFFFFFFFFFFFFFFFFFFFFFFFFFFFFFFFFFFFFFFFF AND DUP2 MSTORE PUSH1 0x20 ADD SWAP1 DUP2 MSTORE PUSH1 0x20 ADD PUSH1 0x0 KECCAK256 SLOAD SWAP1 POP PUSH1 0x0 DUP2 EQ ISZERO PUSH2 0x463 JUMPI PUSH1 0x0 SWAP2 POP POP PUSH2 0x6B6 JUMP JUMPDEST DUP3 PUSH1 0x0 DUP1 DUP7 PUSH20 0xFFFFFFFFFFFFFFFFFFFFFFFFFFFFFFFFFFFFFFFF AND PUSH20 0xFFFFFFFFFFFFFFFFFFFFFFFFFFFFFFFFFFFFFFFF AND DUP2 MSTORE PUSH1 0x20 ADD SWAP1 DUP2 MSTORE PUSH1 0x20 ADD PUSH1 0x0 KECCAK256 PUSH1 0x0 PUSH1 0x1 DUP5 SUB DUP2 MSTORE PUSH1 0x20 ADD SWAP1 DUP2 MSTORE PUSH1 0x20 ADD PUSH1 0x0 KECCAK256 PUSH1 0x0 ADD SLOAD GT PUSH2 0x51D JUMPI PUSH1 0x0 DUP1 DUP6 PUSH20 0xFFFFFFFFFFFFFFFFFFFFFFFFFFFFFFFFFFFFFFFF AND PUSH20 0xFFFFFFFFFFFFFFFFFFFFFFFFFFFFFFFFFFFFFFFF AND DUP2 MSTORE PUSH1 0x20 ADD SWAP1 DUP2 MSTORE PUSH1 0x20 ADD PUSH1 0x0 KECCAK256 PUSH1 0x0 PUSH1 0x1 DUP4 SUB DUP2 MSTORE PUSH1 0x20 ADD SWAP1 DUP2 MSTORE PUSH1 0x20 ADD PUSH1 0x0 KECCAK256 PUSH1 0x1 ADD SLOAD SWAP2 POP POP PUSH2 0x6B6 JUMP JUMPDEST DUP3 PUSH1 0x0 DUP1 DUP7 PUSH20 0xFFFFFFFFFFFFFFFFFFFFFFFFFFFFFFFFFFFFFFFF AND PUSH20 0xFFFFFFFFFFFFFFFFFFFFFFFFFFFFFFFFFFFFFFFF AND DUP2 MSTORE PUSH1 0x20 ADD SWAP1 DUP2 MSTORE PUSH1 0x20 ADD PUSH1 0x0 KECCAK256 PUSH1 0x0 DUP1 DUP2 MSTORE PUSH1 0x20 ADD SWAP1 DUP2 MSTORE PUSH1 0x20 ADD PUSH1 0x0 KECCAK256 PUSH1 0x0 ADD SLOAD GT ISZERO PUSH2 0x581 JUMPI PUSH1 0x0 SWAP2 POP POP PUSH2 0x6B6 JUMP JUMPDEST PUSH1 0x0 DUP1 PUSH1 0x1 DUP4 SUB SWAP1 POP JUMPDEST DUP2 DUP2 GT ISZERO PUSH2 0x65D JUMPI PUSH1 0x0 PUSH1 0x2 DUP4 DUP4 SUB DUP2 PUSH2 0x5A1 JUMPI INVALID JUMPDEST DIV DUP3 SUB SWAP1 POP PUSH2 0x5AE PUSH2 0x76F JUMP JUMPDEST PUSH1 0x0 DUP1 DUP10 PUSH20 0xFFFFFFFFFFFFFFFFFFFFFFFFFFFFFFFFFFFFFFFF AND PUSH20 0xFFFFFFFFFFFFFFFFFFFFFFFFFFFFFFFFFFFFFFFF AND DUP2 MSTORE PUSH1 0x20 ADD SWAP1 DUP2 MSTORE PUSH1 0x20 ADD PUSH1 0x0 KECCAK256 PUSH1 0x0 DUP4 DUP2 MSTORE PUSH1 0x20 ADD SWAP1 DUP2 MSTORE PUSH1 0x20 ADD PUSH1 0x0 KECCAK256 PUSH1 0x40 MLOAD DUP1 PUSH1 0x40 ADD PUSH1 0x40 MSTORE SWAP1 DUP2 PUSH1 0x0 DUP3 ADD SLOAD DUP2 MSTORE PUSH1 0x20 ADD PUSH1 0x1 DUP3 ADD SLOAD DUP2 MSTORE POP POP SWAP1 POP DUP7 DUP2 PUSH1 0x0 ADD MLOAD EQ ISZERO PUSH2 0x63B JUMPI DUP1 PUSH1 0x20 ADD MLOAD SWAP6 POP POP POP POP POP POP PUSH2 0x6B6 JUMP JUMPDEST DUP7 DUP2 PUSH1 0x0 ADD MLOAD LT ISZERO PUSH2 0x64F JUMPI DUP2 SWAP4 POP PUSH2 0x656 JUMP JUMPDEST PUSH1 0x1 DUP3 SUB SWAP3 POP JUMPDEST POP POP PUSH2 0x58B JUMP JUMPDEST PUSH1 0x0 DUP1 DUP8 PUSH20 0xFFFFFFFFFFFFFFFFFFFFFFFFFFFFFFFFFFFFFFFF AND PUSH20 0xFFFFFFFFFFFFFFFFFFFFFFFFFFFFFFFFFFFFFFFF AND DUP2 MSTORE PUSH1 0x20 ADD SWAP1 DUP2 MSTORE PUSH1 0x20 ADD PUSH1 0x0 KECCAK256 PUSH1 0x0 DUP4 DUP2 MSTORE PUSH1 0x20 ADD SWAP1 DUP2 MSTORE PUSH1 0x20 ADD PUSH1 0x0 KECCAK256 PUSH1 0x1 ADD SLOAD SWAP4 POP POP POP POP JUMPDEST SWAP3 SWAP2 POP POP JUMP JUMPDEST PUSH1 0x0 DUP1 PUSH1 0x1 PUSH1 0x0 DUP5 PUSH20 0xFFFFFFFFFFFFFFFFFFFFFFFFFFFFFFFFFFFFFFFF AND PUSH20 0xFFFFFFFFFFFFFFFFFFFFFFFFFFFFFFFFFFFFFFFF AND DUP2 MSTORE PUSH1 0x20 ADD SWAP1 DUP2 MSTORE PUSH1 0x20 ADD PUSH1 0x0 KECCAK256 SLOAD SWAP1 POP PUSH1 0x0 DUP2 GT PUSH2 0x710 JUMPI PUSH1 0x0 PUSH2 0x767 JUMP JUMPDEST PUSH1 0x0 DUP1 DUP5 PUSH20 0xFFFFFFFFFFFFFFFFFFFFFFFFFFFFFFFFFFFFFFFF AND PUSH20 0xFFFFFFFFFFFFFFFFFFFFFFFFFFFFFFFFFFFFFFFF AND DUP2 MSTORE PUSH1 0x20 ADD SWAP1 DUP2 MSTORE PUSH1 0x20 ADD PUSH1 0x0 KECCAK256 PUSH1 0x0 PUSH1 0x1 DUP4 SUB DUP2 MSTORE PUSH1 0x20 ADD SWAP1 DUP2 MSTORE PUSH1 0x20 ADD PUSH1 0x0 KECCAK256 PUSH1 0x1 ADD SLOAD JUMPDEST SWAP2 POP POP SWAP2 SWAP1 POP JUMP JUMPDEST PUSH1 0x40 MLOAD DUP1 PUSH1 0x40 ADD PUSH1 0x40 MSTORE DUP1 PUSH1 0x0 DUP2 MSTORE PUSH1 0x20 ADD PUSH1 0x0 DUP2 MSTORE POP SWAP1 JUMP INVALID PUSH8 0x4F484D3A3A676574 POP PUSH19 0x696F72566F7465733A206E6F74207965742064 PUSH6 0x7465726D696E PUSH6 0x64A264697066 PUSH20 0x58221220175BC040FBF4318EC4658937DD5FF754 0xE2 0xB5 PUSH18 0x3465C2700A02F72341C4D541DB64736F6C63 NUMBER STOP SMOD SDIV STOP CALLER "
				},
				"gasEstimates": {
					"creation": {
						"codeDepositCost": "404400",
						"executionCost": "443",
						"totalCost": "404843"
					},
					"external": {
						"Votes(address,uint256)": "62464",
						"checkpoints(address,uint256)": "2085",
						"getCurrentVotes(address)": "2279",
						"getPriorVotes(address,uint256)": "infinite",
						"numCheckpoints(address)": "1191"
					}
				},
				"methodIdentifiers": {
					"Votes(address,uint256)": "68e17b24",
					"checkpoints(address,uint256)": "0cdfebfa",
					"getCurrentVotes(address)": "b4b5ea57",
					"getPriorVotes(address,uint256)": "782d6fe1",
					"numCheckpoints(address)": "6fcfff45"
				}
			},
			"storageLayout": {
				"storage": [
					{
						"astId": 12,
						"contract": "contracts/votes.sol:votes",
						"label": "checkpoints",
						"offset": 0,
						"slot": "0",
						"type": "t_mapping(t_address,t_mapping(t_uint256,t_struct(Checkpoint)6_storage))"
					},
					{
						"astId": 16,
						"contract": "contracts/votes.sol:votes",
						"label": "numCheckpoints",
						"offset": 0,
						"slot": "1",
						"type": "t_mapping(t_address,t_uint256)"
					}
				],
				"types": {
					"t_address": {
						"encoding": "inplace",
						"label": "address",
						"numberOfBytes": "20"
					},
					"t_mapping(t_address,t_mapping(t_uint256,t_struct(Checkpoint)6_storage))": {
						"encoding": "mapping",
						"key": "t_address",
						"label": "mapping(address => mapping(uint256 => struct votes.Checkpoint))",
						"numberOfBytes": "32",
						"value": "t_mapping(t_uint256,t_struct(Checkpoint)6_storage)"
					},
					"t_mapping(t_address,t_uint256)": {
						"encoding": "mapping",
						"key": "t_address",
						"label": "mapping(address => uint256)",
						"numberOfBytes": "32",
						"value": "t_uint256"
					},
					"t_mapping(t_uint256,t_struct(Checkpoint)6_storage)": {
						"encoding": "mapping",
						"key": "t_uint256",
						"label": "mapping(uint256 => struct votes.Checkpoint)",
						"numberOfBytes": "32",
						"value": "t_struct(Checkpoint)6_storage"
					},
					"t_struct(Checkpoint)6_storage": {
						"encoding": "inplace",
						"label": "struct votes.Checkpoint",
						"members": [
							{
								"astId": 3,
								"contract": "contracts/votes.sol:votes",
								"label": "fromBlock",
								"offset": 0,
								"slot": "0",
								"type": "t_uint256"
							},
							{
								"astId": 5,
								"contract": "contracts/votes.sol:votes",
								"label": "votes",
								"offset": 0,
								"slot": "1",
								"type": "t_uint256"
							}
						],
						"numberOfBytes": "64"
					},
					"t_uint256": {
						"encoding": "inplace",
						"label": "uint256",
						"numberOfBytes": "32"
					}
				}
			},
			"userdoc": {
				"kind": "user",
				"methods": {},
				"version": 1
			}
		}
	}
}